{
  "_format": "hh-sol-artifact-1",
  "contractName": "SoulboundNFT",
  "sourceName": "contracts/SoulboundNFT.sol",
  "abi": [
    {
      "inputs": [],
      "stateMutability": "nonpayable",
      "type": "constructor"
    },
    {
      "anonymous": false,
      "inputs": [
        {
          "indexed": true,
          "internalType": "address",
          "name": "owner",
          "type": "address"
        },
        {
          "indexed": true,
          "internalType": "address",
          "name": "approved",
          "type": "address"
        },
        {
          "indexed": true,
          "internalType": "uint256",
          "name": "tokenId",
          "type": "uint256"
        }
      ],
      "name": "Approval",
      "type": "event"
    },
    {
      "anonymous": false,
      "inputs": [
        {
          "indexed": true,
          "internalType": "address",
          "name": "owner",
          "type": "address"
        },
        {
          "indexed": true,
          "internalType": "address",
          "name": "operator",
          "type": "address"
        },
        {
          "indexed": false,
          "internalType": "bool",
          "name": "approved",
          "type": "bool"
        }
      ],
      "name": "ApprovalForAll",
      "type": "event"
    },
    {
      "anonymous": false,
      "inputs": [
        {
          "indexed": false,
          "internalType": "uint8",
          "name": "version",
          "type": "uint8"
        }
      ],
      "name": "Initialized",
      "type": "event"
    },
    {
      "anonymous": false,
      "inputs": [
        {
          "indexed": false,
          "internalType": "uint256",
          "name": "tokenId",
          "type": "uint256"
        }
      ],
      "name": "Locked",
      "type": "event"
    },
    {
      "anonymous": false,
      "inputs": [
        {
          "indexed": true,
          "internalType": "address",
          "name": "previousOwner",
          "type": "address"
        },
        {
          "indexed": true,
          "internalType": "address",
          "name": "newOwner",
          "type": "address"
        }
      ],
      "name": "OwnershipTransferred",
      "type": "event"
    },
    {
      "anonymous": false,
      "inputs": [
        {
          "indexed": false,
          "internalType": "string",
          "name": "_value",
          "type": "string"
        },
        {
          "indexed": true,
          "internalType": "uint256",
          "name": "_id",
          "type": "uint256"
        }
      ],
      "name": "PermanentURI",
      "type": "event"
    },
    {
      "anonymous": false,
      "inputs": [
        {
          "indexed": true,
          "internalType": "address",
          "name": "who",
          "type": "address"
        },
        {
          "indexed": false,
          "internalType": "uint256",
          "name": "tokenId",
          "type": "uint256"
        }
      ],
      "name": "SBTBurnt",
      "type": "event"
    },
    {
      "anonymous": false,
      "inputs": [
        {
          "indexed": true,
          "internalType": "address",
          "name": "to",
          "type": "address"
        },
        {
          "indexed": false,
          "internalType": "uint256",
          "name": "tokenId",
          "type": "uint256"
        },
        {
          "indexed": false,
          "internalType": "string",
          "name": "sbtType",
          "type": "string"
        }
      ],
      "name": "SBTClaimed",
      "type": "event"
    },
    {
      "anonymous": false,
      "inputs": [
        {
          "indexed": true,
          "internalType": "address",
          "name": "from",
          "type": "address"
        },
        {
          "indexed": true,
          "internalType": "address",
          "name": "to",
          "type": "address"
        },
        {
          "indexed": true,
          "internalType": "uint256",
          "name": "tokenId",
          "type": "uint256"
        }
      ],
      "name": "Transfer",
      "type": "event"
    },
    {
      "anonymous": false,
      "inputs": [
        {
          "indexed": false,
          "internalType": "uint256",
          "name": "tokenId",
          "type": "uint256"
        }
      ],
      "name": "Unlocked",
      "type": "event"
    },
    {
      "inputs": [
        {
          "internalType": "address",
          "name": "didAddress",
          "type": "address"
        }
      ],
      "name": "addTrustedSigner",
      "outputs": [],
      "stateMutability": "nonpayable",
      "type": "function"
    },
    {
      "inputs": [
        {
          "internalType": "address",
          "name": "to",
          "type": "address"
        },
        {
          "internalType": "uint256",
          "name": "tokenId",
          "type": "uint256"
        }
      ],
      "name": "approve",
      "outputs": [],
      "stateMutability": "nonpayable",
      "type": "function"
    },
    {
      "inputs": [
        {
          "internalType": "address",
          "name": "owner",
          "type": "address"
        }
      ],
      "name": "balanceOf",
      "outputs": [
        {
          "internalType": "uint256",
          "name": "",
          "type": "uint256"
        }
      ],
      "stateMutability": "view",
      "type": "function"
    },
    {
      "inputs": [
        {
          "internalType": "uint256",
          "name": "tokenId",
          "type": "uint256"
        }
      ],
      "name": "burnSBT",
      "outputs": [],
      "stateMutability": "nonpayable",
      "type": "function"
    },
    {
      "inputs": [
        {
          "internalType": "address",
          "name": "did",
          "type": "address"
        },
        {
          "components": [
            {
              "internalType": "string",
              "name": "sbtType",
              "type": "string"
            },
            {
              "internalType": "string",
              "name": "uniqueId",
              "type": "string"
            },
            {
              "internalType": "string",
              "name": "sbtURI",
              "type": "string"
            },
            {
              "internalType": "address",
              "name": "recipient",
              "type": "address"
            },
            {
              "internalType": "bytes",
              "name": "signedData",
              "type": "bytes"
            },
            {
              "internalType": "bytes",
              "name": "signedProof",
              "type": "bytes"
            }
          ],
          "internalType": "struct ISoulboundNFT.SBTInfo",
          "name": "sbtInfo",
          "type": "tuple"
        },
        {
          "internalType": "bytes",
          "name": "requestSignature",
          "type": "bytes"
        },
        {
          "internalType": "bytes",
          "name": "requestProof",
          "type": "bytes"
        }
      ],
      "name": "claimSBT",
      "outputs": [
        {
          "internalType": "uint256",
          "name": "",
          "type": "uint256"
        }
      ],
      "stateMutability": "nonpayable",
      "type": "function"
    },
    {
      "inputs": [
        {
          "internalType": "uint256",
          "name": "tokenId",
          "type": "uint256"
        }
      ],
      "name": "getApproved",
      "outputs": [
        {
          "internalType": "address",
          "name": "",
          "type": "address"
        }
      ],
      "stateMutability": "view",
      "type": "function"
    },
    {
      "inputs": [
        {
          "internalType": "address",
          "name": "didAddress",
          "type": "address"
        }
      ],
      "name": "getClaimedSBTList",
      "outputs": [
        {
          "internalType": "uint256[]",
          "name": "",
          "type": "uint256[]"
        }
      ],
      "stateMutability": "view",
      "type": "function"
    },
    {
      "inputs": [],
      "name": "getTrustedSignerAddresses",
      "outputs": [
        {
          "internalType": "address[]",
          "name": "",
          "type": "address[]"
        }
      ],
      "stateMutability": "view",
      "type": "function"
    },
    {
      "inputs": [],
      "name": "initialize",
      "outputs": [],
      "stateMutability": "nonpayable",
      "type": "function"
    },
    {
      "inputs": [
        {
          "internalType": "address",
          "name": "owner",
          "type": "address"
        },
        {
          "internalType": "address",
          "name": "operator",
          "type": "address"
        }
      ],
      "name": "isApprovedForAll",
      "outputs": [
        {
          "internalType": "bool",
          "name": "",
          "type": "bool"
        }
      ],
      "stateMutability": "view",
      "type": "function"
    },
    {
      "inputs": [
        {
          "internalType": "address",
          "name": "claimer",
          "type": "address"
        },
        {
          "internalType": "string",
          "name": "sbtType",
          "type": "string"
        },
        {
          "internalType": "string",
          "name": "uniqueId",
          "type": "string"
        }
      ],
      "name": "isSBTClaimed",
      "outputs": [
        {
          "internalType": "bool",
          "name": "",
          "type": "bool"
        }
      ],
      "stateMutability": "view",
      "type": "function"
    },
    {
      "inputs": [
        {
          "internalType": "uint256",
          "name": "tokenId",
          "type": "uint256"
        }
      ],
      "name": "locked",
      "outputs": [
        {
          "internalType": "bool",
          "name": "",
          "type": "bool"
        }
      ],
      "stateMutability": "view",
      "type": "function"
    },
    {
      "inputs": [],
      "name": "name",
      "outputs": [
        {
          "internalType": "string",
          "name": "",
          "type": "string"
        }
      ],
      "stateMutability": "view",
      "type": "function"
    },
    {
      "inputs": [
        {
          "internalType": "address",
          "name": "did",
          "type": "address"
        }
      ],
      "name": "nonce",
      "outputs": [
        {
          "internalType": "uint256",
          "name": "",
          "type": "uint256"
        }
      ],
      "stateMutability": "view",
      "type": "function"
    },
    {
      "inputs": [],
      "name": "owner",
      "outputs": [
        {
          "internalType": "address",
          "name": "",
          "type": "address"
        }
      ],
      "stateMutability": "view",
      "type": "function"
    },
    {
      "inputs": [
        {
          "internalType": "uint256",
          "name": "tokenId",
          "type": "uint256"
        }
      ],
      "name": "ownerOf",
      "outputs": [
        {
          "internalType": "address",
          "name": "",
          "type": "address"
        }
      ],
      "stateMutability": "view",
      "type": "function"
    },
    {
      "inputs": [
        {
          "internalType": "address",
          "name": "didAddress",
          "type": "address"
        }
      ],
      "name": "removeTrustedSigner",
      "outputs": [],
      "stateMutability": "nonpayable",
      "type": "function"
    },
    {
      "inputs": [],
      "name": "renounceOwnership",
      "outputs": [],
      "stateMutability": "nonpayable",
      "type": "function"
    },
    {
      "inputs": [
        {
          "internalType": "address",
          "name": "from",
          "type": "address"
        },
        {
          "internalType": "address",
          "name": "to",
          "type": "address"
        },
        {
          "internalType": "uint256",
          "name": "tokenId",
          "type": "uint256"
        }
      ],
      "name": "safeTransferFrom",
      "outputs": [],
      "stateMutability": "nonpayable",
      "type": "function"
    },
    {
      "inputs": [
        {
          "internalType": "address",
          "name": "from",
          "type": "address"
        },
        {
          "internalType": "address",
          "name": "to",
          "type": "address"
        },
        {
          "internalType": "uint256",
          "name": "tokenId",
          "type": "uint256"
        },
        {
          "internalType": "bytes",
          "name": "data",
          "type": "bytes"
        }
      ],
      "name": "safeTransferFrom",
      "outputs": [],
      "stateMutability": "nonpayable",
      "type": "function"
    },
    {
      "inputs": [
        {
          "internalType": "address",
          "name": "operator",
          "type": "address"
        },
        {
          "internalType": "bool",
          "name": "approved",
          "type": "bool"
        }
      ],
      "name": "setApprovalForAll",
      "outputs": [],
      "stateMutability": "nonpayable",
      "type": "function"
    },
    {
      "inputs": [
        {
          "internalType": "bytes4",
          "name": "interfaceId",
          "type": "bytes4"
        }
      ],
      "name": "supportsInterface",
      "outputs": [
        {
          "internalType": "bool",
          "name": "",
          "type": "bool"
        }
      ],
      "stateMutability": "view",
      "type": "function"
    },
    {
      "inputs": [],
      "name": "symbol",
      "outputs": [
        {
          "internalType": "string",
          "name": "",
          "type": "string"
        }
      ],
      "stateMutability": "view",
      "type": "function"
    },
    {
      "inputs": [
        {
          "internalType": "uint256",
          "name": "tokenId",
          "type": "uint256"
        }
      ],
      "name": "tokenInfo",
      "outputs": [
        {
          "internalType": "string",
          "name": "",
          "type": "string"
        },
        {
          "internalType": "string",
          "name": "",
          "type": "string"
        }
      ],
      "stateMutability": "view",
      "type": "function"
    },
    {
      "inputs": [
        {
          "internalType": "uint256",
          "name": "tokenId",
          "type": "uint256"
        }
      ],
      "name": "tokenURI",
      "outputs": [
        {
          "internalType": "string",
          "name": "",
          "type": "string"
        }
      ],
      "stateMutability": "view",
      "type": "function"
    },
    {
      "inputs": [],
      "name": "totalSupply",
      "outputs": [
        {
          "internalType": "uint256",
          "name": "",
          "type": "uint256"
        }
      ],
      "stateMutability": "view",
      "type": "function"
    },
    {
      "inputs": [
        {
          "internalType": "address",
          "name": "from",
          "type": "address"
        },
        {
          "internalType": "address",
          "name": "to",
          "type": "address"
        },
        {
          "internalType": "uint256",
          "name": "tokenId",
          "type": "uint256"
        }
      ],
      "name": "transferFrom",
      "outputs": [],
      "stateMutability": "nonpayable",
      "type": "function"
    },
    {
      "inputs": [
        {
          "internalType": "address",
          "name": "newOwner",
          "type": "address"
        }
      ],
      "name": "transferOwnership",
      "outputs": [],
      "stateMutability": "nonpayable",
      "type": "function"
    }
  ],
  "bytecode": "0x60806040523480156200001157600080fd5b506200001c62000022565b620000e4565b600054610100900460ff16156200008f5760405162461bcd60e51b815260206004820152602760248201527f496e697469616c697a61626c653a20636f6e747261637420697320696e697469604482015266616c697a696e6760c81b606482015260840160405180910390fd5b60005460ff9081161015620000e2576000805460ff191660ff9081179091556040519081527f7f26b83ff96e1f2b6a682f133852f6798a09c465da95921460cefb38474024989060200160405180910390a15b565b613fd080620000f46000396000f3fe608060405234801561001057600080fd5b50600436106101c45760003560e01c80638129fc1c116100f9578063c87b56dd11610097578063e985e9c511610071578063e985e9c5146103d3578063ee575d291461040f578063f2fde38b14610424578063f76c5f821461043757600080fd5b8063c87b56dd1461038c578063cc33c8751461039f578063d0590a6c146103c057600080fd5b8063a22cb465116100d3578063a22cb46514610333578063ae48925714610346578063b45a3c0e14610366578063b88d4fde1461037957600080fd5b80638129fc1c146103125780638da5cb5b1461031a57806395d89b411461032b57600080fd5b806342842e0e1161016657806370ae92d21161014057806370ae92d2146102bb578063715018a6146102e45780637584a7e5146102ec5780637d66527b146102ff57600080fd5b806342842e0e146102825780636352211e1461029557806370a08231146102a857600080fd5b8063095ea7b3116101a2578063095ea7b31461023157806318160ddd1461024657806323b872dd1461025c5780633fff987b1461026f57600080fd5b806301ffc9a7146101c957806306fdde03146101f1578063081812fc14610206575b600080fd5b6101dc6101d7366004613509565b61044a565b60405190151581526020015b60405180910390f35b6101f96104e7565b6040516101e89190613576565b610219610214366004613589565b610579565b6040516001600160a01b0390911681526020016101e8565b61024461023f3660046135be565b6105a0565b005b61024e6106f4565b6040519081526020016101e8565b61024461026a3660046135e8565b610704565b61024461027d366004613624565b61078b565b6102446102903660046135e8565b6107fa565b6102196102a3366004613589565b610815565b61024e6102b6366004613624565b61087a565b61024e6102c9366004613624565b6001600160a01b031660009081526065602052604090205490565b610244610914565b61024e6102fa366004613681565b610928565b61024461030d366004613624565b610e82565b610244610eec565b6033546001600160a01b0316610219565b6101f9611080565b61024461034136600461372e565b61108f565b610359610354366004613624565b61109a565b6040516101e8919061376a565b6101dc610374366004613589565b611155565b6102446103873660046137c4565b611183565b6101f961039a366004613589565b611211565b6103b26103ad366004613589565b61121c565b6040516101e89291906138a0565b6101dc6103ce3660046138ce565b61135e565b6101dc6103e136600461394f565b6001600160a01b039182166000908152609f6020908152604080832093909416825291909152205460ff1690565b6104176113c3565b6040516101e89190613982565b610244610432366004613624565b611473565b610244610445366004613589565b611500565b60006001600160e01b031982167f80ac58cd0000000000000000000000000000000000000000000000000000000014806104ad57506001600160e01b031982167f5b5e139f00000000000000000000000000000000000000000000000000000000145b806104e157507f01ffc9a7000000000000000000000000000000000000000000000000000000006001600160e01b03198316145b92915050565b6060609a80546104f6906139c3565b80601f0160208091040260200160405190810160405280929190818152602001828054610522906139c3565b801561056f5780601f106105445761010080835404028352916020019161056f565b820191906000526020600020905b81548152906001019060200180831161055257829003601f168201915b5050505050905090565b600061058482611673565b506000908152609e60205260409020546001600160a01b031690565b60006105ab82610815565b9050806001600160a01b0316836001600160a01b0316036106395760405162461bcd60e51b815260206004820152602160248201527f4552433732313a20617070726f76616c20746f2063757272656e74206f776e6560448201527f720000000000000000000000000000000000000000000000000000000000000060648201526084015b60405180910390fd5b336001600160a01b038216148061067357506001600160a01b0381166000908152609f6020908152604080832033845290915290205460ff165b6106e55760405162461bcd60e51b815260206004820152603e60248201527f4552433732313a20617070726f76652063616c6c6572206973206e6f7420746f60448201527f6b656e206f776e6572206e6f7220617070726f76656420666f7220616c6c00006064820152608401610630565b6106ef83836116d7565b505050565b60006106ff60fe5490565b905090565b61070e3382611745565b6107805760405162461bcd60e51b815260206004820152602e60248201527f4552433732313a2063616c6c6572206973206e6f7420746f6b656e206f776e6560448201527f72206e6f7220617070726f7665640000000000000000000000000000000000006064820152608401610630565b6106ef8383836117c4565b6107936119a2565b61079e6066826119fc565b156107eb5760405162461bcd60e51b815260206004820152601260248201527f416c7265616479207265676973746572656400000000000000000000000000006044820152606401610630565b6107f6606682611a21565b5050565b6106ef83838360405180602001604052806000815250611183565b6000818152609c60205260408120546001600160a01b0316806104e15760405162461bcd60e51b815260206004820152601860248201527f4552433732313a20696e76616c696420746f6b656e20494400000000000000006044820152606401610630565b60006001600160a01b0382166108f85760405162461bcd60e51b815260206004820152602960248201527f4552433732313a2061646472657373207a65726f206973206e6f74206120766160448201527f6c6964206f776e657200000000000000000000000000000000000000000000006064820152608401610630565b506001600160a01b03166000908152609d602052604090205490565b61091c6119a2565b6109266000611a36565b565b600061093c61093787806139fd565b611a88565b6109885760405162461bcd60e51b815260206004820152601060248201527f496e76616c6964205342542074797065000000000000000000000000000000006044820152606401610630565b60008761099588806139fd565b6109a260208b018b6139fd565b6109af60408d018d6139fd565b8d60600160208101906109c29190613624565b6040516020016109d9989796959493929190613a44565b60408051601f198184030181529190529050806109f960808901896139fd565b610a0660a08b018b6139fd565b604051602001610a1a959493929190613aa7565b60408051601f198184030181526020601f89018190048102840181019092528783529250610a9b918a918491908a908a908190840183828082843760009201919091525050604080516020601f8c018190048102820181019092528a815292508a9150899081908401838280828437600092019190915250611c3392505050565b610aa587806139fd565b610ab260208a018a6139fd565b8b604051602001610ac7959493929190613add565b60408051601f198184030181529190529050610b6681610aea60808a018a6139fd565b8080601f016020809104026020016040519081016040528093929190818152602001838380828437600092019190915250610b2c9250505060a08b018b6139fd565b8080601f016020809104026020016040519081016040528093929190818152602001838380828437600092019190915250611d0292505050565b506101016000610b7c6080890160608a01613624565b6001600160a01b031681526020810191909152604001600020610b9f87806139fd565b604051610bad929190613b25565b9081526020016040518091039020868060200190610bcb91906139fd565b604051610bd9929190613b25565b908152602001604051809103902054600014610c375760405162461bcd60e51b815260206004820152601460248201527f416c726561647920636c61696d656420747970650000000000000000000000006044820152606401610630565b610c4560fe80546001019055565b6000610c5060fe5490565b9050610c6b610c656080890160608a01613624565b82611eae565b610cb681610c7c60408a018a6139fd565b8080601f016020809104026020016040519081016040528093929190818152602001838380828437600092019190915250611ec892505050565b806101016000610ccc60808b0160608c01613624565b6001600160a01b031681526020810191909152604001600020610cef89806139fd565b604051610cfd929190613b25565b9081526020016040518091039020888060200190610d1b91906139fd565b604051610d29929190613b25565b90815260405190819003602001902055610d4387806139fd565b60008381526101026020526040902091610d5e919083613b83565b50610d6c60208801886139fd565b60008381526101026020526040902060010191610d8a919083613b83565b50610d9b6080880160608901613624565b6001600160a01b03167fb383543c70ed44f2b690ec837b9f2cbb2b0e346d0eb00c5f470c424777013ed982610dd08a806139fd565b604051610ddf93929190613c6d565b60405180910390a2610e1f816101036000610e0060808c0160608d01613624565b6001600160a01b03168152602081019190915260400160002090611f6a565b50610e32610e2d88806139fd565b611f76565b807fa109ba539900bf1b633f956d63c96fc89b814c7287f7aa50a9216d0b55657207610e6160408a018a6139fd565b604051610e6f929190613c87565b60405180910390a2979650505050505050565b610e8a6119a2565b610e956066826119fc565b610ee15760405162461bcd60e51b815260206004820152601460248201527f556e7265676973746572656420616464726573730000000000000000000000006044820152606401610630565b6107f6606682612000565b600054610100900460ff1615808015610f0c5750600054600160ff909116105b80610f265750303b158015610f26575060005460ff166001145b610f985760405162461bcd60e51b815260206004820152602e60248201527f496e697469616c697a61626c653a20636f6e747261637420697320616c72656160448201527f647920696e697469616c697a65640000000000000000000000000000000000006064820152608401610630565b6000805460ff191660011790558015610fbb576000805461ff0019166101001790555b61102f6040518060400160405280600a81526020017f56657269646120534254000000000000000000000000000000000000000000008152506040518060400160405280600481526020017f5653425400000000000000000000000000000000000000000000000000000000815250612015565b61103761208a565b801561107d576000805461ff0019169055604051600181527f7f26b83ff96e1f2b6a682f133852f6798a09c465da95921460cefb38474024989060200160405180910390a15b50565b6060609b80546104f6906139c3565b6107f6338383612105565b606060006110a78361087a565b905060008167ffffffffffffffff8111156110c4576110c46137ae565b6040519080825280602002602001820160405280156110ed578160200160208202803683370190505b50905060005b8281101561114d576001600160a01b03851660009081526101036020526040902061111e90826121d3565b82828151811061113057611130613c9b565b60209081029190910101528061114581613cc7565b9150506110f3565b509392505050565b60008061116183610815565b90506001600160a01b03811661117a5750600092915050565b50600192915050565b61118d3383611745565b6111ff5760405162461bcd60e51b815260206004820152602e60248201527f4552433732313a2063616c6c6572206973206e6f7420746f6b656e206f776e6560448201527f72206e6f7220617070726f7665640000000000000000000000000000000000006064820152608401610630565b61120b848484846121df565b50505050565b60606104e18261225d565b60608061122883611673565b600083815261010260205260409020805460018201908290611249906139c3565b80601f0160208091040260200160405190810160405280929190818152602001828054611275906139c3565b80156112c25780601f10611297576101008083540402835291602001916112c2565b820191906000526020600020905b8154815290600101906020018083116112a557829003601f168201915b505050505091508080546112d5906139c3565b80601f0160208091040260200160405190810160405280929190818152602001828054611301906139c3565b801561134e5780601f106113235761010080835404028352916020019161134e565b820191906000526020600020905b81548152906001019060200180831161133157829003601f168201915b5050505050905091509150915091565b6001600160a01b03851660009081526101016020526040808220905182919061138a9088908890613b25565b908152602001604051809103902084846040516113a8929190613b25565b90815260200160405180910390205411905095945050505050565b606060006113d16066612365565b905060008167ffffffffffffffff8111156113ee576113ee6137ae565b604051908082528060200260200182016040528015611417578160200160208202803683370190505b50905060005b8281101561146c576114306066826121d3565b82828151811061144257611442613c9b565b6001600160a01b03909216602092830291909101909101528061146481613cc7565b91505061141d565b5092915050565b61147b6119a2565b6001600160a01b0381166114f75760405162461bcd60e51b815260206004820152602660248201527f4f776e61626c653a206e6577206f776e657220697320746865207a65726f206160448201527f64647265737300000000000000000000000000000000000000000000000000006064820152608401610630565b61107d81611a36565b600061150b82610815565b9050336001600160a01b038216148061152e57506033546001600160a01b031633145b61157a5760405162461bcd60e51b815260206004820152601160248201527f496e76616c6964206f7065726174696f6e0000000000000000000000000000006044820152606401610630565b6115838261236f565b6000828152610102602090815260408083206001600160a01b03851684526101039092529091206115b490846123af565b506001600160a01b038216600090815261010160205260409081902090516115dd908390613ce0565b9081526020016040518091039020816001016040516115fc9190613ce0565b908152604080516020928190038301902060009081905585815261010290925281209061162982826134a5565b6116376001830160006134a5565b505060405183815233907fc643619513d946ade440841d379d0a1e84cfdd3610c6e1b1bad092959cb2d4519060200160405180910390a2505050565b6000818152609c60205260409020546001600160a01b031661107d5760405162461bcd60e51b815260206004820152601860248201527f4552433732313a20696e76616c696420746f6b656e20494400000000000000006044820152606401610630565b6000818152609e6020526040902080546001600160a01b0319166001600160a01b038416908117909155819061170c82610815565b6001600160a01b03167f8c5be1e5ebec7d5bd14f71427d1e84f3dd0314c0f7b2291e5b200ac8c7c3b92560405160405180910390a45050565b60008061175183610815565b9050806001600160a01b0316846001600160a01b0316148061179857506001600160a01b038082166000908152609f602090815260408083209388168352929052205460ff165b806117bc5750836001600160a01b03166117b184610579565b6001600160a01b0316145b949350505050565b826001600160a01b03166117d782610815565b6001600160a01b0316146118535760405162461bcd60e51b815260206004820152602560248201527f4552433732313a207472616e736665722066726f6d20696e636f72726563742060448201527f6f776e65720000000000000000000000000000000000000000000000000000006064820152608401610630565b6001600160a01b0382166118ce5760405162461bcd60e51b8152602060048201526024808201527f4552433732313a207472616e7366657220746f20746865207a65726f2061646460448201527f72657373000000000000000000000000000000000000000000000000000000006064820152608401610630565b6118d98383836123bb565b6118e46000826116d7565b6001600160a01b0383166000908152609d6020526040812080546001929061190d908490613d56565b90915550506001600160a01b0382166000908152609d6020526040812080546001929061193b908490613d69565b90915550506000818152609c602052604080822080546001600160a01b0319166001600160a01b0386811691821790925591518493918716917fddf252ad1be2c89b69c2b068fc378daa952ba7f163c4a11628f55a4df523b3ef91a46106ef838383612424565b6033546001600160a01b031633146109265760405162461bcd60e51b815260206004820181905260248201527f4f776e61626c653a2063616c6c6572206973206e6f7420746865206f776e65726044820152606401610630565b6001600160a01b038116600090815260018301602052604081205415155b9392505050565b6000611a1a836001600160a01b0384166124b4565b603380546001600160a01b038381166001600160a01b0319831681179093556040519116919082907f8be0079c531659141344cd1fd0a4f28419497f9722a3daafe3b4186f6b6457e090600090a35050565b60008060019050611ad284848080601f01602080910402602001604051908101604052809392919081815260200183838082843760009201919091525060ff939250506125039050565b611a1a57600084848080601f01602080910402602001604051908101604052809392919081815260200183838082843760009201829052509394505050505b815181108015611b1e5750825b15611c2a57606160f81b828281518110611b3a57611b3a613c9b565b01602001516001600160f81b03191610801590611b7b5750607a60f81b828281518110611b6957611b69613c9b565b01602001516001600160f81b03191611155b158015611bdd5750603060f81b828281518110611b9a57611b9a613c9b565b01602001516001600160f81b03191610801590611bdb5750603960f81b828281518110611bc957611bc9613c9b565b01602001516001600160f81b03191611155b155b8015611c0e5750818181518110611bf657611bf6613c9b565b6020910101516001600160f81b031916602d60f81b14155b15611c1857600092505b80611c2281613cc7565b915050611b11565b50509392505050565b6001600160a01b0384166000908152606560209081526040808320549051909291611c62918791859101613d7c565b60408051601f198184030181526001808452838301909252925060009190602080830190803683370190505090508681600081518110611ca457611ca4613c9b565b60200260200101906001600160a01b031690816001600160a01b031681525050611cd082868684612530565b6001600160a01b0387166000908152606560205260408120805491611cf483613cc7565b919050555050505050505050565b6000611d0e6066612365565b11611d5b5760405162461bcd60e51b815260206004820152601360248201527f4e6f207369676e6572732070726f7669646564000000000000000000000000006044820152606401610630565b825160208401206000611d6e82856126dc565b90506000611d84826001600160a01b03166126f8565b90506000805b611d946066612365565b81108015611da0575081155b15611e45576000611db26066836121d3565b90506000611dc8826001600160a01b03166126f8565b905060008186604051602001611ddf929190613d9e565b60408051601f19818403018152919052805160208201209091506000611e05828c6126dc565b9050846001600160a01b0316816001600160a01b031603611e2e57600196505050505050611e45565b85611e3881613cc7565b9650505050505050611d8a565b81611ea45760405162461bcd60e51b815260206004820152602960248201527f44617461206973206e6f74207369676e656420627920612076616c696420736960448201526819db9a5b99c811125160ba1b6064820152608401610630565b5050505050505050565b6107f6828260405180602001604052806000815250612768565b6000828152609c60205260409020546001600160a01b0316611f525760405162461bcd60e51b815260206004820152602e60248201527f45524337323155524953746f726167653a2055524920736574206f66206e6f6e60448201527f6578697374656e7420746f6b656e0000000000000000000000000000000000006064820152608401610630565b600082815260cc602052604090206106ef8282613dcd565b6000611a1a83836124b4565b611fb982828080601f01602080910402602001604051908101604052809392919081815260200183838082843760009201919091525060ff939250506125039050565b6107f6576106ef82828080601f01602080910402602001604051908101604052809392919081815260200183838082843760009201919091525060ff939250506127e69050565b6000611a1a836001600160a01b038416612840565b600054610100900460ff166120805760405162461bcd60e51b815260206004820152602b60248201527f496e697469616c697a61626c653a20636f6e7472616374206973206e6f74206960448201526a6e697469616c697a696e6760a81b6064820152608401610630565b6107f68282612933565b600054610100900460ff166120f55760405162461bcd60e51b815260206004820152602b60248201527f496e697469616c697a61626c653a20636f6e7472616374206973206e6f74206960448201526a6e697469616c697a696e6760a81b6064820152608401610630565b6120fd6129b7565b610926612a2a565b816001600160a01b0316836001600160a01b0316036121665760405162461bcd60e51b815260206004820152601960248201527f4552433732313a20617070726f766520746f2063616c6c6572000000000000006044820152606401610630565b6001600160a01b038381166000818152609f6020908152604080832094871680845294825291829020805460ff191686151590811790915591519182527f17307eab39ab6107e8899845ad3d59bd9653f200f220920489ca2b5937696c31910160405180910390a3505050565b6000611a1a8383612a95565b6121ea8484846117c4565b6121f684848484612abf565b61120b5760405162461bcd60e51b815260206004820152603260248201527f4552433732313a207472616e7366657220746f206e6f6e20455243373231526560448201527131b2b4bb32b91034b6b83632b6b2b73a32b960711b6064820152608401610630565b606061226882611673565b600082815260cc602052604081208054612281906139c3565b80601f01602080910402602001604051908101604052809291908181526020018280546122ad906139c3565b80156122fa5780601f106122cf576101008083540402835291602001916122fa565b820191906000526020600020905b8154815290600101906020018083116122dd57829003601f168201915b50505050509050600061231860408051602081019091526000815290565b9050805160000361232a575092915050565b81511561235c578082604051602001612344929190613d9e565b60405160208183030381529060405292505050919050565b6117bc84612c0b565b60006104e1825490565b61237881612c7e565b600081815260cc602052604090208054612391906139c3565b15905061107d57600081815260cc6020526040812061107d916134a5565b6000611a1a8383612840565b6001600160a01b03831615806123d857506001600160a01b038216155b6106ef5760405162461bcd60e51b815260206004820152601e60248201527f4572723a20746f6b656e207472616e7366657220697320424c4f434b454400006044820152606401610630565b6001600160a01b03821661246a576040518181527ff27b6ce5b2f5e68ddb2fd95a8a909d4ecf1daaac270935fff052feacb24f18429060200160405180910390a1505050565b6001600160a01b03821661dead146106ef576040518181527f032bc66be43dbccb7487781d168eb7bda224628a3b2c3388bdf69b532a3a16119060200160405180910390a1505050565b60008181526001830160205260408120546124fb575081546001818101845560008481526020808220909301849055845484825282860190935260409020919091556104e1565b5060006104e1565b600082600101826040516125179190613e8d565b9081526040519081900360200190205415159392505050565b60008151116125815760405162461bcd60e51b815260206004820152601360248201527f4e6f207369676e6572732070726f7669646564000000000000000000000000006044820152606401610630565b83516020850120600061259482866126dc565b905060006125aa826001600160a01b03166126f8565b90506000805b8551811080156125be575081155b156126725760008682815181106125d7576125d7613c9b565b6020026020010151905060006125f5826001600160a01b03166126f8565b90506000818660405160200161260c929190613d9e565b60408051601f19818403018152919052805160208201209091506000612632828d6126dc565b9050846001600160a01b0316816001600160a01b03160361265b57600196505050505050612672565b8561266581613cc7565b96505050505050506125b0565b816126d15760405162461bcd60e51b815260206004820152602960248201527f44617461206973206e6f74207369676e656420627920612076616c696420736960448201526819db9a5b99c811125160ba1b6064820152608401610630565b505050505050505050565b60008060006126eb8585612d2d565b9150915061114d81612d72565b60608160000361273b57505060408051808201909152600481527f3078303000000000000000000000000000000000000000000000000000000000602082015290565b8160005b811561275e578061274f81613cc7565b915050600882901c915061273f565b6117bc8482612f28565b61277283836130ed565b61277f6000848484612abf565b6106ef5760405162461bcd60e51b815260206004820152603260248201527f4552433732313a207472616e7366657220746f206e6f6e20455243373231526560448201527131b2b4bb32b91034b6b83632b6b2b73a32b960711b6064820152608401610630565b60006127f28383612503565b6124fb578254600181018455600084815260209020016128128382613dcd565b5082546040516001850190612828908590613e8d565b908152604051908190036020019020555060016104e1565b60008181526001830160205260408120548015612929576000612864600183613d56565b855490915060009061287890600190613d56565b90508181146128dd57600086600001828154811061289857612898613c9b565b90600052602060002001549050808760000184815481106128bb576128bb613c9b565b6000918252602080832090910192909255918252600188019052604090208390555b85548690806128ee576128ee613ea9565b6001900381819060005260206000200160009055905585600101600086815260200190815260200160002060009055600193505050506104e1565b60009150506104e1565b600054610100900460ff1661299e5760405162461bcd60e51b815260206004820152602b60248201527f496e697469616c697a61626c653a20636f6e7472616374206973206e6f74206960448201526a6e697469616c697a696e6760a81b6064820152608401610630565b609a6129aa8382613dcd565b50609b6106ef8282613dcd565b600054610100900460ff16612a225760405162461bcd60e51b815260206004820152602b60248201527f496e697469616c697a61626c653a20636f6e7472616374206973206e6f74206960448201526a6e697469616c697a696e6760a81b6064820152608401610630565b610926613243565b600054610100900460ff166109265760405162461bcd60e51b815260206004820152602b60248201527f496e697469616c697a61626c653a20636f6e7472616374206973206e6f74206960448201526a6e697469616c697a696e6760a81b6064820152608401610630565b6000826000018281548110612aac57612aac613c9b565b9060005260206000200154905092915050565b60006001600160a01b0384163b15612c0057604051630a85bd0160e11b81526001600160a01b0385169063150b7a0290612b03903390899088908890600401613ebf565b6020604051808303816000875af1925050508015612b3e575060408051601f3d908101601f19168201909252612b3b91810190613efb565b60015b612be6573d808015612b6c576040519150601f19603f3d011682016040523d82523d6000602084013e612b71565b606091505b508051600003612bde5760405162461bcd60e51b815260206004820152603260248201527f4552433732313a207472616e7366657220746f206e6f6e20455243373231526560448201527131b2b4bb32b91034b6b83632b6b2b73a32b960711b6064820152608401610630565b805181602001fd5b6001600160e01b031916630a85bd0160e11b1490506117bc565b506001949350505050565b6060612c1682611673565b6000612c2d60408051602081019091526000815290565b90506000815111612c4d5760405180602001604052806000815250611a1a565b80612c57846132b7565b604051602001612c68929190613d9e565b6040516020818303038152906040529392505050565b6000612c8982610815565b9050612c97816000846123bb565b612ca26000836116d7565b6001600160a01b0381166000908152609d60205260408120805460019290612ccb908490613d56565b90915550506000828152609c602052604080822080546001600160a01b0319169055518391906001600160a01b038416907fddf252ad1be2c89b69c2b068fc378daa952ba7f163c4a11628f55a4df523b3ef908390a46107f681600084612424565b6000808251604103612d635760208301516040840151606085015160001a612d57878285856133b8565b94509450505050612d6b565b506000905060025b9250929050565b6000816004811115612d8657612d86613f18565b03612d8e5750565b6001816004811115612da257612da2613f18565b03612def5760405162461bcd60e51b815260206004820152601860248201527f45434453413a20696e76616c6964207369676e617475726500000000000000006044820152606401610630565b6002816004811115612e0357612e03613f18565b03612e505760405162461bcd60e51b815260206004820152601f60248201527f45434453413a20696e76616c6964207369676e6174757265206c656e677468006044820152606401610630565b6003816004811115612e6457612e64613f18565b03612ebc5760405162461bcd60e51b815260206004820152602260248201527f45434453413a20696e76616c6964207369676e6174757265202773272076616c604482015261756560f01b6064820152608401610630565b6004816004811115612ed057612ed0613f18565b0361107d5760405162461bcd60e51b815260206004820152602260248201527f45434453413a20696e76616c6964207369676e6174757265202776272076616c604482015261756560f01b6064820152608401610630565b60606000612f37836002613f2e565b612f42906002613d69565b67ffffffffffffffff811115612f5a57612f5a6137ae565b6040519080825280601f01601f191660200182016040528015612f84576020820181803683370190505b509050600360fc1b81600081518110612f9f57612f9f613c9b565b60200101906001600160f81b031916908160001a9053507f780000000000000000000000000000000000000000000000000000000000000081600181518110612fea57612fea613c9b565b60200101906001600160f81b031916908160001a905350600061300e846002613f2e565b613019906001613d69565b90505b600181111561309e577f303132333435363738396162636465660000000000000000000000000000000085600f166010811061305a5761305a613c9b565b1a60f81b82828151811061307057613070613c9b565b60200101906001600160f81b031916908160001a90535060049490941c9361309781613f45565b905061301c565b508315611a1a5760405162461bcd60e51b815260206004820181905260248201527f537472696e67733a20686578206c656e67746820696e73756666696369656e746044820152606401610630565b6001600160a01b0382166131435760405162461bcd60e51b815260206004820181905260248201527f4552433732313a206d696e7420746f20746865207a65726f20616464726573736044820152606401610630565b6000818152609c60205260409020546001600160a01b0316156131a85760405162461bcd60e51b815260206004820152601c60248201527f4552433732313a20746f6b656e20616c7265616479206d696e746564000000006044820152606401610630565b6131b4600083836123bb565b6001600160a01b0382166000908152609d602052604081208054600192906131dd908490613d69565b90915550506000818152609c602052604080822080546001600160a01b0319166001600160a01b03861690811790915590518392907fddf252ad1be2c89b69c2b068fc378daa952ba7f163c4a11628f55a4df523b3ef908290a46107f660008383612424565b600054610100900460ff166132ae5760405162461bcd60e51b815260206004820152602b60248201527f496e697469616c697a61626c653a20636f6e7472616374206973206e6f74206960448201526a6e697469616c697a696e6760a81b6064820152608401610630565b61092633611a36565b6060816000036132de5750506040805180820190915260018152600360fc1b602082015290565b8160005b811561330857806132f281613cc7565b91506133019050600a83613f72565b91506132e2565b60008167ffffffffffffffff811115613323576133236137ae565b6040519080825280601f01601f19166020018201604052801561334d576020820181803683370190505b5090505b84156117bc57613362600183613d56565b915061336f600a86613f86565b61337a906030613d69565b60f81b81838151811061338f5761338f613c9b565b60200101906001600160f81b031916908160001a9053506133b1600a86613f72565b9450613351565b6000807f7fffffffffffffffffffffffffffffff5d576e7357a4501ddfe92f46681b20a08311156133ef575060009050600361349c565b8460ff16601b1415801561340757508460ff16601c14155b15613418575060009050600461349c565b6040805160008082526020820180845289905260ff881692820192909252606081018690526080810185905260019060a0016020604051602081039080840390855afa15801561346c573d6000803e3d6000fd5b5050604051601f1901519150506001600160a01b0381166134955760006001925092505061349c565b9150600090505b94509492505050565b5080546134b1906139c3565b6000825580601f106134c1575050565b601f01602090049060005260206000209081019061107d91905b808211156134ef57600081556001016134db565b5090565b6001600160e01b03198116811461107d57600080fd5b60006020828403121561351b57600080fd5b8135611a1a816134f3565b60005b83811015613541578181015183820152602001613529565b50506000910152565b60008151808452613562816020860160208601613526565b601f01601f19169290920160200192915050565b602081526000611a1a602083018461354a565b60006020828403121561359b57600080fd5b5035919050565b80356001600160a01b03811681146135b957600080fd5b919050565b600080604083850312156135d157600080fd5b6135da836135a2565b946020939093013593505050565b6000806000606084860312156135fd57600080fd5b613606846135a2565b9250613614602085016135a2565b9150604084013590509250925092565b60006020828403121561363657600080fd5b611a1a826135a2565b60008083601f84011261365157600080fd5b50813567ffffffffffffffff81111561366957600080fd5b602083019150836020828501011115612d6b57600080fd5b6000806000806000806080878903121561369a57600080fd5b6136a3876135a2565b9550602087013567ffffffffffffffff808211156136c057600080fd5b9088019060c0828b0312156136d457600080fd5b909550604088013590808211156136ea57600080fd5b6136f68a838b0161363f565b9096509450606089013591508082111561370f57600080fd5b5061371c89828a0161363f565b979a9699509497509295939492505050565b6000806040838503121561374157600080fd5b61374a836135a2565b91506020830135801515811461375f57600080fd5b809150509250929050565b6020808252825182820181905260009190848201906040850190845b818110156137a257835183529284019291840191600101613786565b50909695505050505050565b634e487b7160e01b600052604160045260246000fd5b600080600080608085870312156137da57600080fd5b6137e3856135a2565b93506137f1602086016135a2565b925060408501359150606085013567ffffffffffffffff8082111561381557600080fd5b818701915087601f83011261382957600080fd5b81358181111561383b5761383b6137ae565b604051601f8201601f19908116603f01168101908382118183101715613863576138636137ae565b816040528281528a602084870101111561387c57600080fd5b82602086016020830137600060208483010152809550505050505092959194509250565b6040815260006138b3604083018561354a565b82810360208401526138c5818561354a565b95945050505050565b6000806000806000606086880312156138e657600080fd5b6138ef866135a2565b9450602086013567ffffffffffffffff8082111561390c57600080fd5b61391889838a0161363f565b9096509450604088013591508082111561393157600080fd5b5061393e8882890161363f565b969995985093965092949392505050565b6000806040838503121561396257600080fd5b61396b836135a2565b9150613979602084016135a2565b90509250929050565b6020808252825182820181905260009190848201906040850190845b818110156137a25783516001600160a01b03168352928401929184019160010161399e565b600181811c908216806139d757607f821691505b6020821081036139f757634e487b7160e01b600052602260045260246000fd5b50919050565b6000808335601e19843603018112613a1457600080fd5b83018035915067ffffffffffffffff821115613a2f57600080fd5b602001915036819003821315612d6b57600080fd5b60006bffffffffffffffffffffffff19808b60601b168352888a60148501378883016014810160008152888a82375087810190506014810160008152868882375060609490941b1692909301601481019290925250602801979650505050505050565b60008651613ab9818460208b01613526565b82018587823760009086019081528385823760009301928352509095945050505050565b848682376000858201602d60f81b8082528587600184013760019190950190810194909452505060601b6bffffffffffffffffffffffff191660028201526016019392505050565b8183823760009101908152919050565b601f8211156106ef57600081815260208120601f850160051c81016020861015613b5c5750805b601f850160051c820191505b81811015613b7b57828155600101613b68565b505050505050565b67ffffffffffffffff831115613b9b57613b9b6137ae565b613baf83613ba983546139c3565b83613b35565b6000601f841160018114613be35760008515613bcb5750838201355b600019600387901b1c1916600186901b178355613c3d565b600083815260209020601f19861690835b82811015613c145786850135825560209485019460019092019101613bf4565b5086821015613c315760001960f88860031b161c19848701351681555b505060018560011b0183555b5050505050565b81835281816020850137506000828201602090810191909152601f909101601f19169091010190565b8381526040602082015260006138c5604083018486613c44565b6020815260006117bc602083018486613c44565b634e487b7160e01b600052603260045260246000fd5b634e487b7160e01b600052601160045260246000fd5b600060018201613cd957613cd9613cb1565b5060010190565b6000808354613cee816139c3565b60018281168015613d065760018114613d1b57613d4a565b60ff1984168752821515830287019450613d4a565b8760005260208060002060005b85811015613d415781548a820152908401908201613d28565b50505082870194505b50929695505050505050565b818103818111156104e1576104e1613cb1565b808201808211156104e1576104e1613cb1565b60008351613d8e818460208801613526565b9190910191825250602001919050565b60008351613db0818460208801613526565b835190830190613dc4818360208801613526565b01949350505050565b815167ffffffffffffffff811115613de757613de76137ae565b613dfb81613df584546139c3565b84613b35565b602080601f831160018114613e305760008415613e185750858301515b600019600386901b1c1916600185901b178555613b7b565b600085815260208120601f198616915b82811015613e5f57888601518255948401946001909101908401613e40565b5085821015613e7d5787850151600019600388901b60f8161c191681555b5050505050600190811b01905550565b60008251613e9f818460208701613526565b9190910192915050565b634e487b7160e01b600052603160045260246000fd5b60006001600160a01b03808716835280861660208401525083604083015260806060830152613ef1608083018461354a565b9695505050505050565b600060208284031215613f0d57600080fd5b8151611a1a816134f3565b634e487b7160e01b600052602160045260246000fd5b80820281158282048414176104e1576104e1613cb1565b600081613f5457613f54613cb1565b506000190190565b634e487b7160e01b600052601260045260246000fd5b600082613f8157613f81613f5c565b500490565b600082613f9557613f95613f5c565b50069056fea2646970667358221220b44841c3131c95356b42b3562217ef4ce7ad1f8ffee86fc6b2451560482384e164736f6c63430008110033",
  "linkReferences": {},
  "deployedLinkReferences": {}
}