{
  "_format": "hh-sol-artifact-1",
  "contractName": "SoulboundNFT",
  "sourceName": "contracts/SoulboundNFT.sol",
  "abi": [
    {
      "inputs": [],
      "stateMutability": "nonpayable",
      "type": "constructor"
    },
    {
      "anonymous": false,
      "inputs": [
        {
          "indexed": true,
          "internalType": "address",
          "name": "owner",
          "type": "address"
        },
        {
          "indexed": true,
          "internalType": "address",
          "name": "approved",
          "type": "address"
        },
        {
          "indexed": true,
          "internalType": "uint256",
          "name": "tokenId",
          "type": "uint256"
        }
      ],
      "name": "Approval",
      "type": "event"
    },
    {
      "anonymous": false,
      "inputs": [
        {
          "indexed": true,
          "internalType": "address",
          "name": "owner",
          "type": "address"
        },
        {
          "indexed": true,
          "internalType": "address",
          "name": "operator",
          "type": "address"
        },
        {
          "indexed": false,
          "internalType": "bool",
          "name": "approved",
          "type": "bool"
        }
      ],
      "name": "ApprovalForAll",
      "type": "event"
    },
    {
      "anonymous": false,
      "inputs": [
        {
          "indexed": false,
          "internalType": "uint8",
          "name": "version",
          "type": "uint8"
        }
      ],
      "name": "Initialized",
      "type": "event"
    },
    {
      "anonymous": false,
      "inputs": [
        {
          "indexed": false,
          "internalType": "uint256",
          "name": "tokenId",
          "type": "uint256"
        }
      ],
      "name": "Locked",
      "type": "event"
    },
    {
      "anonymous": false,
      "inputs": [
        {
          "indexed": true,
          "internalType": "address",
          "name": "previousOwner",
          "type": "address"
        },
        {
          "indexed": true,
          "internalType": "address",
          "name": "newOwner",
          "type": "address"
        }
      ],
      "name": "OwnershipTransferred",
      "type": "event"
    },
    {
      "anonymous": false,
      "inputs": [
        {
          "indexed": false,
          "internalType": "string",
          "name": "_value",
          "type": "string"
        },
        {
          "indexed": true,
          "internalType": "uint256",
          "name": "_id",
          "type": "uint256"
        }
      ],
      "name": "PermanentURI",
      "type": "event"
    },
    {
      "anonymous": false,
      "inputs": [
        {
          "indexed": true,
          "internalType": "address",
          "name": "who",
          "type": "address"
        },
        {
          "indexed": false,
          "internalType": "uint256",
          "name": "tokenId",
          "type": "uint256"
        }
      ],
      "name": "SBTBurnt",
      "type": "event"
    },
    {
      "anonymous": false,
      "inputs": [
        {
          "indexed": true,
          "internalType": "address",
          "name": "to",
          "type": "address"
        },
        {
          "indexed": false,
          "internalType": "uint256",
          "name": "tokenId",
          "type": "uint256"
        },
        {
          "indexed": false,
          "internalType": "string",
          "name": "sbtType",
          "type": "string"
        }
      ],
      "name": "SBTClaimed",
      "type": "event"
    },
    {
      "anonymous": false,
      "inputs": [
        {
          "indexed": true,
          "internalType": "address",
          "name": "from",
          "type": "address"
        },
        {
          "indexed": true,
          "internalType": "address",
          "name": "to",
          "type": "address"
        },
        {
          "indexed": true,
          "internalType": "uint256",
          "name": "tokenId",
          "type": "uint256"
        }
      ],
      "name": "Transfer",
      "type": "event"
    },
    {
      "anonymous": false,
      "inputs": [
        {
          "indexed": false,
          "internalType": "uint256",
          "name": "tokenId",
          "type": "uint256"
        }
      ],
      "name": "Unlocked",
      "type": "event"
    },
    {
      "inputs": [
        {
          "internalType": "address",
          "name": "didAddress",
          "type": "address"
        }
      ],
      "name": "addTrustedSigner",
      "outputs": [],
      "stateMutability": "nonpayable",
      "type": "function"
    },
    {
      "inputs": [
        {
          "internalType": "address",
          "name": "to",
          "type": "address"
        },
        {
          "internalType": "uint256",
          "name": "tokenId",
          "type": "uint256"
        }
      ],
      "name": "approve",
      "outputs": [],
      "stateMutability": "nonpayable",
      "type": "function"
    },
    {
      "inputs": [
        {
          "internalType": "address",
          "name": "owner",
          "type": "address"
        }
      ],
      "name": "balanceOf",
      "outputs": [
        {
          "internalType": "uint256",
          "name": "",
          "type": "uint256"
        }
      ],
      "stateMutability": "view",
      "type": "function"
    },
    {
      "inputs": [
        {
          "internalType": "uint256",
          "name": "tokenId",
          "type": "uint256"
        }
      ],
      "name": "burnSBT",
      "outputs": [],
      "stateMutability": "nonpayable",
      "type": "function"
    },
    {
      "inputs": [
        {
          "internalType": "address",
          "name": "did",
          "type": "address"
        },
        {
          "components": [
            {
              "internalType": "string",
              "name": "sbtType",
              "type": "string"
            },
            {
              "internalType": "string",
              "name": "uniqueId",
              "type": "string"
            },
            {
              "internalType": "string",
              "name": "sbtURI",
              "type": "string"
            },
            {
              "internalType": "address",
              "name": "recipient",
              "type": "address"
            },
            {
              "internalType": "bytes",
              "name": "signedData",
              "type": "bytes"
            },
            {
              "internalType": "bytes",
              "name": "signedProof",
              "type": "bytes"
            }
          ],
          "internalType": "struct ISoulboundNFT.SBTInfo",
          "name": "sbtInfo",
          "type": "tuple"
        },
        {
          "internalType": "bytes",
          "name": "requestSignature",
          "type": "bytes"
        },
        {
          "internalType": "bytes",
          "name": "requestProof",
          "type": "bytes"
        }
      ],
      "name": "claimSBT",
      "outputs": [
        {
          "internalType": "uint256",
          "name": "",
          "type": "uint256"
        }
      ],
      "stateMutability": "nonpayable",
      "type": "function"
    },
    {
      "inputs": [
        {
          "internalType": "uint256",
          "name": "tokenId",
          "type": "uint256"
        }
      ],
      "name": "getApproved",
      "outputs": [
        {
          "internalType": "address",
          "name": "",
          "type": "address"
        }
      ],
      "stateMutability": "view",
      "type": "function"
    },
    {
      "inputs": [],
      "name": "getClaimedSBTList",
      "outputs": [
        {
          "internalType": "uint256[]",
          "name": "",
          "type": "uint256[]"
        }
      ],
      "stateMutability": "view",
      "type": "function"
    },
    {
      "inputs": [],
      "name": "getTrustedSignerAddresses",
      "outputs": [
        {
          "internalType": "address[]",
          "name": "",
          "type": "address[]"
        }
      ],
      "stateMutability": "view",
      "type": "function"
    },
    {
      "inputs": [],
      "name": "initialize",
      "outputs": [],
      "stateMutability": "nonpayable",
      "type": "function"
    },
    {
      "inputs": [
        {
          "internalType": "address",
          "name": "owner",
          "type": "address"
        },
        {
          "internalType": "address",
          "name": "operator",
          "type": "address"
        }
      ],
      "name": "isApprovedForAll",
      "outputs": [
        {
          "internalType": "bool",
          "name": "",
          "type": "bool"
        }
      ],
      "stateMutability": "view",
      "type": "function"
    },
    {
      "inputs": [
        {
          "internalType": "string",
          "name": "sbtType",
          "type": "string"
        },
        {
          "internalType": "string",
          "name": "uniqueId",
          "type": "string"
        }
      ],
      "name": "isSBTClaimed",
      "outputs": [
        {
          "internalType": "bool",
          "name": "",
          "type": "bool"
        }
      ],
      "stateMutability": "view",
      "type": "function"
    },
    {
      "inputs": [
        {
          "internalType": "uint256",
          "name": "tokenId",
          "type": "uint256"
        }
      ],
      "name": "locked",
      "outputs": [
        {
          "internalType": "bool",
          "name": "",
          "type": "bool"
        }
      ],
      "stateMutability": "view",
      "type": "function"
    },
    {
      "inputs": [],
      "name": "name",
      "outputs": [
        {
          "internalType": "string",
          "name": "",
          "type": "string"
        }
      ],
      "stateMutability": "view",
      "type": "function"
    },
    {
      "inputs": [
        {
          "internalType": "address",
          "name": "did",
          "type": "address"
        }
      ],
      "name": "nonce",
      "outputs": [
        {
          "internalType": "uint256",
          "name": "",
          "type": "uint256"
        }
      ],
      "stateMutability": "view",
      "type": "function"
    },
    {
      "inputs": [],
      "name": "owner",
      "outputs": [
        {
          "internalType": "address",
          "name": "",
          "type": "address"
        }
      ],
      "stateMutability": "view",
      "type": "function"
    },
    {
      "inputs": [
        {
          "internalType": "uint256",
          "name": "tokenId",
          "type": "uint256"
        }
      ],
      "name": "ownerOf",
      "outputs": [
        {
          "internalType": "address",
          "name": "",
          "type": "address"
        }
      ],
      "stateMutability": "view",
      "type": "function"
    },
    {
      "inputs": [
        {
          "internalType": "address",
          "name": "didAddress",
          "type": "address"
        }
      ],
      "name": "removeTrustedSigner",
      "outputs": [],
      "stateMutability": "nonpayable",
      "type": "function"
    },
    {
      "inputs": [],
      "name": "renounceOwnership",
      "outputs": [],
      "stateMutability": "nonpayable",
      "type": "function"
    },
    {
      "inputs": [
        {
          "internalType": "address",
          "name": "from",
          "type": "address"
        },
        {
          "internalType": "address",
          "name": "to",
          "type": "address"
        },
        {
          "internalType": "uint256",
          "name": "tokenId",
          "type": "uint256"
        }
      ],
      "name": "safeTransferFrom",
      "outputs": [],
      "stateMutability": "nonpayable",
      "type": "function"
    },
    {
      "inputs": [
        {
          "internalType": "address",
          "name": "from",
          "type": "address"
        },
        {
          "internalType": "address",
          "name": "to",
          "type": "address"
        },
        {
          "internalType": "uint256",
          "name": "tokenId",
          "type": "uint256"
        },
        {
          "internalType": "bytes",
          "name": "data",
          "type": "bytes"
        }
      ],
      "name": "safeTransferFrom",
      "outputs": [],
      "stateMutability": "nonpayable",
      "type": "function"
    },
    {
      "inputs": [
        {
          "internalType": "address",
          "name": "operator",
          "type": "address"
        },
        {
          "internalType": "bool",
          "name": "approved",
          "type": "bool"
        }
      ],
      "name": "setApprovalForAll",
      "outputs": [],
      "stateMutability": "nonpayable",
      "type": "function"
    },
    {
      "inputs": [
        {
          "internalType": "bytes4",
          "name": "interfaceId",
          "type": "bytes4"
        }
      ],
      "name": "supportsInterface",
      "outputs": [
        {
          "internalType": "bool",
          "name": "",
          "type": "bool"
        }
      ],
      "stateMutability": "view",
      "type": "function"
    },
    {
      "inputs": [],
      "name": "symbol",
      "outputs": [
        {
          "internalType": "string",
          "name": "",
          "type": "string"
        }
      ],
      "stateMutability": "view",
      "type": "function"
    },
    {
      "inputs": [
        {
          "internalType": "uint256",
          "name": "tokenId",
          "type": "uint256"
        }
      ],
      "name": "tokenInfo",
      "outputs": [
        {
          "internalType": "string",
          "name": "",
          "type": "string"
        },
        {
          "internalType": "string",
          "name": "",
          "type": "string"
        }
      ],
      "stateMutability": "view",
      "type": "function"
    },
    {
      "inputs": [
        {
          "internalType": "uint256",
          "name": "tokenId",
          "type": "uint256"
        }
      ],
      "name": "tokenURI",
      "outputs": [
        {
          "internalType": "string",
          "name": "",
          "type": "string"
        }
      ],
      "stateMutability": "view",
      "type": "function"
    },
    {
      "inputs": [],
      "name": "totalSupply",
      "outputs": [
        {
          "internalType": "uint256",
          "name": "",
          "type": "uint256"
        }
      ],
      "stateMutability": "view",
      "type": "function"
    },
    {
      "inputs": [
        {
          "internalType": "address",
          "name": "from",
          "type": "address"
        },
        {
          "internalType": "address",
          "name": "to",
          "type": "address"
        },
        {
          "internalType": "uint256",
          "name": "tokenId",
          "type": "uint256"
        }
      ],
      "name": "transferFrom",
      "outputs": [],
      "stateMutability": "nonpayable",
      "type": "function"
    },
    {
      "inputs": [
        {
          "internalType": "address",
          "name": "newOwner",
          "type": "address"
        }
      ],
      "name": "transferOwnership",
      "outputs": [],
      "stateMutability": "nonpayable",
      "type": "function"
    }
  ],
  "bytecode": "0x60806040523480156200001157600080fd5b506200001c62000022565b620000e4565b600054610100900460ff16156200008f5760405162461bcd60e51b815260206004820152602760248201527f496e697469616c697a61626c653a20636f6e747261637420697320696e697469604482015266616c697a696e6760c81b606482015260840160405180910390fd5b60005460ff9081161015620000e2576000805460ff191660ff9081179091556040519081527f7f26b83ff96e1f2b6a682f133852f6798a09c465da95921460cefb38474024989060200160405180910390a15b565b613f5180620000f46000396000f3fe608060405234801561001057600080fd5b50600436106101c45760003560e01c80637d66527b116100f9578063b88d4fde11610097578063e985e9c511610071578063e985e9c5146103c8578063ee575d2914610404578063f2fde38b14610419578063f76c5f821461042c57600080fd5b8063b88d4fde14610381578063c87b56dd14610394578063cc33c875146103a757600080fd5b80638da5cb5b116100d35780638da5cb5b1461034257806395d89b4114610353578063a22cb4651461035b578063b45a3c0e1461036e57600080fd5b80637d66527b146103125780638129fc1c146103255780638d7be2331461032d57600080fd5b806342842e0e1161016657806370a082311161014057806370a08231146102bb57806370ae92d2146102ce578063715018a6146102f75780637584a7e5146102ff57600080fd5b806342842e0e146102825780636352211e146102955780637007cdb0146102a857600080fd5b8063095ea7b3116101a2578063095ea7b31461023157806318160ddd1461024657806323b872dd1461025c5780633fff987b1461026f57600080fd5b806301ffc9a7146101c957806306fdde03146101f1578063081812fc14610206575b600080fd5b6101dc6101d736600461349f565b61043f565b60405190151581526020015b60405180910390f35b6101f96104dc565b6040516101e8919061350c565b61021961021436600461351f565b61056e565b6040516001600160a01b0390911681526020016101e8565b61024461023f366004613554565b610595565b005b61024e6106e9565b6040519081526020016101e8565b61024461026a36600461357e565b6106f9565b61024461027d3660046135ba565b610780565b61024461029036600461357e565b6107a7565b6102196102a336600461351f565b6107c2565b6101dc6102b6366004613617565b610827565b61024e6102c93660046135ba565b610883565b61024e6102dc3660046135ba565b6001600160a01b031660009081526065602052604090205490565b61024461091d565b61024e61030d366004613683565b610931565b6102446103203660046135ba565b610e8b565b610244610ef5565b610335611088565b6040516101e89190613730565b6033546001600160a01b0316610219565b6101f9611139565b610244610369366004613774565b611148565b6101dc61037c36600461351f565b611153565b61024461038f3660046137c6565b611181565b6101f96103a236600461351f565b61120f565b6103ba6103b536600461351f565b61121a565b6040516101e89291906138a2565b6101dc6103d63660046138d0565b6001600160a01b039182166000908152609f6020908152604080832093909416825291909152205460ff1690565b61040c61135c565b6040516101e89190613903565b6102446104273660046135ba565b611405565b61024461043a36600461351f565b611492565b60006001600160e01b031982167f80ac58cd0000000000000000000000000000000000000000000000000000000014806104a257506001600160e01b031982167f5b5e139f00000000000000000000000000000000000000000000000000000000145b806104d657507f01ffc9a7000000000000000000000000000000000000000000000000000000006001600160e01b03198316145b92915050565b6060609a80546104eb90613944565b80601f016020809104026020016040519081016040528092919081815260200182805461051790613944565b80156105645780601f1061053957610100808354040283529160200191610564565b820191906000526020600020905b81548152906001019060200180831161054757829003601f168201915b5050505050905090565b600061057982611605565b506000908152609e60205260409020546001600160a01b031690565b60006105a0826107c2565b9050806001600160a01b0316836001600160a01b03160361062e5760405162461bcd60e51b815260206004820152602160248201527f4552433732313a20617070726f76616c20746f2063757272656e74206f776e6560448201527f720000000000000000000000000000000000000000000000000000000000000060648201526084015b60405180910390fd5b336001600160a01b038216148061066857506001600160a01b0381166000908152609f6020908152604080832033845290915290205460ff165b6106da5760405162461bcd60e51b815260206004820152603e60248201527f4552433732313a20617070726f76652063616c6c6572206973206e6f7420746f60448201527f6b656e206f776e6572206e6f7220617070726f76656420666f7220616c6c00006064820152608401610625565b6106e48383611669565b505050565b60006106f460fe5490565b905090565b61070333826116d7565b6107755760405162461bcd60e51b815260206004820152602e60248201527f4552433732313a2063616c6c6572206973206e6f7420746f6b656e206f776e6560448201527f72206e6f7220617070726f7665640000000000000000000000000000000000006064820152608401610625565b6106e4838383611755565b610788611933565b61079360668261198d565b6107a4576107a26066826119b2565b505b50565b6106e483838360405180602001604052806000815250611181565b6000818152609c60205260408120546001600160a01b0316806104d65760405162461bcd60e51b815260206004820152601860248201527f4552433732313a20696e76616c696420746f6b656e20494400000000000000006044820152606401610625565b3360009081526101016020526040808220905182919061084a908890889061397e565b9081526020016040518091039020848460405161086892919061397e565b9081526020016040518091039020541190505b949350505050565b60006001600160a01b0382166109015760405162461bcd60e51b815260206004820152602960248201527f4552433732313a2061646472657373207a65726f206973206e6f74206120766160448201527f6c6964206f776e657200000000000000000000000000000000000000000000006064820152608401610625565b506001600160a01b03166000908152609d602052604090205490565b610925611933565b61092f60006119c7565b565b6000610945610940878061398e565b611a19565b6109915760405162461bcd60e51b815260206004820152601060248201527f496e76616c6964205342542074797065000000000000000000000000000000006044820152606401610625565b60008761099e888061398e565b6109ab60208b018b61398e565b6109b860408d018d61398e565b8d60600160208101906109cb91906135ba565b6040516020016109e29897969594939291906139d5565b60408051601f19818403018152919052905080610a02608089018961398e565b610a0f60a08b018b61398e565b604051602001610a23959493929190613a38565b60408051601f198184030181526020601f89018190048102840181019092528783529250610aa4918a918491908a908a908190840183828082843760009201919091525050604080516020601f8c018190048102820181019092528a815292508a9150899081908401838280828437600092019190915250611bc492505050565b610aae878061398e565b610abb60208a018a61398e565b8b604051602001610ad0959493929190613a6e565b60408051601f198184030181529190529050610b6f81610af360808a018a61398e565b8080601f016020809104026020016040519081016040528093929190818152602001838380828437600092019190915250610b359250505060a08b018b61398e565b8080601f016020809104026020016040519081016040528093929190818152602001838380828437600092019190915250611c9392505050565b506101016000610b856080890160608a016135ba565b6001600160a01b031681526020810191909152604001600020610ba8878061398e565b604051610bb692919061397e565b9081526020016040518091039020868060200190610bd4919061398e565b604051610be292919061397e565b908152602001604051809103902054600014610c405760405162461bcd60e51b815260206004820152601460248201527f416c726561647920636c61696d656420747970650000000000000000000000006044820152606401610625565b610c4e60fe80546001019055565b6000610c5960fe5490565b9050610c74610c6e6080890160608a016135ba565b82611e3f565b610cbf81610c8560408a018a61398e565b8080601f016020809104026020016040519081016040528093929190818152602001838380828437600092019190915250611e5992505050565b806101016000610cd560808b0160608c016135ba565b6001600160a01b031681526020810191909152604001600020610cf8898061398e565b604051610d0692919061397e565b9081526020016040518091039020888060200190610d24919061398e565b604051610d3292919061397e565b90815260405190819003602001902055610d4c878061398e565b60008381526101026020526040902091610d67919083613b04565b50610d75602088018861398e565b60008381526101026020526040902060010191610d93919083613b04565b50610da460808801606089016135ba565b6001600160a01b03167fb383543c70ed44f2b690ec837b9f2cbb2b0e346d0eb00c5f470c424777013ed982610dd98a8061398e565b604051610de893929190613bee565b60405180910390a2610e28816101036000610e0960808c0160608d016135ba565b6001600160a01b03168152602081019190915260400160002090611efb565b50610e3b610e36888061398e565b611f07565b807fa109ba539900bf1b633f956d63c96fc89b814c7287f7aa50a9216d0b55657207610e6a60408a018a61398e565b604051610e78929190613c08565b60405180910390a2979650505050505050565b610e93611933565b610e9e60668261198d565b610eea5760405162461bcd60e51b815260206004820152601460248201527f556e7265676973746572656420616464726573730000000000000000000000006044820152606401610625565b6107a2606682611f91565b600054610100900460ff1615808015610f155750600054600160ff909116105b80610f2f5750303b158015610f2f575060005460ff166001145b610fa15760405162461bcd60e51b815260206004820152602e60248201527f496e697469616c697a61626c653a20636f6e747261637420697320616c72656160448201527f647920696e697469616c697a65640000000000000000000000000000000000006064820152608401610625565b6000805460ff191660011790558015610fc4576000805461ff0019166101001790555b6110386040518060400160405280600a81526020017f56657269646120534254000000000000000000000000000000000000000000008152506040518060400160405280600481526020017f5653425400000000000000000000000000000000000000000000000000000000815250611fa6565b61104061201b565b80156107a4576000805461ff0019169055604051600181527f7f26b83ff96e1f2b6a682f133852f6798a09c465da95921460cefb38474024989060200160405180910390a150565b6060600061109533610883565b905060008167ffffffffffffffff8111156110b2576110b26137b0565b6040519080825280602002602001820160405280156110db578160200160208202803683370190505b50905060005b8281101561113257336000908152610103602052604090206111039082612096565b82828151811061111557611115613c1c565b60209081029190910101528061112a81613c48565b9150506110e1565b5092915050565b6060609b80546104eb90613944565b6107a23383836120a2565b60008061115f836107c2565b90506001600160a01b0381166111785750600092915050565b50600192915050565b61118b33836116d7565b6111fd5760405162461bcd60e51b815260206004820152602e60248201527f4552433732313a2063616c6c6572206973206e6f7420746f6b656e206f776e6560448201527f72206e6f7220617070726f7665640000000000000000000000000000000000006064820152608401610625565b61120984848484612170565b50505050565b60606104d6826121ee565b60608061122683611605565b60008381526101026020526040902080546001820190829061124790613944565b80601f016020809104026020016040519081016040528092919081815260200182805461127390613944565b80156112c05780601f10611295576101008083540402835291602001916112c0565b820191906000526020600020905b8154815290600101906020018083116112a357829003601f168201915b505050505091508080546112d390613944565b80601f01602080910402602001604051908101604052809291908181526020018280546112ff90613944565b801561134c5780601f106113215761010080835404028352916020019161134c565b820191906000526020600020905b81548152906001019060200180831161132f57829003601f168201915b5050505050905091509150915091565b6060600061136a60666122f6565b905060008167ffffffffffffffff811115611387576113876137b0565b6040519080825280602002602001820160405280156113b0578160200160208202803683370190505b50905060005b82811015611132576113c9606682612096565b8282815181106113db576113db613c1c565b6001600160a01b0390921660209283029190910190910152806113fd81613c48565b9150506113b6565b61140d611933565b6001600160a01b0381166114895760405162461bcd60e51b815260206004820152602660248201527f4f776e61626c653a206e6577206f776e657220697320746865207a65726f206160448201527f64647265737300000000000000000000000000000000000000000000000000006064820152608401610625565b6107a4816119c7565b600061149d826107c2565b9050336001600160a01b03821614806114c057506033546001600160a01b031633145b61150c5760405162461bcd60e51b815260206004820152601160248201527f496e76616c6964206f7065726174696f6e0000000000000000000000000000006044820152606401610625565b61151582612300565b6000828152610102602090815260408083206001600160a01b03851684526101039092529091206115469084612340565b506001600160a01b0382166000908152610101602052604090819020905161156f908390613c61565b90815260200160405180910390208160010160405161158e9190613c61565b90815260408051602092819003830190206000908190558581526101029092528120906115bb828261343b565b6115c960018301600061343b565b505060405183815233907fc643619513d946ade440841d379d0a1e84cfdd3610c6e1b1bad092959cb2d4519060200160405180910390a2505050565b6000818152609c60205260409020546001600160a01b03166107a45760405162461bcd60e51b815260206004820152601860248201527f4552433732313a20696e76616c696420746f6b656e20494400000000000000006044820152606401610625565b6000818152609e6020526040902080546001600160a01b0319166001600160a01b038416908117909155819061169e826107c2565b6001600160a01b03167f8c5be1e5ebec7d5bd14f71427d1e84f3dd0314c0f7b2291e5b200ac8c7c3b92560405160405180910390a45050565b6000806116e3836107c2565b9050806001600160a01b0316846001600160a01b0316148061172a57506001600160a01b038082166000908152609f602090815260408083209388168352929052205460ff165b8061087b5750836001600160a01b03166117438461056e565b6001600160a01b031614949350505050565b826001600160a01b0316611768826107c2565b6001600160a01b0316146117e45760405162461bcd60e51b815260206004820152602560248201527f4552433732313a207472616e736665722066726f6d20696e636f72726563742060448201527f6f776e65720000000000000000000000000000000000000000000000000000006064820152608401610625565b6001600160a01b03821661185f5760405162461bcd60e51b8152602060048201526024808201527f4552433732313a207472616e7366657220746f20746865207a65726f2061646460448201527f72657373000000000000000000000000000000000000000000000000000000006064820152608401610625565b61186a83838361234c565b611875600082611669565b6001600160a01b0383166000908152609d6020526040812080546001929061189e908490613cd7565b90915550506001600160a01b0382166000908152609d602052604081208054600192906118cc908490613cea565b90915550506000818152609c602052604080822080546001600160a01b0319166001600160a01b0386811691821790925591518493918716917fddf252ad1be2c89b69c2b068fc378daa952ba7f163c4a11628f55a4df523b3ef91a46106e48383836123b5565b6033546001600160a01b0316331461092f5760405162461bcd60e51b815260206004820181905260248201527f4f776e61626c653a2063616c6c6572206973206e6f7420746865206f776e65726044820152606401610625565b6001600160a01b038116600090815260018301602052604081205415155b9392505050565b60006119ab836001600160a01b038416612445565b603380546001600160a01b038381166001600160a01b0319831681179093556040519116919082907f8be0079c531659141344cd1fd0a4f28419497f9722a3daafe3b4186f6b6457e090600090a35050565b60008060019050611a6384848080601f01602080910402602001604051908101604052809392919081815260200183838082843760009201919091525060ff939250506124949050565b6119ab57600084848080601f01602080910402602001604051908101604052809392919081815260200183838082843760009201829052509394505050505b815181108015611aaf5750825b15611bbb57606160f81b828281518110611acb57611acb613c1c565b01602001516001600160f81b03191610801590611b0c5750607a60f81b828281518110611afa57611afa613c1c565b01602001516001600160f81b03191611155b158015611b6e5750603060f81b828281518110611b2b57611b2b613c1c565b01602001516001600160f81b03191610801590611b6c5750603960f81b828281518110611b5a57611b5a613c1c565b01602001516001600160f81b03191611155b155b8015611b9f5750818181518110611b8757611b87613c1c565b6020910101516001600160f81b031916602d60f81b14155b15611ba957600092505b80611bb381613c48565b915050611aa2565b50509392505050565b6001600160a01b0384166000908152606560209081526040808320549051909291611bf3918791859101613cfd565b60408051601f198184030181526001808452838301909252925060009190602080830190803683370190505090508681600081518110611c3557611c35613c1c565b60200260200101906001600160a01b031690816001600160a01b031681525050611c61828686846124c1565b6001600160a01b0387166000908152606560205260408120805491611c8583613c48565b919050555050505050505050565b6000611c9f60666122f6565b11611cec5760405162461bcd60e51b815260206004820152601360248201527f4e6f207369676e6572732070726f7669646564000000000000000000000000006044820152606401610625565b825160208401206000611cff828561266d565b90506000611d15826001600160a01b0316612691565b90506000805b611d2560666122f6565b81108015611d31575081155b15611dd6576000611d43606683612096565b90506000611d59826001600160a01b0316612691565b905060008186604051602001611d70929190613d1f565b60408051601f19818403018152919052805160208201209091506000611d96828c61266d565b9050846001600160a01b0316816001600160a01b031603611dbf57600196505050505050611dd6565b85611dc981613c48565b9650505050505050611d1b565b81611e355760405162461bcd60e51b815260206004820152602960248201527f44617461206973206e6f74207369676e656420627920612076616c696420736960448201526819db9a5b99c811125160ba1b6064820152608401610625565b5050505050505050565b6107a2828260405180602001604052806000815250612701565b6000828152609c60205260409020546001600160a01b0316611ee35760405162461bcd60e51b815260206004820152602e60248201527f45524337323155524953746f726167653a2055524920736574206f66206e6f6e60448201527f6578697374656e7420746f6b656e0000000000000000000000000000000000006064820152608401610625565b600082815260cc602052604090206106e48282613d4e565b60006119ab8383612445565b611f4a82828080601f01602080910402602001604051908101604052809392919081815260200183838082843760009201919091525060ff939250506124949050565b6107a2576106e482828080601f01602080910402602001604051908101604052809392919081815260200183838082843760009201919091525060ff9392505061277f9050565b60006119ab836001600160a01b0384166127d9565b600054610100900460ff166120115760405162461bcd60e51b815260206004820152602b60248201527f496e697469616c697a61626c653a20636f6e7472616374206973206e6f74206960448201526a6e697469616c697a696e6760a81b6064820152608401610625565b6107a282826128cc565b600054610100900460ff166120865760405162461bcd60e51b815260206004820152602b60248201527f496e697469616c697a61626c653a20636f6e7472616374206973206e6f74206960448201526a6e697469616c697a696e6760a81b6064820152608401610625565b61208e612950565b61092f6129c3565b60006119ab8383612a2e565b816001600160a01b0316836001600160a01b0316036121035760405162461bcd60e51b815260206004820152601960248201527f4552433732313a20617070726f766520746f2063616c6c6572000000000000006044820152606401610625565b6001600160a01b038381166000818152609f6020908152604080832094871680845294825291829020805460ff191686151590811790915591519182527f17307eab39ab6107e8899845ad3d59bd9653f200f220920489ca2b5937696c31910160405180910390a3505050565b61217b848484611755565b61218784848484612a58565b6112095760405162461bcd60e51b815260206004820152603260248201527f4552433732313a207472616e7366657220746f206e6f6e20455243373231526560448201527131b2b4bb32b91034b6b83632b6b2b73a32b960711b6064820152608401610625565b60606121f982611605565b600082815260cc60205260408120805461221290613944565b80601f016020809104026020016040519081016040528092919081815260200182805461223e90613944565b801561228b5780601f106122605761010080835404028352916020019161228b565b820191906000526020600020905b81548152906001019060200180831161226e57829003601f168201915b5050505050905060006122a960408051602081019091526000815290565b905080516000036122bb575092915050565b8151156122ed5780826040516020016122d5929190613d1f565b60405160208183030381529060405292505050919050565b61087b84612ba1565b60006104d6825490565b61230981612c14565b600081815260cc60205260409020805461232290613944565b1590506107a457600081815260cc602052604081206107a49161343b565b60006119ab83836127d9565b6001600160a01b038316158061236957506001600160a01b038216155b6106e45760405162461bcd60e51b815260206004820152601e60248201527f4572723a20746f6b656e207472616e7366657220697320424c4f434b454400006044820152606401610625565b6001600160a01b0382166123fb576040518181527ff27b6ce5b2f5e68ddb2fd95a8a909d4ecf1daaac270935fff052feacb24f18429060200160405180910390a1505050565b6001600160a01b03821661dead146106e4576040518181527f032bc66be43dbccb7487781d168eb7bda224628a3b2c3388bdf69b532a3a16119060200160405180910390a1505050565b600081815260018301602052604081205461248c575081546001818101845560008481526020808220909301849055845484825282860190935260409020919091556104d6565b5060006104d6565b600082600101826040516124a89190613e0e565b9081526040519081900360200190205415159392505050565b60008151116125125760405162461bcd60e51b815260206004820152601360248201527f4e6f207369676e6572732070726f7669646564000000000000000000000000006044820152606401610625565b835160208501206000612525828661266d565b9050600061253b826001600160a01b0316612691565b90506000805b85518110801561254f575081155b1561260357600086828151811061256857612568613c1c565b602002602001015190506000612586826001600160a01b0316612691565b90506000818660405160200161259d929190613d1f565b60408051601f198184030181529190528051602082012090915060006125c3828d61266d565b9050846001600160a01b0316816001600160a01b0316036125ec57600196505050505050612603565b856125f681613c48565b9650505050505050612541565b816126625760405162461bcd60e51b815260206004820152602960248201527f44617461206973206e6f74207369676e656420627920612076616c696420736960448201526819db9a5b99c811125160ba1b6064820152608401610625565b505050505050505050565b600080600061267c8585612cc3565b9150915061268981612d08565b509392505050565b6060816000036126d457505060408051808201909152600481527f3078303000000000000000000000000000000000000000000000000000000000602082015290565b8160005b81156126f757806126e881613c48565b915050600882901c91506126d8565b61087b8482612ebe565b61270b8383613083565b6127186000848484612a58565b6106e45760405162461bcd60e51b815260206004820152603260248201527f4552433732313a207472616e7366657220746f206e6f6e20455243373231526560448201527131b2b4bb32b91034b6b83632b6b2b73a32b960711b6064820152608401610625565b600061278b8383612494565b61248c578254600181018455600084815260209020016127ab8382613d4e565b50825460405160018501906127c1908590613e0e565b908152604051908190036020019020555060016104d6565b600081815260018301602052604081205480156128c25760006127fd600183613cd7565b855490915060009061281190600190613cd7565b905081811461287657600086600001828154811061283157612831613c1c565b906000526020600020015490508087600001848154811061285457612854613c1c565b6000918252602080832090910192909255918252600188019052604090208390555b855486908061288757612887613e2a565b6001900381819060005260206000200160009055905585600101600086815260200190815260200160002060009055600193505050506104d6565b60009150506104d6565b600054610100900460ff166129375760405162461bcd60e51b815260206004820152602b60248201527f496e697469616c697a61626c653a20636f6e7472616374206973206e6f74206960448201526a6e697469616c697a696e6760a81b6064820152608401610625565b609a6129438382613d4e565b50609b6106e48282613d4e565b600054610100900460ff166129bb5760405162461bcd60e51b815260206004820152602b60248201527f496e697469616c697a61626c653a20636f6e7472616374206973206e6f74206960448201526a6e697469616c697a696e6760a81b6064820152608401610625565b61092f6131d9565b600054610100900460ff1661092f5760405162461bcd60e51b815260206004820152602b60248201527f496e697469616c697a61626c653a20636f6e7472616374206973206e6f74206960448201526a6e697469616c697a696e6760a81b6064820152608401610625565b6000826000018281548110612a4557612a45613c1c565b9060005260206000200154905092915050565b60006001600160a01b0384163b15612b9957604051630a85bd0160e11b81526001600160a01b0385169063150b7a0290612a9c903390899088908890600401613e40565b6020604051808303816000875af1925050508015612ad7575060408051601f3d908101601f19168201909252612ad491810190613e7c565b60015b612b7f573d808015612b05576040519150601f19603f3d011682016040523d82523d6000602084013e612b0a565b606091505b508051600003612b775760405162461bcd60e51b815260206004820152603260248201527f4552433732313a207472616e7366657220746f206e6f6e20455243373231526560448201527131b2b4bb32b91034b6b83632b6b2b73a32b960711b6064820152608401610625565b805181602001fd5b6001600160e01b031916630a85bd0160e11b14905061087b565b50600161087b565b6060612bac82611605565b6000612bc360408051602081019091526000815290565b90506000815111612be357604051806020016040528060008152506119ab565b80612bed8461324d565b604051602001612bfe929190613d1f565b6040516020818303038152906040529392505050565b6000612c1f826107c2565b9050612c2d8160008461234c565b612c38600083611669565b6001600160a01b0381166000908152609d60205260408120805460019290612c61908490613cd7565b90915550506000828152609c602052604080822080546001600160a01b0319169055518391906001600160a01b038416907fddf252ad1be2c89b69c2b068fc378daa952ba7f163c4a11628f55a4df523b3ef908390a46107a2816000846123b5565b6000808251604103612cf95760208301516040840151606085015160001a612ced8782858561334e565b94509450505050612d01565b506000905060025b9250929050565b6000816004811115612d1c57612d1c613e99565b03612d245750565b6001816004811115612d3857612d38613e99565b03612d855760405162461bcd60e51b815260206004820152601860248201527f45434453413a20696e76616c6964207369676e617475726500000000000000006044820152606401610625565b6002816004811115612d9957612d99613e99565b03612de65760405162461bcd60e51b815260206004820152601f60248201527f45434453413a20696e76616c6964207369676e6174757265206c656e677468006044820152606401610625565b6003816004811115612dfa57612dfa613e99565b03612e525760405162461bcd60e51b815260206004820152602260248201527f45434453413a20696e76616c6964207369676e6174757265202773272076616c604482015261756560f01b6064820152608401610625565b6004816004811115612e6657612e66613e99565b036107a45760405162461bcd60e51b815260206004820152602260248201527f45434453413a20696e76616c6964207369676e6174757265202776272076616c604482015261756560f01b6064820152608401610625565b60606000612ecd836002613eaf565b612ed8906002613cea565b67ffffffffffffffff811115612ef057612ef06137b0565b6040519080825280601f01601f191660200182016040528015612f1a576020820181803683370190505b509050600360fc1b81600081518110612f3557612f35613c1c565b60200101906001600160f81b031916908160001a9053507f780000000000000000000000000000000000000000000000000000000000000081600181518110612f8057612f80613c1c565b60200101906001600160f81b031916908160001a9053506000612fa4846002613eaf565b612faf906001613cea565b90505b6001811115613034577f303132333435363738396162636465660000000000000000000000000000000085600f1660108110612ff057612ff0613c1c565b1a60f81b82828151811061300657613006613c1c565b60200101906001600160f81b031916908160001a90535060049490941c9361302d81613ec6565b9050612fb2565b5083156119ab5760405162461bcd60e51b815260206004820181905260248201527f537472696e67733a20686578206c656e67746820696e73756666696369656e746044820152606401610625565b6001600160a01b0382166130d95760405162461bcd60e51b815260206004820181905260248201527f4552433732313a206d696e7420746f20746865207a65726f20616464726573736044820152606401610625565b6000818152609c60205260409020546001600160a01b03161561313e5760405162461bcd60e51b815260206004820152601c60248201527f4552433732313a20746f6b656e20616c7265616479206d696e746564000000006044820152606401610625565b61314a6000838361234c565b6001600160a01b0382166000908152609d60205260408120805460019290613173908490613cea565b90915550506000818152609c602052604080822080546001600160a01b0319166001600160a01b03861690811790915590518392907fddf252ad1be2c89b69c2b068fc378daa952ba7f163c4a11628f55a4df523b3ef908290a46107a2600083836123b5565b600054610100900460ff166132445760405162461bcd60e51b815260206004820152602b60248201527f496e697469616c697a61626c653a20636f6e7472616374206973206e6f74206960448201526a6e697469616c697a696e6760a81b6064820152608401610625565b61092f336119c7565b6060816000036132745750506040805180820190915260018152600360fc1b602082015290565b8160005b811561329e578061328881613c48565b91506132979050600a83613ef3565b9150613278565b60008167ffffffffffffffff8111156132b9576132b96137b0565b6040519080825280601f01601f1916602001820160405280156132e3576020820181803683370190505b5090505b841561087b576132f8600183613cd7565b9150613305600a86613f07565b613310906030613cea565b60f81b81838151811061332557613325613c1c565b60200101906001600160f81b031916908160001a905350613347600a86613ef3565b94506132e7565b6000807f7fffffffffffffffffffffffffffffff5d576e7357a4501ddfe92f46681b20a08311156133855750600090506003613432565b8460ff16601b1415801561339d57508460ff16601c14155b156133ae5750600090506004613432565b6040805160008082526020820180845289905260ff881692820192909252606081018690526080810185905260019060a0016020604051602081039080840390855afa158015613402573d6000803e3d6000fd5b5050604051601f1901519150506001600160a01b03811661342b57600060019250925050613432565b9150600090505b94509492505050565b50805461344790613944565b6000825580601f10613457575050565b601f0160209004906000526020600020908101906107a491905b808211156134855760008155600101613471565b5090565b6001600160e01b0319811681146107a457600080fd5b6000602082840312156134b157600080fd5b81356119ab81613489565b60005b838110156134d75781810151838201526020016134bf565b50506000910152565b600081518084526134f88160208601602086016134bc565b601f01601f19169290920160200192915050565b6020815260006119ab60208301846134e0565b60006020828403121561353157600080fd5b5035919050565b80356001600160a01b038116811461354f57600080fd5b919050565b6000806040838503121561356757600080fd5b61357083613538565b946020939093013593505050565b60008060006060848603121561359357600080fd5b61359c84613538565b92506135aa60208501613538565b9150604084013590509250925092565b6000602082840312156135cc57600080fd5b6119ab82613538565b60008083601f8401126135e757600080fd5b50813567ffffffffffffffff8111156135ff57600080fd5b602083019150836020828501011115612d0157600080fd5b6000806000806040858703121561362d57600080fd5b843567ffffffffffffffff8082111561364557600080fd5b613651888389016135d5565b9096509450602087013591508082111561366a57600080fd5b50613677878288016135d5565b95989497509550505050565b6000806000806000806080878903121561369c57600080fd5b6136a587613538565b9550602087013567ffffffffffffffff808211156136c257600080fd5b9088019060c0828b0312156136d657600080fd5b909550604088013590808211156136ec57600080fd5b6136f88a838b016135d5565b9096509450606089013591508082111561371157600080fd5b5061371e89828a016135d5565b979a9699509497509295939492505050565b6020808252825182820181905260009190848201906040850190845b818110156137685783518352928401929184019160010161374c565b50909695505050505050565b6000806040838503121561378757600080fd5b61379083613538565b9150602083013580151581146137a557600080fd5b809150509250929050565b634e487b7160e01b600052604160045260246000fd5b600080600080608085870312156137dc57600080fd5b6137e585613538565b93506137f360208601613538565b925060408501359150606085013567ffffffffffffffff8082111561381757600080fd5b818701915087601f83011261382b57600080fd5b81358181111561383d5761383d6137b0565b604051601f8201601f19908116603f01168101908382118183101715613865576138656137b0565b816040528281528a602084870101111561387e57600080fd5b82602086016020830137600060208483010152809550505050505092959194509250565b6040815260006138b560408301856134e0565b82810360208401526138c781856134e0565b95945050505050565b600080604083850312156138e357600080fd5b6138ec83613538565b91506138fa60208401613538565b90509250929050565b6020808252825182820181905260009190848201906040850190845b818110156137685783516001600160a01b03168352928401929184019160010161391f565b600181811c9082168061395857607f821691505b60208210810361397857634e487b7160e01b600052602260045260246000fd5b50919050565b8183823760009101908152919050565b6000808335601e198436030181126139a557600080fd5b83018035915067ffffffffffffffff8211156139c057600080fd5b602001915036819003821315612d0157600080fd5b60006bffffffffffffffffffffffff19808b60601b168352888a60148501378883016014810160008152888a82375087810190506014810160008152868882375060609490941b1692909301601481019290925250602801979650505050505050565b60008651613a4a818460208b016134bc565b82018587823760009086019081528385823760009301928352509095945050505050565b848682376000858201602d60f81b8082528587600184013760019190950190810194909452505060601b6bffffffffffffffffffffffff191660028201526016019392505050565b601f8211156106e457600081815260208120601f850160051c81016020861015613add5750805b601f850160051c820191505b81811015613afc57828155600101613ae9565b505050505050565b67ffffffffffffffff831115613b1c57613b1c6137b0565b613b3083613b2a8354613944565b83613ab6565b6000601f841160018114613b645760008515613b4c5750838201355b600019600387901b1c1916600186901b178355613bbe565b600083815260209020601f19861690835b82811015613b955786850135825560209485019460019092019101613b75565b5086821015613bb25760001960f88860031b161c19848701351681555b505060018560011b0183555b5050505050565b81835281816020850137506000828201602090810191909152601f909101601f19169091010190565b8381526040602082015260006138c7604083018486613bc5565b60208152600061087b602083018486613bc5565b634e487b7160e01b600052603260045260246000fd5b634e487b7160e01b600052601160045260246000fd5b600060018201613c5a57613c5a613c32565b5060010190565b6000808354613c6f81613944565b60018281168015613c875760018114613c9c57613ccb565b60ff1984168752821515830287019450613ccb565b8760005260208060002060005b85811015613cc25781548a820152908401908201613ca9565b50505082870194505b50929695505050505050565b818103818111156104d6576104d6613c32565b808201808211156104d6576104d6613c32565b60008351613d0f8184602088016134bc565b9190910191825250602001919050565b60008351613d318184602088016134bc565b835190830190613d458183602088016134bc565b01949350505050565b815167ffffffffffffffff811115613d6857613d686137b0565b613d7c81613d768454613944565b84613ab6565b602080601f831160018114613db15760008415613d995750858301515b600019600386901b1c1916600185901b178555613afc565b600085815260208120601f198616915b82811015613de057888601518255948401946001909101908401613dc1565b5085821015613dfe5787850151600019600388901b60f8161c191681555b5050505050600190811b01905550565b60008251613e208184602087016134bc565b9190910192915050565b634e487b7160e01b600052603160045260246000fd5b60006001600160a01b03808716835280861660208401525083604083015260806060830152613e7260808301846134e0565b9695505050505050565b600060208284031215613e8e57600080fd5b81516119ab81613489565b634e487b7160e01b600052602160045260246000fd5b80820281158282048414176104d6576104d6613c32565b600081613ed557613ed5613c32565b506000190190565b634e487b7160e01b600052601260045260246000fd5b600082613f0257613f02613edd565b500490565b600082613f1657613f16613edd565b50069056fea2646970667358221220a922972119aa40770573c34920a8611bf48669c55e1f4c16b7d7ca7c35129b1864736f6c63430008110033",
  "linkReferences": {},
  "deployedLinkReferences": {}
}