{
  "_format": "hh-sol-artifact-1",
  "contractName": "SoulboundNFT",
  "sourceName": "contracts/SoulboundNFT.sol",
  "abi": [
    {
      "inputs": [],
      "stateMutability": "nonpayable",
      "type": "constructor"
    },
    {
      "anonymous": false,
      "inputs": [
        {
          "indexed": true,
          "internalType": "address",
          "name": "owner",
          "type": "address"
        },
        {
          "indexed": true,
          "internalType": "address",
          "name": "approved",
          "type": "address"
        },
        {
          "indexed": true,
          "internalType": "uint256",
          "name": "tokenId",
          "type": "uint256"
        }
      ],
      "name": "Approval",
      "type": "event"
    },
    {
      "anonymous": false,
      "inputs": [
        {
          "indexed": true,
          "internalType": "address",
          "name": "owner",
          "type": "address"
        },
        {
          "indexed": true,
          "internalType": "address",
          "name": "operator",
          "type": "address"
        },
        {
          "indexed": false,
          "internalType": "bool",
          "name": "approved",
          "type": "bool"
        }
      ],
      "name": "ApprovalForAll",
      "type": "event"
    },
    {
      "anonymous": false,
      "inputs": [
        {
          "indexed": false,
          "internalType": "uint8",
          "name": "version",
          "type": "uint8"
        }
      ],
      "name": "Initialized",
      "type": "event"
    },
    {
      "anonymous": false,
      "inputs": [
        {
          "indexed": false,
          "internalType": "uint256",
          "name": "tokenId",
          "type": "uint256"
        }
      ],
      "name": "Locked",
      "type": "event"
    },
    {
      "anonymous": false,
      "inputs": [
        {
          "indexed": true,
          "internalType": "address",
          "name": "previousOwner",
          "type": "address"
        },
        {
          "indexed": true,
          "internalType": "address",
          "name": "newOwner",
          "type": "address"
        }
      ],
      "name": "OwnershipTransferred",
      "type": "event"
    },
    {
      "anonymous": false,
      "inputs": [
        {
          "indexed": false,
          "internalType": "string",
          "name": "_value",
          "type": "string"
        },
        {
          "indexed": true,
          "internalType": "uint256",
          "name": "_id",
          "type": "uint256"
        }
      ],
      "name": "PermanentURI",
      "type": "event"
    },
    {
      "anonymous": false,
      "inputs": [
        {
          "indexed": true,
          "internalType": "address",
          "name": "who",
          "type": "address"
        },
        {
          "indexed": false,
          "internalType": "uint256",
          "name": "tokenId",
          "type": "uint256"
        }
      ],
      "name": "SBTBurnt",
      "type": "event"
    },
    {
      "anonymous": false,
      "inputs": [
        {
          "indexed": true,
          "internalType": "address",
          "name": "to",
          "type": "address"
        },
        {
          "indexed": false,
          "internalType": "uint256",
          "name": "tokenId",
          "type": "uint256"
        },
        {
          "indexed": false,
          "internalType": "string",
          "name": "sbtType",
          "type": "string"
        }
      ],
      "name": "SBTClaimed",
      "type": "event"
    },
    {
      "anonymous": false,
      "inputs": [
        {
          "indexed": true,
          "internalType": "address",
          "name": "from",
          "type": "address"
        },
        {
          "indexed": true,
          "internalType": "address",
          "name": "to",
          "type": "address"
        },
        {
          "indexed": true,
          "internalType": "uint256",
          "name": "tokenId",
          "type": "uint256"
        }
      ],
      "name": "Transfer",
      "type": "event"
    },
    {
      "anonymous": false,
      "inputs": [
        {
          "indexed": false,
          "internalType": "uint256",
          "name": "tokenId",
          "type": "uint256"
        }
      ],
      "name": "Unlocked",
      "type": "event"
    },
    {
      "inputs": [
        {
          "internalType": "address",
          "name": "didAddress",
          "type": "address"
        }
      ],
      "name": "addTrustedSigner",
      "outputs": [],
      "stateMutability": "nonpayable",
      "type": "function"
    },
    {
      "inputs": [
        {
          "internalType": "address",
          "name": "to",
          "type": "address"
        },
        {
          "internalType": "uint256",
          "name": "tokenId",
          "type": "uint256"
        }
      ],
      "name": "approve",
      "outputs": [],
      "stateMutability": "nonpayable",
      "type": "function"
    },
    {
      "inputs": [
        {
          "internalType": "address",
          "name": "owner",
          "type": "address"
        }
      ],
      "name": "balanceOf",
      "outputs": [
        {
          "internalType": "uint256",
          "name": "",
          "type": "uint256"
        }
      ],
      "stateMutability": "view",
      "type": "function"
    },
    {
      "inputs": [
        {
          "internalType": "uint256",
          "name": "tokenId",
          "type": "uint256"
        }
      ],
      "name": "burnSBT",
      "outputs": [],
      "stateMutability": "nonpayable",
      "type": "function"
    },
    {
      "inputs": [
        {
          "internalType": "address",
          "name": "did",
          "type": "address"
        },
        {
          "components": [
            {
              "internalType": "string",
              "name": "sbtType",
              "type": "string"
            },
            {
              "internalType": "string",
              "name": "uniqueId",
              "type": "string"
            },
            {
              "internalType": "string",
              "name": "sbtURI",
              "type": "string"
            },
            {
              "internalType": "address",
              "name": "recipient",
              "type": "address"
            },
            {
              "internalType": "bytes",
              "name": "signedData",
              "type": "bytes"
            },
            {
              "internalType": "bytes",
              "name": "signedProof",
              "type": "bytes"
            }
          ],
          "internalType": "struct ISoulboundNFT.SBTInfo",
          "name": "sbtInfo",
          "type": "tuple"
        },
        {
          "internalType": "bytes",
          "name": "requestSignature",
          "type": "bytes"
        },
        {
          "internalType": "bytes",
          "name": "requestProof",
          "type": "bytes"
        }
      ],
      "name": "claimSBT",
      "outputs": [
        {
          "internalType": "uint256",
          "name": "",
          "type": "uint256"
        }
      ],
      "stateMutability": "nonpayable",
      "type": "function"
    },
    {
      "inputs": [
        {
          "internalType": "uint256",
          "name": "tokenId",
          "type": "uint256"
        }
      ],
      "name": "getApproved",
      "outputs": [
        {
          "internalType": "address",
          "name": "",
          "type": "address"
        }
      ],
      "stateMutability": "view",
      "type": "function"
    },
    {
      "inputs": [
        {
          "internalType": "address",
          "name": "didAddress",
          "type": "address"
        }
      ],
      "name": "getClaimedSBTList",
      "outputs": [
        {
          "internalType": "uint256[]",
          "name": "",
          "type": "uint256[]"
        }
      ],
      "stateMutability": "view",
      "type": "function"
    },
    {
      "inputs": [],
      "name": "getTrustedSignerAddresses",
      "outputs": [
        {
          "internalType": "address[]",
          "name": "",
          "type": "address[]"
        }
      ],
      "stateMutability": "view",
      "type": "function"
    },
    {
      "inputs": [],
      "name": "initialize",
      "outputs": [],
      "stateMutability": "nonpayable",
      "type": "function"
    },
    {
      "inputs": [
        {
          "internalType": "address",
          "name": "owner",
          "type": "address"
        },
        {
          "internalType": "address",
          "name": "operator",
          "type": "address"
        }
      ],
      "name": "isApprovedForAll",
      "outputs": [
        {
          "internalType": "bool",
          "name": "",
          "type": "bool"
        }
      ],
      "stateMutability": "view",
      "type": "function"
    },
    {
      "inputs": [
        {
          "internalType": "string",
          "name": "sbtType",
          "type": "string"
        },
        {
          "internalType": "string",
          "name": "uniqueId",
          "type": "string"
        }
      ],
      "name": "isSBTClaimed",
      "outputs": [
        {
          "internalType": "bool",
          "name": "",
          "type": "bool"
        }
      ],
      "stateMutability": "view",
      "type": "function"
    },
    {
      "inputs": [
        {
          "internalType": "uint256",
          "name": "tokenId",
          "type": "uint256"
        }
      ],
      "name": "locked",
      "outputs": [
        {
          "internalType": "bool",
          "name": "",
          "type": "bool"
        }
      ],
      "stateMutability": "view",
      "type": "function"
    },
    {
      "inputs": [],
      "name": "name",
      "outputs": [
        {
          "internalType": "string",
          "name": "",
          "type": "string"
        }
      ],
      "stateMutability": "view",
      "type": "function"
    },
    {
      "inputs": [
        {
          "internalType": "address",
          "name": "did",
          "type": "address"
        }
      ],
      "name": "nonce",
      "outputs": [
        {
          "internalType": "uint256",
          "name": "",
          "type": "uint256"
        }
      ],
      "stateMutability": "view",
      "type": "function"
    },
    {
      "inputs": [],
      "name": "owner",
      "outputs": [
        {
          "internalType": "address",
          "name": "",
          "type": "address"
        }
      ],
      "stateMutability": "view",
      "type": "function"
    },
    {
      "inputs": [
        {
          "internalType": "uint256",
          "name": "tokenId",
          "type": "uint256"
        }
      ],
      "name": "ownerOf",
      "outputs": [
        {
          "internalType": "address",
          "name": "",
          "type": "address"
        }
      ],
      "stateMutability": "view",
      "type": "function"
    },
    {
      "inputs": [
        {
          "internalType": "address",
          "name": "didAddress",
          "type": "address"
        }
      ],
      "name": "removeTrustedSigner",
      "outputs": [],
      "stateMutability": "nonpayable",
      "type": "function"
    },
    {
      "inputs": [],
      "name": "renounceOwnership",
      "outputs": [],
      "stateMutability": "nonpayable",
      "type": "function"
    },
    {
      "inputs": [
        {
          "internalType": "address",
          "name": "from",
          "type": "address"
        },
        {
          "internalType": "address",
          "name": "to",
          "type": "address"
        },
        {
          "internalType": "uint256",
          "name": "tokenId",
          "type": "uint256"
        }
      ],
      "name": "safeTransferFrom",
      "outputs": [],
      "stateMutability": "nonpayable",
      "type": "function"
    },
    {
      "inputs": [
        {
          "internalType": "address",
          "name": "from",
          "type": "address"
        },
        {
          "internalType": "address",
          "name": "to",
          "type": "address"
        },
        {
          "internalType": "uint256",
          "name": "tokenId",
          "type": "uint256"
        },
        {
          "internalType": "bytes",
          "name": "data",
          "type": "bytes"
        }
      ],
      "name": "safeTransferFrom",
      "outputs": [],
      "stateMutability": "nonpayable",
      "type": "function"
    },
    {
      "inputs": [
        {
          "internalType": "address",
          "name": "operator",
          "type": "address"
        },
        {
          "internalType": "bool",
          "name": "approved",
          "type": "bool"
        }
      ],
      "name": "setApprovalForAll",
      "outputs": [],
      "stateMutability": "nonpayable",
      "type": "function"
    },
    {
      "inputs": [
        {
          "internalType": "bytes4",
          "name": "interfaceId",
          "type": "bytes4"
        }
      ],
      "name": "supportsInterface",
      "outputs": [
        {
          "internalType": "bool",
          "name": "",
          "type": "bool"
        }
      ],
      "stateMutability": "view",
      "type": "function"
    },
    {
      "inputs": [],
      "name": "symbol",
      "outputs": [
        {
          "internalType": "string",
          "name": "",
          "type": "string"
        }
      ],
      "stateMutability": "view",
      "type": "function"
    },
    {
      "inputs": [
        {
          "internalType": "uint256",
          "name": "tokenId",
          "type": "uint256"
        }
      ],
      "name": "tokenInfo",
      "outputs": [
        {
          "internalType": "string",
          "name": "",
          "type": "string"
        },
        {
          "internalType": "string",
          "name": "",
          "type": "string"
        }
      ],
      "stateMutability": "view",
      "type": "function"
    },
    {
      "inputs": [
        {
          "internalType": "uint256",
          "name": "tokenId",
          "type": "uint256"
        }
      ],
      "name": "tokenURI",
      "outputs": [
        {
          "internalType": "string",
          "name": "",
          "type": "string"
        }
      ],
      "stateMutability": "view",
      "type": "function"
    },
    {
      "inputs": [],
      "name": "totalSupply",
      "outputs": [
        {
          "internalType": "uint256",
          "name": "",
          "type": "uint256"
        }
      ],
      "stateMutability": "view",
      "type": "function"
    },
    {
      "inputs": [
        {
          "internalType": "address",
          "name": "from",
          "type": "address"
        },
        {
          "internalType": "address",
          "name": "to",
          "type": "address"
        },
        {
          "internalType": "uint256",
          "name": "tokenId",
          "type": "uint256"
        }
      ],
      "name": "transferFrom",
      "outputs": [],
      "stateMutability": "nonpayable",
      "type": "function"
    },
    {
      "inputs": [
        {
          "internalType": "address",
          "name": "newOwner",
          "type": "address"
        }
      ],
      "name": "transferOwnership",
      "outputs": [],
      "stateMutability": "nonpayable",
      "type": "function"
    }
  ],
  "bytecode": "0x60806040523480156200001157600080fd5b506200001c62000022565b620000e4565b600054610100900460ff16156200008f5760405162461bcd60e51b815260206004820152602760248201527f496e697469616c697a61626c653a20636f6e747261637420697320696e697469604482015266616c697a696e6760c81b606482015260840160405180910390fd5b60005460ff9081161015620000e2576000805460ff191660ff9081179091556040519081527f7f26b83ff96e1f2b6a682f133852f6798a09c465da95921460cefb38474024989060200160405180910390a15b565b613f3580620000f46000396000f3fe608060405234801561001057600080fd5b50600436106101c45760003560e01c80637d66527b116100f9578063b88d4fde11610097578063e985e9c511610071578063e985e9c5146103d3578063ee575d291461040f578063f2fde38b14610424578063f76c5f821461043757600080fd5b8063b88d4fde1461038c578063c87b56dd1461039f578063cc33c875146103b257600080fd5b806395d89b41116100d357806395d89b411461033e578063a22cb46514610346578063ae48925714610359578063b45a3c0e1461037957600080fd5b80637d66527b146103125780638129fc1c146103255780638da5cb5b1461032d57600080fd5b806342842e0e1161016657806370a082311161014057806370a08231146102bb57806370ae92d2146102ce578063715018a6146102f75780637584a7e5146102ff57600080fd5b806342842e0e146102825780636352211e146102955780637007cdb0146102a857600080fd5b8063095ea7b3116101a2578063095ea7b31461023157806318160ddd1461024657806323b872dd1461025c5780633fff987b1461026f57600080fd5b806301ffc9a7146101c957806306fdde03146101f1578063081812fc14610206575b600080fd5b6101dc6101d7366004613483565b61044a565b60405190151581526020015b60405180910390f35b6101f96104e7565b6040516101e891906134f0565b610219610214366004613503565b610579565b6040516001600160a01b0390911681526020016101e8565b61024461023f366004613538565b6105a0565b005b61024e6106f4565b6040519081526020016101e8565b61024461026a366004613562565b610704565b61024461027d36600461359e565b61078b565b610244610290366004613562565b6107fa565b6102196102a3366004613503565b610815565b6101dc6102b63660046135fb565b61087a565b61024e6102c936600461359e565b6108c9565b61024e6102dc36600461359e565b6001600160a01b031660009081526065602052604090205490565b610244610963565b61024e61030d366004613667565b610977565b61024461032036600461359e565b610e7b565b610244610ee5565b6033546001600160a01b0316610219565b6101f9611079565b610244610354366004613714565b611088565b61036c61036736600461359e565b611093565b6040516101e89190613750565b6101dc610387366004613503565b61114e565b61024461039a3660046137aa565b61117c565b6101f96103ad366004613503565b61120a565b6103c56103c0366004613503565b611215565b6040516101e8929190613886565b6101dc6103e13660046138b4565b6001600160a01b039182166000908152609f6020908152604080832093909416825291909152205460ff1690565b610417611357565b6040516101e891906138e7565b61024461043236600461359e565b611407565b610244610445366004613503565b611494565b60006001600160e01b031982167f80ac58cd0000000000000000000000000000000000000000000000000000000014806104ad57506001600160e01b031982167f5b5e139f00000000000000000000000000000000000000000000000000000000145b806104e157507f01ffc9a7000000000000000000000000000000000000000000000000000000006001600160e01b03198316145b92915050565b6060609a80546104f690613928565b80601f016020809104026020016040519081016040528092919081815260200182805461052290613928565b801561056f5780601f106105445761010080835404028352916020019161056f565b820191906000526020600020905b81548152906001019060200180831161055257829003601f168201915b5050505050905090565b6000610584826115f1565b506000908152609e60205260409020546001600160a01b031690565b60006105ab82610815565b9050806001600160a01b0316836001600160a01b0316036106395760405162461bcd60e51b815260206004820152602160248201527f4552433732313a20617070726f76616c20746f2063757272656e74206f776e6560448201527f720000000000000000000000000000000000000000000000000000000000000060648201526084015b60405180910390fd5b336001600160a01b038216148061067357506001600160a01b0381166000908152609f6020908152604080832033845290915290205460ff165b6106e55760405162461bcd60e51b815260206004820152603e60248201527f4552433732313a20617070726f76652063616c6c6572206973206e6f7420746f60448201527f6b656e206f776e6572206e6f7220617070726f76656420666f7220616c6c00006064820152608401610630565b6106ef8383611655565b505050565b60006106ff60fe5490565b905090565b61070e33826116c3565b6107805760405162461bcd60e51b815260206004820152602e60248201527f4552433732313a2063616c6c6572206973206e6f7420746f6b656e206f776e6560448201527f72206e6f7220617070726f7665640000000000000000000000000000000000006064820152608401610630565b6106ef838383611741565b61079361191f565b61079e606682611979565b156107eb5760405162461bcd60e51b815260206004820152601260248201527f416c7265616479207265676973746572656400000000000000000000000000006044820152606401610630565b6107f660668261199e565b5050565b6106ef8383836040518060200160405280600081525061117c565b6000818152609c60205260408120546001600160a01b0316806104e15760405162461bcd60e51b815260206004820152601860248201527f4552433732313a20696e76616c696420746f6b656e20494400000000000000006044820152606401610630565b6000806101018686604051610890929190613962565b908152602001604051809103902084846040516108ae929190613962565b9081526020016040518091039020541190505b949350505050565b60006001600160a01b0382166109475760405162461bcd60e51b815260206004820152602960248201527f4552433732313a2061646472657373207a65726f206973206e6f74206120766160448201527f6c6964206f776e657200000000000000000000000000000000000000000000006064820152608401610630565b506001600160a01b03166000908152609d602052604090205490565b61096b61191f565b61097560006119b3565b565b600061098b6109868780613972565b611a05565b6109d75760405162461bcd60e51b815260206004820152601060248201527f496e76616c6964205342542074797065000000000000000000000000000000006044820152606401610630565b6000876109e48880613972565b6109f160208b018b613972565b6109fe60408d018d613972565b8d6060016020810190610a11919061359e565b604051602001610a289897969594939291906139b9565b60408051601f19818403018152919052905080610a486080890189613972565b610a5560a08b018b613972565b604051602001610a69959493929190613a1c565b60408051601f198184030181526020601f89018190048102840181019092528783529250610aea918a918491908a908a908190840183828082843760009201919091525050604080516020601f8c018190048102820181019092528a815292508a9150899081908401838280828437600092019190915250611bb092505050565b610af48780613972565b610b0160208a018a613972565b8b604051602001610b16959493929190613a52565b60408051601f198184030181529190529050610bb581610b3960808a018a613972565b8080601f016020809104026020016040519081016040528093929190818152602001838380828437600092019190915250610b7b9250505060a08b018b613972565b8080601f016020809104026020016040519081016040528093929190818152602001838380828437600092019190915250611c7f92505050565b50610101610bc38780613972565b604051610bd1929190613962565b9081526020016040518091039020868060200190610bef9190613972565b604051610bfd929190613962565b908152602001604051809103902054600014610c5b5760405162461bcd60e51b815260206004820152601460248201527f416c726561647920636c61696d656420747970650000000000000000000000006044820152606401610630565b610c6960fe80546001019055565b6000610c7460fe5490565b9050610c8f610c896080890160608a0161359e565b82611e2b565b610cda81610ca060408a018a613972565b8080601f016020809104026020016040519081016040528093929190818152602001838380828437600092019190915250611e4592505050565b80610101610ce88980613972565b604051610cf6929190613962565b9081526020016040518091039020888060200190610d149190613972565b604051610d22929190613962565b90815260405190819003602001902055610d3c8780613972565b60008381526101026020526040902091610d57919083613ae8565b50610d656020880188613972565b60008381526101026020526040902060010191610d83919083613ae8565b50610d94608088016060890161359e565b6001600160a01b03167fb383543c70ed44f2b690ec837b9f2cbb2b0e346d0eb00c5f470c424777013ed982610dc98a80613972565b604051610dd893929190613bd2565b60405180910390a2610e18816101036000610df960808c0160608d0161359e565b6001600160a01b03168152602081019190915260400160002090611ee7565b50610e2b610e268880613972565b611ef3565b807fa109ba539900bf1b633f956d63c96fc89b814c7287f7aa50a9216d0b55657207610e5a60408a018a613972565b604051610e68929190613bec565b60405180910390a2979650505050505050565b610e8361191f565b610e8e606682611979565b610eda5760405162461bcd60e51b815260206004820152601460248201527f556e7265676973746572656420616464726573730000000000000000000000006044820152606401610630565b6107f6606682611f7d565b600054610100900460ff1615808015610f055750600054600160ff909116105b80610f1f5750303b158015610f1f575060005460ff166001145b610f915760405162461bcd60e51b815260206004820152602e60248201527f496e697469616c697a61626c653a20636f6e747261637420697320616c72656160448201527f647920696e697469616c697a65640000000000000000000000000000000000006064820152608401610630565b6000805460ff191660011790558015610fb4576000805461ff0019166101001790555b6110286040518060400160405280600a81526020017f56657269646120534254000000000000000000000000000000000000000000008152506040518060400160405280600481526020017f5653425400000000000000000000000000000000000000000000000000000000815250611f92565b611030612007565b8015611076576000805461ff0019169055604051600181527f7f26b83ff96e1f2b6a682f133852f6798a09c465da95921460cefb38474024989060200160405180910390a15b50565b6060609b80546104f690613928565b6107f6338383612082565b606060006110a0836108c9565b905060008167ffffffffffffffff8111156110bd576110bd613794565b6040519080825280602002602001820160405280156110e6578160200160208202803683370190505b50905060005b82811015611146576001600160a01b0385166000908152610103602052604090206111179082612150565b82828151811061112957611129613c00565b60209081029190910101528061113e81613c2c565b9150506110ec565b509392505050565b60008061115a83610815565b90506001600160a01b0381166111735750600092915050565b50600192915050565b61118633836116c3565b6111f85760405162461bcd60e51b815260206004820152602e60248201527f4552433732313a2063616c6c6572206973206e6f7420746f6b656e206f776e6560448201527f72206e6f7220617070726f7665640000000000000000000000000000000000006064820152608401610630565b6112048484848461215c565b50505050565b60606104e1826121da565b606080611221836115f1565b60008381526101026020526040902080546001820190829061124290613928565b80601f016020809104026020016040519081016040528092919081815260200182805461126e90613928565b80156112bb5780601f10611290576101008083540402835291602001916112bb565b820191906000526020600020905b81548152906001019060200180831161129e57829003601f168201915b505050505091508080546112ce90613928565b80601f01602080910402602001604051908101604052809291908181526020018280546112fa90613928565b80156113475780601f1061131c57610100808354040283529160200191611347565b820191906000526020600020905b81548152906001019060200180831161132a57829003601f168201915b5050505050905091509150915091565b6060600061136560666122e2565b905060008167ffffffffffffffff81111561138257611382613794565b6040519080825280602002602001820160405280156113ab578160200160208202803683370190505b50905060005b82811015611400576113c4606682612150565b8282815181106113d6576113d6613c00565b6001600160a01b0390921660209283029190910190910152806113f881613c2c565b9150506113b1565b5092915050565b61140f61191f565b6001600160a01b03811661148b5760405162461bcd60e51b815260206004820152602660248201527f4f776e61626c653a206e6577206f776e657220697320746865207a65726f206160448201527f64647265737300000000000000000000000000000000000000000000000000006064820152608401610630565b611076816119b3565b600061149f82610815565b9050336001600160a01b03821614806114c257506033546001600160a01b031633145b61150e5760405162461bcd60e51b815260206004820152601160248201527f496e76616c6964206f7065726174696f6e0000000000000000000000000000006044820152606401610630565b611517826122ec565b6000828152610102602090815260408083206001600160a01b0385168452610103909252909120611548908461232c565b506040516101019061155b908390613c45565b90815260200160405180910390208160010160405161157a9190613c45565b90815260408051602092819003830190206000908190558581526101029092528120906115a7828261341f565b6115b560018301600061341f565b505060405183815233907fc643619513d946ade440841d379d0a1e84cfdd3610c6e1b1bad092959cb2d4519060200160405180910390a2505050565b6000818152609c60205260409020546001600160a01b03166110765760405162461bcd60e51b815260206004820152601860248201527f4552433732313a20696e76616c696420746f6b656e20494400000000000000006044820152606401610630565b6000818152609e6020526040902080546001600160a01b0319166001600160a01b038416908117909155819061168a82610815565b6001600160a01b03167f8c5be1e5ebec7d5bd14f71427d1e84f3dd0314c0f7b2291e5b200ac8c7c3b92560405160405180910390a45050565b6000806116cf83610815565b9050806001600160a01b0316846001600160a01b0316148061171657506001600160a01b038082166000908152609f602090815260408083209388168352929052205460ff165b806108c15750836001600160a01b031661172f84610579565b6001600160a01b031614949350505050565b826001600160a01b031661175482610815565b6001600160a01b0316146117d05760405162461bcd60e51b815260206004820152602560248201527f4552433732313a207472616e736665722066726f6d20696e636f72726563742060448201527f6f776e65720000000000000000000000000000000000000000000000000000006064820152608401610630565b6001600160a01b03821661184b5760405162461bcd60e51b8152602060048201526024808201527f4552433732313a207472616e7366657220746f20746865207a65726f2061646460448201527f72657373000000000000000000000000000000000000000000000000000000006064820152608401610630565b611856838383612338565b611861600082611655565b6001600160a01b0383166000908152609d6020526040812080546001929061188a908490613cbb565b90915550506001600160a01b0382166000908152609d602052604081208054600192906118b8908490613cce565b90915550506000818152609c602052604080822080546001600160a01b0319166001600160a01b0386811691821790925591518493918716917fddf252ad1be2c89b69c2b068fc378daa952ba7f163c4a11628f55a4df523b3ef91a46106ef8383836123a1565b6033546001600160a01b031633146109755760405162461bcd60e51b815260206004820181905260248201527f4f776e61626c653a2063616c6c6572206973206e6f7420746865206f776e65726044820152606401610630565b6001600160a01b038116600090815260018301602052604081205415155b9392505050565b6000611997836001600160a01b038416612431565b603380546001600160a01b038381166001600160a01b0319831681179093556040519116919082907f8be0079c531659141344cd1fd0a4f28419497f9722a3daafe3b4186f6b6457e090600090a35050565b60008060019050611a4f84848080601f01602080910402602001604051908101604052809392919081815260200183838082843760009201919091525060ff939250506124809050565b61199757600084848080601f01602080910402602001604051908101604052809392919081815260200183838082843760009201829052509394505050505b815181108015611a9b5750825b15611ba757606160f81b828281518110611ab757611ab7613c00565b01602001516001600160f81b03191610801590611af85750607a60f81b828281518110611ae657611ae6613c00565b01602001516001600160f81b03191611155b158015611b5a5750603060f81b828281518110611b1757611b17613c00565b01602001516001600160f81b03191610801590611b585750603960f81b828281518110611b4657611b46613c00565b01602001516001600160f81b03191611155b155b8015611b8b5750818181518110611b7357611b73613c00565b6020910101516001600160f81b031916602d60f81b14155b15611b9557600092505b80611b9f81613c2c565b915050611a8e565b50509392505050565b6001600160a01b0384166000908152606560209081526040808320549051909291611bdf918791859101613ce1565b60408051601f198184030181526001808452838301909252925060009190602080830190803683370190505090508681600081518110611c2157611c21613c00565b60200260200101906001600160a01b031690816001600160a01b031681525050611c4d828686846124ad565b6001600160a01b0387166000908152606560205260408120805491611c7183613c2c565b919050555050505050505050565b6000611c8b60666122e2565b11611cd85760405162461bcd60e51b815260206004820152601360248201527f4e6f207369676e6572732070726f7669646564000000000000000000000000006044820152606401610630565b825160208401206000611ceb8285612659565b90506000611d01826001600160a01b0316612675565b90506000805b611d1160666122e2565b81108015611d1d575081155b15611dc2576000611d2f606683612150565b90506000611d45826001600160a01b0316612675565b905060008186604051602001611d5c929190613d03565b60408051601f19818403018152919052805160208201209091506000611d82828c612659565b9050846001600160a01b0316816001600160a01b031603611dab57600196505050505050611dc2565b85611db581613c2c565b9650505050505050611d07565b81611e215760405162461bcd60e51b815260206004820152602960248201527f44617461206973206e6f74207369676e656420627920612076616c696420736960448201526819db9a5b99c811125160ba1b6064820152608401610630565b5050505050505050565b6107f68282604051806020016040528060008152506126e5565b6000828152609c60205260409020546001600160a01b0316611ecf5760405162461bcd60e51b815260206004820152602e60248201527f45524337323155524953746f726167653a2055524920736574206f66206e6f6e60448201527f6578697374656e7420746f6b656e0000000000000000000000000000000000006064820152608401610630565b600082815260cc602052604090206106ef8282613d32565b60006119978383612431565b611f3682828080601f01602080910402602001604051908101604052809392919081815260200183838082843760009201919091525060ff939250506124809050565b6107f6576106ef82828080601f01602080910402602001604051908101604052809392919081815260200183838082843760009201919091525060ff939250506127639050565b6000611997836001600160a01b0384166127bd565b600054610100900460ff16611ffd5760405162461bcd60e51b815260206004820152602b60248201527f496e697469616c697a61626c653a20636f6e7472616374206973206e6f74206960448201526a6e697469616c697a696e6760a81b6064820152608401610630565b6107f682826128b0565b600054610100900460ff166120725760405162461bcd60e51b815260206004820152602b60248201527f496e697469616c697a61626c653a20636f6e7472616374206973206e6f74206960448201526a6e697469616c697a696e6760a81b6064820152608401610630565b61207a612934565b6109756129a7565b816001600160a01b0316836001600160a01b0316036120e35760405162461bcd60e51b815260206004820152601960248201527f4552433732313a20617070726f766520746f2063616c6c6572000000000000006044820152606401610630565b6001600160a01b038381166000818152609f6020908152604080832094871680845294825291829020805460ff191686151590811790915591519182527f17307eab39ab6107e8899845ad3d59bd9653f200f220920489ca2b5937696c31910160405180910390a3505050565b60006119978383612a12565b612167848484611741565b61217384848484612a3c565b6112045760405162461bcd60e51b815260206004820152603260248201527f4552433732313a207472616e7366657220746f206e6f6e20455243373231526560448201527131b2b4bb32b91034b6b83632b6b2b73a32b960711b6064820152608401610630565b60606121e5826115f1565b600082815260cc6020526040812080546121fe90613928565b80601f016020809104026020016040519081016040528092919081815260200182805461222a90613928565b80156122775780601f1061224c57610100808354040283529160200191612277565b820191906000526020600020905b81548152906001019060200180831161225a57829003601f168201915b50505050509050600061229560408051602081019091526000815290565b905080516000036122a7575092915050565b8151156122d95780826040516020016122c1929190613d03565b60405160208183030381529060405292505050919050565b6108c184612b85565b60006104e1825490565b6122f581612bf8565b600081815260cc60205260409020805461230e90613928565b15905061107657600081815260cc602052604081206110769161341f565b600061199783836127bd565b6001600160a01b038316158061235557506001600160a01b038216155b6106ef5760405162461bcd60e51b815260206004820152601e60248201527f4572723a20746f6b656e207472616e7366657220697320424c4f434b454400006044820152606401610630565b6001600160a01b0382166123e7576040518181527ff27b6ce5b2f5e68ddb2fd95a8a909d4ecf1daaac270935fff052feacb24f18429060200160405180910390a1505050565b6001600160a01b03821661dead146106ef576040518181527f032bc66be43dbccb7487781d168eb7bda224628a3b2c3388bdf69b532a3a16119060200160405180910390a1505050565b6000818152600183016020526040812054612478575081546001818101845560008481526020808220909301849055845484825282860190935260409020919091556104e1565b5060006104e1565b600082600101826040516124949190613df2565b9081526040519081900360200190205415159392505050565b60008151116124fe5760405162461bcd60e51b815260206004820152601360248201527f4e6f207369676e6572732070726f7669646564000000000000000000000000006044820152606401610630565b8351602085012060006125118286612659565b90506000612527826001600160a01b0316612675565b90506000805b85518110801561253b575081155b156125ef57600086828151811061255457612554613c00565b602002602001015190506000612572826001600160a01b0316612675565b905060008186604051602001612589929190613d03565b60408051601f198184030181529190528051602082012090915060006125af828d612659565b9050846001600160a01b0316816001600160a01b0316036125d8576001965050505050506125ef565b856125e281613c2c565b965050505050505061252d565b8161264e5760405162461bcd60e51b815260206004820152602960248201527f44617461206973206e6f74207369676e656420627920612076616c696420736960448201526819db9a5b99c811125160ba1b6064820152608401610630565b505050505050505050565b60008060006126688585612ca7565b9150915061114681612cec565b6060816000036126b857505060408051808201909152600481527f3078303000000000000000000000000000000000000000000000000000000000602082015290565b8160005b81156126db57806126cc81613c2c565b915050600882901c91506126bc565b6108c18482612ea2565b6126ef8383613067565b6126fc6000848484612a3c565b6106ef5760405162461bcd60e51b815260206004820152603260248201527f4552433732313a207472616e7366657220746f206e6f6e20455243373231526560448201527131b2b4bb32b91034b6b83632b6b2b73a32b960711b6064820152608401610630565b600061276f8383612480565b6124785782546001810184556000848152602090200161278f8382613d32565b50825460405160018501906127a5908590613df2565b908152604051908190036020019020555060016104e1565b600081815260018301602052604081205480156128a65760006127e1600183613cbb565b85549091506000906127f590600190613cbb565b905081811461285a57600086600001828154811061281557612815613c00565b906000526020600020015490508087600001848154811061283857612838613c00565b6000918252602080832090910192909255918252600188019052604090208390555b855486908061286b5761286b613e0e565b6001900381819060005260206000200160009055905585600101600086815260200190815260200160002060009055600193505050506104e1565b60009150506104e1565b600054610100900460ff1661291b5760405162461bcd60e51b815260206004820152602b60248201527f496e697469616c697a61626c653a20636f6e7472616374206973206e6f74206960448201526a6e697469616c697a696e6760a81b6064820152608401610630565b609a6129278382613d32565b50609b6106ef8282613d32565b600054610100900460ff1661299f5760405162461bcd60e51b815260206004820152602b60248201527f496e697469616c697a61626c653a20636f6e7472616374206973206e6f74206960448201526a6e697469616c697a696e6760a81b6064820152608401610630565b6109756131bd565b600054610100900460ff166109755760405162461bcd60e51b815260206004820152602b60248201527f496e697469616c697a61626c653a20636f6e7472616374206973206e6f74206960448201526a6e697469616c697a696e6760a81b6064820152608401610630565b6000826000018281548110612a2957612a29613c00565b9060005260206000200154905092915050565b60006001600160a01b0384163b15612b7d57604051630a85bd0160e11b81526001600160a01b0385169063150b7a0290612a80903390899088908890600401613e24565b6020604051808303816000875af1925050508015612abb575060408051601f3d908101601f19168201909252612ab891810190613e60565b60015b612b63573d808015612ae9576040519150601f19603f3d011682016040523d82523d6000602084013e612aee565b606091505b508051600003612b5b5760405162461bcd60e51b815260206004820152603260248201527f4552433732313a207472616e7366657220746f206e6f6e20455243373231526560448201527131b2b4bb32b91034b6b83632b6b2b73a32b960711b6064820152608401610630565b805181602001fd5b6001600160e01b031916630a85bd0160e11b1490506108c1565b5060016108c1565b6060612b90826115f1565b6000612ba760408051602081019091526000815290565b90506000815111612bc75760405180602001604052806000815250611997565b80612bd184613231565b604051602001612be2929190613d03565b6040516020818303038152906040529392505050565b6000612c0382610815565b9050612c1181600084612338565b612c1c600083611655565b6001600160a01b0381166000908152609d60205260408120805460019290612c45908490613cbb565b90915550506000828152609c602052604080822080546001600160a01b0319169055518391906001600160a01b038416907fddf252ad1be2c89b69c2b068fc378daa952ba7f163c4a11628f55a4df523b3ef908390a46107f6816000846123a1565b6000808251604103612cdd5760208301516040840151606085015160001a612cd187828585613332565b94509450505050612ce5565b506000905060025b9250929050565b6000816004811115612d0057612d00613e7d565b03612d085750565b6001816004811115612d1c57612d1c613e7d565b03612d695760405162461bcd60e51b815260206004820152601860248201527f45434453413a20696e76616c6964207369676e617475726500000000000000006044820152606401610630565b6002816004811115612d7d57612d7d613e7d565b03612dca5760405162461bcd60e51b815260206004820152601f60248201527f45434453413a20696e76616c6964207369676e6174757265206c656e677468006044820152606401610630565b6003816004811115612dde57612dde613e7d565b03612e365760405162461bcd60e51b815260206004820152602260248201527f45434453413a20696e76616c6964207369676e6174757265202773272076616c604482015261756560f01b6064820152608401610630565b6004816004811115612e4a57612e4a613e7d565b036110765760405162461bcd60e51b815260206004820152602260248201527f45434453413a20696e76616c6964207369676e6174757265202776272076616c604482015261756560f01b6064820152608401610630565b60606000612eb1836002613e93565b612ebc906002613cce565b67ffffffffffffffff811115612ed457612ed4613794565b6040519080825280601f01601f191660200182016040528015612efe576020820181803683370190505b509050600360fc1b81600081518110612f1957612f19613c00565b60200101906001600160f81b031916908160001a9053507f780000000000000000000000000000000000000000000000000000000000000081600181518110612f6457612f64613c00565b60200101906001600160f81b031916908160001a9053506000612f88846002613e93565b612f93906001613cce565b90505b6001811115613018577f303132333435363738396162636465660000000000000000000000000000000085600f1660108110612fd457612fd4613c00565b1a60f81b828281518110612fea57612fea613c00565b60200101906001600160f81b031916908160001a90535060049490941c9361301181613eaa565b9050612f96565b5083156119975760405162461bcd60e51b815260206004820181905260248201527f537472696e67733a20686578206c656e67746820696e73756666696369656e746044820152606401610630565b6001600160a01b0382166130bd5760405162461bcd60e51b815260206004820181905260248201527f4552433732313a206d696e7420746f20746865207a65726f20616464726573736044820152606401610630565b6000818152609c60205260409020546001600160a01b0316156131225760405162461bcd60e51b815260206004820152601c60248201527f4552433732313a20746f6b656e20616c7265616479206d696e746564000000006044820152606401610630565b61312e60008383612338565b6001600160a01b0382166000908152609d60205260408120805460019290613157908490613cce565b90915550506000818152609c602052604080822080546001600160a01b0319166001600160a01b03861690811790915590518392907fddf252ad1be2c89b69c2b068fc378daa952ba7f163c4a11628f55a4df523b3ef908290a46107f6600083836123a1565b600054610100900460ff166132285760405162461bcd60e51b815260206004820152602b60248201527f496e697469616c697a61626c653a20636f6e7472616374206973206e6f74206960448201526a6e697469616c697a696e6760a81b6064820152608401610630565b610975336119b3565b6060816000036132585750506040805180820190915260018152600360fc1b602082015290565b8160005b8115613282578061326c81613c2c565b915061327b9050600a83613ed7565b915061325c565b60008167ffffffffffffffff81111561329d5761329d613794565b6040519080825280601f01601f1916602001820160405280156132c7576020820181803683370190505b5090505b84156108c1576132dc600183613cbb565b91506132e9600a86613eeb565b6132f4906030613cce565b60f81b81838151811061330957613309613c00565b60200101906001600160f81b031916908160001a90535061332b600a86613ed7565b94506132cb565b6000807f7fffffffffffffffffffffffffffffff5d576e7357a4501ddfe92f46681b20a08311156133695750600090506003613416565b8460ff16601b1415801561338157508460ff16601c14155b156133925750600090506004613416565b6040805160008082526020820180845289905260ff881692820192909252606081018690526080810185905260019060a0016020604051602081039080840390855afa1580156133e6573d6000803e3d6000fd5b5050604051601f1901519150506001600160a01b03811661340f57600060019250925050613416565b9150600090505b94509492505050565b50805461342b90613928565b6000825580601f1061343b575050565b601f01602090049060005260206000209081019061107691905b808211156134695760008155600101613455565b5090565b6001600160e01b03198116811461107657600080fd5b60006020828403121561349557600080fd5b81356119978161346d565b60005b838110156134bb5781810151838201526020016134a3565b50506000910152565b600081518084526134dc8160208601602086016134a0565b601f01601f19169290920160200192915050565b60208152600061199760208301846134c4565b60006020828403121561351557600080fd5b5035919050565b80356001600160a01b038116811461353357600080fd5b919050565b6000806040838503121561354b57600080fd5b6135548361351c565b946020939093013593505050565b60008060006060848603121561357757600080fd5b6135808461351c565b925061358e6020850161351c565b9150604084013590509250925092565b6000602082840312156135b057600080fd5b6119978261351c565b60008083601f8401126135cb57600080fd5b50813567ffffffffffffffff8111156135e357600080fd5b602083019150836020828501011115612ce557600080fd5b6000806000806040858703121561361157600080fd5b843567ffffffffffffffff8082111561362957600080fd5b613635888389016135b9565b9096509450602087013591508082111561364e57600080fd5b5061365b878288016135b9565b95989497509550505050565b6000806000806000806080878903121561368057600080fd5b6136898761351c565b9550602087013567ffffffffffffffff808211156136a657600080fd5b9088019060c0828b0312156136ba57600080fd5b909550604088013590808211156136d057600080fd5b6136dc8a838b016135b9565b909650945060608901359150808211156136f557600080fd5b5061370289828a016135b9565b979a9699509497509295939492505050565b6000806040838503121561372757600080fd5b6137308361351c565b91506020830135801515811461374557600080fd5b809150509250929050565b6020808252825182820181905260009190848201906040850190845b818110156137885783518352928401929184019160010161376c565b50909695505050505050565b634e487b7160e01b600052604160045260246000fd5b600080600080608085870312156137c057600080fd5b6137c98561351c565b93506137d76020860161351c565b925060408501359150606085013567ffffffffffffffff808211156137fb57600080fd5b818701915087601f83011261380f57600080fd5b81358181111561382157613821613794565b604051601f8201601f19908116603f0116810190838211818310171561384957613849613794565b816040528281528a602084870101111561386257600080fd5b82602086016020830137600060208483010152809550505050505092959194509250565b60408152600061389960408301856134c4565b82810360208401526138ab81856134c4565b95945050505050565b600080604083850312156138c757600080fd5b6138d08361351c565b91506138de6020840161351c565b90509250929050565b6020808252825182820181905260009190848201906040850190845b818110156137885783516001600160a01b031683529284019291840191600101613903565b600181811c9082168061393c57607f821691505b60208210810361395c57634e487b7160e01b600052602260045260246000fd5b50919050565b8183823760009101908152919050565b6000808335601e1984360301811261398957600080fd5b83018035915067ffffffffffffffff8211156139a457600080fd5b602001915036819003821315612ce557600080fd5b60006bffffffffffffffffffffffff19808b60601b168352888a60148501378883016014810160008152888a82375087810190506014810160008152868882375060609490941b1692909301601481019290925250602801979650505050505050565b60008651613a2e818460208b016134a0565b82018587823760009086019081528385823760009301928352509095945050505050565b848682376000858201602d60f81b8082528587600184013760019190950190810194909452505060601b6bffffffffffffffffffffffff191660028201526016019392505050565b601f8211156106ef57600081815260208120601f850160051c81016020861015613ac15750805b601f850160051c820191505b81811015613ae057828155600101613acd565b505050505050565b67ffffffffffffffff831115613b0057613b00613794565b613b1483613b0e8354613928565b83613a9a565b6000601f841160018114613b485760008515613b305750838201355b600019600387901b1c1916600186901b178355613ba2565b600083815260209020601f19861690835b82811015613b795786850135825560209485019460019092019101613b59565b5086821015613b965760001960f88860031b161c19848701351681555b505060018560011b0183555b5050505050565b81835281816020850137506000828201602090810191909152601f909101601f19169091010190565b8381526040602082015260006138ab604083018486613ba9565b6020815260006108c1602083018486613ba9565b634e487b7160e01b600052603260045260246000fd5b634e487b7160e01b600052601160045260246000fd5b600060018201613c3e57613c3e613c16565b5060010190565b6000808354613c5381613928565b60018281168015613c6b5760018114613c8057613caf565b60ff1984168752821515830287019450613caf565b8760005260208060002060005b85811015613ca65781548a820152908401908201613c8d565b50505082870194505b50929695505050505050565b818103818111156104e1576104e1613c16565b808201808211156104e1576104e1613c16565b60008351613cf38184602088016134a0565b9190910191825250602001919050565b60008351613d158184602088016134a0565b835190830190613d298183602088016134a0565b01949350505050565b815167ffffffffffffffff811115613d4c57613d4c613794565b613d6081613d5a8454613928565b84613a9a565b602080601f831160018114613d955760008415613d7d5750858301515b600019600386901b1c1916600185901b178555613ae0565b600085815260208120601f198616915b82811015613dc457888601518255948401946001909101908401613da5565b5085821015613de25787850151600019600388901b60f8161c191681555b5050505050600190811b01905550565b60008251613e048184602087016134a0565b9190910192915050565b634e487b7160e01b600052603160045260246000fd5b60006001600160a01b03808716835280861660208401525083604083015260806060830152613e5660808301846134c4565b9695505050505050565b600060208284031215613e7257600080fd5b81516119978161346d565b634e487b7160e01b600052602160045260246000fd5b80820281158282048414176104e1576104e1613c16565b600081613eb957613eb9613c16565b506000190190565b634e487b7160e01b600052601260045260246000fd5b600082613ee657613ee6613ec1565b500490565b600082613efa57613efa613ec1565b50069056fea264697066735822122044768cc76bb3dd1834a993b9582fe6fd095a6276f6f25cc7d9703143f215eb3864736f6c63430008110033",
  "linkReferences": {},
  "deployedLinkReferences": {}
}