{
  "_format": "hh-sol-artifact-1",
  "contractName": "VeridaDIDLinkage",
  "sourceName": "contracts/VeridaDIDLinkage.sol",
  "abi": [
    {
      "inputs": [],
      "name": "InvalidAddress",
      "type": "error"
    },
    {
      "inputs": [],
      "name": "InvalidIdentifier",
      "type": "error"
    },
    {
      "inputs": [],
      "name": "InvalidIdentifierType",
      "type": "error"
    },
    {
      "inputs": [],
      "name": "InvalidSignature",
      "type": "error"
    },
    {
      "inputs": [],
      "name": "NoSigners",
      "type": "error"
    },
    {
      "inputs": [],
      "name": "RegisteredIdentifier",
      "type": "error"
    },
    {
      "inputs": [],
      "name": "RegisteredIdentifierType",
      "type": "error"
    },
    {
      "inputs": [],
      "name": "RegisteredSigner",
      "type": "error"
    },
    {
      "inputs": [],
      "name": "UnregisteredSigner",
      "type": "error"
    },
    {
      "anonymous": false,
      "inputs": [
        {
          "indexed": false,
          "internalType": "string",
          "name": "identifierTypeId",
          "type": "string"
        },
        {
          "indexed": false,
          "internalType": "bool",
          "name": "isSelfSigner",
          "type": "bool"
        }
      ],
      "name": "AddIdentifierType",
      "type": "event"
    },
    {
      "anonymous": false,
      "inputs": [
        {
          "indexed": false,
          "internalType": "address",
          "name": "signerAddress",
          "type": "address"
        }
      ],
      "name": "AddTrustedSigner",
      "type": "event"
    },
    {
      "anonymous": false,
      "inputs": [
        {
          "indexed": false,
          "internalType": "uint8",
          "name": "version",
          "type": "uint8"
        }
      ],
      "name": "Initialized",
      "type": "event"
    },
    {
      "anonymous": false,
      "inputs": [
        {
          "indexed": false,
          "internalType": "string",
          "name": "did",
          "type": "string"
        },
        {
          "indexed": false,
          "internalType": "string",
          "name": "identifier",
          "type": "string"
        }
      ],
      "name": "Link",
      "type": "event"
    },
    {
      "anonymous": false,
      "inputs": [
        {
          "indexed": true,
          "internalType": "address",
          "name": "previousOwner",
          "type": "address"
        },
        {
          "indexed": true,
          "internalType": "address",
          "name": "newOwner",
          "type": "address"
        }
      ],
      "name": "OwnershipTransferred",
      "type": "event"
    },
    {
      "anonymous": false,
      "inputs": [
        {
          "indexed": false,
          "internalType": "address",
          "name": "signerAddress",
          "type": "address"
        }
      ],
      "name": "RemoveTrustedSigner",
      "type": "event"
    },
    {
      "anonymous": false,
      "inputs": [
        {
          "indexed": false,
          "internalType": "string",
          "name": "did",
          "type": "string"
        },
        {
          "indexed": false,
          "internalType": "string",
          "name": "identifier",
          "type": "string"
        }
      ],
      "name": "Unlink",
      "type": "event"
    },
    {
      "inputs": [
        {
          "internalType": "string",
          "name": "identifierTypeId",
          "type": "string"
        },
        {
          "internalType": "bool",
          "name": "isSelfSigner",
          "type": "bool"
        }
      ],
      "name": "addIdentifierType",
      "outputs": [],
      "stateMutability": "payable",
      "type": "function"
    },
    {
      "inputs": [
        {
          "internalType": "address",
          "name": "didAddress",
          "type": "address"
        }
      ],
      "name": "addTrustedSigner",
      "outputs": [],
      "stateMutability": "payable",
      "type": "function"
    },
    {
      "inputs": [
        {
          "internalType": "string",
          "name": "did",
          "type": "string"
        }
      ],
      "name": "getLinks",
      "outputs": [
        {
          "internalType": "string[]",
          "name": "",
          "type": "string[]"
        }
      ],
      "stateMutability": "view",
      "type": "function"
    },
    {
      "inputs": [],
      "name": "initialize",
      "outputs": [],
      "stateMutability": "nonpayable",
      "type": "function"
    },
    {
      "inputs": [
        {
          "internalType": "string",
          "name": "did",
          "type": "string"
        },
        {
          "internalType": "string",
          "name": "identifier",
          "type": "string"
        }
      ],
      "name": "isLinked",
      "outputs": [
        {
          "internalType": "bool",
          "name": "",
          "type": "bool"
        }
      ],
      "stateMutability": "view",
      "type": "function"
    },
    {
      "inputs": [
        {
          "internalType": "address",
          "name": "signer",
          "type": "address"
        }
      ],
      "name": "isTrustedSignerAddress",
      "outputs": [
        {
          "internalType": "bool",
          "name": "",
          "type": "bool"
        }
      ],
      "stateMutability": "view",
      "type": "function"
    },
    {
      "inputs": [
        {
          "internalType": "address",
          "name": "didAddr",
          "type": "address"
        },
        {
          "components": [
            {
              "internalType": "string",
              "name": "identifier",
              "type": "string"
            },
            {
              "internalType": "bytes",
              "name": "signedData",
              "type": "bytes"
            },
            {
              "internalType": "bytes",
              "name": "signedProof",
              "type": "bytes"
            }
          ],
          "internalType": "struct IVeridaDIDLinkage.LinkInfo",
          "name": "info",
          "type": "tuple"
        },
        {
          "internalType": "bytes",
          "name": "requestSignature",
          "type": "bytes"
        },
        {
          "internalType": "bytes",
          "name": "requestProof",
          "type": "bytes"
        }
      ],
      "name": "link",
      "outputs": [],
      "stateMutability": "nonpayable",
      "type": "function"
    },
    {
      "inputs": [
        {
          "internalType": "string",
          "name": "identifier",
          "type": "string"
        }
      ],
      "name": "lookup",
      "outputs": [
        {
          "internalType": "string",
          "name": "",
          "type": "string"
        }
      ],
      "stateMutability": "view",
      "type": "function"
    },
    {
      "inputs": [
        {
          "internalType": "address",
          "name": "did",
          "type": "address"
        }
      ],
      "name": "nonce",
      "outputs": [
        {
          "internalType": "uint256",
          "name": "",
          "type": "uint256"
        }
      ],
      "stateMutability": "view",
      "type": "function"
    },
    {
      "inputs": [],
      "name": "owner",
      "outputs": [
        {
          "internalType": "address",
          "name": "",
          "type": "address"
        }
      ],
      "stateMutability": "view",
      "type": "function"
    },
    {
      "inputs": [
        {
          "internalType": "address",
          "name": "didAddress",
          "type": "address"
        }
      ],
      "name": "removeTrustedSigner",
      "outputs": [],
      "stateMutability": "payable",
      "type": "function"
    },
    {
      "inputs": [],
      "name": "renounceOwnership",
      "outputs": [],
      "stateMutability": "nonpayable",
      "type": "function"
    },
    {
      "inputs": [
        {
          "internalType": "address",
          "name": "newOwner",
          "type": "address"
        }
      ],
      "name": "transferOwnership",
      "outputs": [],
      "stateMutability": "nonpayable",
      "type": "function"
    },
    {
      "inputs": [
        {
          "internalType": "address",
          "name": "didAddr",
          "type": "address"
        },
        {
          "internalType": "string",
          "name": "identifier",
          "type": "string"
        },
        {
          "internalType": "bytes",
          "name": "requestSignature",
          "type": "bytes"
        },
        {
          "internalType": "bytes",
          "name": "requestProof",
          "type": "bytes"
        }
      ],
      "name": "unlink",
      "outputs": [],
      "stateMutability": "nonpayable",
      "type": "function"
    }
  ],
  "bytecode": "0x608060405234801561001057600080fd5b50612c97806100206000396000f3fe6080604052600436106100dd5760003560e01c80638129fc1c1161007f578063de761a8e11610059578063de761a8e14610242578063ee050c8914610262578063f2fde38b14610275578063f67187ac1461029557600080fd5b80638129fc1c146101d85780638da5cb5b146101ed578063b7210f8d1461021557600080fd5b80635580ed35116100bb5780635580ed351461014c57806370ae92d21461016c578063715018a6146101b05780637d66527b146101c557600080fd5b80632307fd2b146100e2578063270792be146101175780633fff987b14610137575b600080fd5b3480156100ee57600080fd5b506101026100fd366004612431565b6102c2565b60405190151581526020015b60405180910390f35b34801561012357600080fd5b5061010261013236600461248e565b6102d5565b61014a610145366004612431565b610341565b005b34801561015857600080fd5b5061014a6101673660046124fa565b6103d7565b34801561017857600080fd5b506101a2610187366004612431565b6001600160a01b031660009081526065602052604090205490565b60405190815260200161010e565b3480156101bc57600080fd5b5061014a6105d9565b61014a6101d3366004612431565b6105ed565b3480156101e457600080fd5b5061014a61067b565b3480156101f957600080fd5b506033546040516001600160a01b03909116815260200161010e565b34801561022157600080fd5b506102356102303660046125a5565b61079c565b60405161010e9190612637565b34801561024e57600080fd5b5061014a61025d366004612699565b610863565b61014a610270366004612746565b610d1c565b34801561028157600080fd5b5061014a610290366004612431565b610e22565b3480156102a157600080fd5b506102b56102b03660046125a5565b610eaf565b60405161010e91906127a2565b60006102cf606683610f6e565b92915050565b600061033883838080601f01602080910402602001604051908101604052809392919081815260200183838082843760009201919091525050604051606a92506103239150899089906127b5565b90815260405190819003602001902090610f93565b95945050505050565b610349610fc0565b610354606682610f6e565b1561038b576040517f9157934e00000000000000000000000000000000000000000000000000000000815260040160405180910390fd5b61039660668261101a565b506040516001600160a01b03821681527f80190299b20df830d96214905f4fb155ea39546d3f78b119b347172ff38261d0906020015b60405180910390a150565b60006103eb886001600160a01b031661102f565b9050806040516020016103fe91906127c5565b60408051601f198184030181526020601f8a0181900481028401810190925288835292506104529190899089908190840183828082843760009201919091525050604051606a92506103239150859061280a565b61046f5760405163eb48439160e01b815260040160405180910390fd5b600081888860405160200161048693929190612826565b60408051601f198184030181526020601f89018190048102840181019092528783529250610507918b918491908a908a908190840183828082843760009201919091525050604080516020601f8c018190048102820181019092528a815292508a915089908190840183828082843760009201919091525061104692505050565b506069878760405161051a9291906127b5565b9081526020016040518091039020600061053491906123c7565b61059387878080601f01602080910402602001604051908101604052809392919081815260200183838082843760009201919091525050604051606a925061057e9150859061280a565b90815260405190819003602001902090611115565b507f9eb1aaaca8b1af07bd616125a2e0276f5813fce2053dabff74a8527254a776bc8188886040516105c793929190612886565b60405180910390a15050505050505050565b6105e1610fc0565b6105eb60006112db565b565b6105f5610fc0565b610600606682610f6e565b610636576040517faec5b96900000000000000000000000000000000000000000000000000000000815260040160405180910390fd5b610641606682611345565b506040516001600160a01b03821681527fb38312df208058ed8fa64da03e169855d33d1182710e488eecd49cc53254fc7f906020016103cc565b600054610100900460ff161580801561069b5750600054600160ff909116105b806106b55750303b1580156106b5575060005460ff166001145b61072c5760405162461bcd60e51b815260206004820152602e60248201527f496e697469616c697a61626c653a20636f6e747261637420697320616c72656160448201527f647920696e697469616c697a656400000000000000000000000000000000000060648201526084015b60405180910390fd5b6000805460ff19166001179055801561074f576000805461ff0019166101001790555b61075761135a565b8015610799576000805461ff0019169055604051600181527f7f26b83ff96e1f2b6a682f133852f6798a09c465da95921460cefb3847402498906020016103cc565b50565b60606000606a84846040516107b29291906127b5565b9081526020016040518091039020905060006107cc825490565b905060008167ffffffffffffffff8111156107e9576107e96128b6565b60405190808252806020026020018201604052801561081c57816020015b60608152602001906001900390816108075790505b50905060005b828110156108595761083484826113d5565b828281518110610846576108466128cc565b6020908102919091010152600101610822565b5095945050505050565b60608061087861087388806128e2565b611401565b9092509050600060688360405161088f919061280a565b9081526040519081900360200190205460ff1660028111156108b3576108b3612929565b036108ea576040517f38791bed00000000000000000000000000000000000000000000000000000000815260040160405180910390fd5b60006108fe896001600160a01b031661102f565b90508060405160200161091191906127c5565b60408051601f198184030181529190529050606961092f89806128e2565b60405161093d9291906127b5565b908152602001604051809103902080546109569061293f565b15905061098f576040517f6c6c356400000000000000000000000000000000000000000000000000000000815260040160405180910390fd5b60008961099c8a806128e2565b6109a960208d018d6128e2565b6109b660408f018f6128e2565b6040516020016109cc9796959493929190612979565b60408051601f198184030181526020601f8b018190048102840181019092528983529250610a4d918c918491908c908c908190840183828082843760009201919091525050604080516020601f8e018190048102820181019092528c815292508c91508b908190840183828082843760009201919091525061104692505050565b81610a588a806128e2565b604051602001610a6a93929190612826565b60408051601f1981840301815291905290506001606885604051610a8e919061280a565b9081526040519081900360200190205460ff166002811115610ab257610ab2612929565b03610ba25760408051600180825281830190925260009160208083019080368337019050509050610ae2846116d4565b81600081518110610af557610af56128cc565b6001600160a01b03909216602092830291909101820152610b9c908390610b1e908d018d6128e2565b8080601f016020809104026020016040519081016040528093929190818152602001838380828437600092019190915250610b609250505060408e018e6128e2565b8080601f0160208091040260200160405190810160405280939291908181526020018383808284376000920191909152508792506118f5915050565b50610c2f565b610c2f81610bb360208c018c6128e2565b8080601f016020809104026020016040519081016040528093929190818152602001838380828437600092019190915250610bf59250505060408d018d6128e2565b8080601f016020809104026020016040519081016040528093929190818152602001838380828437600092019190915250611a5f92505050565b50806069610c3d8a806128e2565b604051610c4b9291906127b5565b90815260200160405180910390209081610c659190612a1f565b50610ccd610c7389806128e2565b8080601f01602080910402602001604051908101604052809392919081815260200183838082843760009201919091525050604051606a9250610cb89150859061280a565b90815260405190819003602001902090611bc9565b507f5e3d0e4c4db5013414bcd8385e299ab097819b72bc1aa3f5fb5ab75e6db321f781610cfa8a806128e2565b604051610d0993929190612886565b60405180910390a1505050505050505050565b610d24610fc0565b600060688484604051610d389291906127b5565b9081526040519081900360200190205460ff166002811115610d5c57610d5c612929565b14610d93576040517f8216c20a00000000000000000000000000000000000000000000000000000000815260040160405180910390fd5b80610d9f576002610da2565b60015b60688484604051610db49291906127b5565b908152604051908190036020019020805460ff19166001836002811115610ddd57610ddd612929565b02179055507f18375e81d02096373e4f7e2bd6590a00264d733797b5efc4c6ef0a0d7e973e53838383604051610e1593929190612adf565b60405180910390a1505050565b610e2a610fc0565b6001600160a01b038116610ea65760405162461bcd60e51b815260206004820152602660248201527f4f776e61626c653a206e6577206f776e657220697320746865207a65726f206160448201527f64647265737300000000000000000000000000000000000000000000000000006064820152608401610723565b610799816112db565b6060610ebb8383611401565b505060698383604051610ecf9291906127b5565b90815260200160405180910390208054610ee89061293f565b80601f0160208091040260200160405190810160405280929190818152602001828054610f149061293f565b8015610f615780601f10610f3657610100808354040283529160200191610f61565b820191906000526020600020905b815481529060010190602001808311610f4457829003601f168201915b5050505050905092915050565b6001600160a01b038116600090815260018301602052604081205415155b9392505050565b60008260010182604051610fa7919061280a565b9081526040519081900360200190205415159392505050565b6033546001600160a01b031633146105eb5760405162461bcd60e51b815260206004820181905260248201527f4f776e61626c653a2063616c6c6572206973206e6f7420746865206f776e65726044820152606401610723565b6000610f8c836001600160a01b038416611c2b565b60606102cf8261103e84611c72565b600101611cdc565b6001600160a01b0384166000908152606560209081526040808320549051909291611075918791859101612b05565b60408051601f1981840301815260018084528383019092529250600091906020808301908036833701905050905086816000815181106110b7576110b76128cc565b60200260200101906001600160a01b031690816001600160a01b0316815250506110e3828686846118f5565b6001600160a01b038716600090815260656020526040812080549161110783612b3d565b919050555050505050505050565b600080836001018360405161112a919061280a565b9081526020016040518091039020549050806000146112ca576000611150600183612b56565b855490915060009061116490600190612b56565b905081811461126b576000866000018281548110611184576111846128cc565b9060005260206000200180546111999061293f565b80601f01602080910402602001604051908101604052809291908181526020018280546111c59061293f565b80156112125780601f106111e757610100808354040283529160200191611212565b820191906000526020600020905b8154815290600101906020018083116111f557829003601f168201915b505050505090508087600001848154811061122f5761122f6128cc565b9060005260206000200190816112459190612a1f565b50838760010182604051611259919061280a565b90815260405190819003602001902055505b855486908061127c5761127c612b69565b60019003818190600052602060002001600061129891906123c7565b905585600101856040516112ac919061280a565b908152602001604051809103902060009055600193505050506102cf565b60009150506102cf565b5092915050565b603380546001600160a01b038381167fffffffffffffffffffffffff0000000000000000000000000000000000000000831681179093556040519116919082907f8be0079c531659141344cd1fd0a4f28419497f9722a3daafe3b4186f6b6457e090600090a35050565b6000610f8c836001600160a01b038416611ebd565b600054610100900460ff166113c55760405162461bcd60e51b815260206004820152602b60248201527f496e697469616c697a61626c653a20636f6e7472616374206973206e6f74206960448201526a6e697469616c697a696e6760a81b6064820152608401610723565b6113cd611fa6565b6105eb612019565b60608260000182815481106113ec576113ec6128cc565b906000526020600020018054610ee89061293f565b606080600084848080601f016020809104026020016040519081016040528093929190818152602001838380828437600092018290525084519495509390930392506114639150505760405163eb48439160e01b815260040160405180910390fd5b8051806000805b838210801561147c575060028160ff16105b156114d857848281518110611493576114936128cc565b01602001517fff0000000000000000000000000000000000000000000000000000000000000016601f60fa1b036114cd5790915081906001015b81600101915061146a565b83821415806114eb57508060ff16600114155b806114f4575082155b806115095750611505600185612b56565b8310155b156115275760405163eb48439160e01b815260040160405180910390fd5b60008367ffffffffffffffff811115611542576115426128b6565b6040519080825280601f01601f19166020018201604052801561156c576020820181803683370190505b509050600092505b838310156115cd5785838151811061158e5761158e6128cc565b602001015160f81c60f81b8184815181106115ab576115ab6128cc565b60200101906001600160f81b031916908160001a905350826001019250611574565b600060016115db8688612b56565b6115e59190612b56565b67ffffffffffffffff8111156115fd576115fd6128b6565b6040519080825280601f01601f191660200182016040528015611627576020820181803683370190505b509050611635856001612b7f565b93505b858410156116c257868481518110611652576116526128cc565b01602001517fff00000000000000000000000000000000000000000000000000000000000000168160016116868888612b56565b6116909190612b56565b815181106116a0576116a06128cc565b60200101906001600160f81b031916908160001a905350836001019350611638565b909750955050505050505b9250929050565b80516000908290602a14611714576040517fe6c4247b00000000000000000000000000000000000000000000000000000000815260040160405180910390fd5b6000808060025b602a8110156118ea5761173061010085612b92565b9350848181518110611744576117446128cc565b016020015160f81c92508461175a826001612b7f565b8151811061176a5761176a6128cc565b016020015160f81c915060616001600160a01b0384161080159061179857506066836001600160a01b031611155b156117af576117a8605784612bc4565b925061181a565b6041836001600160a01b0316101580156117d357506046836001600160a01b031611155b156117e3576117a8603784612bc4565b6030836001600160a01b03161015801561180757506039836001600160a01b031611155b1561181a57611817603084612bc4565b92505b6061826001600160a01b03161015801561183e57506066826001600160a01b031611155b156118555761184e605783612bc4565b91506118c0565b6041826001600160a01b03161015801561187957506046826001600160a01b031611155b156118895761184e603783612bc4565b6030826001600160a01b0316101580156118ad57506039826001600160a01b031611155b156118c0576118bd603083612bc4565b91505b816118cc846010612b92565b6118d69190612be4565b6118e09085612be4565b935060020161171b565b509195945050505050565b805160000361191757604051630c7af40f60e41b815260040160405180910390fd5b8351158061192457508251155b8061192e57508151155b1561194c57604051638baa579f60e01b815260040160405180910390fd5b83516020850120600061195f8286612084565b90506000611975826001600160a01b031661102f565b90506000805b855181108015611989575081155b15611a365760008682815181106119a2576119a26128cc565b6020026020010151905060006119c0826001600160a01b031661102f565b9050600081866040516020016119d7929190612c04565b60408051601f198184030181529190528051602082012090915060006119fd828d612084565b9050846001600160a01b0316816001600160a01b031603611a2657600196505050505050611a36565b856001019550505050505061197b565b81611a5457604051638baa579f60e01b815260040160405180910390fd5b505050505050505050565b611a6960666120a8565b600003611a8957604051630c7af40f60e41b815260040160405180910390fd5b82511580611a9657508151155b80611aa057508051155b15611abe57604051638baa579f60e01b815260040160405180910390fd5b825160208401206000611ad18285612084565b90506000611ae7826001600160a01b031661102f565b90506000805b611af760666120a8565b81108015611b03575081155b15611ba1576000611b156066836120b2565b90506000611b2b826001600160a01b031661102f565b905060008186604051602001611b42929190612c04565b60408051601f19818403018152919052805160208201209091506000611b68828c612084565b9050846001600160a01b0316816001600160a01b031603611b9157600196505050505050611ba1565b8560010195505050505050611aed565b81611bbf57604051638baa579f60e01b815260040160405180910390fd5b5050505050505050565b6000611bd58383610f93565b611c2357825460018101845560008481526020902001611bf58382612a1f565b5082546040516001850190611c0b90859061280a565b908152604051908190036020019020555060016102cf565b5060006102cf565b6000818152600183016020526040812054611c23575081546001818101845560008481526020808220909301849055845484825282860190935260409020919091556102cf565b600080608083901c15611c8a5760809290921c916010015b604083901c15611c9f5760409290921c916008015b602083901c15611cb45760209290921c916004015b601083901c15611cc95760109290921c916002015b600883901c156102cf5760010192915050565b60606000611ceb836002612c33565b611cf6906002612b7f565b67ffffffffffffffff811115611d0e57611d0e6128b6565b6040519080825280601f01601f191660200182016040528015611d38576020820181803683370190505b5090507f300000000000000000000000000000000000000000000000000000000000000081600081518110611d6f57611d6f6128cc565b60200101906001600160f81b031916908160001a9053507f780000000000000000000000000000000000000000000000000000000000000081600181518110611dba57611dba6128cc565b60200101906001600160f81b031916908160001a9053506000611dde846002612c33565b611de9906001612b7f565b90505b6001811115611e6e577f303132333435363738396162636465660000000000000000000000000000000085600f1660108110611e2a57611e2a6128cc565b1a60f81b828281518110611e4057611e406128cc565b60200101906001600160f81b031916908160001a90535060049490941c93611e6781612c4a565b9050611dec565b508315610f8c5760405162461bcd60e51b815260206004820181905260248201527f537472696e67733a20686578206c656e67746820696e73756666696369656e746044820152606401610723565b600081815260018301602052604081205480156112ca576000611ee1600183612b56565b8554909150600090611ef590600190612b56565b9050818114611f5a576000866000018281548110611f1557611f156128cc565b9060005260206000200154905080876000018481548110611f3857611f386128cc565b6000918252602080832090910192909255918252600188019052604090208390555b8554869080611f6b57611f6b612b69565b6001900381819060005260206000200160009055905585600101600086815260200190815260200160002060009055600193505050506102cf565b600054610100900460ff166120115760405162461bcd60e51b815260206004820152602b60248201527f496e697469616c697a61626c653a20636f6e7472616374206973206e6f74206960448201526a6e697469616c697a696e6760a81b6064820152608401610723565b6105eb6120be565b600054610100900460ff166105eb5760405162461bcd60e51b815260206004820152602b60248201527f496e697469616c697a61626c653a20636f6e7472616374206973206e6f74206960448201526a6e697469616c697a696e6760a81b6064820152608401610723565b60008060006120938585612132565b915091506120a081612174565b509392505050565b60006102cf825490565b6000610f8c83836122d9565b600054610100900460ff166121295760405162461bcd60e51b815260206004820152602b60248201527f496e697469616c697a61626c653a20636f6e7472616374206973206e6f74206960448201526a6e697469616c697a696e6760a81b6064820152608401610723565b6105eb336112db565b60008082516041036121685760208301516040840151606085015160001a61215c87828585612303565b945094505050506116cd565b506000905060026116cd565b600081600481111561218857612188612929565b036121905750565b60018160048111156121a4576121a4612929565b036121f15760405162461bcd60e51b815260206004820152601860248201527f45434453413a20696e76616c6964207369676e617475726500000000000000006044820152606401610723565b600281600481111561220557612205612929565b036122525760405162461bcd60e51b815260206004820152601f60248201527f45434453413a20696e76616c6964207369676e6174757265206c656e677468006044820152606401610723565b600381600481111561226657612266612929565b036107995760405162461bcd60e51b815260206004820152602260248201527f45434453413a20696e76616c6964207369676e6174757265202773272076616c60448201527f75650000000000000000000000000000000000000000000000000000000000006064820152608401610723565b60008260000182815481106122f0576122f06128cc565b9060005260206000200154905092915050565b6000807f7fffffffffffffffffffffffffffffff5d576e7357a4501ddfe92f46681b20a083111561233a57506000905060036123be565b6040805160008082526020820180845289905260ff881692820192909252606081018690526080810185905260019060a0016020604051602081039080840390855afa15801561238e573d6000803e3d6000fd5b5050604051601f1901519150506001600160a01b0381166123b7576000600192509250506123be565b9150600090505b94509492505050565b5080546123d39061293f565b6000825580601f106123e3575050565b601f01602090049060005260206000209081019061079991905b8082111561241157600081556001016123fd565b5090565b80356001600160a01b038116811461242c57600080fd5b919050565b60006020828403121561244357600080fd5b610f8c82612415565b60008083601f84011261245e57600080fd5b50813567ffffffffffffffff81111561247657600080fd5b6020830191508360208285010111156116cd57600080fd5b600080600080604085870312156124a457600080fd5b843567ffffffffffffffff808211156124bc57600080fd5b6124c88883890161244c565b909650945060208701359150808211156124e157600080fd5b506124ee8782880161244c565b95989497509550505050565b60008060008060008060006080888a03121561251557600080fd5b61251e88612415565b9650602088013567ffffffffffffffff8082111561253b57600080fd5b6125478b838c0161244c565b909850965060408a013591508082111561256057600080fd5b61256c8b838c0161244c565b909650945060608a013591508082111561258557600080fd5b506125928a828b0161244c565b989b979a50959850939692959293505050565b600080602083850312156125b857600080fd5b823567ffffffffffffffff8111156125cf57600080fd5b6125db8582860161244c565b90969095509350505050565b60005b838110156126025781810151838201526020016125ea565b50506000910152565b600081518084526126238160208601602086016125e7565b601f01601f19169290920160200192915050565b6000602080830181845280855180835260408601915060408160051b870101925083870160005b8281101561268c57603f1988860301845261267a85835161260b565b9450928501929085019060010161265e565b5092979650505050505050565b600080600080600080608087890312156126b257600080fd5b6126bb87612415565b9550602087013567ffffffffffffffff808211156126d857600080fd5b908801906060828b0312156126ec57600080fd5b9095506040880135908082111561270257600080fd5b61270e8a838b0161244c565b9096509450606089013591508082111561272757600080fd5b5061273489828a0161244c565b979a9699509497509295939492505050565b60008060006040848603121561275b57600080fd5b833567ffffffffffffffff81111561277257600080fd5b61277e8682870161244c565b9094509250506020840135801515811461279757600080fd5b809150509250925092565b602081526000610f8c602083018461260b565b8183823760009101908152919050565b7f6469643a7664613a0000000000000000000000000000000000000000000000008152600082516127fd8160088501602087016125e7565b9190910160080192915050565b6000825161281c8184602087016125e7565b9190910192915050565b600084516128388184602089016125e7565b601f60fa1b908301908152838560018301376000930160010192835250909392505050565b81835281816020850137506000828201602090810191909152601f909101601f19169091010190565b604081526000612899604083018661260b565b82810360208401526128ac81858761285d565b9695505050505050565b634e487b7160e01b600052604160045260246000fd5b634e487b7160e01b600052603260045260246000fd5b6000808335601e198436030181126128f957600080fd5b83018035915067ffffffffffffffff82111561291457600080fd5b6020019150368190038213156116cd57600080fd5b634e487b7160e01b600052602160045260246000fd5b600181811c9082168061295357607f821691505b60208210810361297357634e487b7160e01b600052602260045260246000fd5b50919050565b6bffffffffffffffffffffffff198860601b16815285876014830137600086820160148101600081528688823750858101905060148101600081528486823750600093016014019283525090979650505050505050565b601f821115612a1a57600081815260208120601f850160051c810160208610156129f75750805b601f850160051c820191505b81811015612a1657828155600101612a03565b5050505b505050565b815167ffffffffffffffff811115612a3957612a396128b6565b612a4d81612a47845461293f565b846129d0565b602080601f831160018114612a825760008415612a6a5750858301515b600019600386901b1c1916600185901b178555612a16565b600085815260208120601f198616915b82811015612ab157888601518255948401946001909101908401612a92565b5085821015612acf5787850151600019600388901b60f8161c191681555b5050505050600190811b01905550565b604081526000612af360408301858761285d565b90508215156020830152949350505050565b60008351612b178184602088016125e7565b9190910191825250602001919050565b634e487b7160e01b600052601160045260246000fd5b600060018201612b4f57612b4f612b27565b5060010190565b818103818111156102cf576102cf612b27565b634e487b7160e01b600052603160045260246000fd5b808201808211156102cf576102cf612b27565b6001600160a01b03828116828216818102831692918115828504821417612bbb57612bbb612b27565b50505092915050565b6001600160a01b038281168282160390808211156112d4576112d4612b27565b6001600160a01b038181168382160190808211156112d4576112d4612b27565b60008351612c168184602088016125e7565b835190830190612c2a8183602088016125e7565b01949350505050565b80820281158282048414176102cf576102cf612b27565b600081612c5957612c59612b27565b50600019019056fea26469706673582212202f9010f0dabb163e0a8d5a19f3e137e42f18bb9d1a62c2fe9235e20792a6cee564736f6c63430008120033",
  "linkReferences": {},
  "deployedLinkReferences": {}
}