{
  "_format": "hh-sol-artifact-1",
  "contractName": "DidRegistry",
  "sourceName": "contracts/VeridaDIDRegistry.sol",
  "abi": [
    {
      "inputs": [],
      "name": "InvalidSignature",
      "type": "error"
    },
    {
      "inputs": [],
      "name": "OutOfRange",
      "type": "error"
    },
    {
      "inputs": [],
      "name": "RevokedDID",
      "type": "error"
    },
    {
      "inputs": [],
      "name": "UnregisteredDID",
      "type": "error"
    },
    {
      "anonymous": false,
      "inputs": [
        {
          "indexed": false,
          "internalType": "uint8",
          "name": "version",
          "type": "uint8"
        }
      ],
      "name": "Initialized",
      "type": "event"
    },
    {
      "anonymous": false,
      "inputs": [
        {
          "indexed": true,
          "internalType": "address",
          "name": "previousOwner",
          "type": "address"
        },
        {
          "indexed": true,
          "internalType": "address",
          "name": "newOwner",
          "type": "address"
        }
      ],
      "name": "OwnershipTransferred",
      "type": "event"
    },
    {
      "anonymous": false,
      "inputs": [
        {
          "indexed": false,
          "internalType": "address",
          "name": "didAddress",
          "type": "address"
        },
        {
          "indexed": false,
          "internalType": "string[]",
          "name": "endponits",
          "type": "string[]"
        }
      ],
      "name": "Register",
      "type": "event"
    },
    {
      "anonymous": false,
      "inputs": [
        {
          "indexed": false,
          "internalType": "address",
          "name": "didAddress",
          "type": "address"
        }
      ],
      "name": "Revoke",
      "type": "event"
    },
    {
      "anonymous": false,
      "inputs": [
        {
          "indexed": false,
          "internalType": "address",
          "name": "didAddress",
          "type": "address"
        },
        {
          "indexed": false,
          "internalType": "address",
          "name": "controller",
          "type": "address"
        }
      ],
      "name": "SetController",
      "type": "event"
    },
    {
      "inputs": [],
      "name": "activeDIDCount",
      "outputs": [
        {
          "internalType": "uint256",
          "name": "",
          "type": "uint256"
        }
      ],
      "stateMutability": "view",
      "type": "function"
    },
    {
      "inputs": [
        {
          "internalType": "address",
          "name": "didAddress",
          "type": "address"
        }
      ],
      "name": "getController",
      "outputs": [
        {
          "internalType": "address",
          "name": "",
          "type": "address"
        }
      ],
      "stateMutability": "view",
      "type": "function"
    },
    {
      "inputs": [
        {
          "internalType": "uint256",
          "name": "startIndex",
          "type": "uint256"
        },
        {
          "internalType": "uint256",
          "name": "count",
          "type": "uint256"
        }
      ],
      "name": "getDIDs",
      "outputs": [
        {
          "internalType": "address[]",
          "name": "",
          "type": "address[]"
        }
      ],
      "stateMutability": "view",
      "type": "function"
    },
    {
      "inputs": [],
      "name": "initialize",
      "outputs": [],
      "stateMutability": "nonpayable",
      "type": "function"
    },
    {
      "inputs": [
        {
          "internalType": "address",
          "name": "didAddress",
          "type": "address"
        }
      ],
      "name": "lookup",
      "outputs": [
        {
          "internalType": "address",
          "name": "",
          "type": "address"
        },
        {
          "internalType": "string[]",
          "name": "",
          "type": "string[]"
        }
      ],
      "stateMutability": "view",
      "type": "function"
    },
    {
      "inputs": [
        {
          "internalType": "address",
          "name": "didAddress",
          "type": "address"
        }
      ],
      "name": "nonce",
      "outputs": [
        {
          "internalType": "uint256",
          "name": "",
          "type": "uint256"
        }
      ],
      "stateMutability": "view",
      "type": "function"
    },
    {
      "inputs": [],
      "name": "owner",
      "outputs": [
        {
          "internalType": "address",
          "name": "",
          "type": "address"
        }
      ],
      "stateMutability": "view",
      "type": "function"
    },
    {
      "inputs": [
        {
          "internalType": "address",
          "name": "didAddress",
          "type": "address"
        },
        {
          "internalType": "string[]",
          "name": "endpoints",
          "type": "string[]"
        },
        {
          "internalType": "bytes",
          "name": "signature",
          "type": "bytes"
        }
      ],
      "name": "register",
      "outputs": [],
      "stateMutability": "nonpayable",
      "type": "function"
    },
    {
      "inputs": [],
      "name": "renounceOwnership",
      "outputs": [],
      "stateMutability": "nonpayable",
      "type": "function"
    },
    {
      "inputs": [
        {
          "internalType": "address",
          "name": "didAddress",
          "type": "address"
        },
        {
          "internalType": "bytes",
          "name": "signature",
          "type": "bytes"
        }
      ],
      "name": "revoke",
      "outputs": [],
      "stateMutability": "nonpayable",
      "type": "function"
    },
    {
      "inputs": [
        {
          "internalType": "address",
          "name": "didAddress",
          "type": "address"
        },
        {
          "internalType": "address",
          "name": "controller",
          "type": "address"
        },
        {
          "internalType": "bytes",
          "name": "signature",
          "type": "bytes"
        }
      ],
      "name": "setController",
      "outputs": [],
      "stateMutability": "nonpayable",
      "type": "function"
    },
    {
      "inputs": [
        {
          "internalType": "address",
          "name": "newOwner",
          "type": "address"
        }
      ],
      "name": "transferOwnership",
      "outputs": [],
      "stateMutability": "nonpayable",
      "type": "function"
    }
  ],
  "bytecode": "0x608060405234801561001057600080fd5b50611bb4806100206000396000f3fe608060405234801561001057600080fd5b50600436106100d45760003560e01c80638da5cb5b11610081578063a6ac970b1161005b578063a6ac970b146101b5578063d4b6b5da146101c8578063f2fde38b146101e957600080fd5b80638da5cb5b146101895780639a9738441461019a578063a3276437146101ad57600080fd5b80638129fc1c116100b25780638129fc1c1461014357806385ef65741461014b57806388c662aa1461015e57600080fd5b806331ca52e3146100d957806370ae92d214610102578063715018a614610139575b600080fd5b6100ec6100e7366004611505565b6101fc565b6040516100f99190611527565b60405180910390f35b61012b61011036600461158b565b6001600160a01b031660009081526068602052604090205490565b6040519081526020016100f9565b6101416102fe565b005b610141610312565b6101416101593660046115e8565b610437565b61017161016c36600461158b565b6105c9565b6040516001600160a01b0390911681526020016100f9565b6033546001600160a01b0316610171565b6101416101a8366004611649565b6105d4565b61012b610772565b6101416101c336600461169c565b610783565b6101db6101d636600461158b565b610a08565b6040516100f9929190611772565b6101416101f736600461158b565b610af8565b6060610206610b85565b81158061022457506102186065610bdf565b6102228385611813565b115b1561025b576040517f7db3aba700000000000000000000000000000000000000000000000000000000815260040160405180910390fd5b60008267ffffffffffffffff81111561027657610276611826565b60405190808252806020026020018201604052801561029f578160200160208202803683370190505b50905060005b838110156102f4576102c26102ba8287611813565b606590610be9565b8282815181106102d4576102d461183c565b6001600160a01b03909216602092830291909101909101526001016102a5565b5090505b92915050565b610306610b85565b6103106000610bfc565b565b600054610100900460ff16158080156103325750600054600160ff909116105b8061034c5750303b15801561034c575060005460ff166001145b6103c35760405162461bcd60e51b815260206004820152602e60248201527f496e697469616c697a61626c653a20636f6e747261637420697320616c72656160448201527f647920696e697469616c697a656400000000000000000000000000000000000060648201526084015b60405180910390fd5b6000805460ff1916600117905580156103e6576000805461ff0019166101001790555b6103ee610c5b565b8015610434576000805461ff0019169055604051600181527f7f26b83ff96e1f2b6a682f133852f6798a09c465da95921460cefb38474024989060200160405180910390a15b50565b61044084610cce565b61045d5760405163edabc40b60e01b815260040160405180910390fd5b600061046885610cdb565b6001600160a01b03861660009081526068602090815260408083205490516bffffffffffffffffffffffff1960608b811b8216948301949094527f2f736574436f6e74726f6c6c65722f000000000000000000000000000000000060348301529289901b9092166043830152602f60f81b6057830152605882015291925090607801604051602081830303815290604052905061050781858585610d03565b61052457604051638baa579f60e01b815260040160405180910390fd5b6001600160a01b038616600090815260686020526040812080549161054883611852565b909155505050506001600160a01b03848116600081815260676020908152604091829020805473ffffffffffffffffffffffffffffffffffffffff1916948816948517905581519283528201929092527f9fdb07212c6f92fd298affc4000712177664bc3c4cae5f61098d42da6d05be1e910160405180910390a150505050565b60006102f882610cdb565b6105dd83610cce565b6105fa5760405163edabc40b60e01b815260040160405180910390fd5b600061060584610cdb565b6001600160a01b03851660009081526068602090815260408083205490516bffffffffffffffffffffffff1960608a901b16928101929092527f2f7265766f6b652f0000000000000000000000000000000000000000000000006034830152603c82015291925090605c01604051602081830303815290604052905061068d81858585610d03565b6106aa57604051638baa579f60e01b815260040160405180910390fd5b6001600160a01b03851660009081526068602052604081208054916106ce83611852565b9091555050506001600160a01b0384166000908152606760205260408120805473ffffffffffffffffffffffffffffffffffffffff19168155915060018201816107188282611480565b50505050610730836065610d3d90919063ffffffff16565b506040516001600160a01b03841681527f9f77920c3de8baaa98d273e8aa75fae382aaa9f7f60f38979137853e5b73ea2c9060200160405180910390a1505050565b600061077e6065610bdf565b905090565b6001600160a01b038516600090815260686020526040902054158015906107b057506107ae85610cce565b155b156107e7576040517fc1260d5400000000000000000000000000000000000000000000000000000000815260040160405180910390fd5b60408051606087901b6bffffffffffffffffffffffff19166020820152602f60f81b603482015281516015818303018152603590910190915260005b8481101561087c578186868381811061083e5761083e61183c565b9050602002810190610850919061186b565b604051602001610862939291906118b2565b60408051601f198184030181529190529150600101610823565b506001600160a01b0386166000908152606860209081526040918290205491516108aa9284929091016118df565b60405160208183030381529060405290506108c781848489610d03565b6108e457604051638baa579f60e01b815260040160405180910390fd5b6001600160a01b038616600090815260686020526040812080549161090883611852565b9091555050506001600160a01b038516600090815260676020526040902060010161093281610d52565b60005b848110156109aa576109a18686838181106109525761095261183c565b9050602002810190610964919061186b565b8080601f0160208091040260200160405190810160405280939291908181526020018383808284376000920191909152508693925050610e509050565b50600101610935565b506109b486610cce565b6109c5576109c3606587610eb2565b505b7fff581cdbc960e17331068dde5ed7aa9097996cee631affe706697292dc33680a8686866040516109f89392919061192a565b60405180910390a1505050505050565b60006060610a1583610cce565b610a325760405163edabc40b60e01b815260040160405180910390fd5b6001600160a01b038316600090815260676020526040812060010190610a56825490565b905060008167ffffffffffffffff811115610a7357610a73611826565b604051908082528060200260200182016040528015610aa657816020015b6060815260200190600190039081610a915790505b50905060005b82811015610ae357610abe8482610ec7565b828281518110610ad057610ad061183c565b6020908102919091010152600101610aac565b50610aed86610cdb565b969095509350505050565b610b00610b85565b6001600160a01b038116610b7c5760405162461bcd60e51b815260206004820152602660248201527f4f776e61626c653a206e6577206f776e657220697320746865207a65726f206160448201527f646472657373000000000000000000000000000000000000000000000000000060648201526084016103ba565b61043481610bfc565b6033546001600160a01b031633146103105760405162461bcd60e51b815260206004820181905260248201527f4f776e61626c653a2063616c6c6572206973206e6f7420746865206f776e657260448201526064016103ba565b60006102f8825490565b6000610bf58383610f79565b9392505050565b603380546001600160a01b0383811673ffffffffffffffffffffffffffffffffffffffff19831681179093556040519116919082907f8be0079c531659141344cd1fd0a4f28419497f9722a3daafe3b4186f6b6457e090600090a35050565b600054610100900460ff16610cc65760405162461bcd60e51b815260206004820152602b60248201527f496e697469616c697a61626c653a20636f6e7472616374206973206e6f74206960448201526a6e697469616c697a696e6760a81b60648201526084016103ba565b610310610fa3565b60006102f8606583611017565b6001600160a01b038082166000908152606760205260409020541680610cfe5750805b919050565b600080610d11868686611039565b9050826001600160a01b0316816001600160a01b031614915080610d3457600091505b50949350505050565b6000610bf5836001600160a01b03841661108f565b80548015610e4c57606060005b82811015610e3e57836000018181548110610d7c57610d7c61183c565b906000526020600020018054610d91906119db565b80601f0160208091040260200160405190810160405280929190818152602001828054610dbd906119db565b8015610e0a5780601f10610ddf57610100808354040283529160200191610e0a565b820191906000526020600020905b815481529060010190602001808311610ded57829003601f168201915b505050505091508360010182604051610e239190611a15565b90815260405190819003602001902060009055600101610d5f565b50610e4a836000611480565b505b5050565b6000610e5c8383611182565b610eaa57825460018101845560008481526020902001610e7c8382611a7f565b5082546040516001850190610e92908590611a15565b908152604051908190036020019020555060016102f8565b5060006102f8565b6000610bf5836001600160a01b0384166111af565b6060826000018281548110610ede57610ede61183c565b906000526020600020018054610ef3906119db565b80601f0160208091040260200160405190810160405280929190818152602001828054610f1f906119db565b8015610f6c5780601f10610f4157610100808354040283529160200191610f6c565b820191906000526020600020905b815481529060010190602001808311610f4f57829003601f168201915b5050505050905092915050565b6000826000018281548110610f9057610f9061183c565b9060005260206000200154905092915050565b600054610100900460ff1661100e5760405162461bcd60e51b815260206004820152602b60248201527f496e697469616c697a61626c653a20636f6e7472616374206973206e6f74206960448201526a6e697469616c697a696e6760a81b60648201526084016103ba565b61031033610bfc565b6001600160a01b03811660009081526001830160205260408120541515610bf5565b600080848051906020012090506110868185858080601f0160208091040260200160405190810160405280939291908181526020018383808284376000920191909152506111f692505050565b95945050505050565b600081815260018301602052604081205480156111785760006110b3600183611b3f565b85549091506000906110c790600190611b3f565b905081811461112c5760008660000182815481106110e7576110e761183c565b906000526020600020015490508087600001848154811061110a5761110a61183c565b6000918252602080832090910192909255918252600188019052604090208390555b855486908061113d5761113d611b52565b6001900381819060005260206000200160009055905585600101600086815260200190815260200160002060009055600193505050506102f8565b60009150506102f8565b600082600101826040516111969190611a15565b9081526040519081900360200190205415159392505050565b6000818152600183016020526040812054610eaa575081546001818101845560008481526020808220909301849055845484825282860190935260409020919091556102f8565b60008060006112058585611212565b915091506102f481611257565b60008082516041036112485760208301516040840151606085015160001a61123c878285856113bc565b94509450505050611250565b506000905060025b9250929050565b600081600481111561126b5761126b611b68565b036112735750565b600181600481111561128757611287611b68565b036112d45760405162461bcd60e51b815260206004820152601860248201527f45434453413a20696e76616c6964207369676e6174757265000000000000000060448201526064016103ba565b60028160048111156112e8576112e8611b68565b036113355760405162461bcd60e51b815260206004820152601f60248201527f45434453413a20696e76616c6964207369676e6174757265206c656e6774680060448201526064016103ba565b600381600481111561134957611349611b68565b036104345760405162461bcd60e51b815260206004820152602260248201527f45434453413a20696e76616c6964207369676e6174757265202773272076616c60448201527f756500000000000000000000000000000000000000000000000000000000000060648201526084016103ba565b6000807f7fffffffffffffffffffffffffffffff5d576e7357a4501ddfe92f46681b20a08311156113f35750600090506003611477565b6040805160008082526020820180845289905260ff881692820192909252606081018690526080810185905260019060a0016020604051602081039080840390855afa158015611447573d6000803e3d6000fd5b5050604051601f1901519150506001600160a01b03811661147057600060019250925050611477565b9150600090505b94509492505050565b508054600082559060005260206000209081019061043491905b808211156114b75760006114ae82826114bb565b5060010161149a565b5090565b5080546114c7906119db565b6000825580601f106114d7575050565b601f01602090049060005260206000209081019061043491905b808211156114b757600081556001016114f1565b6000806040838503121561151857600080fd5b50508035926020909101359150565b6020808252825182820181905260009190848201906040850190845b818110156115685783516001600160a01b031683529284019291840191600101611543565b50909695505050505050565b80356001600160a01b0381168114610cfe57600080fd5b60006020828403121561159d57600080fd5b610bf582611574565b60008083601f8401126115b857600080fd5b50813567ffffffffffffffff8111156115d057600080fd5b60208301915083602082850101111561125057600080fd5b600080600080606085870312156115fe57600080fd5b61160785611574565b935061161560208601611574565b9250604085013567ffffffffffffffff81111561163157600080fd5b61163d878288016115a6565b95989497509550505050565b60008060006040848603121561165e57600080fd5b61166784611574565b9250602084013567ffffffffffffffff81111561168357600080fd5b61168f868287016115a6565b9497909650939450505050565b6000806000806000606086880312156116b457600080fd5b6116bd86611574565b9450602086013567ffffffffffffffff808211156116da57600080fd5b818801915088601f8301126116ee57600080fd5b8135818111156116fd57600080fd5b8960208260051b850101111561171257600080fd5b60208301965080955050604088013591508082111561173057600080fd5b5061173d888289016115a6565b969995985093965092949392505050565b60005b83811015611769578181015183820152602001611751565b50506000910152565b6000604082016001600160a01b0385168352602060408185015281855180845260608601915060608160051b870101935082870160005b828110156117ef57878603605f19018452815180518088526117d081888a0189850161174e565b601f01601f1916969096018501955092840192908401906001016117a9565b509398975050505050505050565b634e487b7160e01b600052601160045260246000fd5b808201808211156102f8576102f86117fd565b634e487b7160e01b600052604160045260246000fd5b634e487b7160e01b600052603260045260246000fd5b600060018201611864576118646117fd565b5060010190565b6000808335601e1984360301811261188257600080fd5b83018035915067ffffffffffffffff82111561189d57600080fd5b60200191503681900382131561125057600080fd5b600084516118c481846020890161174e565b820183858237602f60f81b9301928352505060010192915050565b600083516118f181846020880161174e565b9190910191825250602001919050565b81835281816020850137506000828201602090810191909152601f909101601f19169091010190565b6000604082016001600160a01b038616835260206040818501528185835260608501905060608660051b86010192508660005b878110156119cd57868503605f190183528135368a9003601e1901811261198357600080fd5b8901848101903567ffffffffffffffff81111561199f57600080fd5b8036038213156119ae57600080fd5b6119b9878284611901565b96505050918301919083019060010161195d565b509298975050505050505050565b600181811c908216806119ef57607f821691505b602082108103611a0f57634e487b7160e01b600052602260045260246000fd5b50919050565b60008251611a2781846020870161174e565b9190910192915050565b601f821115610e4a57600081815260208120601f850160051c81016020861015611a585750805b601f850160051c820191505b81811015611a7757828155600101611a64565b505050505050565b815167ffffffffffffffff811115611a9957611a99611826565b611aad81611aa784546119db565b84611a31565b602080601f831160018114611ae25760008415611aca5750858301515b600019600386901b1c1916600185901b178555611a77565b600085815260208120601f198616915b82811015611b1157888601518255948401946001909101908401611af2565b5085821015611b2f5787850151600019600388901b60f8161c191681555b5050505050600190811b01905550565b818103818111156102f8576102f86117fd565b634e487b7160e01b600052603160045260246000fd5b634e487b7160e01b600052602160045260246000fdfea264697066735822122002347fc32ffb2741e150c3742efd3a46ab58a46494523f421dc54a065867e0b664736f6c63430008120033",
  "linkReferences": {},
  "deployedLinkReferences": {}
}