{
  "_format": "hh-sol-artifact-1",
  "contractName": "NameRegistry",
  "sourceName": "contracts/NameRegistry.sol",
  "abi": [
    {
      "inputs": [],
      "name": "InvalidAddress",
      "type": "error"
    },
    {
      "inputs": [],
      "name": "InvalidName",
      "type": "error"
    },
    {
      "inputs": [],
      "name": "InvalidNameCount",
      "type": "error"
    },
    {
      "inputs": [],
      "name": "InvalidSignature",
      "type": "error"
    },
    {
      "inputs": [],
      "name": "InvalidSuffix",
      "type": "error"
    },
    {
      "inputs": [],
      "name": "LimitedNameCount",
      "type": "error"
    },
    {
      "anonymous": false,
      "inputs": [
        {
          "indexed": true,
          "internalType": "string",
          "name": "suffix",
          "type": "string"
        }
      ],
      "name": "AddSuffix",
      "type": "event"
    },
    {
      "anonymous": false,
      "inputs": [
        {
          "indexed": false,
          "internalType": "uint8",
          "name": "version",
          "type": "uint8"
        }
      ],
      "name": "Initialized",
      "type": "event"
    },
    {
      "anonymous": false,
      "inputs": [
        {
          "indexed": true,
          "internalType": "address",
          "name": "previousOwner",
          "type": "address"
        },
        {
          "indexed": true,
          "internalType": "address",
          "name": "newOwner",
          "type": "address"
        }
      ],
      "name": "OwnershipTransferred",
      "type": "event"
    },
    {
      "anonymous": false,
      "inputs": [
        {
          "indexed": true,
          "internalType": "string",
          "name": "name",
          "type": "string"
        },
        {
          "indexed": true,
          "internalType": "address",
          "name": "DID",
          "type": "address"
        }
      ],
      "name": "Register",
      "type": "event"
    },
    {
      "anonymous": false,
      "inputs": [
        {
          "indexed": true,
          "internalType": "string",
          "name": "name",
          "type": "string"
        },
        {
          "indexed": true,
          "internalType": "address",
          "name": "DID",
          "type": "address"
        }
      ],
      "name": "Unregister",
      "type": "event"
    },
    {
      "anonymous": false,
      "inputs": [
        {
          "indexed": false,
          "internalType": "uint256",
          "name": "from",
          "type": "uint256"
        },
        {
          "indexed": false,
          "internalType": "uint256",
          "name": "to",
          "type": "uint256"
        }
      ],
      "name": "UpdateMaxNamesPerDID",
      "type": "event"
    },
    {
      "inputs": [
        {
          "internalType": "string",
          "name": "suffix",
          "type": "string"
        }
      ],
      "name": "addSuffix",
      "outputs": [],
      "stateMutability": "payable",
      "type": "function"
    },
    {
      "inputs": [
        {
          "internalType": "string",
          "name": "name",
          "type": "string"
        }
      ],
      "name": "findDID",
      "outputs": [
        {
          "internalType": "address",
          "name": "",
          "type": "address"
        }
      ],
      "stateMutability": "view",
      "type": "function"
    },
    {
      "inputs": [
        {
          "internalType": "address",
          "name": "did",
          "type": "address"
        }
      ],
      "name": "getUserNameList",
      "outputs": [
        {
          "internalType": "string[]",
          "name": "",
          "type": "string[]"
        }
      ],
      "stateMutability": "view",
      "type": "function"
    },
    {
      "inputs": [],
      "name": "initialize",
      "outputs": [],
      "stateMutability": "nonpayable",
      "type": "function"
    },
    {
      "inputs": [],
      "name": "maxNamesPerDID",
      "outputs": [
        {
          "internalType": "uint256",
          "name": "",
          "type": "uint256"
        }
      ],
      "stateMutability": "view",
      "type": "function"
    },
    {
      "inputs": [
        {
          "internalType": "address",
          "name": "did",
          "type": "address"
        }
      ],
      "name": "nonce",
      "outputs": [
        {
          "internalType": "uint256",
          "name": "",
          "type": "uint256"
        }
      ],
      "stateMutability": "view",
      "type": "function"
    },
    {
      "inputs": [],
      "name": "owner",
      "outputs": [
        {
          "internalType": "address",
          "name": "",
          "type": "address"
        }
      ],
      "stateMutability": "view",
      "type": "function"
    },
    {
      "inputs": [
        {
          "internalType": "string",
          "name": "name",
          "type": "string"
        },
        {
          "internalType": "address",
          "name": "did",
          "type": "address"
        },
        {
          "internalType": "bytes",
          "name": "signature",
          "type": "bytes"
        }
      ],
      "name": "register",
      "outputs": [],
      "stateMutability": "nonpayable",
      "type": "function"
    },
    {
      "inputs": [],
      "name": "renounceOwnership",
      "outputs": [],
      "stateMutability": "nonpayable",
      "type": "function"
    },
    {
      "inputs": [
        {
          "internalType": "address",
          "name": "newOwner",
          "type": "address"
        }
      ],
      "name": "transferOwnership",
      "outputs": [],
      "stateMutability": "nonpayable",
      "type": "function"
    },
    {
      "inputs": [
        {
          "internalType": "string",
          "name": "name",
          "type": "string"
        },
        {
          "internalType": "address",
          "name": "did",
          "type": "address"
        },
        {
          "internalType": "bytes",
          "name": "signature",
          "type": "bytes"
        }
      ],
      "name": "unregister",
      "outputs": [],
      "stateMutability": "nonpayable",
      "type": "function"
    },
    {
      "inputs": [
        {
          "internalType": "uint256",
          "name": "count",
          "type": "uint256"
        }
      ],
      "name": "updateMaxNamesPerDID",
      "outputs": [],
      "stateMutability": "payable",
      "type": "function"
    }
  ],
  "bytecode": "0x608060405234801561001057600080fd5b50611ce0806100206000396000f3fe6080604052600436106100c75760003560e01c80638129fc1c11610074578063d851200f1161004e578063d851200f1461020d578063f2fde38b14610220578063fde078081461024057600080fd5b80638129fc1c146101b05780638da5cb5b146101c55780639bd52f96146101f757600080fd5b8063714543a8116100a5578063714543a814610168578063715018a614610188578063750425701461019d57600080fd5b80631fe0aa9d146100cc5780636fc74211146100ee57806370ae92d214610124575b600080fd5b3480156100d857600080fd5b506100ec6100e736600461185d565b610260565b005b3480156100fa57600080fd5b5061010e6101093660046118e1565b610496565b60405161011b9190611927565b60405180910390f35b34801561013057600080fd5b5061015a61013f3660046118e1565b6001600160a01b031660009081526065602052604090205490565b60405190815260200161011b565b34801561017457600080fd5b506100ec61018336600461185d565b610570565b34801561019457600080fd5b506100ec610763565b6100ec6101ab3660046119b7565b610777565b3480156101bc57600080fd5b506100ec610800565b3480156101d157600080fd5b506033546001600160a01b03165b6040516001600160a01b03909116815260200161011b565b34801561020357600080fd5b5061015a606a5481565b6100ec61021b366004611a68565b6109a9565b34801561022c57600080fd5b506100ec61023b3660046118e1565b610a2f565b34801561024c57600080fd5b506101df61025b3660046119b7565b610abc565b826102775760405163e6c4247b60e01b8152600481fd5b6102818585610b13565b61029e576040516360716f1b60e11b815260040160405180910390fd5b6001600160a01b03831660009081526065602052604081205490506000868686846040516020016102d29493929190611a81565b60405160208183030381529060405290506102ef81858588610b35565b61030c57604051638baa579f60e01b815260040160405180910390fd5b5050600061034f86868080601f016020809104026020016040519081016040528093929190818152602001838380828437600092019190915250610b6d92505050565b905060006066826040516103639190611ab1565b908152604051908190036020019020546001600160a01b0316905080156103965760405163430f13b360e01b8152600481fd5b506001600160a01b0384166000908152606760205260409020606a548154106103eb576040517f0ede5fd800000000000000000000000000000000000000000000000000000000815260040160405180910390fd5b846066836040516103fc9190611ab1565b90815260405190819003602001902080546001600160a01b039290921673ffffffffffffffffffffffffffffffffffffffff199092169190911790556104428183610bf5565b50846001600160a01b0316878760405161045d929190611acd565b604051908190038120907f3e49fb7efebefffe4fc2e2c193820fac9b11de4bf185e0d14de13e0068c2ac3490600090a350505050505050565b6001600160a01b03811660009081526067602052604081206060916104b9825490565b9050806000036104dc5760405163e6c4247b60e01b815260040160405180910390fd5b60008167ffffffffffffffff8111156104f7576104f76119a1565b60405190808252806020026020018201604052801561052a57816020015b60608152602001906001900390816105155790505b50905060005b82811015610567576105428482610c57565b82828151811061055457610554611add565b6020908102919091010152600101610530565b50949350505050565b826105875760405163e6c4247b60e01b8152600481fd5b6001600160a01b03831660009081526065602052604081205490506000868686846040516020016105bb9493929190611a81565b60405160208183030381529060405290506105d881858588610b35565b6105f557604051638baa579f60e01b815260040160405180910390fd5b5050600061063886868080601f016020809104026020016040519081016040528093929190818152602001838380828437600092019190915250610b6d92505050565b9050600060668260405161064c9190611ab1565b908152604051908190036020019020546001600160a01b031690508061067e5760405163430f13b360e01b8152600481fd5b846001600160a01b0316816001600160a01b0316146106b05760405163e6c4247b60e01b815260040160405180910390fd5b6001600160a01b0381166000908152606760205260409081902090516066906106da908590611ab1565b908152604051908190036020019020805473ffffffffffffffffffffffffffffffffffffffff1916905561070e8184610d09565b50816001600160a01b03168888604051610729929190611acd565b604051908190038120907ff5277d07faf1a81adcfef41a68d5bf53aecd8982a7c7f3c0df5efb97e43437b190600090a35050505050505050565b61076b610ec8565b6107756000610f22565b565b61077f610ec8565b61078881610b6d565b9050610795606882610f81565b156107b3576040516360716f1b60e11b815260040160405180910390fd5b6107be606882610bf5565b50806040516107cd9190611ab1565b604051908190038120907f0f2e7a1cb3db636cf506883108bff2d2193b967ac6516b1e5d23e672e18a91c990600090a250565b600054610100900460ff16158080156108205750600054600160ff909116105b8061083a5750303b15801561083a575060005460ff166001145b6108b15760405162461bcd60e51b815260206004820152602e60248201527f496e697469616c697a61626c653a20636f6e747261637420697320616c72656160448201527f647920696e697469616c697a656400000000000000000000000000000000000060648201526084015b60405180910390fd5b6000805460ff1916600117905580156108d4576000805461ff0019166101001790555b6108dc610fae565b6001606a5560408051808201909152600381527f76646100000000000000000000000000000000000000000000000000000000006020820152610920606882610bf5565b508060405161092f9190611ab1565b604051908190038120907f0f2e7a1cb3db636cf506883108bff2d2193b967ac6516b1e5d23e672e18a91c990600090a25080156109a6576000805461ff0019169055604051600181527f7f26b83ff96e1f2b6a682f133852f6798a09c465da95921460cefb38474024989060200160405180910390a15b50565b6109b1610ec8565b606a548082116109ed576040517f3425304300000000000000000000000000000000000000000000000000000000815260040160405180910390fd5b606a82905560408051828152602081018490527f072c83ac7095da78eb85579bdaac6adb9c6cf5f129acbdb79644338d35a2b696910160405180910390a15050565b610a37610ec8565b6001600160a01b038116610ab35760405162461bcd60e51b815260206004820152602660248201527f4f776e61626c653a206e6577206f776e657220697320746865207a65726f206160448201527f646472657373000000000000000000000000000000000000000000000000000060648201526084016108a8565b6109a681610f22565b6000610ac782610b6d565b91506000606683604051610adb9190611ab1565b908152604051908190036020019020546001600160a01b0316905080610b0d5760405163430f13b360e01b8152600481fd5b92915050565b600080610b208484611021565b9050610b2d606882610f81565b949350505050565b600080610b43868686611260565b9050826001600160a01b0316816001600160a01b0316149150806105675750600095945050505050565b60608160005b8151811015610bee57610ba5828281518110610b9157610b91611add565b01602001516001600160f81b0319166112b6565b828281518110610bb757610bb7611add565b60200101907effffffffffffffffffffffffffffffffffffffffffffffffffffffffffffff1916908160001a905350600101610b73565b5092915050565b6000610c018383610f81565b610c4f57825460018101845560008481526020902001610c218382611b7c565b5082546040516001850190610c37908590611ab1565b90815260405190819003602001902055506001610b0d565b506000610b0d565b6060826000018281548110610c6e57610c6e611add565b906000526020600020018054610c8390611af3565b80601f0160208091040260200160405190810160405280929190818152602001828054610caf90611af3565b8015610cfc5780601f10610cd157610100808354040283529160200191610cfc565b820191906000526020600020905b815481529060010190602001808311610cdf57829003601f168201915b5050505050905092915050565b6000808360010183604051610d1e9190611ab1565b908152602001604051809103902054905080600014610ebe576000610d44600183611c52565b8554909150600090610d5890600190611c52565b9050818114610e5f576000866000018281548110610d7857610d78611add565b906000526020600020018054610d8d90611af3565b80601f0160208091040260200160405190810160405280929190818152602001828054610db990611af3565b8015610e065780601f10610ddb57610100808354040283529160200191610e06565b820191906000526020600020905b815481529060010190602001808311610de957829003601f168201915b5050505050905080876000018481548110610e2357610e23611add565b906000526020600020019081610e399190611b7c565b50838760010182604051610e4d9190611ab1565b90815260405190819003602001902055505b8554869080610e7057610e70611c65565b600190038181906000526020600020016000610e8c91906117b5565b90558560010185604051610ea09190611ab1565b90815260200160405180910390206000905560019350505050610b0d565b6000915050610b0d565b6033546001600160a01b031633146107755760405162461bcd60e51b815260206004820181905260248201527f4f776e61626c653a2063616c6c6572206973206e6f7420746865206f776e657260448201526064016108a8565b603380546001600160a01b0383811673ffffffffffffffffffffffffffffffffffffffff19831681179093556040519116919082907f8be0079c531659141344cd1fd0a4f28419497f9722a3daafe3b4186f6b6457e090600090a35050565b60008260010182604051610f959190611ab1565b9081526040519081900360200190205415159392505050565b600054610100900460ff166110195760405162461bcd60e51b815260206004820152602b60248201527f496e697469616c697a61626c653a20636f6e7472616374206973206e6f74206960448201526a6e697469616c697a696e6760a81b60648201526084016108a8565b61077561133d565b6060600061106484848080601f016020809104026020016040519081016040528093929190818152602001838380828437600092019190915250610b6d92505050565b8051909150819060000361108b5760405163430f13b360e01b815260040160405180910390fd5b8051806000805b83821080156110a4575060028160ff16105b80156110d457506110d48583815181106110c0576110c0611add565b01602001516001600160f81b0319166113b1565b15611118578482815181106110eb576110eb611add565b01602001516001600160f81b031916601760f91b0361110d5760018083019350015b816001019150611092565b8383106111385760405163430f13b360e01b815260040160405180910390fd5b60018160ff16118061114a5750838214155b80611156575060028311155b80611162575060228310155b156111805760405163430f13b360e01b815260040160405180910390fd5b600061118c8486611c52565b67ffffffffffffffff8111156111a4576111a46119a1565b6040519080825280601f01601f1916602001820160405280156111ce576020820181803683370190505b5090508392505b84831015611253578583815181106111ef576111ef611add565b01602001516001600160f81b031916816112098686611c52565b8151811061121957611219611add565b60200101907effffffffffffffffffffffffffffffffffffffffffffffffffffffffffffff1916908160001a9053508260010192506111d5565b9998505050505050505050565b600080848051906020012090506112ad8185858080601f01602080910402602001604051908101604052809392919081815260200183838082843760009201919091525061152392505050565b95945050505050565b60007f41000000000000000000000000000000000000000000000000000000000000006001600160f81b031983161080159061131c57507f5a000000000000000000000000000000000000000000000000000000000000006001600160f81b0319831611155b156113395761133060f883901c6020611c7b565b60f81b92915050565b5090565b600054610100900460ff166113a85760405162461bcd60e51b815260206004820152602b60248201527f496e697469616c697a61626c653a20636f6e7472616374206973206e6f74206960448201526a6e697469616c697a696e6760a81b60648201526084016108a8565b61077533610f22565b60007f61000000000000000000000000000000000000000000000000000000000000006001600160f81b031983161080159061141757507f7a000000000000000000000000000000000000000000000000000000000000006001600160f81b0319831611155b1561142457506001919050565b7f30000000000000000000000000000000000000000000000000000000000000006001600160f81b031983161080159061148857507f39000000000000000000000000000000000000000000000000000000000000006001600160f81b0319831611155b1561149557506001919050565b7f5f000000000000000000000000000000000000000000000000000000000000006001600160f81b0319831614806114f657507f2d000000000000000000000000000000000000000000000000000000000000006001600160f81b03198316145b8061150e5750601760f91b6001600160f81b03198316145b1561151b57506001919050565b506000919050565b60008060006115328585611547565b9150915061153f8161158c565b509392505050565b600080825160410361157d5760208301516040840151606085015160001a611571878285856116f1565b94509450505050611585565b506000905060025b9250929050565b60008160048111156115a0576115a0611c94565b036115a85750565b60018160048111156115bc576115bc611c94565b036116095760405162461bcd60e51b815260206004820152601860248201527f45434453413a20696e76616c6964207369676e6174757265000000000000000060448201526064016108a8565b600281600481111561161d5761161d611c94565b0361166a5760405162461bcd60e51b815260206004820152601f60248201527f45434453413a20696e76616c6964207369676e6174757265206c656e6774680060448201526064016108a8565b600381600481111561167e5761167e611c94565b036109a65760405162461bcd60e51b815260206004820152602260248201527f45434453413a20696e76616c6964207369676e6174757265202773272076616c60448201527f756500000000000000000000000000000000000000000000000000000000000060648201526084016108a8565b6000807f7fffffffffffffffffffffffffffffff5d576e7357a4501ddfe92f46681b20a083111561172857506000905060036117ac565b6040805160008082526020820180845289905260ff881692820192909252606081018690526080810185905260019060a0016020604051602081039080840390855afa15801561177c573d6000803e3d6000fd5b5050604051601f1901519150506001600160a01b0381166117a5576000600192509250506117ac565b9150600090505b94509492505050565b5080546117c190611af3565b6000825580601f106117d1575050565b601f0160209004906000526020600020908101906109a691905b8082111561133957600081556001016117eb565b60008083601f84011261181157600080fd5b50813567ffffffffffffffff81111561182957600080fd5b60208301915083602082850101111561158557600080fd5b80356001600160a01b038116811461185857600080fd5b919050565b60008060008060006060868803121561187557600080fd5b853567ffffffffffffffff8082111561188d57600080fd5b61189989838a016117ff565b90975095508591506118ad60208901611841565b945060408801359150808211156118c357600080fd5b506118d0888289016117ff565b969995985093965092949392505050565b6000602082840312156118f357600080fd5b6118fc82611841565b9392505050565b60005b8381101561191e578181015183820152602001611906565b50506000910152565b6000602080830181845280855180835260408601915060408160051b870101925083870160005b8281101561199457878503603f1901845281518051808752611975818989018a8501611903565b601f01601f19169590950186019450928501929085019060010161194e565b5092979650505050505050565b634e487b7160e01b600052604160045260246000fd5b6000602082840312156119c957600080fd5b813567ffffffffffffffff808211156119e157600080fd5b818401915084601f8301126119f557600080fd5b813581811115611a0757611a076119a1565b604051601f8201601f19908116603f01168101908382118183101715611a2f57611a2f6119a1565b81604052828152876020848701011115611a4857600080fd5b826020860160208301376000928101602001929092525095945050505050565b600060208284031215611a7a57600080fd5b5035919050565b8385823760609290921b6bffffffffffffffffffffffff1916919092019081526014810191909152603401919050565b60008251611ac3818460208701611903565b9190910192915050565b8183823760009101908152919050565b634e487b7160e01b600052603260045260246000fd5b600181811c90821680611b0757607f821691505b602082108103611b2757634e487b7160e01b600052602260045260246000fd5b50919050565b601f821115611b7757600081815260208120601f850160051c81016020861015611b545750805b601f850160051c820191505b81811015611b7357828155600101611b60565b5050505b505050565b815167ffffffffffffffff811115611b9657611b966119a1565b611baa81611ba48454611af3565b84611b2d565b602080601f831160018114611bdf5760008415611bc75750858301515b600019600386901b1c1916600185901b178555611b73565b600085815260208120601f198616915b82811015611c0e57888601518255948401946001909101908401611bef565b5085821015611c2c5787850151600019600388901b60f8161c191681555b5050505050600190811b01905550565b634e487b7160e01b600052601160045260246000fd5b81810381811115610b0d57610b0d611c3c565b634e487b7160e01b600052603160045260246000fd5b60ff8181168382160190811115610b0d57610b0d611c3c565b634e487b7160e01b600052602160045260246000fdfea26469706673582212206e33d545ccc85d3b3069c5e8957c2e4a4e31e6827e0ca3ed6ea53a2f59c7489664736f6c63430008120033",
  "linkReferences": {},
  "deployedLinkReferences": {}
}