{
  "_format": "hh-sol-artifact-1",
  "contractName": "StorageNodeRegistry",
  "sourceName": "contracts/StorageNodeRegistry.sol",
  "abi": [
    {
      "inputs": [],
      "name": "HasDependingNodes",
      "type": "error"
    },
    {
      "inputs": [],
      "name": "InvalidAmount",
      "type": "error"
    },
    {
      "inputs": [],
      "name": "InvalidCountryCode",
      "type": "error"
    },
    {
      "inputs": [],
      "name": "InvalidDIDAddress",
      "type": "error"
    },
    {
      "inputs": [
        {
          "internalType": "uint256",
          "name": "id",
          "type": "uint256"
        }
      ],
      "name": "InvalidDatacenterId",
      "type": "error"
    },
    {
      "inputs": [],
      "name": "InvalidDatacenterName",
      "type": "error"
    },
    {
      "inputs": [],
      "name": "InvalidEndpointUri",
      "type": "error"
    },
    {
      "inputs": [],
      "name": "InvalidLatitude",
      "type": "error"
    },
    {
      "inputs": [],
      "name": "InvalidLongitude",
      "type": "error"
    },
    {
      "inputs": [],
      "name": "InvalidNumberSlots",
      "type": "error"
    },
    {
      "inputs": [],
      "name": "InvalidReasonCode",
      "type": "error"
    },
    {
      "inputs": [],
      "name": "InvalidRegionCode",
      "type": "error"
    },
    {
      "inputs": [],
      "name": "InvalidSameNodeTime",
      "type": "error"
    },
    {
      "inputs": [],
      "name": "InvalidSignature",
      "type": "error"
    },
    {
      "inputs": [],
      "name": "InvalidTokenAddress",
      "type": "error"
    },
    {
      "inputs": [],
      "name": "InvalidUnregisterTime",
      "type": "error"
    },
    {
      "inputs": [],
      "name": "InvalidValue",
      "type": "error"
    },
    {
      "inputs": [],
      "name": "NoExcessTokenAmount",
      "type": "error"
    },
    {
      "inputs": [],
      "name": "NoSigners",
      "type": "error"
    },
    {
      "inputs": [],
      "name": "RegisteredSigner",
      "type": "error"
    },
    {
      "inputs": [],
      "name": "TimeNotElapsed",
      "type": "error"
    },
    {
      "inputs": [],
      "name": "UnregisteredSigner",
      "type": "error"
    },
    {
      "anonymous": false,
      "inputs": [
        {
          "indexed": true,
          "internalType": "uint256",
          "name": "datacenterId",
          "type": "uint256"
        },
        {
          "indexed": true,
          "internalType": "string",
          "name": "name",
          "type": "string"
        },
        {
          "indexed": false,
          "internalType": "string",
          "name": "countryCode",
          "type": "string"
        },
        {
          "indexed": false,
          "internalType": "string",
          "name": "regionCode",
          "type": "string"
        },
        {
          "indexed": false,
          "internalType": "int256",
          "name": "lat",
          "type": "int256"
        },
        {
          "indexed": false,
          "internalType": "int256",
          "name": "long",
          "type": "int256"
        }
      ],
      "name": "AddDataCenter",
      "type": "event"
    },
    {
      "anonymous": false,
      "inputs": [
        {
          "indexed": true,
          "internalType": "address",
          "name": "didAddress",
          "type": "address"
        },
        {
          "indexed": true,
          "internalType": "string",
          "name": "endpointUri",
          "type": "string"
        },
        {
          "indexed": false,
          "internalType": "string",
          "name": "countryCode",
          "type": "string"
        },
        {
          "indexed": false,
          "internalType": "string",
          "name": "regionCode",
          "type": "string"
        },
        {
          "indexed": false,
          "internalType": "uint256",
          "name": "datacenterId",
          "type": "uint256"
        },
        {
          "indexed": false,
          "internalType": "int256",
          "name": "lat",
          "type": "int256"
        },
        {
          "indexed": false,
          "internalType": "int256",
          "name": "long",
          "type": "int256"
        },
        {
          "indexed": false,
          "internalType": "uint256",
          "name": "numberSlots",
          "type": "uint256"
        },
        {
          "indexed": false,
          "internalType": "uint256",
          "name": "establishmentDate",
          "type": "uint256"
        }
      ],
      "name": "AddNode",
      "type": "event"
    },
    {
      "anonymous": false,
      "inputs": [
        {
          "indexed": false,
          "internalType": "address",
          "name": "signerAddress",
          "type": "address"
        }
      ],
      "name": "AddTrustedSigner",
      "type": "event"
    },
    {
      "anonymous": false,
      "inputs": [
        {
          "indexed": false,
          "internalType": "uint8",
          "name": "version",
          "type": "uint8"
        }
      ],
      "name": "Initialized",
      "type": "event"
    },
    {
      "anonymous": false,
      "inputs": [
        {
          "indexed": true,
          "internalType": "address",
          "name": "from",
          "type": "address"
        },
        {
          "indexed": false,
          "internalType": "address",
          "name": "nodeDID",
          "type": "address"
        },
        {
          "indexed": false,
          "internalType": "uint256",
          "name": "reasonCode",
          "type": "uint256"
        }
      ],
      "name": "LoggedNodeIssue",
      "type": "event"
    },
    {
      "anonymous": false,
      "inputs": [
        {
          "indexed": true,
          "internalType": "address",
          "name": "previousOwner",
          "type": "address"
        },
        {
          "indexed": true,
          "internalType": "address",
          "name": "newOwner",
          "type": "address"
        }
      ],
      "name": "OwnershipTransferred",
      "type": "event"
    },
    {
      "anonymous": false,
      "inputs": [
        {
          "indexed": true,
          "internalType": "uint256",
          "name": "datacenterId",
          "type": "uint256"
        }
      ],
      "name": "RemoveDataCenter",
      "type": "event"
    },
    {
      "anonymous": false,
      "inputs": [
        {
          "indexed": true,
          "internalType": "address",
          "name": "didAddress",
          "type": "address"
        }
      ],
      "name": "RemoveNodeComplete",
      "type": "event"
    },
    {
      "anonymous": false,
      "inputs": [
        {
          "indexed": true,
          "internalType": "address",
          "name": "didAddress",
          "type": "address"
        },
        {
          "indexed": false,
          "internalType": "uint256",
          "name": "unregisterDateTime",
          "type": "uint256"
        }
      ],
      "name": "RemoveNodeStart",
      "type": "event"
    },
    {
      "anonymous": false,
      "inputs": [
        {
          "indexed": false,
          "internalType": "address",
          "name": "signerAddress",
          "type": "address"
        }
      ],
      "name": "RemoveTrustedSigner",
      "type": "event"
    },
    {
      "anonymous": false,
      "inputs": [
        {
          "indexed": true,
          "internalType": "address",
          "name": "nodeDID",
          "type": "address"
        },
        {
          "indexed": false,
          "internalType": "uint256",
          "name": "reasonCode",
          "type": "uint256"
        },
        {
          "indexed": false,
          "internalType": "uint256",
          "name": "Amount",
          "type": "uint256"
        },
        {
          "indexed": false,
          "internalType": "string",
          "name": "moreInfoUrl",
          "type": "string"
        }
      ],
      "name": "Slash",
      "type": "event"
    },
    {
      "anonymous": false,
      "inputs": [
        {
          "indexed": true,
          "internalType": "address",
          "name": "didAddress",
          "type": "address"
        },
        {
          "indexed": false,
          "internalType": "address",
          "name": "from",
          "type": "address"
        },
        {
          "indexed": false,
          "internalType": "uint256",
          "name": "amount",
          "type": "uint256"
        }
      ],
      "name": "TokenDeposited",
      "type": "event"
    },
    {
      "anonymous": false,
      "inputs": [
        {
          "indexed": true,
          "internalType": "address",
          "name": "didAddress",
          "type": "address"
        },
        {
          "indexed": false,
          "internalType": "address",
          "name": "to",
          "type": "address"
        },
        {
          "indexed": false,
          "internalType": "uint256",
          "name": "amount",
          "type": "uint256"
        }
      ],
      "name": "TokenWithdrawn",
      "type": "event"
    },
    {
      "anonymous": false,
      "inputs": [
        {
          "indexed": false,
          "internalType": "uint256",
          "name": "newVal",
          "type": "uint256"
        }
      ],
      "name": "UpdateMaxSlots",
      "type": "event"
    },
    {
      "anonymous": false,
      "inputs": [
        {
          "indexed": false,
          "internalType": "uint256",
          "name": "newVal",
          "type": "uint256"
        }
      ],
      "name": "UpdateMinSlots",
      "type": "event"
    },
    {
      "anonymous": false,
      "inputs": [
        {
          "indexed": false,
          "internalType": "uint256",
          "name": "orgFee",
          "type": "uint256"
        },
        {
          "indexed": false,
          "internalType": "uint256",
          "name": "newFee",
          "type": "uint256"
        }
      ],
      "name": "UpdateNodeIssueFee",
      "type": "event"
    },
    {
      "anonymous": false,
      "inputs": [
        {
          "indexed": false,
          "internalType": "uint256",
          "name": "orgVal",
          "type": "uint256"
        },
        {
          "indexed": false,
          "internalType": "uint256",
          "name": "newVal",
          "type": "uint256"
        }
      ],
      "name": "UpdateSameNodeLogDuration",
      "type": "event"
    },
    {
      "anonymous": false,
      "inputs": [
        {
          "indexed": false,
          "internalType": "uint256",
          "name": "newVal",
          "type": "uint256"
        }
      ],
      "name": "UpdateStakePerSlot",
      "type": "event"
    },
    {
      "anonymous": false,
      "inputs": [
        {
          "indexed": false,
          "internalType": "bool",
          "name": "newVal",
          "type": "bool"
        }
      ],
      "name": "UpdateStakingRequired",
      "type": "event"
    },
    {
      "anonymous": false,
      "inputs": [
        {
          "indexed": false,
          "internalType": "address",
          "name": "oldAddress",
          "type": "address"
        },
        {
          "indexed": false,
          "internalType": "address",
          "name": "newAddress",
          "type": "address"
        }
      ],
      "name": "UpdateTokenAddress",
      "type": "event"
    },
    {
      "anonymous": false,
      "inputs": [
        {
          "indexed": true,
          "internalType": "address",
          "name": "to",
          "type": "address"
        },
        {
          "indexed": false,
          "internalType": "uint256",
          "name": "amount",
          "type": "uint256"
        }
      ],
      "name": "WithdrawIssueFee",
      "type": "event"
    },
    {
      "inputs": [],
      "name": "DECIMAL",
      "outputs": [
        {
          "internalType": "uint8",
          "name": "",
          "type": "uint8"
        }
      ],
      "stateMutability": "view",
      "type": "function"
    },
    {
      "inputs": [
        {
          "components": [
            {
              "internalType": "string",
              "name": "name",
              "type": "string"
            },
            {
              "internalType": "string",
              "name": "countryCode",
              "type": "string"
            },
            {
              "internalType": "string",
              "name": "regionCode",
              "type": "string"
            },
            {
              "internalType": "int256",
              "name": "lat",
              "type": "int256"
            },
            {
              "internalType": "int256",
              "name": "long",
              "type": "int256"
            }
          ],
          "internalType": "struct IStorageNodeRegistry.Datacenter",
          "name": "data",
          "type": "tuple"
        }
      ],
      "name": "addDatacenter",
      "outputs": [
        {
          "internalType": "uint256",
          "name": "",
          "type": "uint256"
        }
      ],
      "stateMutability": "payable",
      "type": "function"
    },
    {
      "inputs": [
        {
          "components": [
            {
              "internalType": "address",
              "name": "didAddress",
              "type": "address"
            },
            {
              "internalType": "string",
              "name": "endpointUri",
              "type": "string"
            },
            {
              "internalType": "string",
              "name": "countryCode",
              "type": "string"
            },
            {
              "internalType": "string",
              "name": "regionCode",
              "type": "string"
            },
            {
              "internalType": "uint256",
              "name": "datacenterId",
              "type": "uint256"
            },
            {
              "internalType": "int256",
              "name": "lat",
              "type": "int256"
            },
            {
              "internalType": "int256",
              "name": "long",
              "type": "int256"
            },
            {
              "internalType": "uint256",
              "name": "numberSlots",
              "type": "uint256"
            }
          ],
          "internalType": "struct IStorageNodeRegistry.StorageNodeInput",
          "name": "nodeInfo",
          "type": "tuple"
        },
        {
          "internalType": "bytes",
          "name": "requestSignature",
          "type": "bytes"
        },
        {
          "internalType": "bytes",
          "name": "requestProof",
          "type": "bytes"
        },
        {
          "internalType": "bytes",
          "name": "authSignature",
          "type": "bytes"
        }
      ],
      "name": "addNode",
      "outputs": [],
      "stateMutability": "nonpayable",
      "type": "function"
    },
    {
      "inputs": [
        {
          "internalType": "address",
          "name": "didAddress",
          "type": "address"
        }
      ],
      "name": "addTrustedSigner",
      "outputs": [],
      "stateMutability": "payable",
      "type": "function"
    },
    {
      "inputs": [
        {
          "internalType": "address",
          "name": "didAddress",
          "type": "address"
        },
        {
          "internalType": "uint256",
          "name": "tokenAmount",
          "type": "uint256"
        }
      ],
      "name": "depoistToken",
      "outputs": [],
      "stateMutability": "nonpayable",
      "type": "function"
    },
    {
      "inputs": [
        {
          "internalType": "address",
          "name": "didAddress",
          "type": "address"
        }
      ],
      "name": "excessTokenAmount",
      "outputs": [
        {
          "internalType": "uint256",
          "name": "",
          "type": "uint256"
        }
      ],
      "stateMutability": "view",
      "type": "function"
    },
    {
      "inputs": [
        {
          "internalType": "address",
          "name": "didAddress",
          "type": "address"
        }
      ],
      "name": "getBalance",
      "outputs": [
        {
          "internalType": "uint256",
          "name": "",
          "type": "uint256"
        }
      ],
      "stateMutability": "view",
      "type": "function"
    },
    {
      "inputs": [
        {
          "internalType": "string",
          "name": "countryCode",
          "type": "string"
        }
      ],
      "name": "getDataCentersByCountry",
      "outputs": [
        {
          "components": [
            {
              "internalType": "string",
              "name": "name",
              "type": "string"
            },
            {
              "internalType": "string",
              "name": "countryCode",
              "type": "string"
            },
            {
              "internalType": "string",
              "name": "regionCode",
              "type": "string"
            },
            {
              "internalType": "int256",
              "name": "lat",
              "type": "int256"
            },
            {
              "internalType": "int256",
              "name": "long",
              "type": "int256"
            }
          ],
          "internalType": "struct IStorageNodeRegistry.Datacenter[]",
          "name": "",
          "type": "tuple[]"
        }
      ],
      "stateMutability": "view",
      "type": "function"
    },
    {
      "inputs": [
        {
          "internalType": "string",
          "name": "regionCode",
          "type": "string"
        }
      ],
      "name": "getDataCentersByRegion",
      "outputs": [
        {
          "components": [
            {
              "internalType": "string",
              "name": "name",
              "type": "string"
            },
            {
              "internalType": "string",
              "name": "countryCode",
              "type": "string"
            },
            {
              "internalType": "string",
              "name": "regionCode",
              "type": "string"
            },
            {
              "internalType": "int256",
              "name": "lat",
              "type": "int256"
            },
            {
              "internalType": "int256",
              "name": "long",
              "type": "int256"
            }
          ],
          "internalType": "struct IStorageNodeRegistry.Datacenter[]",
          "name": "",
          "type": "tuple[]"
        }
      ],
      "stateMutability": "view",
      "type": "function"
    },
    {
      "inputs": [
        {
          "internalType": "uint256[]",
          "name": "ids",
          "type": "uint256[]"
        }
      ],
      "name": "getDatacenters",
      "outputs": [
        {
          "components": [
            {
              "internalType": "string",
              "name": "name",
              "type": "string"
            },
            {
              "internalType": "string",
              "name": "countryCode",
              "type": "string"
            },
            {
              "internalType": "string",
              "name": "regionCode",
              "type": "string"
            },
            {
              "internalType": "int256",
              "name": "lat",
              "type": "int256"
            },
            {
              "internalType": "int256",
              "name": "long",
              "type": "int256"
            }
          ],
          "internalType": "struct IStorageNodeRegistry.Datacenter[]",
          "name": "",
          "type": "tuple[]"
        }
      ],
      "stateMutability": "view",
      "type": "function"
    },
    {
      "inputs": [],
      "name": "getIssueFeeAmount",
      "outputs": [
        {
          "internalType": "uint256",
          "name": "",
          "type": "uint256"
        }
      ],
      "stateMutability": "view",
      "type": "function"
    },
    {
      "inputs": [
        {
          "internalType": "address",
          "name": "didAddress",
          "type": "address"
        }
      ],
      "name": "getNodeByAddress",
      "outputs": [
        {
          "components": [
            {
              "internalType": "address",
              "name": "didAddress",
              "type": "address"
            },
            {
              "internalType": "string",
              "name": "endpointUri",
              "type": "string"
            },
            {
              "internalType": "string",
              "name": "countryCode",
              "type": "string"
            },
            {
              "internalType": "string",
              "name": "regionCode",
              "type": "string"
            },
            {
              "internalType": "uint256",
              "name": "datacenterId",
              "type": "uint256"
            },
            {
              "internalType": "int256",
              "name": "lat",
              "type": "int256"
            },
            {
              "internalType": "int256",
              "name": "long",
              "type": "int256"
            },
            {
              "internalType": "uint256",
              "name": "numberSlots",
              "type": "uint256"
            },
            {
              "internalType": "uint256",
              "name": "establishmentDate",
              "type": "uint256"
            }
          ],
          "internalType": "struct IStorageNodeRegistry.StorageNode",
          "name": "",
          "type": "tuple"
        },
        {
          "internalType": "string",
          "name": "",
          "type": "string"
        }
      ],
      "stateMutability": "view",
      "type": "function"
    },
    {
      "inputs": [
        {
          "internalType": "string",
          "name": "endpointUri",
          "type": "string"
        }
      ],
      "name": "getNodeByEndpoint",
      "outputs": [
        {
          "components": [
            {
              "internalType": "address",
              "name": "didAddress",
              "type": "address"
            },
            {
              "internalType": "string",
              "name": "endpointUri",
              "type": "string"
            },
            {
              "internalType": "string",
              "name": "countryCode",
              "type": "string"
            },
            {
              "internalType": "string",
              "name": "regionCode",
              "type": "string"
            },
            {
              "internalType": "uint256",
              "name": "datacenterId",
              "type": "uint256"
            },
            {
              "internalType": "int256",
              "name": "lat",
              "type": "int256"
            },
            {
              "internalType": "int256",
              "name": "long",
              "type": "int256"
            },
            {
              "internalType": "uint256",
              "name": "numberSlots",
              "type": "uint256"
            },
            {
              "internalType": "uint256",
              "name": "establishmentDate",
              "type": "uint256"
            }
          ],
          "internalType": "struct IStorageNodeRegistry.StorageNode",
          "name": "",
          "type": "tuple"
        },
        {
          "internalType": "string",
          "name": "",
          "type": "string"
        }
      ],
      "stateMutability": "view",
      "type": "function"
    },
    {
      "inputs": [],
      "name": "getNodeIssueFee",
      "outputs": [
        {
          "internalType": "uint256",
          "name": "",
          "type": "uint256"
        }
      ],
      "stateMutability": "view",
      "type": "function"
    },
    {
      "inputs": [
        {
          "internalType": "string",
          "name": "countryCode",
          "type": "string"
        }
      ],
      "name": "getNodesByCountry",
      "outputs": [
        {
          "components": [
            {
              "internalType": "address",
              "name": "didAddress",
              "type": "address"
            },
            {
              "internalType": "string",
              "name": "endpointUri",
              "type": "string"
            },
            {
              "internalType": "string",
              "name": "countryCode",
              "type": "string"
            },
            {
              "internalType": "string",
              "name": "regionCode",
              "type": "string"
            },
            {
              "internalType": "uint256",
              "name": "datacenterId",
              "type": "uint256"
            },
            {
              "internalType": "int256",
              "name": "lat",
              "type": "int256"
            },
            {
              "internalType": "int256",
              "name": "long",
              "type": "int256"
            },
            {
              "internalType": "uint256",
              "name": "numberSlots",
              "type": "uint256"
            },
            {
              "internalType": "uint256",
              "name": "establishmentDate",
              "type": "uint256"
            }
          ],
          "internalType": "struct IStorageNodeRegistry.StorageNode[]",
          "name": "",
          "type": "tuple[]"
        }
      ],
      "stateMutability": "view",
      "type": "function"
    },
    {
      "inputs": [
        {
          "internalType": "string",
          "name": "regionCode",
          "type": "string"
        }
      ],
      "name": "getNodesByRegion",
      "outputs": [
        {
          "components": [
            {
              "internalType": "address",
              "name": "didAddress",
              "type": "address"
            },
            {
              "internalType": "string",
              "name": "endpointUri",
              "type": "string"
            },
            {
              "internalType": "string",
              "name": "countryCode",
              "type": "string"
            },
            {
              "internalType": "string",
              "name": "regionCode",
              "type": "string"
            },
            {
              "internalType": "uint256",
              "name": "datacenterId",
              "type": "uint256"
            },
            {
              "internalType": "int256",
              "name": "lat",
              "type": "int256"
            },
            {
              "internalType": "int256",
              "name": "long",
              "type": "int256"
            },
            {
              "internalType": "uint256",
              "name": "numberSlots",
              "type": "uint256"
            },
            {
              "internalType": "uint256",
              "name": "establishmentDate",
              "type": "uint256"
            }
          ],
          "internalType": "struct IStorageNodeRegistry.StorageNode[]",
          "name": "",
          "type": "tuple[]"
        }
      ],
      "stateMutability": "view",
      "type": "function"
    },
    {
      "inputs": [],
      "name": "getNumberSlotsRange",
      "outputs": [
        {
          "internalType": "uint256",
          "name": "",
          "type": "uint256"
        },
        {
          "internalType": "uint256",
          "name": "",
          "type": "uint256"
        }
      ],
      "stateMutability": "view",
      "type": "function"
    },
    {
      "inputs": [],
      "name": "getSameNodeLogDuration",
      "outputs": [
        {
          "internalType": "uint256",
          "name": "",
          "type": "uint256"
        }
      ],
      "stateMutability": "view",
      "type": "function"
    },
    {
      "inputs": [],
      "name": "getStakePerSlot",
      "outputs": [
        {
          "internalType": "uint256",
          "name": "",
          "type": "uint256"
        }
      ],
      "stateMutability": "view",
      "type": "function"
    },
    {
      "inputs": [
        {
          "internalType": "address",
          "name": "tokenAddress",
          "type": "address"
        }
      ],
      "name": "initialize",
      "outputs": [],
      "stateMutability": "nonpayable",
      "type": "function"
    },
    {
      "inputs": [],
      "name": "isStakingRequired",
      "outputs": [
        {
          "internalType": "bool",
          "name": "",
          "type": "bool"
        }
      ],
      "stateMutability": "view",
      "type": "function"
    },
    {
      "inputs": [
        {
          "internalType": "address",
          "name": "didAddress",
          "type": "address"
        },
        {
          "internalType": "address",
          "name": "nodeAddress",
          "type": "address"
        },
        {
          "internalType": "uint256",
          "name": "reasonCode",
          "type": "uint256"
        },
        {
          "internalType": "bytes",
          "name": "requestSignature",
          "type": "bytes"
        },
        {
          "internalType": "bytes",
          "name": "requestProof",
          "type": "bytes"
        }
      ],
      "name": "logNodeIssue",
      "outputs": [],
      "stateMutability": "nonpayable",
      "type": "function"
    },
    {
      "inputs": [
        {
          "internalType": "address",
          "name": "did",
          "type": "address"
        }
      ],
      "name": "nonce",
      "outputs": [
        {
          "internalType": "uint256",
          "name": "",
          "type": "uint256"
        }
      ],
      "stateMutability": "view",
      "type": "function"
    },
    {
      "inputs": [],
      "name": "owner",
      "outputs": [
        {
          "internalType": "address",
          "name": "",
          "type": "address"
        }
      ],
      "stateMutability": "view",
      "type": "function"
    },
    {
      "inputs": [
        {
          "internalType": "uint256",
          "name": "datacenterId",
          "type": "uint256"
        }
      ],
      "name": "removeDatacenter",
      "outputs": [],
      "stateMutability": "payable",
      "type": "function"
    },
    {
      "inputs": [
        {
          "internalType": "address",
          "name": "didAddress",
          "type": "address"
        },
        {
          "internalType": "bytes",
          "name": "requestSignature",
          "type": "bytes"
        },
        {
          "internalType": "bytes",
          "name": "requestProof",
          "type": "bytes"
        }
      ],
      "name": "removeNodeComplete",
      "outputs": [],
      "stateMutability": "nonpayable",
      "type": "function"
    },
    {
      "inputs": [
        {
          "internalType": "address",
          "name": "didAddress",
          "type": "address"
        },
        {
          "internalType": "uint256",
          "name": "unregisterDateTime",
          "type": "uint256"
        },
        {
          "internalType": "bytes",
          "name": "requestSignature",
          "type": "bytes"
        },
        {
          "internalType": "bytes",
          "name": "requestProof",
          "type": "bytes"
        }
      ],
      "name": "removeNodeStart",
      "outputs": [],
      "stateMutability": "nonpayable",
      "type": "function"
    },
    {
      "inputs": [
        {
          "internalType": "address",
          "name": "didAddress",
          "type": "address"
        }
      ],
      "name": "removeTrustedSigner",
      "outputs": [],
      "stateMutability": "payable",
      "type": "function"
    },
    {
      "inputs": [],
      "name": "renounceOwnership",
      "outputs": [],
      "stateMutability": "nonpayable",
      "type": "function"
    },
    {
      "inputs": [
        {
          "internalType": "bool",
          "name": "isRequired",
          "type": "bool"
        }
      ],
      "name": "setStakingRequired",
      "outputs": [],
      "stateMutability": "payable",
      "type": "function"
    },
    {
      "inputs": [
        {
          "internalType": "address",
          "name": "nodeDID",
          "type": "address"
        },
        {
          "internalType": "uint256",
          "name": "reasonCode",
          "type": "uint256"
        },
        {
          "internalType": "uint256",
          "name": "amount",
          "type": "uint256"
        },
        {
          "internalType": "string",
          "name": "moreInfoUrl",
          "type": "string"
        }
      ],
      "name": "slash",
      "outputs": [],
      "stateMutability": "payable",
      "type": "function"
    },
    {
      "inputs": [
        {
          "internalType": "address",
          "name": "newOwner",
          "type": "address"
        }
      ],
      "name": "transferOwnership",
      "outputs": [],
      "stateMutability": "nonpayable",
      "type": "function"
    },
    {
      "inputs": [
        {
          "internalType": "uint256",
          "name": "maxSlots",
          "type": "uint256"
        }
      ],
      "name": "updateMaxSlots",
      "outputs": [],
      "stateMutability": "payable",
      "type": "function"
    },
    {
      "inputs": [
        {
          "internalType": "uint256",
          "name": "minSlots",
          "type": "uint256"
        }
      ],
      "name": "updateMinSlots",
      "outputs": [],
      "stateMutability": "payable",
      "type": "function"
    },
    {
      "inputs": [
        {
          "internalType": "uint256",
          "name": "value",
          "type": "uint256"
        }
      ],
      "name": "updateNodeIssueFee",
      "outputs": [],
      "stateMutability": "payable",
      "type": "function"
    },
    {
      "inputs": [
        {
          "internalType": "uint256",
          "name": "value",
          "type": "uint256"
        }
      ],
      "name": "updateSameNodeLogDuration",
      "outputs": [],
      "stateMutability": "payable",
      "type": "function"
    },
    {
      "inputs": [
        {
          "internalType": "uint256",
          "name": "newVal",
          "type": "uint256"
        }
      ],
      "name": "updateStakePerSlot",
      "outputs": [],
      "stateMutability": "payable",
      "type": "function"
    },
    {
      "inputs": [
        {
          "internalType": "address",
          "name": "newTokenAddress",
          "type": "address"
        }
      ],
      "name": "updateTokenAddress",
      "outputs": [],
      "stateMutability": "payable",
      "type": "function"
    },
    {
      "inputs": [],
      "name": "vdaTokenAddress",
      "outputs": [
        {
          "internalType": "address",
          "name": "",
          "type": "address"
        }
      ],
      "stateMutability": "view",
      "type": "function"
    },
    {
      "inputs": [
        {
          "internalType": "address",
          "name": "didAddress",
          "type": "address"
        },
        {
          "internalType": "uint256",
          "name": "amount",
          "type": "uint256"
        },
        {
          "internalType": "bytes",
          "name": "requestSignature",
          "type": "bytes"
        },
        {
          "internalType": "bytes",
          "name": "requestProof",
          "type": "bytes"
        }
      ],
      "name": "withdraw",
      "outputs": [],
      "stateMutability": "nonpayable",
      "type": "function"
    },
    {
      "inputs": [
        {
          "internalType": "address",
          "name": "to",
          "type": "address"
        },
        {
          "internalType": "uint256",
          "name": "amount",
          "type": "uint256"
        }
      ],
      "name": "withdrawIssueFee",
      "outputs": [],
      "stateMutability": "payable",
      "type": "function"
    }
  ],
  "bytecode": "0x608060405234801561001057600080fd5b50615c1d80620000216000396000f3fe6080604052600436106102c65760003560e01c806396bd2fcd11610179578063c6245249116100d6578063f2fde38b1161008a578063f8b2cb4f11610064578063f8b2cb4f14610733578063fab853c514610769578063fac755bc1461077c57600080fd5b8063f2fde38b146106e9578063f3cab03f14610709578063f40851901461071e57600080fd5b8063dad5e754116100bb578063dad5e75414610693578063e771fe4e146106a6578063f1dac461146106c957600080fd5b8063c624524914610660578063cef5f7c41461068057600080fd5b8063b3ee3ecd1161012d578063b743f07d11610112578063b743f07d1461060b578063bfbec7c514610620578063c4d66de81461064057600080fd5b8063b3ee3ecd146105d8578063b3ff42dc146105f857600080fd5b80639f86898b1161015e5780639f86898b14610585578063a986030814610598578063aecc6248146105b857600080fd5b806396bd2fcd146105505780639bcc18eb1461056557600080fd5b80636b203f261161022757806379b345d5116101db5780637d66527b116101c05780637d66527b146104f25780638da5cb5b1461050557806393fa337c1461052357600080fd5b806379b345d5146104b25780637a033d31146104c557600080fd5b8063715018a61161020c578063715018a61461046257806371c419f014610477578063725659be1461049f57600080fd5b80636b203f26146103fe57806370ae92d21461042c57600080fd5b80633fff987b1161027e5780636691461a116102635780636691461a1461038c57806368e886131461039f5780636ab55fd9146103d757600080fd5b80633fff987b1461035957806344db5f521461036c57600080fd5b80631e4d94e0116102af5780631e4d94e0146103135780632e2881f914610333578063320fe2ed1461034657600080fd5b80630bfa55ec146102cb57806312f83520146102e0575b600080fd5b6102de6102d9366004614b53565b61079c565b005b3480156102ec57600080fd5b506103006102fb366004614b87565b610815565b6040519081526020015b60405180910390f35b34801561031f57600080fd5b506102de61032e366004614be4565b610826565b6102de610341366004614c65565b610ac2565b6102de610354366004614c65565b610b3c565b6102de610367366004614b87565b610c88565b34801561037857600080fd5b506102de610387366004614c7e565b610d17565b6102de61039a366004614b87565b610e9f565b3480156103ab57600080fd5b506080546103bf906001600160a01b031681565b6040516001600160a01b03909116815260200161030a565b3480156103e357600080fd5b506103ec600881565b60405160ff909116815260200161030a565b34801561040a57600080fd5b5061041e610419366004614d08565b610f46565b60405161030a929190614e38565b34801561043857600080fd5b50610300610447366004614b87565b6001600160a01b031660009081526065602052604090205490565b34801561046e57600080fd5b506102de610ffc565b34801561048357600080fd5b50607b54607c546040805192835260208301919091520161030a565b6102de6104ad366004614c65565b611010565b6102de6104c0366004614c65565b611085565b3480156104d157600080fd5b506104e56104e0366004614d08565b6110fa565b60405161030a9190614e66565b6102de610500366004614b87565b61112b565b34801561051157600080fd5b506033546001600160a01b03166103bf565b34801561052f57600080fd5b5061054361053e366004614d08565b6111b9565b60405161030a9190614ec8565b34801561055c57600080fd5b50607e54610300565b34801561057157600080fd5b506102de610580366004614c7e565b6114c2565b6102de610593366004614c65565b6116d0565b3480156105a457600080fd5b5061041e6105b3366004614b87565b611742565b3480156105c457600080fd5b506102de6105d3366004614f7d565b6117e9565b3480156105e457600080fd5b506104e56105f3366004614d08565b611cfe565b610300610606366004615018565b611d15565b34801561061757600080fd5b50607a54610300565b34801561062c57600080fd5b5061054361063b366004615053565b611f42565b34801561064c57600080fd5b506102de61065b366004614b87565b612274565b34801561066c57600080fd5b506102de61067b3660046150c8565b6124dd565b6102de61068e3660046150c8565b612614565b6102de6106a1366004614c65565b61270a565b3480156106b257600080fd5b5060795460ff16604051901515815260200161030a565b3480156106d557600080fd5b506102de6106e43660046150f2565b612773565b3480156106f557600080fd5b506102de610704366004614b87565b612a5a565b34801561071557600080fd5b50607f54610300565b34801561072a57600080fd5b50607d54610300565b34801561073f57600080fd5b5061030061074e366004614b87565b6001600160a01b031660009081526073602052604090205490565b6102de61077736600461519a565b612aea565b34801561078857600080fd5b50610543610797366004614d08565b612cd2565b6107a4612fbd565b60795460ff161515811515036107cd57604051632a9ffab760e21b815260040160405180910390fd5b6079805460ff19168215159081179091556040519081527f4ce9d026bda21f6a3d62616db239b65320aa9bfd7d025646d7edd2d0b9ea30c1906020015b60405180910390a150565b600061082082613017565b92915050565b6001600160a01b0385166000908152606f6020526040812054908190036108605760405163308e2cd360e21b815260040160405180910390fd5b6000818152606e6020526040902054158061088857506000818152606e602052604090205442105b156108a6576040516315871dcb60e31b815260040160405180910390fd5b6040516bffffffffffffffffffffffff19606088901b16602082015260009060340160408051601f198184030181526020601f890181900481028401810190925287835292506109499189918491908a908a908190840183828082843760009201919091525050604080516020601f8c018190048102820181019092528a815292508a91508990819084018382808284376000920191909152506130ab92505050565b50610954863261317a565b6000818152606d6020908152604080832060048101548452606c909252822060010180549192909161098590615207565b919050819055506109b8826071836002016040516109a39190615258565b90815260405190819003602001902090613230565b506109d0826072836003016040516109a39190615258565b506070816001016040516109e49190615258565b90815260408051602092819003830190206000908190556001600160a01b038a168152606f8352818120819055848152606d909252812080546001600160a01b031916815590610a376001830182614af7565b610a45600283016000614af7565b610a53600383016000614af7565b506000600482018190556005820181905560068201819055600782018190556008909101819055828152606e6020526040808220829055516001600160a01b038916917f98dfb713354ba76d943d7413bb6b6d1eb0e09af1b51d02a6502ccdc41efdf2c291a250505050505050565b610aca612fbd565b801580610ad85750607e5481145b15610af657604051632a9ffab760e21b815260040160405180910390fd5b607e80549082905560408051828152602081018490527ff188cea8ff969fcc59b898a6c87e8d47db68c14afcc3f26baf5681e21340a77091015b60405180910390a15050565b610b44612fbd565b610b4d8161323c565b6000818152606c602052604090206001015415610b96576040517ffb5665a000000000000000000000000000000000000000000000000000000000815260040160405180910390fd5b600081815260686020526040908190209051610bbf908390606a906109a3906001860190615258565b50610bd782606b836002016040516109a39190615258565b50604051606990610be9908390615258565b90815260408051602092819003830190206000908190558481526068909252812090610c158282614af7565b610c23600183016000614af7565b610c31600283016000614af7565b506000600382018190556004909101819055828152606c6020526040808220805460ff191681556001018290555183917fab5c000d0ba1ab5ec92d9d0f67bbb30d828aa337d8b2f6754ea368a4dbf787f891a25050565b610c90612fbd565b610c9b60668261326e565b15610cd2576040517f9157934e00000000000000000000000000000000000000000000000000000000815260040160405180910390fd5b610cdd606682613290565b506040516001600160a01b03821681527f80190299b20df830d96214905f4fb155ea39546d3f78b119b347172ff38261d09060200161080a565b6001600160a01b0386166000908152606f6020526040902054801580610d4a57506000818152606e602052604090205415155b15610d685760405163308e2cd360e21b815260040160405180910390fd5b610d75426224ea006152ce565b861015610d95576040516315871dcb60e31b815260040160405180910390fd5b6040516bffffffffffffffffffffffff19606089901b1660208201526034810187905260009060540160408051601f198184030181526020601f89018190048102840181019092528783529250610e3f918a918491908a908a908190840183828082843760009201919091525050604080516020601f8c018190048102820181019092528a815292508a91508990819084018382808284376000920191909152506130ab92505050565b6000828152606e602052604090819020889055516001600160a01b038916907f9eace9ae9559a74baf21164901c2cdb0272856f75b0d5b9eecbfe0229ab25d9090610e8d908a815260200190565b60405180910390a25050505050505050565b610ea7612fbd565b6080546001600160a01b03808316911603610ed557604051630f58058360e11b815260040160405180910390fd5b80610eec57604051630f58058360e11b8152600481fd5b608080546001600160a01b038381166001600160a01b031983168117909355604080519190921680825260208201939093527f3a9adbbfa0edcb8a357d3054bd2db32a6807de7d21655a225771e0381bb440589101610b30565b610f9e60405180610120016040528060006001600160a01b0316815260200160608152602001606081526020016060815260200160008152602001600081526020016000815260200160008152602001600081525090565b6060600060708585604051610fb49291906152e1565b908152602001604051809103902054905080600003610fe6576040516301ea9c6560e61b815260040160405180910390fd5b610fef816132a5565b92509250505b9250929050565b611004612fbd565b61100e60006135ab565b565b611018612fbd565b8015806110265750607c5481145b806110325750607b5481105b1561105057604051632a9ffab760e21b815260040160405180910390fd5b607c8190556040518181527ff7537e69920be29170d87e8b7f6f744b386c978460a18c8d2154fb8463e9f2e79060200161080a565b61108d612fbd565b80158061109b5750607b5481145b806110a75750607c5481115b156110c557604051632a9ffab760e21b815260040160405180910390fd5b607b8190556040518181527fa94774b6331ee883c039018aea02dc320b2489e50e15465a0a41dbfc9f0ca0c99060200161080a565b6060611124607184846040516111119291906152e1565b90815260200160405180910390206135fd565b9392505050565b611133612fbd565b61113e60668261326e565b611174576040517faec5b96900000000000000000000000000000000000000000000000000000000815260040160405180910390fd5b61117f606682613984565b506040516001600160a01b03821681527fb38312df208058ed8fa64da03e169855d33d1182710e488eecd49cc53254fc7f9060200161080a565b60606111c58383613999565b60006111ef606b85856040516111dc9291906152e1565b90815260200160405180910390206139e4565b905060008167ffffffffffffffff81111561120c5761120c6152f1565b60405190808252806020026020018201604052801561126f57816020015b61125c6040518060a0016040528060608152602001606081526020016060815260200160008152602001600081525090565b81526020019060019003908161122a5790505b5090506000606b86866040516112869291906152e1565b9081526020016040518091039020905060005b838110156114b757606860006112af84846139ee565b81526020019081526020016000206040518060a00160405290816000820180546112d89061521e565b80601f01602080910402602001604051908101604052809291908181526020018280546113049061521e565b80156113515780601f1061132657610100808354040283529160200191611351565b820191906000526020600020905b81548152906001019060200180831161133457829003601f168201915b5050505050815260200160018201805461136a9061521e565b80601f01602080910402602001604051908101604052809291908181526020018280546113969061521e565b80156113e35780601f106113b8576101008083540402835291602001916113e3565b820191906000526020600020905b8154815290600101906020018083116113c657829003601f168201915b505050505081526020016002820180546113fc9061521e565b80601f01602080910402602001604051908101604052809291908181526020018280546114289061521e565b80156114755780601f1061144a57610100808354040283529160200191611475565b820191906000526020600020905b81548152906001019060200180831161145857829003601f168201915b50505050508152602001600382015481526020016004820154815250508382815181106114a4576114a4615307565b6020908102919091010152600101611299565b509095945050505050565b6040516bffffffffffffffffffffffff19606088901b1660208201526034810186905260009060540160408051601f198184030181526020601f8801819004810284018101909252868352925061156c918991849190899089908190840183828082843760009201919091525050604080516020601f8b0181900481028201810190925289815292508991508890819084018382808284376000920191909152506130ab92505050565b50600061157887613017565b9050806000036115b4576040517fdd5f17a800000000000000000000000000000000000000000000000000000000815260040160405180910390fd5b808611156115d55760405163162908e360e11b815260040160405180910390fd5b60805460405163a9059cbb60e01b8152326004820152602481018890526001600160a01b039091169063a9059cbb906044016020604051808303816000875af1158015611626573d6000803e3d6000fd5b505050506040513d601f19601f8201168201806040525081019061164a919061531d565b506001600160a01b03871660009081526073602052604090205461166f90879061533a565b6001600160a01b03881660008181526073602090815260409182902093909355805132815292830189905290917f8210728e7c071f615b840ee026032693858fbcd5e5359e67e438c890f59e5620910160405180910390a250505050505050565b6116d8612fbd565b8015806116e65750607d5481145b1561170457604051632a9ffab760e21b815260040160405180910390fd5b607d80549082905560408051828152602081018490527f51ec5ae7004ed2cd01fb2c9f621b03029e373ce8ae7ff734163264bfd2461a3e9101610b30565b61179a60405180610120016040528060006001600160a01b0316815260200160608152602001606081526020016060815260200160008152602001600081526020016000815260200160008152602001600081525090565b6001600160a01b0382166000908152606f60205260408120546060918190036117d65760405163308e2cd360e21b815260040160405180910390fd5b6117df816132a5565b9250925050915091565b6001600160a01b0386166000908152606f6020526040812054908190036118235760405163308e2cd360e21b815260040160405180910390fd5b6040516bffffffffffffffffffffffff1960608a811b8216602084015289901b1660348201526048810187905260009060680160408051601f198184030181526020601f890181900481028401810190925287835292506118d7918b918491908a908a908190840183828082843760009201919091525050604080516020601f8c018190048102820181019092528a815292508a91508990819084018382808284376000920191909152506130ab92505050565b50506001600160a01b038716600090815260766020526040902080546004116119735760008160000182600101548154811061191557611915615307565b9060005260206000209060030201600201549050620151808142611939919061533a565b1015611971576040517fa7e7df4f00000000000000000000000000000000000000000000000000000000815260040160405180910390fd5b505b60005b8154811015611a3557876001600160a01b031682600001828154811061199e5761199e615307565b60009182526020909120600390910201546001600160a01b03161480156119f65750607e5482548390839081106119d7576119d7615307565b906000526020600020906003020160020154426119f4919061533a565b105b15611a2d576040517fccf5976200000000000000000000000000000000000000000000000000000000815260040160405180910390fd5b600101611976565b50805460041115611aae57604080516060810182526001600160a01b03898116825260208083018a8152429484019485528554600180820188556000888152939093209451600390910290940180546001600160a01b031916949093169390931782559151918101919091559051600290910155611b70565b600181015481548890839083908110611ac957611ac9615307565b906000526020600020906003020160000160006101000a8154816001600160a01b0302191690836001600160a01b0316021790555086826000018281548110611b1457611b14615307565b90600052602060002090600302016001018190555042826000018281548110611b3f57611b3f615307565b6000918252602090912060026003909202010155611b5c8161534d565b9050611b6960048261537c565b6001830155505b608054607d546040516323b872dd60e01b815233600482015230602482015260448101919091526001600160a01b03909116906323b872dd906064016020604051808303816000875af1158015611bcb573d6000803e3d6000fd5b505050506040513d601f19601f82011682018060405250810190611bef919061531d565b50607d54607f54611c0091906152ce565b607f556001600160a01b03871660009081526074602090815260408083208984529091528120611c30818b6139fa565b15611c4257611c3f818b613a0f565b91505b607d54611c5d908b90611c5590856152ce565b839190613a24565b50607d546001600160a01b038a1660009081526075602090815260408083208c8452909152902054611c8f91906152ce565b6001600160a01b038a811660008181526075602090815260408083208e84528252918290209490945580519182529281018b9052908c16917ff9e479fb1290648d38b82b95bd2a66362a012da267817b065b94e2d12650ce8c910160405180910390a250505050505050505050565b6060611124607284846040516111119291906152e1565b6000611d1f612fbd565b611d298280615390565b15905080611d465750611d44611d3f8380615390565b613a3a565b155b15611d645760405163aac2f36d60e01b815260040160405180910390fd5b6069611d708380615390565b604051611d7e9291906152e1565b908152602001604051809103902054600014611dad5760405163aac2f36d60e01b815260040160405180910390fd5b611dc2611dbd6020840184615390565b613b2a565b611dd7611dd26040840184615390565b613999565b611de982606001358360800135613b78565b611df7607780546001019055565b6000611e0260775490565b60008181526068602052604090209091508390611e1f82826154e6565b508190506069611e2f8580615390565b604051611e3d9291906152e1565b90815260408051918290036020908101909220929092556000838152606c825291909120805460ff19166001179055611ea4908290606a90611e8190870187615390565b604051611e8f9291906152e1565b90815260405190819003602001902090613c5a565b50611eb881606b611e816040870187615390565b50611ec38380615390565b604051611ed19291906152e1565b604051908190039020817fb6033121a926d555cfb6e89b81af0a6580f7cef032654a9c79b59c1ba5fadf46611f096020870187615390565b611f166040890189615390565b89606001358a60800135604051611f3296959493929190615629565b60405180910390a390505b919050565b60608160008167ffffffffffffffff811115611f6057611f606152f1565b604051908082528060200260200182016040528015611fc357816020015b611fb06040518060a0016040528060608152602001606081526020016060815260200160008152602001600081525090565b815260200190600190039081611f7e5790505b50905060005b8281101561226b57606c6000878784818110611fe757611fe7615307565b602090810292909201358352508101919091526040016000205460ff166120465785858281811061201a5761201a615307565b90506020020135604051630b0489b160e21b815260040161203d91815260200190565b60405180910390fd5b6068600087878481811061205c5761205c615307565b9050602002013581526020019081526020016000206040518060a001604052908160008201805461208c9061521e565b80601f01602080910402602001604051908101604052809291908181526020018280546120b89061521e565b80156121055780601f106120da57610100808354040283529160200191612105565b820191906000526020600020905b8154815290600101906020018083116120e857829003601f168201915b5050505050815260200160018201805461211e9061521e565b80601f016020809104026020016040519081016040528092919081815260200182805461214a9061521e565b80156121975780601f1061216c57610100808354040283529160200191612197565b820191906000526020600020905b81548152906001019060200180831161217a57829003601f168201915b505050505081526020016002820180546121b09061521e565b80601f01602080910402602001604051908101604052809291908181526020018280546121dc9061521e565b80156122295780601f106121fe57610100808354040283529160200191612229565b820191906000526020600020905b81548152906001019060200180831161220c57829003601f168201915b505050505081526020016003820154815260200160048201548152505082828151811061225857612258615307565b6020908102919091010152600101611fc9565b50949350505050565b600054610100900460ff16158080156122945750600054600160ff909116105b806122ae5750303b1580156122ae575060005460ff166001145b6123205760405162461bcd60e51b815260206004820152602e60248201527f496e697469616c697a61626c653a20636f6e747261637420697320616c72656160448201527f647920696e697469616c697a6564000000000000000000000000000000000000606482015260840161203d565b6000805460ff191660011790558015612343576000805461ff0019166101001790555b61234b613c66565b816001600160a01b031663313ce5676040518163ffffffff1660e01b8152600401602060405180830381865afa158015612389573d6000803e3d6000fd5b505050506040513d601f19601f820116820180604052508101906123ad9190615666565b6123b890600a61576d565b6123c390600361577c565b607a556079805460ff19169055614e20607b819055607c55604080517f313ce56700000000000000000000000000000000000000000000000000000000815290516001600160a01b0384169163313ce5679160048083019260209291908290030181865afa158015612439573d6000803e3d6000fd5b505050506040513d601f19601f8201168201806040525081019061245d9190615666565b61246890600a61576d565b61247390600561577c565b607d55610e10607e55608080546001600160a01b0319166001600160a01b03841617905580156124d9576000805461ff0019169055604051600181527f7f26b83ff96e1f2b6a682f133852f6798a09c465da95921460cefb384740249890602001610b30565b5050565b6001600160a01b0382166000908152606f6020526040812054908190036125175760405163308e2cd360e21b815260040160405180910390fd5b6080546040516323b872dd60e01b8152326004820152306024820152604481018490526001600160a01b03909116906323b872dd906064016020604051808303816000875af115801561256e573d6000803e3d6000fd5b505050506040513d601f19601f82011682018060405250810190612592919061531d565b506001600160a01b0383166000908152607360205260409020546125b79083906152ce565b6001600160a01b03841660008181526073602090815260409182902093909355805132815292830185905290917ff1444b5cad7ce70cb018d1b8edc8618fe303f3c7f034d8d572a6e27facbf2bef910160405180910390a2505050565b61261c612fbd565b607f5481111561263f57604051632a9ffab760e21b815260040160405180910390fd5b60805460405163a9059cbb60e01b81526001600160a01b038481166004830152602482018490529091169063a9059cbb906044016020604051808303816000875af1158015612692573d6000803e3d6000fd5b505050506040513d601f19601f820116820180604052508101906126b6919061531d565b50607f546126c590829061533a565b607f556040518181526001600160a01b038316907fd3a1a9447d93c82ad2ca568cdf402e78208a66efc9d64d36c49d4ff257a0caa89060200160405180910390a25050565b612712612fbd565b8015806127205750607a5481145b1561273e57604051632a9ffab760e21b815260040160405180910390fd5b607a8190556040518181527f5b30932eeebc14d9c7e1eee333ae8ee9d316c318c844f65c78bc317ae5f8c2ea9060200161080a565b6127806020880188615390565b90506000036127a2576040516301ea9c6560e61b815260040160405180910390fd5b6127b2611dbd6040890189615390565b6127c2611dd26060890189615390565b6127cf876080013561323c565b6127e18760a001358860c00135613b78565b606f60006127f260208a018a614b87565b6001600160a01b031681526020810191909152604001600020541561282a5760405163308e2cd360e21b815260040160405180910390fd5b60706128396020890189615390565b6040516128479291906152e1565b908152602001604051809103902054600014612876576040516301ea9c6560e61b815260040160405180910390fd5b607b5460e0880135108061288f5750607c5460e0880135115b156128c6576040517f22ab063500000000000000000000000000000000000000000000000000000000815260040160405180910390fd5b60006128d56020890189614b87565b6128e260208a018a615390565b6128ef60408c018c615390565b604051602001612903959493929190615793565b60408051601f1981840301815291905290508061292360608a018a615390565b8a6080013560405160200161293b94939291906157d6565b6040516020818303038152906040529050808860a001358960c001358a60e0013560405160200161296f94939291906157ff565b60408051601f198184030181529190529050612a0261299160208a018a614b87565b8289898080601f01602080910402602001604051908101604052809392919081815260200183838082843760009201919091525050604080516020601f8d018190048102820181019092528b815292508b91508a90819084018382808284376000920191909152506130ab92505050565b612a19612a1260208a018a614b87565b8484613ce1565b5060795460ff1615612a4057612a40612a356020890189614b87565b328960e00135613e32565b612a51612a4c886158e5565b613ee1565b50505050505050565b612a62612fbd565b6001600160a01b038116612ade5760405162461bcd60e51b815260206004820152602660248201527f4f776e61626c653a206e6577206f776e657220697320746865207a65726f206160448201527f6464726573730000000000000000000000000000000000000000000000000000606482015260840161203d565b612ae7816135ab565b50565b612af2612fbd565b821580612b1657506001600160a01b03851660009081526073602052604090205483115b15612b345760405163162908e360e11b815260040160405180910390fd5b6001600160a01b038516600090815260756020908152604080832087845290915281205490819003612b92576040517f3e57cc5d00000000000000000000000000000000000000000000000000000000815260040160405180910390fd5b6001600160a01b038616600090815260736020526040902054612bb690859061533a565b6001600160a01b03871660009081526073602090815260408083209390935560748152828220888352905290812090612bee826140e9565b90506000805b82811015612c7f57600080612c0986846140f4565b9092509050600087612c1b838d61577c565b612c2591906159b4565b9050612c3181866152ce565b6001600160a01b038416600090815260736020526040902054909550612c589082906152ce565b6001600160a01b039093166000908152607360205260409020929092555050600101612bf4565b50886001600160a01b03167fcb2bc4aa6594a0e55daa4df8f0579381929033996c0557d7c0af74b390d7507d89838989604051612cbf94939291906159c8565b60405180910390a2505050505050505050565b6060612cde8383613b2a565b6000612cf5606a85856040516111dc9291906152e1565b905060008167ffffffffffffffff811115612d1257612d126152f1565b604051908082528060200260200182016040528015612d7557816020015b612d626040518060a0016040528060608152602001606081526020016060815260200160008152602001600081525090565b815260200190600190039081612d305790505b5090506000606a8686604051612d8c9291906152e1565b9081526020016040518091039020905060005b838110156114b75760686000612db584846139ee565b81526020019081526020016000206040518060a0016040529081600082018054612dde9061521e565b80601f0160208091040260200160405190810160405280929190818152602001828054612e0a9061521e565b8015612e575780601f10612e2c57610100808354040283529160200191612e57565b820191906000526020600020905b815481529060010190602001808311612e3a57829003601f168201915b50505050508152602001600182018054612e709061521e565b80601f0160208091040260200160405190810160405280929190818152602001828054612e9c9061521e565b8015612ee95780601f10612ebe57610100808354040283529160200191612ee9565b820191906000526020600020905b815481529060010190602001808311612ecc57829003601f168201915b50505050508152602001600282018054612f029061521e565b80601f0160208091040260200160405190810160405280929190818152602001828054612f2e9061521e565b8015612f7b5780601f10612f5057610100808354040283529160200191612f7b565b820191906000526020600020905b815481529060010190602001808311612f5e57829003601f168201915b5050505050815260200160038201548152602001600482015481525050838281518110612faa57612faa615307565b6020908102919091010152600101612d9f565b6033546001600160a01b0316331461100e5760405162461bcd60e51b815260206004820181905260248201527f4f776e61626c653a2063616c6c6572206973206e6f7420746865206f776e6572604482015260640161203d565b6001600160a01b0381166000908152606f602052604081205481908015613056576000818152606d602052604090206007015461305390614110565b91505b6001600160a01b038416600090815260736020526040902054821061307f575060009392505050565b6001600160a01b0384166000908152607360205260409020546130a390839061533a565b949350505050565b6001600160a01b03841660009081526065602090815260408083205490519092916130da9187918591016159f2565b60408051601f19818403018152600180845283830190925292506000919060208083019080368337019050509050868160008151811061311c5761311c615307565b60200260200101906001600160a01b031690816001600160a01b03168152505061314882868684614120565b6001600160a01b038716600090815260656020526040812080549161316c8361534d565b919050555050505050505050565b6001600160a01b038216600090815260736020526040902054801561322b5760805460405163a9059cbb60e01b81526001600160a01b038481166004830152602482018490529091169063a9059cbb906044016020604051808303816000875af11580156131ec573d6000803e3d6000fd5b505050506040513d601f19601f82011682018060405250810190613210919061531d565b506001600160a01b0383166000908152607360205260408120555b505050565b60006111248383614261565b6000818152606c602052604090205460ff16612ae757604051630b0489b160e21b81526004810182905260240161203d565b6001600160a01b03811660009081526001830160205260408120541515611124565b6000611124836001600160a01b038416614354565b6132fd60405180610120016040528060006001600160a01b0316815260200160608152602001606081526020016060815260200160008152602001600081526020016000815260200160008152602001600081525090565b604080518082018252600681527f61637469766500000000000000000000000000000000000000000000000000006020808301919091526000858152606e90915291909120546060919015613382575060408051808201909152600781527f72656d6f7665640000000000000000000000000000000000000000000000000060208201525b6000848152606d60209081526040918290208251610120810190935280546001600160a01b03168352600181018054919385939092859291840191906133c79061521e565b80601f01602080910402602001604051908101604052809291908181526020018280546133f39061521e565b80156134405780601f1061341557610100808354040283529160200191613440565b820191906000526020600020905b81548152906001019060200180831161342357829003601f168201915b505050505081526020016002820180546134599061521e565b80601f01602080910402602001604051908101604052809291908181526020018280546134859061521e565b80156134d25780601f106134a7576101008083540402835291602001916134d2565b820191906000526020600020905b8154815290600101906020018083116134b557829003601f168201915b505050505081526020016003820180546134eb9061521e565b80601f01602080910402602001604051908101604052809291908181526020018280546135179061521e565b80156135645780601f1061353957610100808354040283529160200191613564565b820191906000526020600020905b81548152906001019060200180831161354757829003601f168201915b505050505081526020016004820154815260200160058201548152602001600682015481526020016007820154815260200160088201548152505091509250925050915091565b603380546001600160a01b038381166001600160a01b0319831681179093556040519116919082907f8be0079c531659141344cd1fd0a4f28419497f9722a3daafe3b4186f6b6457e090600090a35050565b6060600061360a836139e4565b905060008060005b8381101561364f5761362486826139ee565b6000818152606e602052604090205490925015613647576136448361534d565b92505b600101613612565b506000905061365e828461533a565b67ffffffffffffffff811115613676576136766152f1565b6040519080825280602002602001820160405280156136ff57816020015b6136ec60405180610120016040528060006001600160a01b0316815260200160608152602001606081526020016060815260200160008152602001600081526020016000815260200160008152602001600081525090565b8152602001906001900390816136945790505b50905060008060005b858110156139785761371a88826139ee565b6000818152606e602052604081205491945003613970576000838152606d60209081526040918290208251610120810190935280546001600160a01b03168352600181018054919284019161376e9061521e565b80601f016020809104026020016040519081016040528092919081815260200182805461379a9061521e565b80156137e75780601f106137bc576101008083540402835291602001916137e7565b820191906000526020600020905b8154815290600101906020018083116137ca57829003601f168201915b505050505081526020016002820180546138009061521e565b80601f016020809104026020016040519081016040528092919081815260200182805461382c9061521e565b80156138795780601f1061384e57610100808354040283529160200191613879565b820191906000526020600020905b81548152906001019060200180831161385c57829003601f168201915b505050505081526020016003820180546138929061521e565b80601f01602080910402602001604051908101604052809291908181526020018280546138be9061521e565b801561390b5780601f106138e05761010080835404028352916020019161390b565b820191906000526020600020905b8154815290600101906020018083116138ee57829003601f168201915b505050505081526020016004820154815260200160058201548152602001600682015481526020016007820154815260200160088201548152505084838151811061395857613958615307565b60200260200101819052508161396d9061534d565b91505b600101613708565b50919695505050505050565b6000611124836001600160a01b038416614261565b8015806139ad57506139ab8282613a3a565b155b156124d9576040517ff58b53ad00000000000000000000000000000000000000000000000000000000815260040160405180910390fd5b6000610820825490565b600061112483836143a3565b6000611124836001600160a01b0384166143cd565b6000611124836001600160a01b0384166143d9565b60006130a3846001600160a01b03851684614449565b60008083838080601f01602080910402602001604051908101604052809392919081815260200183838082843760009201829052509394505050505b8151811015613b1f57604160f81b828281518110613a9657613a96615307565b01602001517fff000000000000000000000000000000000000000000000000000000000000001610801590613b075750605a60f81b828281518110613add57613add615307565b01602001517fff000000000000000000000000000000000000000000000000000000000000001611155b15613b1757600092505050610820565b600101613a76565b506001949350505050565b600281141580613b415750613b3f8282613a3a565b155b156124d9576040517f139d566400000000000000000000000000000000000000000000000000000000815260040160405180910390fd5b613b846008600a61576d565b613b9090605919615a14565b821280613bb25750613ba46008600a61576d565b613baf90605a615a14565b82135b15613be9576040517fc2df0dc500000000000000000000000000000000000000000000000000000000815260040160405180910390fd5b613bf56008600a61576d565b613c019060b319615a14565b811280613c235750613c156008600a61576d565b613c209060b4615a14565b81135b156124d9576040517fb658bf8000000000000000000000000000000000000000000000000000000000815260040160405180910390fd5b60006111248383614354565b600054610100900460ff16613cd15760405162461bcd60e51b815260206004820152602b60248201527f496e697469616c697a61626c653a20636f6e7472616374206973206e6f74206960448201526a6e697469616c697a696e6760a81b606482015260840161203d565b613cd9614466565b61100e6144d9565b6066613cec816139e4565b600003613d0c57604051630c7af40f60e41b815260040160405180910390fd5b6000829003613d2e57604051638baa579f60e01b815260040160405180910390fd5b6040516bffffffffffffffffffffffff19606086901b16602082015260009060340160405160208183030381529060405290506000818051906020012090506000613daf8287878080601f01602080910402602001604051908101604052809392919081815260200183838082843760009201919091525061454492505050565b90506000805b613dbe866139e4565b81108015613dca575081155b15613e09576000613ddb87836139ee565b9050806001600160a01b0316846001600160a01b031603613e00576001925050613e09565b50600101613db5565b81613e2757604051638baa579f60e01b815260040160405180910390fd5b505050505050505050565b6000613e3d82614110565b6080546040516323b872dd60e01b81526001600160a01b0386811660048301523060248301526044820184905292935091169081906323b872dd906064016020604051808303816000875af1158015613e9a573d6000803e3d6000fd5b505050506040513d601f19601f82011682018060405250810190613ebe919061531d565b50506001600160a01b039093166000908152607360205260409020929092555050565b613eef607880546001019055565b6000613efa60785490565b82516000828152606d6020908152604090912080546001600160a01b0319166001600160a01b0390931692909217825584015191925060010190613f3e9082615a60565b506040808301516000838152606d6020529190912060020190613f619082615a60565b5060608201516000828152606d6020526040902060030190613f839082615a60565b5060808201516000828152606d60209081526040808320600481019490945560a0860151600585015560c0860151600685015560e086015160078501554260089094019390935584516001600160a01b03168252606f81529082902083905583015190518291607091613ff69190615b20565b9081526020016040518091039020819055506140208160718460400151604051611e8f9190615b20565b506140398160728460600151604051611e8f9190615b20565b5060808201516000908152606c60205260408120600101805490919061405e9061534d565b909155505060208101516040516140759190615b20565b604051809103902081600001516001600160a01b03167f066cee820295ecf1a0c1cf813f9c77c5cd4ab55eefd1d40c5856ac54b483108f8360400151846060015185608001518660a001518760c001518860e00151426040516140de9796959493929190615b3c565b60405180910390a350565b600061082082614568565b60008080806141038686614573565b9097909650945050505050565b607a54600090610820908361577c565b805160000361414257604051630c7af40f60e41b815260040160405180910390fd5b8351158061414f57508251155b8061415957508151155b1561417757604051638baa579f60e01b815260040160405180910390fd5b83516020850120600061418a8286614544565b905060006141a0826001600160a01b031661459e565b90506000805b8551811080156141b4575081155b15613e095760008682815181106141cd576141cd615307565b6020026020010151905060006141eb826001600160a01b031661459e565b905060008186604051602001614202929190615b8c565b60408051601f19818403018152919052805160208201209091506000614228828d614544565b9050846001600160a01b0316816001600160a01b03160361425157600196505050505050613e09565b85600101955050505050506141a6565b6000818152600183016020526040812054801561434a57600061428560018361533a565b85549091506000906142999060019061533a565b90508181146142fe5760008660000182815481106142b9576142b9615307565b90600052602060002001549050808760000184815481106142dc576142dc615307565b6000918252602080832090910192909255918252600188019052604090208390555b855486908061430f5761430f615bbb565b600190038181906000526020600020016000905590558560010160008681526020019081526020016000206000905560019350505050610820565b6000915050610820565b600081815260018301602052604081205461439b57508154600181810184556000848152602080822090930184905584548482528286019093526040902091909155610820565b506000610820565b60008260000182815481106143ba576143ba615307565b9060005260206000200154905092915050565b600061112483836145b5565b6000818152600283016020526040812054801515806143fd57506143fd84846143cd565b6111245760405162461bcd60e51b815260206004820152601e60248201527f456e756d657261626c654d61703a206e6f6e6578697374656e74206b65790000604482015260640161203d565b600082815260028401602052604081208290556130a38484613c5a565b600054610100900460ff166144d15760405162461bcd60e51b815260206004820152602b60248201527f496e697469616c697a61626c653a20636f6e7472616374206973206e6f74206960448201526a6e697469616c697a696e6760a81b606482015260840161203d565b61100e6145cd565b600054610100900460ff1661100e5760405162461bcd60e51b815260206004820152602b60248201527f496e697469616c697a61626c653a20636f6e7472616374206973206e6f74206960448201526a6e697469616c697a696e6760a81b606482015260840161203d565b60008060006145538585614641565b9150915061456081614683565b509392505050565b6000610820826139e4565b6000808061458185856139ee565b600081815260029690960160205260409095205494959350505050565b6060610820826145ad846147e8565b600101614852565b60008181526001830160205260408120541515611124565b600054610100900460ff166146385760405162461bcd60e51b815260206004820152602b60248201527f496e697469616c697a61626c653a20636f6e7472616374206973206e6f74206960448201526a6e697469616c697a696e6760a81b606482015260840161203d565b61100e336135ab565b60008082516041036146775760208301516040840151606085015160001a61466b87828585614a33565b94509450505050610ff5565b50600090506002610ff5565b600081600481111561469757614697615bd1565b0361469f5750565b60018160048111156146b3576146b3615bd1565b036147005760405162461bcd60e51b815260206004820152601860248201527f45434453413a20696e76616c6964207369676e61747572650000000000000000604482015260640161203d565b600281600481111561471457614714615bd1565b036147615760405162461bcd60e51b815260206004820152601f60248201527f45434453413a20696e76616c6964207369676e6174757265206c656e67746800604482015260640161203d565b600381600481111561477557614775615bd1565b03612ae75760405162461bcd60e51b815260206004820152602260248201527f45434453413a20696e76616c6964207369676e6174757265202773272076616c60448201527f7565000000000000000000000000000000000000000000000000000000000000606482015260840161203d565b600080608083901c156148005760809290921c916010015b604083901c156148155760409290921c916008015b602083901c1561482a5760209290921c916004015b601083901c1561483f5760109290921c916002015b600883901c156108205760010192915050565b6060600061486183600261577c565b61486c9060026152ce565b67ffffffffffffffff811115614884576148846152f1565b6040519080825280601f01601f1916602001820160405280156148ae576020820181803683370190505b5090507f3000000000000000000000000000000000000000000000000000000000000000816000815181106148e5576148e5615307565b60200101906001600160f81b031916908160001a9053507f78000000000000000000000000000000000000000000000000000000000000008160018151811061493057614930615307565b60200101906001600160f81b031916908160001a905350600061495484600261577c565b61495f9060016152ce565b90505b60018111156149e4577f303132333435363738396162636465660000000000000000000000000000000085600f16601081106149a0576149a0615307565b1a60f81b8282815181106149b6576149b6615307565b60200101906001600160f81b031916908160001a90535060049490941c936149dd81615207565b9050614962565b5083156111245760405162461bcd60e51b815260206004820181905260248201527f537472696e67733a20686578206c656e67746820696e73756666696369656e74604482015260640161203d565b6000807f7fffffffffffffffffffffffffffffff5d576e7357a4501ddfe92f46681b20a0831115614a6a5750600090506003614aee565b6040805160008082526020820180845289905260ff881692820192909252606081018690526080810185905260019060a0016020604051602081039080840390855afa158015614abe573d6000803e3d6000fd5b5050604051601f1901519150506001600160a01b038116614ae757600060019250925050614aee565b9150600090505b94509492505050565b508054614b039061521e565b6000825580601f10614b13575050565b601f016020900490600052602060002090810190612ae791905b80821115614b415760008155600101614b2d565b5090565b8015158114612ae757600080fd5b600060208284031215614b6557600080fd5b813561112481614b45565b80356001600160a01b0381168114611f3d57600080fd5b600060208284031215614b9957600080fd5b61112482614b70565b60008083601f840112614bb457600080fd5b50813567ffffffffffffffff811115614bcc57600080fd5b602083019150836020828501011115610ff557600080fd5b600080600080600060608688031215614bfc57600080fd5b614c0586614b70565b9450602086013567ffffffffffffffff80821115614c2257600080fd5b614c2e89838a01614ba2565b90965094506040880135915080821115614c4757600080fd5b50614c5488828901614ba2565b969995985093965092949392505050565b600060208284031215614c7757600080fd5b5035919050565b60008060008060008060808789031215614c9757600080fd5b614ca087614b70565b955060208701359450604087013567ffffffffffffffff80821115614cc457600080fd5b614cd08a838b01614ba2565b90965094506060890135915080821115614ce957600080fd5b50614cf689828a01614ba2565b979a9699509497509295939492505050565b60008060208385031215614d1b57600080fd5b823567ffffffffffffffff811115614d3257600080fd5b614d3e85828601614ba2565b90969095509350505050565b60005b83811015614d65578181015183820152602001614d4d565b50506000910152565b60008151808452614d86816020860160208601614d4a565b601f01601f19169290920160200192915050565b80516001600160a01b0316825260006101206020830151816020860152614dc382860182614d6e565b91505060408301518482036040860152614ddd8282614d6e565b91505060608301518482036060860152614df78282614d6e565b9150506080830151608085015260a083015160a085015260c083015160c085015260e083015160e08501526101008084015181860152508091505092915050565b604081526000614e4b6040830185614d9a565b8281036020840152614e5d8185614d6e565b95945050505050565b6000602080830181845280855180835260408601915060408160051b870101925083870160005b82811015614ebb57603f19888603018452614ea9858351614d9a565b94509285019290850190600101614e8d565b5092979650505050505050565b60006020808301818452808551808352604092508286019150828160051b87010184880160005b83811015614f6f57603f19898403018552815160a08151818652614f1582870182614d6e565b915050888201518582038a870152614f2d8282614d6e565b9150508782015185820389870152614f458282614d6e565b60608481015190880152608093840151939096019290925250509386019390860190600101614eef565b509098975050505050505050565b600080600080600080600060a0888a031215614f9857600080fd5b614fa188614b70565b9650614faf60208901614b70565b955060408801359450606088013567ffffffffffffffff80821115614fd357600080fd5b614fdf8b838c01614ba2565b909650945060808a0135915080821115614ff857600080fd5b506150058a828b01614ba2565b989b979a50959850939692959293505050565b60006020828403121561502a57600080fd5b813567ffffffffffffffff81111561504157600080fd5b820160a0818503121561112457600080fd5b6000806020838503121561506657600080fd5b823567ffffffffffffffff8082111561507e57600080fd5b818501915085601f83011261509257600080fd5b8135818111156150a157600080fd5b8660208260051b85010111156150b657600080fd5b60209290920196919550909350505050565b600080604083850312156150db57600080fd5b6150e483614b70565b946020939093013593505050565b60008060008060008060006080888a03121561510d57600080fd5b873567ffffffffffffffff8082111561512557600080fd5b90890190610100828c03121561513a57600080fd5b9097506020890135908082111561515057600080fd5b61515c8b838c01614ba2565b909850965060408a013591508082111561517557600080fd5b6151818b838c01614ba2565b909650945060608a0135915080821115614ff857600080fd5b6000806000806000608086880312156151b257600080fd5b6151bb86614b70565b94506020860135935060408601359250606086013567ffffffffffffffff8111156151e557600080fd5b614c5488828901614ba2565b634e487b7160e01b600052601160045260246000fd5b600081615216576152166151f1565b506000190190565b600181811c9082168061523257607f821691505b60208210810361525257634e487b7160e01b600052602260045260246000fd5b50919050565b60008083546152668161521e565b6001828116801561527e5760018114615293576152c2565b60ff19841687528215158302870194506152c2565b8760005260208060002060005b858110156152b95781548a8201529084019082016152a0565b50505082870194505b50929695505050505050565b80820180821115610820576108206151f1565b8183823760009101908152919050565b634e487b7160e01b600052604160045260246000fd5b634e487b7160e01b600052603260045260246000fd5b60006020828403121561532f57600080fd5b815161112481614b45565b81810381811115610820576108206151f1565b60006001820161535f5761535f6151f1565b5060010190565b634e487b7160e01b600052601260045260246000fd5b60008261538b5761538b615366565b500690565b6000808335601e198436030181126153a757600080fd5b83018035915067ffffffffffffffff8211156153c257600080fd5b602001915036819003821315610ff557600080fd5b601f82111561322b57600081815260208120601f850160051c810160208610156153fe5750805b601f850160051c820191505b8181101561541d5782815560010161540a565b505050505050565b67ffffffffffffffff83111561543d5761543d6152f1565b6154518361544b835461521e565b836153d7565b6000601f841160018114615485576000851561546d5750838201355b600019600387901b1c1916600186901b1783556154df565b600083815260209020601f19861690835b828110156154b65786850135825560209485019460019092019101615496565b50868210156154d35760001960f88860031b161c19848701351681555b505060018560011b0183555b5050505050565b6154f08283615390565b67ffffffffffffffff811115615508576155086152f1565b61551c81615516855461521e565b856153d7565b6000601f82116001811461555057600083156155385750838201355b600019600385901b1c1916600184901b1785556155aa565b600085815260209020601f19841690835b828110156155815786850135825560209485019460019092019101615561565b508482101561559e5760001960f88660031b161c19848701351681555b505060018360011b0185555b505050506155bb6020830183615390565b6155c9818360018601615425565b50506155d86040830183615390565b6155e6818360028601615425565b505060608201356003820155608082013560048201555050565b81835281816020850137506000828201602090810191909152601f909101601f19169091010190565b60808152600061563d60808301888a615600565b8281036020840152615650818789615600565b6040840195909552505060600152949350505050565b60006020828403121561567857600080fd5b815160ff8116811461112457600080fd5b600181815b808511156156c45781600019048211156156aa576156aa6151f1565b808516156156b757918102915b93841c939080029061568e565b509250929050565b6000826156db57506001610820565b816156e857506000610820565b81600181146156fe576002811461570857615724565b6001915050610820565b60ff841115615719576157196151f1565b50506001821b610820565b5060208310610133831016604e8410600b8410161715615747575081810a610820565b6157518383615689565b8060001904821115615765576157656151f1565b029392505050565b600061112460ff8416836156cc565b8082028115828204841417610820576108206151f1565b6bffffffffffffffffffffffff198660601b1681528385601483013760008482016014810160008152848682375060009301601401928352509095945050505050565b600085516157e8818460208a01614d4a565b820184868237909301918252506020019392505050565b60008551615811818460208a01614d4a565b919091019384525060208301919091526040820152606001919050565b604051610100810167ffffffffffffffff81118282101715615852576158526152f1565b60405290565b600082601f83011261586957600080fd5b813567ffffffffffffffff80821115615884576158846152f1565b604051601f8301601f19908116603f011681019082821181831017156158ac576158ac6152f1565b816040528381528660208588010111156158c557600080fd5b836020870160208301376000602085830101528094505050505092915050565b600061010082360312156158f857600080fd5b61590061582e565b61590983614b70565b8152602083013567ffffffffffffffff8082111561592657600080fd5b61593236838701615858565b6020840152604085013591508082111561594b57600080fd5b61595736838701615858565b6040840152606085013591508082111561597057600080fd5b5061597d36828601615858565b6060830152506080830135608082015260a083013560a082015260c083013560c082015260e083013560e082015280915050919050565b6000826159c3576159c3615366565b500490565b8481528360208201526060604082015260006159e8606083018486615600565b9695505050505050565b60008351615a04818460208801614d4a565b9190910191825250602001919050565b808202600082127f800000000000000000000000000000000000000000000000000000000000000084141615615a4c57615a4c6151f1565b8181058314821517610820576108206151f1565b815167ffffffffffffffff811115615a7a57615a7a6152f1565b615a8e81615a88845461521e565b846153d7565b602080601f831160018114615ac35760008415615aab5750858301515b600019600386901b1c1916600185901b17855561541d565b600085815260208120601f198616915b82811015615af257888601518255948401946001909101908401615ad3565b5085821015615b105787850151600019600388901b60f8161c191681555b5050505050600190811b01905550565b60008251615b32818460208701614d4a565b9190910192915050565b60e081526000615b4f60e083018a614d6e565b8281036020840152615b61818a614d6e565b604084019890985250506060810194909452608084019290925260a083015260c09091015292915050565b60008351615b9e818460208801614d4a565b835190830190615bb2818360208801614d4a565b01949350505050565b634e487b7160e01b600052603160045260246000fd5b634e487b7160e01b600052602160045260246000fdfea264697066735822122066f794a5a5f94afef32ca38ec42921c9f2d7bbf81ce711ccdc350feba3235f3a64736f6c63430008120033",
  "linkReferences": {},
  "deployedLinkReferences": {}
}