{
  "_format": "hh-sol-artifact-1",
  "contractName": "VeridaDIDRegistry",
  "sourceName": "contracts/VeridaDIDRegistry.sol",
  "abi": [
    {
      "anonymous": false,
      "inputs": [
        {
          "indexed": false,
          "internalType": "uint8",
          "name": "version",
          "type": "uint8"
        }
      ],
      "name": "Initialized",
      "type": "event"
    },
    {
      "anonymous": false,
      "inputs": [
        {
          "indexed": true,
          "internalType": "address",
          "name": "previousOwner",
          "type": "address"
        },
        {
          "indexed": true,
          "internalType": "address",
          "name": "newOwner",
          "type": "address"
        }
      ],
      "name": "OwnershipTransferred",
      "type": "event"
    },
    {
      "anonymous": false,
      "inputs": [
        {
          "indexed": false,
          "internalType": "address",
          "name": "didAddress",
          "type": "address"
        },
        {
          "indexed": false,
          "internalType": "string[]",
          "name": "endponits",
          "type": "string[]"
        }
      ],
      "name": "Register",
      "type": "event"
    },
    {
      "anonymous": false,
      "inputs": [
        {
          "indexed": false,
          "internalType": "address",
          "name": "didAddress",
          "type": "address"
        }
      ],
      "name": "Revoke",
      "type": "event"
    },
    {
      "anonymous": false,
      "inputs": [
        {
          "indexed": false,
          "internalType": "address",
          "name": "didAddress",
          "type": "address"
        },
        {
          "indexed": false,
          "internalType": "address",
          "name": "controller",
          "type": "address"
        }
      ],
      "name": "SetController",
      "type": "event"
    },
    {
      "inputs": [],
      "name": "activeDIDCount",
      "outputs": [
        {
          "internalType": "uint256",
          "name": "",
          "type": "uint256"
        }
      ],
      "stateMutability": "view",
      "type": "function"
    },
    {
      "inputs": [
        {
          "internalType": "address",
          "name": "didAddress",
          "type": "address"
        }
      ],
      "name": "getController",
      "outputs": [
        {
          "internalType": "address",
          "name": "",
          "type": "address"
        }
      ],
      "stateMutability": "view",
      "type": "function"
    },
    {
      "inputs": [
        {
          "internalType": "uint256",
          "name": "startIndex",
          "type": "uint256"
        },
        {
          "internalType": "uint256",
          "name": "count",
          "type": "uint256"
        }
      ],
      "name": "getDIDs",
      "outputs": [
        {
          "internalType": "address[]",
          "name": "",
          "type": "address[]"
        }
      ],
      "stateMutability": "view",
      "type": "function"
    },
    {
      "inputs": [],
      "name": "initialize",
      "outputs": [],
      "stateMutability": "nonpayable",
      "type": "function"
    },
    {
      "inputs": [
        {
          "internalType": "address",
          "name": "didAddress",
          "type": "address"
        }
      ],
      "name": "lookup",
      "outputs": [
        {
          "internalType": "address",
          "name": "",
          "type": "address"
        },
        {
          "internalType": "string[]",
          "name": "",
          "type": "string[]"
        }
      ],
      "stateMutability": "view",
      "type": "function"
    },
    {
      "inputs": [
        {
          "internalType": "address",
          "name": "didAddress",
          "type": "address"
        }
      ],
      "name": "nonce",
      "outputs": [
        {
          "internalType": "uint256",
          "name": "",
          "type": "uint256"
        }
      ],
      "stateMutability": "view",
      "type": "function"
    },
    {
      "inputs": [],
      "name": "owner",
      "outputs": [
        {
          "internalType": "address",
          "name": "",
          "type": "address"
        }
      ],
      "stateMutability": "view",
      "type": "function"
    },
    {
      "inputs": [
        {
          "internalType": "address",
          "name": "didAddress",
          "type": "address"
        },
        {
          "internalType": "string[]",
          "name": "endpoints",
          "type": "string[]"
        },
        {
          "internalType": "bytes",
          "name": "signature",
          "type": "bytes"
        }
      ],
      "name": "register",
      "outputs": [],
      "stateMutability": "nonpayable",
      "type": "function"
    },
    {
      "inputs": [],
      "name": "renounceOwnership",
      "outputs": [],
      "stateMutability": "nonpayable",
      "type": "function"
    },
    {
      "inputs": [
        {
          "internalType": "address",
          "name": "didAddress",
          "type": "address"
        },
        {
          "internalType": "bytes",
          "name": "signature",
          "type": "bytes"
        }
      ],
      "name": "revoke",
      "outputs": [],
      "stateMutability": "nonpayable",
      "type": "function"
    },
    {
      "inputs": [
        {
          "internalType": "address",
          "name": "didAddress",
          "type": "address"
        },
        {
          "internalType": "address",
          "name": "controller",
          "type": "address"
        },
        {
          "internalType": "bytes",
          "name": "signature",
          "type": "bytes"
        }
      ],
      "name": "setController",
      "outputs": [],
      "stateMutability": "nonpayable",
      "type": "function"
    },
    {
      "inputs": [
        {
          "internalType": "address",
          "name": "newOwner",
          "type": "address"
        }
      ],
      "name": "transferOwnership",
      "outputs": [],
      "stateMutability": "nonpayable",
      "type": "function"
    }
  ],
  "bytecode": "0x608060405234801561001057600080fd5b50611d4b806100206000396000f3fe608060405234801561001057600080fd5b50600436106100d45760003560e01c80638da5cb5b11610081578063a6ac970b1161005b578063a6ac970b146101b5578063d4b6b5da146101c8578063f2fde38b146101e957600080fd5b80638da5cb5b146101895780639a9738441461019a578063a3276437146101ad57600080fd5b80638129fc1c116100b25780638129fc1c1461014357806385ef65741461014b57806388c662aa1461015e57600080fd5b806331ca52e3146100d957806370ae92d214610102578063715018a614610139575b600080fd5b6100ec6100e736600461196d565b6101fc565b6040516100f99190611b5e565b60405180910390f35b61012b6101103660046117ec565b6001600160a01b031660009081526068602052604090205490565b6040519081526020016100f9565b610141610326565b005b61014161033a565b610141610159366004611807565b61045a565b61017161016c3660046117ec565b61063e565b6040516001600160a01b0390911681526020016100f9565b6033546001600160a01b0316610171565b6101416101a836600461191a565b610649565b61012b610839565b6101416101c3366004611868565b61084a565b6101db6101d63660046117ec565b610b15565b6040516100f9929190611ad3565b6101416101f73660046117ec565b610c3f565b6060610206610ccc565b600082118015610228575061021b6065610d26565b6102258385611bf2565b11155b6102795760405162461bcd60e51b815260206004820152600c60248201527f4f7574206f662072616e6765000000000000000000000000000000000000000060448201526064015b60405180910390fd5b60008267ffffffffffffffff81111561029457610294611cff565b6040519080825280602002602001820160405280156102bd578160200160208202803683370190505b50905060005b8381101561031c576102e06102d88287611bf2565b606590610d30565b8282815181106102f2576102f2611ce9565b6001600160a01b03909216602092830291909101909101528061031481611c8c565b9150506102c3565b5090505b92915050565b61032e610ccc565b6103386000610d43565b565b600054610100900460ff161580801561035a5750600054600160ff909116105b806103745750303b158015610374575060005460ff166001145b6103e65760405162461bcd60e51b815260206004820152602e60248201527f496e697469616c697a61626c653a20636f6e747261637420697320616c72656160448201527f647920696e697469616c697a65640000000000000000000000000000000000006064820152608401610270565b6000805460ff191660011790558015610409576000805461ff0019166101001790555b610411610da2565b8015610457576000805461ff0019169055604051600181527f7f26b83ff96e1f2b6a682f133852f6798a09c465da95921460cefb38474024989060200160405180910390a15b50565b61046384610e15565b6104af5760405162461bcd60e51b815260206004820152601460248201527f556e7265676973746572656420616464726573730000000000000000000000006044820152606401610270565b60006104ba85610e22565b6001600160a01b03861660009081526068602090815260408083205490516bffffffffffffffffffffffff1960608b811b8216948301949094527f2f736574436f6e74726f6c6c65722f000000000000000000000000000000000060348301529289901b9092166043830152602f60f81b6057830152605882015291925090607801604051602081830303815290604052905061055981858585610e66565b6105995760405162461bcd60e51b8152602060048201526011602482015270496e76616c6964207369676e617475726560781b6044820152606401610270565b6001600160a01b03861660009081526068602052604081208054916105bd83611c8c565b909155505050506001600160a01b03848116600081815260676020908152604091829020805473ffffffffffffffffffffffffffffffffffffffff1916948816948517905581519283528201929092527f9fdb07212c6f92fd298affc4000712177664bc3c4cae5f61098d42da6d05be1e910160405180910390a150505050565b600061032082610e22565b61065283610e15565b61069e5760405162461bcd60e51b815260206004820152601460248201527f556e7265676973746572656420616464726573730000000000000000000000006044820152606401610270565b60006106a984610e22565b6001600160a01b03851660009081526068602090815260408083205490516bffffffffffffffffffffffff1960608a901b16928101929092527f2f7265766f6b652f0000000000000000000000000000000000000000000000006034830152603c82015291925090605c01604051602081830303815290604052905061073181858585610e66565b6107715760405162461bcd60e51b8152602060048201526011602482015270496e76616c6964207369676e617475726560781b6044820152606401610270565b6001600160a01b038516600090815260686020526040812080549161079583611c8c565b9091555050506001600160a01b0384166000908152606760205260408120805473ffffffffffffffffffffffffffffffffffffffff19168155915060018201816107df8282611680565b505050506107f7836065610ea990919063ffffffff16565b506040516001600160a01b03841681527f9f77920c3de8baaa98d273e8aa75fae382aaa9f7f60f38979137853e5b73ea2c9060200160405180910390a1505050565b60006108456065610d26565b905090565b6001600160a01b038516600090815260686020526040902054156108bd5761087185610e15565b6108bd5760405162461bcd60e51b815260206004820152601360248201527f5265766f6b6564204449442061646472657373000000000000000000000000006044820152606401610270565b60408051606087901b6bffffffffffffffffffffffff19166020820152602f60f81b603482015281516015818303018152603590910190915260005b8481101561095c578186868381811061091457610914611ce9565b90506020028101906109269190611bab565b604051602001610938939291906119b8565b6040516020818303038152906040529150808061095490611c8c565b9150506108f9565b506001600160a01b03861660009081526068602090815260409182902054915161098a9284929091016119e5565b60405160208183030381529060405290506109a781848489610e66565b6109e75760405162461bcd60e51b8152602060048201526011602482015270496e76616c6964207369676e617475726560781b6044820152606401610270565b6001600160a01b0386166000908152606860205260408120805491610a0b83611c8c565b9091555050506001600160a01b0385166000908152606760205260409020600101610a3581610ebe565b60005b84811015610ab757610aa4868683818110610a5557610a55611ce9565b9050602002810190610a679190611bab565b8080601f0160208091040260200160405190810160405280939291908181526020018383808284376000920191909152508693925050610fc69050565b5080610aaf81611c8c565b915050610a38565b50610ac186610e15565b610ad257610ad0606587611032565b505b7fff581cdbc960e17331068dde5ed7aa9097996cee631affe706697292dc33680a868686604051610b0593929190611a23565b60405180910390a1505050505050565b60006060610b2283610e15565b610b6e5760405162461bcd60e51b815260206004820152601460248201527f556e7265676973746572656420616464726573730000000000000000000000006044820152606401610270565b6001600160a01b038316600090815260676020526040812060010190610b92825490565b905060008167ffffffffffffffff811115610baf57610baf611cff565b604051908082528060200260200182016040528015610be257816020015b6060815260200190600190039081610bcd5790505b50905060005b82811015610c2a57610bfa8482611047565b828281518110610c0c57610c0c611ce9565b60200260200101819052508080610c2290611c8c565b915050610be8565b50610c3486610e22565b969095509350505050565b610c47610ccc565b6001600160a01b038116610cc35760405162461bcd60e51b815260206004820152602660248201527f4f776e61626c653a206e6577206f776e657220697320746865207a65726f206160448201527f64647265737300000000000000000000000000000000000000000000000000006064820152608401610270565b61045781610d43565b6033546001600160a01b031633146103385760405162461bcd60e51b815260206004820181905260248201527f4f776e61626c653a2063616c6c6572206973206e6f7420746865206f776e65726044820152606401610270565b6000610320825490565b6000610d3c83836110f9565b9392505050565b603380546001600160a01b0383811673ffffffffffffffffffffffffffffffffffffffff19831681179093556040519116919082907f8be0079c531659141344cd1fd0a4f28419497f9722a3daafe3b4186f6b6457e090600090a35050565b600054610100900460ff16610e0d5760405162461bcd60e51b815260206004820152602b60248201527f496e697469616c697a61626c653a20636f6e7472616374206973206e6f74206960448201526a6e697469616c697a696e6760a81b6064820152608401610270565b610338611123565b6000610320606583611197565b6001600160a01b03818116600090815260676020526040812054909116610e47575090565b506001600160a01b039081166000908152606760205260409020541690565b600080610e748686866111b9565b9050826001600160a01b0316816001600160a01b0316148015610e9f57506001600160a01b03811615155b9695505050505050565b6000610d3c836001600160a01b03841661120f565b80548015610fc257606060005b82811015610fb457836000018181548110610ee857610ee8611ce9565b906000526020600020018054610efd90611c51565b80601f0160208091040260200160405190810160405280929190818152602001828054610f2990611c51565b8015610f765780601f10610f4b57610100808354040283529160200191610f76565b820191906000526020600020905b815481529060010190602001808311610f5957829003601f168201915b505050505091508360010182604051610f8f9190611a07565b9081526020016040518091039020600090558080610fac90611c8c565b915050610ecb565b50610fc0836000611680565b505b5050565b6000610fd28383611302565b61102a57825460018101845560008481526020908190208451610ffc93919091019185019061169e565b5082546040516001850190611012908590611a07565b90815260405190819003602001902055506001610320565b506000610320565b6000610d3c836001600160a01b03841661132f565b606082600001828154811061105e5761105e611ce9565b90600052602060002001805461107390611c51565b80601f016020809104026020016040519081016040528092919081815260200182805461109f90611c51565b80156110ec5780601f106110c1576101008083540402835291602001916110ec565b820191906000526020600020905b8154815290600101906020018083116110cf57829003601f168201915b5050505050905092915050565b600082600001828154811061111057611110611ce9565b9060005260206000200154905092915050565b600054610100900460ff1661118e5760405162461bcd60e51b815260206004820152602b60248201527f496e697469616c697a61626c653a20636f6e7472616374206973206e6f74206960448201526a6e697469616c697a696e6760a81b6064820152608401610270565b61033833610d43565b6001600160a01b03811660009081526001830160205260408120541515610d3c565b600080848051906020012090506112068185858080601f01602080910402602001604051908101604052809392919081815260200183838082843760009201919091525061137692505050565b95945050505050565b600081815260018301602052604081205480156112f8576000611233600183611c0a565b855490915060009061124790600190611c0a565b90508181146112ac57600086600001828154811061126757611267611ce9565b906000526020600020015490508087600001848154811061128a5761128a611ce9565b6000918252602080832090910192909255918252600188019052604090208390555b85548690806112bd576112bd611cd3565b600190038181906000526020600020016000905590558560010160008681526020019081526020016000206000905560019350505050610320565b6000915050610320565b600082600101826040516113169190611a07565b9081526040519081900360200190205415159392505050565b600081815260018301602052604081205461102a57508154600181810184556000848152602080822090930184905584548482528286019093526040902091909155610320565b60008060006113858585611392565b9150915061031c816113d8565b6000808251604114156113c95760208301516040840151606085015160001a6113bd87828585611593565b945094505050506113d1565b506000905060025b9250929050565b60008160048111156113ec576113ec611cbd565b14156113f55750565b600181600481111561140957611409611cbd565b14156114575760405162461bcd60e51b815260206004820152601860248201527f45434453413a20696e76616c6964207369676e617475726500000000000000006044820152606401610270565b600281600481111561146b5761146b611cbd565b14156114b95760405162461bcd60e51b815260206004820152601f60248201527f45434453413a20696e76616c6964207369676e6174757265206c656e677468006044820152606401610270565b60038160048111156114cd576114cd611cbd565b14156115265760405162461bcd60e51b815260206004820152602260248201527f45434453413a20696e76616c6964207369676e6174757265202773272076616c604482015261756560f01b6064820152608401610270565b600481600481111561153a5761153a611cbd565b14156104575760405162461bcd60e51b815260206004820152602260248201527f45434453413a20696e76616c6964207369676e6174757265202776272076616c604482015261756560f01b6064820152608401610270565b6000807f7fffffffffffffffffffffffffffffff5d576e7357a4501ddfe92f46681b20a08311156115ca5750600090506003611677565b8460ff16601b141580156115e257508460ff16601c14155b156115f35750600090506004611677565b6040805160008082526020820180845289905260ff881692820192909252606081018690526080810185905260019060a0016020604051602081039080840390855afa158015611647573d6000803e3d6000fd5b5050604051601f1901519150506001600160a01b03811661167057600060019250925050611677565b9150600090505b94509492505050565b50805460008255906000526020600020908101906104579190611722565b8280546116aa90611c51565b90600052602060002090601f0160209004810192826116cc5760008555611712565b82601f106116e557805160ff1916838001178555611712565b82800160010185558215611712579182015b828111156117125782518255916020019190600101906116f7565b5061171e92915061173f565b5090565b8082111561171e5760006117368282611754565b50600101611722565b5b8082111561171e5760008155600101611740565b50805461176090611c51565b6000825580601f10611770575050565b601f016020900490600052602060002090810190610457919061173f565b80356001600160a01b03811681146117a557600080fd5b919050565b60008083601f8401126117bc57600080fd5b50813567ffffffffffffffff8111156117d457600080fd5b6020830191508360208285010111156113d157600080fd5b6000602082840312156117fe57600080fd5b610d3c8261178e565b6000806000806060858703121561181d57600080fd5b6118268561178e565b93506118346020860161178e565b9250604085013567ffffffffffffffff81111561185057600080fd5b61185c878288016117aa565b95989497509550505050565b60008060008060006060868803121561188057600080fd5b6118898661178e565b9450602086013567ffffffffffffffff808211156118a657600080fd5b818801915088601f8301126118ba57600080fd5b8135818111156118c957600080fd5b8960208260051b85010111156118de57600080fd5b6020830196508095505060408801359150808211156118fc57600080fd5b50611909888289016117aa565b969995985093965092949392505050565b60008060006040848603121561192f57600080fd5b6119388461178e565b9250602084013567ffffffffffffffff81111561195457600080fd5b611960868287016117aa565b9497909650939450505050565b6000806040838503121561198057600080fd5b50508035926020909101359150565b81835281816020850137506000828201602090810191909152601f909101601f19169091010190565b600084516119ca818460208901611c21565b820183858237602f60f81b9301928352505060010192915050565b600083516119f7818460208801611c21565b9190910191825250602001919050565b60008251611a19818460208701611c21565b9190910192915050565b6000604082016001600160a01b038616835260206040818501528185835260608501905060608660051b86010192508660005b87811015611ac557868503605f190183528135368a9003601e19018112611a7c57600080fd5b8901803567ffffffffffffffff811115611a9557600080fd5b8036038b1315611aa457600080fd5b611ab1878288850161198f565b965050509183019190830190600101611a56565b509298975050505050505050565b6000604082016001600160a01b0385168352602060408185015281855180845260608601915060608160051b870101935082870160005b82811015611b5057878603605f1901845281518051808852611b3181888a01898501611c21565b601f01601f191696909601850195509284019290840190600101611b0a565b509398975050505050505050565b6020808252825182820181905260009190848201906040850190845b81811015611b9f5783516001600160a01b031683529284019291840191600101611b7a565b50909695505050505050565b6000808335601e19843603018112611bc257600080fd5b83018035915067ffffffffffffffff821115611bdd57600080fd5b6020019150368190038213156113d157600080fd5b60008219821115611c0557611c05611ca7565b500190565b600082821015611c1c57611c1c611ca7565b500390565b60005b83811015611c3c578181015183820152602001611c24565b83811115611c4b576000848401525b50505050565b600181811c90821680611c6557607f821691505b60208210811415611c8657634e487b7160e01b600052602260045260246000fd5b50919050565b6000600019821415611ca057611ca0611ca7565b5060010190565b634e487b7160e01b600052601160045260246000fd5b634e487b7160e01b600052602160045260246000fd5b634e487b7160e01b600052603160045260246000fd5b634e487b7160e01b600052603260045260246000fd5b634e487b7160e01b600052604160045260246000fdfea26469706673582212207af0a32d4a3da5419d2ff4a37c470fba90b8d12748775a11e4df9a7eb7a3ab8364736f6c63430008070033",
  "linkReferences": {},
  "deployedLinkReferences": {}
}