{
  "_format": "hh-sol-artifact-1",
  "contractName": "VeridaDIDRegistry",
  "sourceName": "contracts/VeridaDIDRegistry.sol",
  "abi": [
    {
      "anonymous": false,
      "inputs": [
        {
          "indexed": false,
          "internalType": "uint8",
          "name": "version",
          "type": "uint8"
        }
      ],
      "name": "Initialized",
      "type": "event"
    },
    {
      "anonymous": false,
      "inputs": [
        {
          "indexed": true,
          "internalType": "address",
          "name": "previousOwner",
          "type": "address"
        },
        {
          "indexed": true,
          "internalType": "address",
          "name": "newOwner",
          "type": "address"
        }
      ],
      "name": "OwnershipTransferred",
      "type": "event"
    },
    {
      "anonymous": false,
      "inputs": [
        {
          "indexed": false,
          "internalType": "address",
          "name": "didAddress",
          "type": "address"
        },
        {
          "indexed": false,
          "internalType": "string[]",
          "name": "endponits",
          "type": "string[]"
        }
      ],
      "name": "Register",
      "type": "event"
    },
    {
      "anonymous": false,
      "inputs": [
        {
          "indexed": false,
          "internalType": "address",
          "name": "didAddress",
          "type": "address"
        }
      ],
      "name": "Revoke",
      "type": "event"
    },
    {
      "anonymous": false,
      "inputs": [
        {
          "indexed": false,
          "internalType": "address",
          "name": "didAddress",
          "type": "address"
        },
        {
          "indexed": false,
          "internalType": "address",
          "name": "controller",
          "type": "address"
        }
      ],
      "name": "SetController",
      "type": "event"
    },
    {
      "inputs": [
        {
          "internalType": "address",
          "name": "didAddress",
          "type": "address"
        }
      ],
      "name": "getController",
      "outputs": [
        {
          "internalType": "address",
          "name": "",
          "type": "address"
        }
      ],
      "stateMutability": "view",
      "type": "function"
    },
    {
      "inputs": [],
      "name": "initialize",
      "outputs": [],
      "stateMutability": "nonpayable",
      "type": "function"
    },
    {
      "inputs": [
        {
          "internalType": "address",
          "name": "didAddress",
          "type": "address"
        }
      ],
      "name": "lookup",
      "outputs": [
        {
          "internalType": "string[]",
          "name": "",
          "type": "string[]"
        }
      ],
      "stateMutability": "view",
      "type": "function"
    },
    {
      "inputs": [
        {
          "internalType": "address",
          "name": "didAddress",
          "type": "address"
        }
      ],
      "name": "nonce",
      "outputs": [
        {
          "internalType": "uint256",
          "name": "",
          "type": "uint256"
        }
      ],
      "stateMutability": "view",
      "type": "function"
    },
    {
      "inputs": [],
      "name": "owner",
      "outputs": [
        {
          "internalType": "address",
          "name": "",
          "type": "address"
        }
      ],
      "stateMutability": "view",
      "type": "function"
    },
    {
      "inputs": [
        {
          "internalType": "address",
          "name": "didAddress",
          "type": "address"
        },
        {
          "internalType": "string[]",
          "name": "endpoints",
          "type": "string[]"
        },
        {
          "internalType": "bytes",
          "name": "signature",
          "type": "bytes"
        }
      ],
      "name": "register",
      "outputs": [],
      "stateMutability": "nonpayable",
      "type": "function"
    },
    {
      "inputs": [],
      "name": "renounceOwnership",
      "outputs": [],
      "stateMutability": "nonpayable",
      "type": "function"
    },
    {
      "inputs": [
        {
          "internalType": "address",
          "name": "didAddress",
          "type": "address"
        },
        {
          "internalType": "bytes",
          "name": "signature",
          "type": "bytes"
        }
      ],
      "name": "revoke",
      "outputs": [],
      "stateMutability": "nonpayable",
      "type": "function"
    },
    {
      "inputs": [
        {
          "internalType": "address",
          "name": "didAddress",
          "type": "address"
        },
        {
          "internalType": "address",
          "name": "controller",
          "type": "address"
        },
        {
          "internalType": "bytes",
          "name": "signature",
          "type": "bytes"
        }
      ],
      "name": "setController",
      "outputs": [],
      "stateMutability": "nonpayable",
      "type": "function"
    },
    {
      "inputs": [
        {
          "internalType": "address",
          "name": "newOwner",
          "type": "address"
        }
      ],
      "name": "transferOwnership",
      "outputs": [],
      "stateMutability": "nonpayable",
      "type": "function"
    }
  ],
  "bytecode": "0x608060405234801561001057600080fd5b5061197f806100206000396000f3fe608060405234801561001057600080fd5b50600436106100be5760003560e01c80638da5cb5b11610076578063a6ac970b1161005b578063a6ac970b14610173578063d4b6b5da14610186578063f2fde38b146101a657600080fd5b80638da5cb5b1461014f5780639a9738441461016057600080fd5b80638129fc1c116100a75780638129fc1c1461010957806385ef65741461011157806388c662aa1461012457600080fd5b806370ae92d2146100c3578063715018a6146100ff575b600080fd5b6100ec6100d13660046114e6565b6001600160a01b031660009081526067602052604090205490565b6040519081526020015b60405180910390f35b6101076101b9565b005b6101076101cd565b61010761011f366004611508565b6102f2565b6101376101323660046114e6565b6104ea565b6040516001600160a01b0390911681526020016100f6565b6033546001600160a01b0316610137565b61010761016e36600461161b565b6104fb565b610107610181366004611569565b6106f8565b6101996101943660046114e6565b6109dd565b6040516100f691906117b2565b6101076101b43660046114e6565b610b0a565b6101c1610b97565b6101cb6000610bf1565b565b600054610100900460ff16158080156101ed5750600054600160ff909116105b806102075750303b158015610207575060005460ff166001145b61027e5760405162461bcd60e51b815260206004820152602e60248201527f496e697469616c697a61626c653a20636f6e747261637420697320616c72656160448201527f647920696e697469616c697a656400000000000000000000000000000000000060648201526084015b60405180910390fd5b6000805460ff1916600117905580156102a1576000805461ff0019166101001790555b6102a9610c50565b80156102ef576000805461ff0019169055604051600181527f7f26b83ff96e1f2b6a682f133852f6798a09c465da95921460cefb38474024989060200160405180910390a15b50565b6001600160a01b03841660009081526066602052604090205460ff1661035a5760405162461bcd60e51b815260206004820152601460248201527f556e7265676973746572656420616464726573730000000000000000000000006044820152606401610275565b600061036585610cc3565b6001600160a01b03861660009081526067602090815260408083205490516bffffffffffffffffffffffff1960608b811b8216948301949094527f2f736574436f6e74726f6c6c65722f000000000000000000000000000000000060348301529289901b9092166043830152602f60f81b6057830152605882015291925090607801604051602081830303815290604052905061040481858585610d07565b6104445760405162461bcd60e51b8152602060048201526011602482015270496e76616c6964207369676e617475726560781b6044820152606401610275565b6001600160a01b0386166000908152606760205260408120805491610468836118de565b909155505050506001600160a01b03848116600081815260656020908152604091829020805473ffffffffffffffffffffffffffffffffffffffff1916948816948517905581519283528201929092527f9fdb07212c6f92fd298affc4000712177664bc3c4cae5f61098d42da6d05be1e91015b60405180910390a150505050565b60006104f582610cc3565b92915050565b6001600160a01b03831660009081526066602052604090205460ff166105635760405162461bcd60e51b815260206004820152601460248201527f556e7265676973746572656420616464726573730000000000000000000000006044820152606401610275565b600061056e84610cc3565b6001600160a01b03851660009081526067602090815260408083205490516bffffffffffffffffffffffff1960608a901b16928101929092527f2f7265766f6b652f0000000000000000000000000000000000000000000000006034830152603c82015291925090605c0160405160208183030381529060405290506105f681858585610d07565b6106365760405162461bcd60e51b8152602060048201526011602482015270496e76616c6964207369676e617475726560781b6044820152606401610275565b6001600160a01b038516600090815260676020526040812080549161065a836118de565b909155505050506001600160a01b0383166000908152606560209081526040808320805473ffffffffffffffffffffffffffffffffffffffff19169055606890915290206106a781610d4a565b6001600160a01b038416600081815260666020908152604091829020805460ff1916905590519182527f9f77920c3de8baaa98d273e8aa75fae382aaa9f7f60f38979137853e5b73ea2c91016104dc565b6001600160a01b0385166000908152606760205260409020541561077e576001600160a01b03851660009081526066602052604090205460ff1661077e5760405162461bcd60e51b815260206004820152601360248201527f5265766f6b6564204449442061646472657373000000000000000000000000006044820152606401610275565b60408051606087901b6bffffffffffffffffffffffff19166020820152602f60f81b603482015281516015818303018152603590910190915260005b8481101561081d57818686838181106107d5576107d561191d565b90506020028101906107e7919061182c565b6040516020016107f993929190611697565b60405160208183030381529060405291508080610815906118de565b9150506107ba565b506001600160a01b03861660009081526067602090815260409182902054915161084b9284929091016116c4565b604051602081830303815290604052905061086881848489610d07565b6108a85760405162461bcd60e51b8152602060048201526011602482015270496e76616c6964207369676e617475726560781b6044820152606401610275565b6001600160a01b03861660009081526067602052604081208054916108cc836118de565b9091555050506001600160a01b03851660009081526068602052604090206108f381610d4a565b60005b84811015610975576109628686838181106109135761091361191d565b9050602002810190610925919061182c565b8080601f0160208091040260200160405190810160405280939291908181526020018383808284376000920191909152508693925050610e529050565b508061096d816118de565b9150506108f6565b506001600160a01b03861660009081526066602052604090819020805460ff19166001179055517fff581cdbc960e17331068dde5ed7aa9097996cee631affe706697292dc33680a906109cd90889088908890611702565b60405180910390a1505050505050565b6001600160a01b03811660009081526066602052604090205460609060ff16610a485760405162461bcd60e51b815260206004820152601460248201527f556e7265676973746572656420616464726573730000000000000000000000006044820152606401610275565b6001600160a01b038216600090815260686020526040812090610a69825490565b905060008167ffffffffffffffff811115610a8657610a86611933565b604051908082528060200260200182016040528015610ab957816020015b6060815260200190600190039081610aa45790505b50905060005b82811015610b0157610ad18482610ebf565b828281518110610ae357610ae361191d565b60200260200101819052508080610af9906118de565b915050610abf565b50949350505050565b610b12610b97565b6001600160a01b038116610b8e5760405162461bcd60e51b815260206004820152602660248201527f4f776e61626c653a206e6577206f776e657220697320746865207a65726f206160448201527f64647265737300000000000000000000000000000000000000000000000000006064820152608401610275565b6102ef81610bf1565b6033546001600160a01b031633146101cb5760405162461bcd60e51b815260206004820181905260248201527f4f776e61626c653a2063616c6c6572206973206e6f7420746865206f776e65726044820152606401610275565b603380546001600160a01b0383811673ffffffffffffffffffffffffffffffffffffffff19831681179093556040519116919082907f8be0079c531659141344cd1fd0a4f28419497f9722a3daafe3b4186f6b6457e090600090a35050565b600054610100900460ff16610cbb5760405162461bcd60e51b815260206004820152602b60248201527f496e697469616c697a61626c653a20636f6e7472616374206973206e6f74206960448201526a6e697469616c697a696e6760a81b6064820152608401610275565b6101cb610f71565b6001600160a01b03818116600090815260656020526040812054909116610ce8575090565b506001600160a01b039081166000908152606560205260409020541690565b600080610d15868686610fe5565b9050826001600160a01b0316816001600160a01b0316148015610d4057506001600160a01b03811615155b9695505050505050565b80548015610e4e57606060005b82811015610e4057836000018181548110610d7457610d7461191d565b906000526020600020018054610d89906118a3565b80601f0160208091040260200160405190810160405280929190818152602001828054610db5906118a3565b8015610e025780601f10610dd757610100808354040283529160200191610e02565b820191906000526020600020905b815481529060010190602001808311610de557829003601f168201915b505050505091508360010182604051610e1b91906116e6565b9081526020016040518091039020600090558080610e38906118de565b915050610d57565b50610e4c83600061137a565b505b5050565b6000610e5e838361103b565b610eb657825460018101845560008481526020908190208451610e88939190910191850190611398565b5082546040516001850190610e9e9085906116e6565b908152604051908190036020019020555060016104f5565b50600092915050565b6060826000018281548110610ed657610ed661191d565b906000526020600020018054610eeb906118a3565b80601f0160208091040260200160405190810160405280929190818152602001828054610f17906118a3565b8015610f645780601f10610f3957610100808354040283529160200191610f64565b820191906000526020600020905b815481529060010190602001808311610f4757829003601f168201915b5050505050905092915050565b600054610100900460ff16610fdc5760405162461bcd60e51b815260206004820152602b60248201527f496e697469616c697a61626c653a20636f6e7472616374206973206e6f74206960448201526a6e697469616c697a696e6760a81b6064820152608401610275565b6101cb33610bf1565b600080848051906020012090506110328185858080601f01602080910402602001604051908101604052809392919081815260200183838082843760009201919091525061106892505050565b95945050505050565b6000826001018260405161104f91906116e6565b9081526040519081900360200190205415159392505050565b6000806000611077858561108c565b91509150611084816110d2565b509392505050565b6000808251604114156110c35760208301516040840151606085015160001a6110b78782858561128d565b945094505050506110cb565b506000905060025b9250929050565b60008160048111156110e6576110e6611907565b14156110ef5750565b600181600481111561110357611103611907565b14156111515760405162461bcd60e51b815260206004820152601860248201527f45434453413a20696e76616c6964207369676e617475726500000000000000006044820152606401610275565b600281600481111561116557611165611907565b14156111b35760405162461bcd60e51b815260206004820152601f60248201527f45434453413a20696e76616c6964207369676e6174757265206c656e677468006044820152606401610275565b60038160048111156111c7576111c7611907565b14156112205760405162461bcd60e51b815260206004820152602260248201527f45434453413a20696e76616c6964207369676e6174757265202773272076616c604482015261756560f01b6064820152608401610275565b600481600481111561123457611234611907565b14156102ef5760405162461bcd60e51b815260206004820152602260248201527f45434453413a20696e76616c6964207369676e6174757265202776272076616c604482015261756560f01b6064820152608401610275565b6000807f7fffffffffffffffffffffffffffffff5d576e7357a4501ddfe92f46681b20a08311156112c45750600090506003611371565b8460ff16601b141580156112dc57508460ff16601c14155b156112ed5750600090506004611371565b6040805160008082526020820180845289905260ff881692820192909252606081018690526080810185905260019060a0016020604051602081039080840390855afa158015611341573d6000803e3d6000fd5b5050604051601f1901519150506001600160a01b03811661136a57600060019250925050611371565b9150600090505b94509492505050565b50805460008255906000526020600020908101906102ef919061141c565b8280546113a4906118a3565b90600052602060002090601f0160209004810192826113c6576000855561140c565b82601f106113df57805160ff191683800117855561140c565b8280016001018555821561140c579182015b8281111561140c5782518255916020019190600101906113f1565b50611418929150611439565b5090565b80821115611418576000611430828261144e565b5060010161141c565b5b80821115611418576000815560010161143a565b50805461145a906118a3565b6000825580601f1061146a575050565b601f0160209004906000526020600020908101906102ef9190611439565b80356001600160a01b038116811461149f57600080fd5b919050565b60008083601f8401126114b657600080fd5b50813567ffffffffffffffff8111156114ce57600080fd5b6020830191508360208285010111156110cb57600080fd5b6000602082840312156114f857600080fd5b61150182611488565b9392505050565b6000806000806060858703121561151e57600080fd5b61152785611488565b935061153560208601611488565b9250604085013567ffffffffffffffff81111561155157600080fd5b61155d878288016114a4565b95989497509550505050565b60008060008060006060868803121561158157600080fd5b61158a86611488565b9450602086013567ffffffffffffffff808211156115a757600080fd5b818801915088601f8301126115bb57600080fd5b8135818111156115ca57600080fd5b8960208260051b85010111156115df57600080fd5b6020830196508095505060408801359150808211156115fd57600080fd5b5061160a888289016114a4565b969995985093965092949392505050565b60008060006040848603121561163057600080fd5b61163984611488565b9250602084013567ffffffffffffffff81111561165557600080fd5b611661868287016114a4565b9497909650939450505050565b81835281816020850137506000828201602090810191909152601f909101601f19169091010190565b600084516116a9818460208901611873565b820183858237602f60f81b9301928352505060010192915050565b600083516116d6818460208801611873565b9190910191825250602001919050565b600082516116f8818460208701611873565b9190910192915050565b6000604082016001600160a01b038616835260206040818501528185835260608501905060608660051b86010192508660005b878110156117a457868503605f190183528135368a9003601e1901811261175b57600080fd5b8901803567ffffffffffffffff81111561177457600080fd5b8036038b131561178357600080fd5b611790878288850161166e565b965050509183019190830190600101611735565b509298975050505050505050565b6000602080830181845280855180835260408601915060408160051b870101925083870160005b8281101561181f57878503603f1901845281518051808752611800818989018a8501611873565b601f01601f1916959095018601945092850192908501906001016117d9565b5092979650505050505050565b6000808335601e1984360301811261184357600080fd5b83018035915067ffffffffffffffff82111561185e57600080fd5b6020019150368190038213156110cb57600080fd5b60005b8381101561188e578181015183820152602001611876565b8381111561189d576000848401525b50505050565b600181811c908216806118b757607f821691505b602082108114156118d857634e487b7160e01b600052602260045260246000fd5b50919050565b600060001982141561190057634e487b7160e01b600052601160045260246000fd5b5060010190565b634e487b7160e01b600052602160045260246000fd5b634e487b7160e01b600052603260045260246000fd5b634e487b7160e01b600052604160045260246000fdfea264697066735822122048b3548b032d28cff203409341b8ec50156bc2a678e59c8b7e60911d6d7550d564736f6c63430008070033",
  "linkReferences": {},
  "deployedLinkReferences": {}
}