{
  "_format": "hh-sol-artifact-1",
  "contractName": "NameRegistry",
  "sourceName": "contracts/NameRegistry.sol",
  "abi": [
    {
      "anonymous": false,
      "inputs": [
        {
          "indexed": true,
          "internalType": "string",
          "name": "suffix",
          "type": "string"
        }
      ],
      "name": "AddSuffix",
      "type": "event"
    },
    {
      "anonymous": false,
      "inputs": [
        {
          "indexed": false,
          "internalType": "uint8",
          "name": "version",
          "type": "uint8"
        }
      ],
      "name": "Initialized",
      "type": "event"
    },
    {
      "anonymous": false,
      "inputs": [
        {
          "indexed": true,
          "internalType": "address",
          "name": "previousOwner",
          "type": "address"
        },
        {
          "indexed": true,
          "internalType": "address",
          "name": "newOwner",
          "type": "address"
        }
      ],
      "name": "OwnershipTransferred",
      "type": "event"
    },
    {
      "anonymous": false,
      "inputs": [
        {
          "indexed": true,
          "internalType": "string",
          "name": "name",
          "type": "string"
        },
        {
          "indexed": true,
          "internalType": "address",
          "name": "DID",
          "type": "address"
        }
      ],
      "name": "Register",
      "type": "event"
    },
    {
      "anonymous": false,
      "inputs": [
        {
          "indexed": true,
          "internalType": "string",
          "name": "name",
          "type": "string"
        },
        {
          "indexed": true,
          "internalType": "address",
          "name": "DID",
          "type": "address"
        }
      ],
      "name": "Unregister",
      "type": "event"
    },
    {
      "inputs": [
        {
          "internalType": "string",
          "name": "suffix",
          "type": "string"
        }
      ],
      "name": "addSufix",
      "outputs": [],
      "stateMutability": "nonpayable",
      "type": "function"
    },
    {
      "inputs": [
        {
          "internalType": "string",
          "name": "name",
          "type": "string"
        }
      ],
      "name": "findDid",
      "outputs": [
        {
          "internalType": "address",
          "name": "",
          "type": "address"
        }
      ],
      "stateMutability": "view",
      "type": "function"
    },
    {
      "inputs": [
        {
          "internalType": "address",
          "name": "did",
          "type": "address"
        },
        {
          "internalType": "bytes",
          "name": "signature",
          "type": "bytes"
        }
      ],
      "name": "getUserNameList",
      "outputs": [
        {
          "internalType": "string[]",
          "name": "",
          "type": "string[]"
        }
      ],
      "stateMutability": "view",
      "type": "function"
    },
    {
      "inputs": [],
      "name": "initialize",
      "outputs": [],
      "stateMutability": "nonpayable",
      "type": "function"
    },
    {
      "inputs": [],
      "name": "owner",
      "outputs": [
        {
          "internalType": "address",
          "name": "",
          "type": "address"
        }
      ],
      "stateMutability": "view",
      "type": "function"
    },
    {
      "inputs": [
        {
          "internalType": "string",
          "name": "name",
          "type": "string"
        },
        {
          "internalType": "address",
          "name": "did",
          "type": "address"
        },
        {
          "internalType": "bytes",
          "name": "signature",
          "type": "bytes"
        }
      ],
      "name": "register",
      "outputs": [],
      "stateMutability": "nonpayable",
      "type": "function"
    },
    {
      "inputs": [],
      "name": "renounceOwnership",
      "outputs": [],
      "stateMutability": "nonpayable",
      "type": "function"
    },
    {
      "inputs": [
        {
          "internalType": "address",
          "name": "newOwner",
          "type": "address"
        }
      ],
      "name": "transferOwnership",
      "outputs": [],
      "stateMutability": "nonpayable",
      "type": "function"
    },
    {
      "inputs": [
        {
          "internalType": "string",
          "name": "name",
          "type": "string"
        },
        {
          "internalType": "address",
          "name": "did",
          "type": "address"
        },
        {
          "internalType": "bytes",
          "name": "signature",
          "type": "bytes"
        }
      ],
      "name": "unregister",
      "outputs": [],
      "stateMutability": "nonpayable",
      "type": "function"
    }
  ],
  "bytecode": "0x608060405234801561001057600080fd5b5061294a806100206000396000f3fe608060405234801561001057600080fd5b50600436106100935760003560e01c8063747cbf1711610066578063747cbf171461010a5780638129fc1c146101265780638da5cb5b14610130578063dc230d741461014e578063f2fde38b1461017e57610093565b80631fe0aa9d146100985780635711d82f146100b4578063714543a8146100e4578063715018a614610100575b600080fd5b6100b260048036038101906100ad9190611bde565b61019a565b005b6100ce60048036038101906100c99190611b95565b6104d0565b6040516100db9190611fa3565b60405180910390f35b6100fe60048036038101906100f99190611bde565b61059c565b005b61010861092b565b005b610124600480360381019061011f9190611b95565b6109b3565b005b61012e610af6565b005b610138610bdc565b6040516101459190611fa3565b60405180910390f35b61016860048036038101906101639190611b35565b610c06565b6040516101759190611fbe565b60405180910390f35b61019860048036038101906101939190611b08565b610e0c565b005b82828260006040518060800160405280604181526020016128d46041913990506102118184848080601f016020809104026020016040519081016040528093929190818152602001838380828437600081840152601f19601f82011690508083019250505050505050610f0490919063ffffffff16565b610250576040517f08c379a00000000000000000000000000000000000000000000000000000000081526004016102479061205b565b60405180910390fd5b600073ffffffffffffffffffffffffffffffffffffffff168773ffffffffffffffffffffffffffffffffffffffff1614156102c0576040517f08c379a00000000000000000000000000000000000000000000000000000000081526004016102b79061207b565b60405180910390fd5b6102c988610f71565b610308576040517f08c379a00000000000000000000000000000000000000000000000000000000081526004016102ff906120fb565b60405180910390fd5b61031188610fa7565b9750600061031e8961103f565b9050600073ffffffffffffffffffffffffffffffffffffffff166065600083815260200190815260200160002060009054906101000a900473ffffffffffffffffffffffffffffffffffffffff1673ffffffffffffffffffffffffffffffffffffffff16146103c2576040517f08c379a00000000000000000000000000000000000000000000000000000000081526004016103b9906120bb565b60405180910390fd5b6000606860008a73ffffffffffffffffffffffffffffffffffffffff1673ffffffffffffffffffffffffffffffffffffffff1681526020019081526020016000209050886065600084815260200190815260200160002060006101000a81548173ffffffffffffffffffffffffffffffffffffffff021916908373ffffffffffffffffffffffffffffffffffffffff16021790555061046a82826110ae90919063ffffffff16565b508873ffffffffffffffffffffffffffffffffffffffff168a6040516104909190611f8c565b60405180910390207f3e49fb7efebefffe4fc2e2c193820fac9b11de4bf185e0d14de13e0068c2ac3460405160405180910390a350505050505050505050565b60006104db82610fa7565b915060006104e88361103f565b905060006065600083815260200190815260200160002060009054906101000a900473ffffffffffffffffffffffffffffffffffffffff169050600073ffffffffffffffffffffffffffffffffffffffff168173ffffffffffffffffffffffffffffffffffffffff161415610592576040517f08c379a00000000000000000000000000000000000000000000000000000000081526004016105899061219b565b60405180910390fd5b8092505050919050565b82828260006040518060800160405280604181526020016128d46041913990506106138184848080601f016020809104026020016040519081016040528093929190818152602001838380828437600081840152601f19601f82011690508083019250505050505050610f0490919063ffffffff16565b610652576040517f08c379a00000000000000000000000000000000000000000000000000000000081526004016106499061205b565b60405180910390fd5b600073ffffffffffffffffffffffffffffffffffffffff168773ffffffffffffffffffffffffffffffffffffffff1614156106c2576040517f08c379a00000000000000000000000000000000000000000000000000000000081526004016106b99061207b565b60405180910390fd5b6106cb88610f71565b61070a576040517f08c379a0000000000000000000000000000000000000000000000000000000008152600401610701906120fb565b60405180910390fd5b61071388610fa7565b975060006107208961103f565b905060006065600083815260200190815260200160002060009054906101000a900473ffffffffffffffffffffffffffffffffffffffff169050600073ffffffffffffffffffffffffffffffffffffffff168173ffffffffffffffffffffffffffffffffffffffff1614156107ca576040517f08c379a00000000000000000000000000000000000000000000000000000000081526004016107c19061219b565b60405180910390fd5b8873ffffffffffffffffffffffffffffffffffffffff168173ffffffffffffffffffffffffffffffffffffffff1614610838576040517f08c379a000000000000000000000000000000000000000000000000000000000815260040161082f9061217b565b60405180910390fd5b6000606860008373ffffffffffffffffffffffffffffffffffffffff1673ffffffffffffffffffffffffffffffffffffffff16815260200190815260200160002090506065600084815260200190815260200160002060006101000a81549073ffffffffffffffffffffffffffffffffffffffff02191690556108c483826110c590919063ffffffff16565b508173ffffffffffffffffffffffffffffffffffffffff168b6040516108ea9190611f8c565b60405180910390207ff5277d07faf1a81adcfef41a68d5bf53aecd8982a7c7f3c0df5efb97e43437b160405160405180910390a35050505050505050505050565b6109336110dc565b73ffffffffffffffffffffffffffffffffffffffff16610951610bdc565b73ffffffffffffffffffffffffffffffffffffffff16146109a7576040517f08c379a000000000000000000000000000000000000000000000000000000000815260040161099e906120db565b60405180910390fd5b6109b160006110e4565b565b6109bb6110dc565b73ffffffffffffffffffffffffffffffffffffffff166109d9610bdc565b73ffffffffffffffffffffffffffffffffffffffff1614610a2f576040517f08c379a0000000000000000000000000000000000000000000000000000000008152600401610a26906120db565b60405180910390fd5b610a3881610fa7565b90506000610a458261103f565b9050610a5b8160666111aa90919063ffffffff16565b15610a9b576040517f08c379a0000000000000000000000000000000000000000000000000000000008152600401610a929061203b565b60405180910390fd5b610aaf8160666110ae90919063ffffffff16565b5081604051610abe9190611f8c565b60405180910390207f0f2e7a1cb3db636cf506883108bff2d2193b967ac6516b1e5d23e672e18a91c960405160405180910390a25050565b6000610b0260016111c1565b90508015610b26576001600060016101000a81548160ff0219169083151502179055505b610b2e6112b1565b610b7f610b6f6040518060400160405280600681526020017f766572696461000000000000000000000000000000000000000000000000000081525061103f565b60666110ae90919063ffffffff16565b508015610bd95760008060016101000a81548160ff0219169083151502179055507f7f26b83ff96e1f2b6a682f133852f6798a09c465da95921460cefb38474024986001604051610bd09190611fe0565b60405180910390a15b50565b6000603360009054906101000a900473ffffffffffffffffffffffffffffffffffffffff16905090565b606083838360006040518060800160405280604181526020016128d4604191399050610c7f8184848080601f016020809104026020016040519081016040528093929190818152602001838380828437600081840152601f19601f82011690508083019250505050505050610f0490919063ffffffff16565b610cbe576040517f08c379a0000000000000000000000000000000000000000000000000000000008152600401610cb59061205b565b60405180910390fd5b6000606860008a73ffffffffffffffffffffffffffffffffffffffff1673ffffffffffffffffffffffffffffffffffffffff16815260200190815260200160002090506000610d0c8261130a565b905060008111610d51576040517f08c379a0000000000000000000000000000000000000000000000000000000008152600401610d48906121bb565b60405180910390fd5b60008167ffffffffffffffff811115610d6d57610d6c612585565b5b604051908082528060200260200182016040528015610da057816020015b6060815260200190600190039081610d8b5790505b50905060005b82811015610dfa57610dc9610dc4828661131f90919063ffffffff16565b611336565b828281518110610ddc57610ddb612556565b5b60200260200101819052508080610df290612485565b915050610da6565b50809750505050505050509392505050565b610e146110dc565b73ffffffffffffffffffffffffffffffffffffffff16610e32610bdc565b73ffffffffffffffffffffffffffffffffffffffff1614610e88576040517f08c379a0000000000000000000000000000000000000000000000000000000008152600401610e7f906120db565b60405180910390fd5b600073ffffffffffffffffffffffffffffffffffffffff168173ffffffffffffffffffffffffffffffffffffffff161415610ef8576040517f08c379a0000000000000000000000000000000000000000000000000000000008152600401610eef90611ffb565b60405180910390fd5b610f01816110e4565b50565b6000806001905083518351811460018114610f225760009250610f65565b600160208701838101602088015b600284838510011415610f60578051835114610f4f5760009650600093505b602083019250602081019050610f30565b505050505b50508091505092915050565b6000610f7c82610fa7565b91506000610f89836114f3565b9050610f9f8160666111aa90919063ffffffff16565b915050919050565b6060600082905060005b815181101561103557610fe0828281518110610fd057610fcf612556565b5b602001015160f81c60f81b611740565b828281518110610ff357610ff2612556565b5b60200101907effffffffffffffffffffffffffffffffffffffffffffffffffffffffffffff1916908160001a905350808061102d90612485565b915050610fb1565b5080915050919050565b60008082905060208151111561108a576040517f08c379a00000000000000000000000000000000000000000000000000000000081526004016110819061211b565b60405180910390fd5b6000815114156110a0576000801b9150506110a9565b60208301519150505b919050565b60006110bd83600001836117c6565b905092915050565b60006110d48360000183611836565b905092915050565b600033905090565b6000603360009054906101000a900473ffffffffffffffffffffffffffffffffffffffff16905081603360006101000a81548173ffffffffffffffffffffffffffffffffffffffff021916908373ffffffffffffffffffffffffffffffffffffffff1602179055508173ffffffffffffffffffffffffffffffffffffffff168173ffffffffffffffffffffffffffffffffffffffff167f8be0079c531659141344cd1fd0a4f28419497f9722a3daafe3b4186f6b6457e060405160405180910390a35050565b60006111b9836000018361194a565b905092915050565b60008060019054906101000a900460ff16156112385760018260ff161480156111f057506111ee3061196d565b155b61122f576040517f08c379a00000000000000000000000000000000000000000000000000000000081526004016112269061209b565b60405180910390fd5b600090506112ac565b8160ff1660008054906101000a900460ff1660ff161061128d576040517f08c379a00000000000000000000000000000000000000000000000000000000081526004016112849061209b565b60405180910390fd5b816000806101000a81548160ff021916908360ff160217905550600190505b919050565b600060019054906101000a900460ff16611300576040517f08c379a00000000000000000000000000000000000000000000000000000000081526004016112f79061215b565b60405180910390fd5b611308611990565b565b6000611318826000016119f1565b9050919050565b600061132e8360000183611a02565b905092915050565b6060600060f81b8260006020811061135157611350612556565b5b1a60f81b7effffffffffffffffffffffffffffffffffffffffffffffffffffffffffffff19161415611394576040518060200160405280600081525090506114ee565b6000601f90505b60008160ff16101580156113ed5750600060f81b838260ff16602081106113c5576113c4612556565b5b1a60f81b7effffffffffffffffffffffffffffffffffffffffffffffffffffffffffffff1916145b156114055780806113fd9061242a565b91505061139b565b600060018261141491906122f8565b60ff1667ffffffffffffffff8111156114305761142f612585565b5b6040519080825280601f01601f1916602001820160405280156114625781602001600182028036833780820191505090505b50905060005b8260ff168160ff16116114e757848160ff166020811061148b5761148a612556565b5b1a60f81b828260ff16815181106114a5576114a4612556565b5b60200101907effffffffffffffffffffffffffffffffffffffffffffffffffffffffffffff1916908160001a90535080806114df906124ce565b915050611468565b5080925050505b919050565b60006114fe82610fa7565b915060008290506000815111611549576040517f08c379a00000000000000000000000000000000000000000000000000000000081526004016115409061213b565b60405180910390fd5b60008151905060008190506000600183611563919061232f565b90506000600184611574919061232f565b90505b600081101580156115885750838310155b156115fb57602e60f81b8582815181106115a5576115a4612556565b5b602001015160f81c60f81b7effffffffffffffffffffffffffffffffffffffffffffffffffffffffffffff191614156115e8576001816115e591906122a2565b92505b80806115f390612400565b915050611577565b83831061163d576040517f08c379a00000000000000000000000000000000000000000000000000000000081526004016116349061201b565b60405180910390fd5b60006001848461164d919061232f565b61165791906122a2565b67ffffffffffffffff8111156116705761166f612585565b5b6040519080825280601f01601f1916602001820160405280156116a25781602001600182028036833780820191505090505b5090508391505b82821161172e578582815181106116c3576116c2612556565b5b602001015160f81c60f81b8185846116db919061232f565b815181106116ec576116eb612556565b5b60200101907effffffffffffffffffffffffffffffffffffffffffffffffffffffffffffff1916908160001a905350818061172690612485565b9250506116a9565b60208101519650505050505050919050565b6000604160f81b827effffffffffffffffffffffffffffffffffffffffffffffffffffffffffffff19161015801561179e5750605a60f81b827effffffffffffffffffffffffffffffffffffffffffffffffffffffffffffff191611155b156117bd5760208260f81c6117b391906122f8565b60f81b90506117c1565b8190505b919050565b60006117d2838361194a565b61182b578260000182908060018154018082558091505060019003906000526020600020016000909190919091505582600001805490508360010160008481526020019081526020016000208190555060019050611830565b600090505b92915050565b6000808360010160008481526020019081526020016000205490506000811461193e576000600182611868919061232f565b9050600060018660000180549050611880919061232f565b90508181146118ef5760008660000182815481106118a1576118a0612556565b5b90600052602060002001549050808760000184815481106118c5576118c4612556565b5b90600052602060002001819055508387600101600083815260200190815260200160002081905550505b8560000180548061190357611902612527565b5b600190038181906000526020600020016000905590558560010160008681526020019081526020016000206000905560019350505050611944565b60009150505b92915050565b600080836001016000848152602001908152602001600020541415905092915050565b6000808273ffffffffffffffffffffffffffffffffffffffff163b119050919050565b600060019054906101000a900460ff166119df576040517f08c379a00000000000000000000000000000000000000000000000000000000081526004016119d69061215b565b60405180910390fd5b6119ef6119ea6110dc565b6110e4565b565b600081600001805490509050919050565b6000826000018281548110611a1a57611a19612556565b5b9060005260206000200154905092915050565b6000611a40611a3b84612200565b6121db565b905082815260208101848484011115611a5c57611a5b6125c3565b5b611a678482856123be565b509392505050565b600081359050611a7e816128bc565b92915050565b60008083601f840112611a9a57611a996125b9565b5b8235905067ffffffffffffffff811115611ab757611ab66125b4565b5b602083019150836001820283011115611ad357611ad26125be565b5b9250929050565b600082601f830112611aef57611aee6125b9565b5b8135611aff848260208601611a2d565b91505092915050565b600060208284031215611b1e57611b1d6125cd565b5b6000611b2c84828501611a6f565b91505092915050565b600080600060408486031215611b4e57611b4d6125cd565b5b6000611b5c86828701611a6f565b935050602084013567ffffffffffffffff811115611b7d57611b7c6125c8565b5b611b8986828701611a84565b92509250509250925092565b600060208284031215611bab57611baa6125cd565b5b600082013567ffffffffffffffff811115611bc957611bc86125c8565b5b611bd584828501611ada565b91505092915050565b60008060008060608587031215611bf857611bf76125cd565b5b600085013567ffffffffffffffff811115611c1657611c156125c8565b5b611c2287828801611ada565b9450506020611c3387828801611a6f565b935050604085013567ffffffffffffffff811115611c5457611c536125c8565b5b611c6087828801611a84565b925092505092959194509250565b6000611c7a8383611d15565b905092915050565b611c8b81612363565b82525050565b6000611c9c82612241565b611ca68185612264565b935083602082028501611cb885612231565b8060005b85811015611cf45784840389528151611cd58582611c6e565b9450611ce083612257565b925060208a01995050600181019050611cbc565b50829750879550505050505092915050565b611d0f816123ac565b82525050565b6000611d208261224c565b611d2a8185612275565b9350611d3a8185602086016123cd565b611d43816125d2565b840191505092915050565b6000611d598261224c565b611d638185612297565b9350611d738185602086016123cd565b80840191505092915050565b6000611d8c602683612286565b9150611d97826125e3565b604082019050919050565b6000611daf600983612286565b9150611dba82612632565b602082019050919050565b6000611dd2601283612286565b9150611ddd8261265b565b602082019050919050565b6000611df5601183612286565b9150611e0082612684565b602082019050919050565b6000611e18601483612286565b9150611e23826126ad565b602082019050919050565b6000611e3b602e83612286565b9150611e46826126d6565b604082019050919050565b6000611e5e601783612286565b9150611e6982612725565b602082019050919050565b6000611e81602083612286565b9150611e8c8261274e565b602082019050919050565b6000611ea4600e83612286565b9150611eaf82612777565b602082019050919050565b6000611ec7600f83612286565b9150611ed2826127a0565b602082019050919050565b6000611eea600883612286565b9150611ef5826127c9565b602082019050919050565b6000611f0d602b83612286565b9150611f18826127f2565b604082019050919050565b6000611f30600b83612286565b9150611f3b82612841565b602082019050919050565b6000611f53601183612286565b9150611f5e8261286a565b602082019050919050565b6000611f76601183612286565b9150611f8182612893565b602082019050919050565b6000611f988284611d4e565b915081905092915050565b6000602082019050611fb86000830184611c82565b92915050565b60006020820190508181036000830152611fd88184611c91565b905092915050565b6000602082019050611ff56000830184611d06565b92915050565b6000602082019050818103600083015261201481611d7f565b9050919050565b6000602082019050818103600083015261203481611da2565b9050919050565b6000602082019050818103600083015261205481611dc5565b9050919050565b6000602082019050818103600083015261207481611de8565b9050919050565b6000602082019050818103600083015261209481611e0b565b9050919050565b600060208201905081810360008301526120b481611e2e565b9050919050565b600060208201905081810360008301526120d481611e51565b9050919050565b600060208201905081810360008301526120f481611e74565b9050919050565b6000602082019050818103600083015261211481611e97565b9050919050565b6000602082019050818103600083015261213481611eba565b9050919050565b6000602082019050818103600083015261215481611edd565b9050919050565b6000602082019050818103600083015261217481611f00565b9050919050565b6000602082019050818103600083015261219481611f23565b9050919050565b600060208201905081810360008301526121b481611f46565b9050919050565b600060208201905081810360008301526121d481611f69565b9050919050565b60006121e56121f6565b90506121f18282612454565b919050565b6000604051905090565b600067ffffffffffffffff82111561221b5761221a612585565b5b612224826125d2565b9050602081019050919050565b6000819050602082019050919050565b600081519050919050565b600081519050919050565b6000602082019050919050565b600082825260208201905092915050565b600082825260208201905092915050565b600082825260208201905092915050565b600081905092915050565b60006122ad82612395565b91506122b883612395565b9250827fffffffffffffffffffffffffffffffffffffffffffffffffffffffffffffffff038211156122ed576122ec6124f8565b5b828201905092915050565b60006123038261239f565b915061230e8361239f565b92508260ff03821115612324576123236124f8565b5b828201905092915050565b600061233a82612395565b915061234583612395565b925082821015612358576123576124f8565b5b828203905092915050565b600061236e82612375565b9050919050565b600073ffffffffffffffffffffffffffffffffffffffff82169050919050565b6000819050919050565b600060ff82169050919050565b60006123b78261239f565b9050919050565b82818337600083830152505050565b60005b838110156123eb5780820151818401526020810190506123d0565b838111156123fa576000848401525b50505050565b600061240b82612395565b9150600082141561241f5761241e6124f8565b5b600182039050919050565b60006124358261239f565b91506000821415612449576124486124f8565b5b600182039050919050565b61245d826125d2565b810181811067ffffffffffffffff8211171561247c5761247b612585565b5b80604052505050565b600061249082612395565b91507fffffffffffffffffffffffffffffffffffffffffffffffffffffffffffffffff8214156124c3576124c26124f8565b5b600182019050919050565b60006124d98261239f565b915060ff8214156124ed576124ec6124f8565b5b600182019050919050565b7f4e487b7100000000000000000000000000000000000000000000000000000000600052601160045260246000fd5b7f4e487b7100000000000000000000000000000000000000000000000000000000600052603160045260246000fd5b7f4e487b7100000000000000000000000000000000000000000000000000000000600052603260045260246000fd5b7f4e487b7100000000000000000000000000000000000000000000000000000000600052604160045260246000fd5b600080fd5b600080fd5b600080fd5b600080fd5b600080fd5b600080fd5b6000601f19601f8301169050919050565b7f4f776e61626c653a206e6577206f776e657220697320746865207a65726f206160008201527f6464726573730000000000000000000000000000000000000000000000000000602082015250565b7f4e6f205375666669780000000000000000000000000000000000000000000000600082015250565b7f416c726561647920726567697374657265640000000000000000000000000000600082015250565b7f496e76616c6964207369676e6174757265000000000000000000000000000000600082015250565b7f496e76616c6964207a65726f2061646472657373000000000000000000000000600082015250565b7f496e697469616c697a61626c653a20636f6e747261637420697320616c72656160008201527f647920696e697469616c697a6564000000000000000000000000000000000000602082015250565b7f4e616d6520616c72656164792072656769737465726564000000000000000000600082015250565b7f4f776e61626c653a2063616c6c6572206973206e6f7420746865206f776e6572600082015250565b7f496e76616c696420737566666978000000000000000000000000000000000000600082015250565b7f546f6f206c6f6e6720737472696e670000000000000000000000000000000000600082015250565b7f4e6f537566666978000000000000000000000000000000000000000000000000600082015250565b7f496e697469616c697a61626c653a20636f6e7472616374206973206e6f74206960008201527f6e697469616c697a696e67000000000000000000000000000000000000000000602082015250565b7f496e76616c696420444944000000000000000000000000000000000000000000600082015250565b7f556e72656769737465726564206e616d65000000000000000000000000000000600082015250565b7f4e6f207265676973746572656420444944000000000000000000000000000000600082015250565b6128c581612363565b81146128d057600080fd5b5056fe67de2d20880a7d27b71cdcb38817ba95800ca82dff557cedd91b96aacb9062e80b9e0b8cb9614fd61ce364502349e9079c26abaa21890d7bc2f1f6c8ff77f6261ca2646970667358221220be3c2543c1028c74f9d66fdedf905ec34712bce73f7aee3f8dd9c174833f6e2f64736f6c63430008070033",
  "linkReferences": {},
  "deployedLinkReferences": {}
}