{
  "_format": "hh-sol-artifact-1",
  "contractName": "VeridaDIDRegistry",
  "sourceName": "contracts/VeridaDIDRegistry.sol",
  "abi": [
    {
      "anonymous": false,
      "inputs": [
        {
          "indexed": false,
          "internalType": "uint8",
          "name": "version",
          "type": "uint8"
        }
      ],
      "name": "Initialized",
      "type": "event"
    },
    {
      "anonymous": false,
      "inputs": [
        {
          "indexed": true,
          "internalType": "address",
          "name": "previousOwner",
          "type": "address"
        },
        {
          "indexed": true,
          "internalType": "address",
          "name": "newOwner",
          "type": "address"
        }
      ],
      "name": "OwnershipTransferred",
      "type": "event"
    },
    {
      "anonymous": false,
      "inputs": [
        {
          "indexed": false,
          "internalType": "address",
          "name": "didAddress",
          "type": "address"
        },
        {
          "indexed": false,
          "internalType": "string[]",
          "name": "endponits",
          "type": "string[]"
        }
      ],
      "name": "Register",
      "type": "event"
    },
    {
      "anonymous": false,
      "inputs": [
        {
          "indexed": false,
          "internalType": "address",
          "name": "didAddress",
          "type": "address"
        }
      ],
      "name": "Revoke",
      "type": "event"
    },
    {
      "anonymous": false,
      "inputs": [
        {
          "indexed": false,
          "internalType": "address",
          "name": "didAddress",
          "type": "address"
        },
        {
          "indexed": false,
          "internalType": "address",
          "name": "controller",
          "type": "address"
        }
      ],
      "name": "SetController",
      "type": "event"
    },
    {
      "inputs": [
        {
          "internalType": "address",
          "name": "didAddress",
          "type": "address"
        }
      ],
      "name": "getController",
      "outputs": [
        {
          "internalType": "address",
          "name": "",
          "type": "address"
        }
      ],
      "stateMutability": "view",
      "type": "function"
    },
    {
      "inputs": [],
      "name": "initialize",
      "outputs": [],
      "stateMutability": "nonpayable",
      "type": "function"
    },
    {
      "inputs": [
        {
          "internalType": "address",
          "name": "didAddress",
          "type": "address"
        }
      ],
      "name": "lookup",
      "outputs": [
        {
          "internalType": "address",
          "name": "",
          "type": "address"
        },
        {
          "internalType": "string[]",
          "name": "",
          "type": "string[]"
        }
      ],
      "stateMutability": "view",
      "type": "function"
    },
    {
      "inputs": [
        {
          "internalType": "address",
          "name": "didAddress",
          "type": "address"
        }
      ],
      "name": "nonce",
      "outputs": [
        {
          "internalType": "uint256",
          "name": "",
          "type": "uint256"
        }
      ],
      "stateMutability": "view",
      "type": "function"
    },
    {
      "inputs": [],
      "name": "owner",
      "outputs": [
        {
          "internalType": "address",
          "name": "",
          "type": "address"
        }
      ],
      "stateMutability": "view",
      "type": "function"
    },
    {
      "inputs": [
        {
          "internalType": "address",
          "name": "didAddress",
          "type": "address"
        },
        {
          "internalType": "string[]",
          "name": "endpoints",
          "type": "string[]"
        },
        {
          "internalType": "bytes",
          "name": "signature",
          "type": "bytes"
        }
      ],
      "name": "register",
      "outputs": [],
      "stateMutability": "nonpayable",
      "type": "function"
    },
    {
      "inputs": [],
      "name": "renounceOwnership",
      "outputs": [],
      "stateMutability": "nonpayable",
      "type": "function"
    },
    {
      "inputs": [
        {
          "internalType": "address",
          "name": "didAddress",
          "type": "address"
        },
        {
          "internalType": "bytes",
          "name": "signature",
          "type": "bytes"
        }
      ],
      "name": "revoke",
      "outputs": [],
      "stateMutability": "nonpayable",
      "type": "function"
    },
    {
      "inputs": [
        {
          "internalType": "address",
          "name": "didAddress",
          "type": "address"
        },
        {
          "internalType": "address",
          "name": "controller",
          "type": "address"
        },
        {
          "internalType": "bytes",
          "name": "signature",
          "type": "bytes"
        }
      ],
      "name": "setController",
      "outputs": [],
      "stateMutability": "nonpayable",
      "type": "function"
    },
    {
      "inputs": [
        {
          "internalType": "address",
          "name": "newOwner",
          "type": "address"
        }
      ],
      "name": "transferOwnership",
      "outputs": [],
      "stateMutability": "nonpayable",
      "type": "function"
    }
  ],
  "bytecode": "0x608060405234801561001057600080fd5b5061199d806100206000396000f3fe608060405234801561001057600080fd5b50600436106100be5760003560e01c80638da5cb5b11610076578063a6ac970b1161005b578063a6ac970b14610173578063d4b6b5da14610186578063f2fde38b146101a757600080fd5b80638da5cb5b1461014f5780639a9738441461016057600080fd5b80638129fc1c116100a75780638129fc1c1461010957806385ef65741461011157806388c662aa1461012457600080fd5b806370ae92d2146100c3578063715018a6146100ff575b600080fd5b6100ec6100d13660046114f3565b6001600160a01b031660009081526067602052604090205490565b6040519081526020015b60405180910390f35b6101076101ba565b005b6101076101ce565b61010761011f366004611515565b6102f3565b6101376101323660046114f3565b6104eb565b6040516001600160a01b0390911681526020016100f6565b6033546001600160a01b0316610137565b61010761016e366004611628565b6104fc565b610107610181366004611576565b6106f9565b6101996101943660046114f3565b6109de565b6040516100f69291906117bf565b6101076101b53660046114f3565b610b17565b6101c2610ba4565b6101cc6000610bfe565b565b600054610100900460ff16158080156101ee5750600054600160ff909116105b806102085750303b158015610208575060005460ff166001145b61027f5760405162461bcd60e51b815260206004820152602e60248201527f496e697469616c697a61626c653a20636f6e747261637420697320616c72656160448201527f647920696e697469616c697a656400000000000000000000000000000000000060648201526084015b60405180910390fd5b6000805460ff1916600117905580156102a2576000805461ff0019166101001790555b6102aa610c5d565b80156102f0576000805461ff0019169055604051600181527f7f26b83ff96e1f2b6a682f133852f6798a09c465da95921460cefb38474024989060200160405180910390a15b50565b6001600160a01b03841660009081526066602052604090205460ff1661035b5760405162461bcd60e51b815260206004820152601460248201527f556e7265676973746572656420616464726573730000000000000000000000006044820152606401610276565b600061036685610cd0565b6001600160a01b03861660009081526067602090815260408083205490516bffffffffffffffffffffffff1960608b811b8216948301949094527f2f736574436f6e74726f6c6c65722f000000000000000000000000000000000060348301529289901b9092166043830152602f60f81b6057830152605882015291925090607801604051602081830303815290604052905061040581858585610d14565b6104455760405162461bcd60e51b8152602060048201526011602482015270496e76616c6964207369676e617475726560781b6044820152606401610276565b6001600160a01b0386166000908152606760205260408120805491610469836118fc565b909155505050506001600160a01b03848116600081815260656020908152604091829020805473ffffffffffffffffffffffffffffffffffffffff1916948816948517905581519283528201929092527f9fdb07212c6f92fd298affc4000712177664bc3c4cae5f61098d42da6d05be1e91015b60405180910390a150505050565b60006104f682610cd0565b92915050565b6001600160a01b03831660009081526066602052604090205460ff166105645760405162461bcd60e51b815260206004820152601460248201527f556e7265676973746572656420616464726573730000000000000000000000006044820152606401610276565b600061056f84610cd0565b6001600160a01b03851660009081526067602090815260408083205490516bffffffffffffffffffffffff1960608a901b16928101929092527f2f7265766f6b652f0000000000000000000000000000000000000000000000006034830152603c82015291925090605c0160405160208183030381529060405290506105f781858585610d14565b6106375760405162461bcd60e51b8152602060048201526011602482015270496e76616c6964207369676e617475726560781b6044820152606401610276565b6001600160a01b038516600090815260676020526040812080549161065b836118fc565b909155505050506001600160a01b0383166000908152606560209081526040808320805473ffffffffffffffffffffffffffffffffffffffff19169055606890915290206106a881610d57565b6001600160a01b038416600081815260666020908152604091829020805460ff1916905590519182527f9f77920c3de8baaa98d273e8aa75fae382aaa9f7f60f38979137853e5b73ea2c91016104dd565b6001600160a01b0385166000908152606760205260409020541561077f576001600160a01b03851660009081526066602052604090205460ff1661077f5760405162461bcd60e51b815260206004820152601360248201527f5265766f6b6564204449442061646472657373000000000000000000000000006044820152606401610276565b60408051606087901b6bffffffffffffffffffffffff19166020820152602f60f81b603482015281516015818303018152603590910190915260005b8481101561081e57818686838181106107d6576107d661193b565b90506020028101906107e8919061184a565b6040516020016107fa939291906116a4565b60405160208183030381529060405291508080610816906118fc565b9150506107bb565b506001600160a01b03861660009081526067602090815260409182902054915161084c9284929091016116d1565b604051602081830303815290604052905061086981848489610d14565b6108a95760405162461bcd60e51b8152602060048201526011602482015270496e76616c6964207369676e617475726560781b6044820152606401610276565b6001600160a01b03861660009081526067602052604081208054916108cd836118fc565b9091555050506001600160a01b03851660009081526068602052604090206108f481610d57565b60005b84811015610976576109638686838181106109145761091461193b565b9050602002810190610926919061184a565b8080601f0160208091040260200160405190810160405280939291908181526020018383808284376000920191909152508693925050610e5f9050565b508061096e816118fc565b9150506108f7565b506001600160a01b03861660009081526066602052604090819020805460ff19166001179055517fff581cdbc960e17331068dde5ed7aa9097996cee631affe706697292dc33680a906109ce9088908890889061170f565b60405180910390a1505050505050565b6001600160a01b03811660009081526066602052604081205460609060ff16610a495760405162461bcd60e51b815260206004820152601460248201527f556e7265676973746572656420616464726573730000000000000000000000006044820152606401610276565b6001600160a01b038316600090815260686020526040812090610a6a825490565b905060008167ffffffffffffffff811115610a8757610a87611951565b604051908082528060200260200182016040528015610aba57816020015b6060815260200190600190039081610aa55790505b50905060005b82811015610b0257610ad28482610ecc565b828281518110610ae457610ae461193b565b60200260200101819052508080610afa906118fc565b915050610ac0565b50610b0c86610cd0565b969095509350505050565b610b1f610ba4565b6001600160a01b038116610b9b5760405162461bcd60e51b815260206004820152602660248201527f4f776e61626c653a206e6577206f776e657220697320746865207a65726f206160448201527f64647265737300000000000000000000000000000000000000000000000000006064820152608401610276565b6102f081610bfe565b6033546001600160a01b031633146101cc5760405162461bcd60e51b815260206004820181905260248201527f4f776e61626c653a2063616c6c6572206973206e6f7420746865206f776e65726044820152606401610276565b603380546001600160a01b0383811673ffffffffffffffffffffffffffffffffffffffff19831681179093556040519116919082907f8be0079c531659141344cd1fd0a4f28419497f9722a3daafe3b4186f6b6457e090600090a35050565b600054610100900460ff16610cc85760405162461bcd60e51b815260206004820152602b60248201527f496e697469616c697a61626c653a20636f6e7472616374206973206e6f74206960448201526a6e697469616c697a696e6760a81b6064820152608401610276565b6101cc610f7e565b6001600160a01b03818116600090815260656020526040812054909116610cf5575090565b506001600160a01b039081166000908152606560205260409020541690565b600080610d22868686610ff2565b9050826001600160a01b0316816001600160a01b0316148015610d4d57506001600160a01b03811615155b9695505050505050565b80548015610e5b57606060005b82811015610e4d57836000018181548110610d8157610d8161193b565b906000526020600020018054610d96906118c1565b80601f0160208091040260200160405190810160405280929190818152602001828054610dc2906118c1565b8015610e0f5780601f10610de457610100808354040283529160200191610e0f565b820191906000526020600020905b815481529060010190602001808311610df257829003601f168201915b505050505091508360010182604051610e2891906116f3565b9081526020016040518091039020600090558080610e45906118fc565b915050610d64565b50610e59836000611387565b505b5050565b6000610e6b8383611048565b610ec357825460018101845560008481526020908190208451610e959391909101918501906113a5565b5082546040516001850190610eab9085906116f3565b908152604051908190036020019020555060016104f6565b50600092915050565b6060826000018281548110610ee357610ee361193b565b906000526020600020018054610ef8906118c1565b80601f0160208091040260200160405190810160405280929190818152602001828054610f24906118c1565b8015610f715780601f10610f4657610100808354040283529160200191610f71565b820191906000526020600020905b815481529060010190602001808311610f5457829003601f168201915b5050505050905092915050565b600054610100900460ff16610fe95760405162461bcd60e51b815260206004820152602b60248201527f496e697469616c697a61626c653a20636f6e7472616374206973206e6f74206960448201526a6e697469616c697a696e6760a81b6064820152608401610276565b6101cc33610bfe565b6000808480519060200120905061103f8185858080601f01602080910402602001604051908101604052809392919081815260200183838082843760009201919091525061107592505050565b95945050505050565b6000826001018260405161105c91906116f3565b9081526040519081900360200190205415159392505050565b60008060006110848585611099565b91509150611091816110df565b509392505050565b6000808251604114156110d05760208301516040840151606085015160001a6110c48782858561129a565b945094505050506110d8565b506000905060025b9250929050565b60008160048111156110f3576110f3611925565b14156110fc5750565b600181600481111561111057611110611925565b141561115e5760405162461bcd60e51b815260206004820152601860248201527f45434453413a20696e76616c6964207369676e617475726500000000000000006044820152606401610276565b600281600481111561117257611172611925565b14156111c05760405162461bcd60e51b815260206004820152601f60248201527f45434453413a20696e76616c6964207369676e6174757265206c656e677468006044820152606401610276565b60038160048111156111d4576111d4611925565b141561122d5760405162461bcd60e51b815260206004820152602260248201527f45434453413a20696e76616c6964207369676e6174757265202773272076616c604482015261756560f01b6064820152608401610276565b600481600481111561124157611241611925565b14156102f05760405162461bcd60e51b815260206004820152602260248201527f45434453413a20696e76616c6964207369676e6174757265202776272076616c604482015261756560f01b6064820152608401610276565b6000807f7fffffffffffffffffffffffffffffff5d576e7357a4501ddfe92f46681b20a08311156112d1575060009050600361137e565b8460ff16601b141580156112e957508460ff16601c14155b156112fa575060009050600461137e565b6040805160008082526020820180845289905260ff881692820192909252606081018690526080810185905260019060a0016020604051602081039080840390855afa15801561134e573d6000803e3d6000fd5b5050604051601f1901519150506001600160a01b0381166113775760006001925092505061137e565b9150600090505b94509492505050565b50805460008255906000526020600020908101906102f09190611429565b8280546113b1906118c1565b90600052602060002090601f0160209004810192826113d35760008555611419565b82601f106113ec57805160ff1916838001178555611419565b82800160010185558215611419579182015b828111156114195782518255916020019190600101906113fe565b50611425929150611446565b5090565b8082111561142557600061143d828261145b565b50600101611429565b5b808211156114255760008155600101611447565b508054611467906118c1565b6000825580601f10611477575050565b601f0160209004906000526020600020908101906102f09190611446565b80356001600160a01b03811681146114ac57600080fd5b919050565b60008083601f8401126114c357600080fd5b50813567ffffffffffffffff8111156114db57600080fd5b6020830191508360208285010111156110d857600080fd5b60006020828403121561150557600080fd5b61150e82611495565b9392505050565b6000806000806060858703121561152b57600080fd5b61153485611495565b935061154260208601611495565b9250604085013567ffffffffffffffff81111561155e57600080fd5b61156a878288016114b1565b95989497509550505050565b60008060008060006060868803121561158e57600080fd5b61159786611495565b9450602086013567ffffffffffffffff808211156115b457600080fd5b818801915088601f8301126115c857600080fd5b8135818111156115d757600080fd5b8960208260051b85010111156115ec57600080fd5b60208301965080955050604088013591508082111561160a57600080fd5b50611617888289016114b1565b969995985093965092949392505050565b60008060006040848603121561163d57600080fd5b61164684611495565b9250602084013567ffffffffffffffff81111561166257600080fd5b61166e868287016114b1565b9497909650939450505050565b81835281816020850137506000828201602090810191909152601f909101601f19169091010190565b600084516116b6818460208901611891565b820183858237602f60f81b9301928352505060010192915050565b600083516116e3818460208801611891565b9190910191825250602001919050565b60008251611705818460208701611891565b9190910192915050565b6000604082016001600160a01b038616835260206040818501528185835260608501905060608660051b86010192508660005b878110156117b157868503605f190183528135368a9003601e1901811261176857600080fd5b8901803567ffffffffffffffff81111561178157600080fd5b8036038b131561179057600080fd5b61179d878288850161167b565b965050509183019190830190600101611742565b509298975050505050505050565b6000604082016001600160a01b0385168352602060408185015281855180845260608601915060608160051b870101935082870160005b8281101561183c57878603605f190184528151805180885261181d81888a01898501611891565b601f01601f1916969096018501955092840192908401906001016117f6565b509398975050505050505050565b6000808335601e1984360301811261186157600080fd5b83018035915067ffffffffffffffff82111561187c57600080fd5b6020019150368190038213156110d857600080fd5b60005b838110156118ac578181015183820152602001611894565b838111156118bb576000848401525b50505050565b600181811c908216806118d557607f821691505b602082108114156118f657634e487b7160e01b600052602260045260246000fd5b50919050565b600060001982141561191e57634e487b7160e01b600052601160045260246000fd5b5060010190565b634e487b7160e01b600052602160045260246000fd5b634e487b7160e01b600052603260045260246000fd5b634e487b7160e01b600052604160045260246000fdfea2646970667358221220205e179adc8d379c13b12ccd74cecda4c0a297290e4f2c945c6966c58a912df264736f6c63430008070033",
  "linkReferences": {},
  "deployedLinkReferences": {}
}