{
  "_format": "hh-sol-artifact-1",
  "contractName": "VeridaDIDRegistry",
  "sourceName": "contracts/VeridaDIDRegistry.sol",
  "abi": [
    {
      "anonymous": false,
      "inputs": [
        {
          "indexed": true,
          "internalType": "address",
          "name": "identity",
          "type": "address"
        },
        {
          "indexed": false,
          "internalType": "bytes32",
          "name": "name",
          "type": "bytes32"
        },
        {
          "indexed": false,
          "internalType": "bytes",
          "name": "value",
          "type": "bytes"
        },
        {
          "indexed": false,
          "internalType": "uint256",
          "name": "validTo",
          "type": "uint256"
        },
        {
          "indexed": false,
          "internalType": "uint256",
          "name": "previousChange",
          "type": "uint256"
        }
      ],
      "name": "DIDAttributeChanged",
      "type": "event"
    },
    {
      "anonymous": false,
      "inputs": [
        {
          "indexed": true,
          "internalType": "address",
          "name": "identity",
          "type": "address"
        },
        {
          "indexed": false,
          "internalType": "bytes32",
          "name": "delegateType",
          "type": "bytes32"
        },
        {
          "indexed": false,
          "internalType": "address",
          "name": "delegate",
          "type": "address"
        },
        {
          "indexed": false,
          "internalType": "uint256",
          "name": "validTo",
          "type": "uint256"
        },
        {
          "indexed": false,
          "internalType": "uint256",
          "name": "previousChange",
          "type": "uint256"
        }
      ],
      "name": "DIDDelegateChanged",
      "type": "event"
    },
    {
      "anonymous": false,
      "inputs": [
        {
          "indexed": true,
          "internalType": "address",
          "name": "identity",
          "type": "address"
        },
        {
          "indexed": false,
          "internalType": "address",
          "name": "owner",
          "type": "address"
        },
        {
          "indexed": false,
          "internalType": "uint256",
          "name": "previousChange",
          "type": "uint256"
        }
      ],
      "name": "DIDOwnerChanged",
      "type": "event"
    },
    {
      "inputs": [
        {
          "internalType": "address",
          "name": "identity",
          "type": "address"
        },
        {
          "internalType": "bytes32",
          "name": "delegateType",
          "type": "bytes32"
        },
        {
          "internalType": "address",
          "name": "delegate",
          "type": "address"
        },
        {
          "internalType": "uint256",
          "name": "validity",
          "type": "uint256"
        },
        {
          "internalType": "bytes",
          "name": "signature",
          "type": "bytes"
        }
      ],
      "name": "addDelegate",
      "outputs": [],
      "stateMutability": "nonpayable",
      "type": "function"
    },
    {
      "inputs": [
        {
          "internalType": "address",
          "name": "identity",
          "type": "address"
        },
        {
          "components": [
            {
              "internalType": "bytes32",
              "name": "delegateType",
              "type": "bytes32"
            },
            {
              "internalType": "address",
              "name": "delegate",
              "type": "address"
            },
            {
              "internalType": "uint256",
              "name": "validity",
              "type": "uint256"
            }
          ],
          "internalType": "struct VeridaDIDRegistry.DelegateParam[]",
          "name": "delegateParams",
          "type": "tuple[]"
        },
        {
          "components": [
            {
              "internalType": "bytes32",
              "name": "name",
              "type": "bytes32"
            },
            {
              "internalType": "bytes",
              "name": "value",
              "type": "bytes"
            },
            {
              "internalType": "uint256",
              "name": "validity",
              "type": "uint256"
            }
          ],
          "internalType": "struct VeridaDIDRegistry.AttributeParam[]",
          "name": "attributeParams",
          "type": "tuple[]"
        },
        {
          "internalType": "bytes",
          "name": "signature",
          "type": "bytes"
        }
      ],
      "name": "bulkAdd",
      "outputs": [],
      "stateMutability": "nonpayable",
      "type": "function"
    },
    {
      "inputs": [
        {
          "internalType": "address",
          "name": "identity",
          "type": "address"
        },
        {
          "components": [
            {
              "internalType": "bytes32",
              "name": "delegateType",
              "type": "bytes32"
            },
            {
              "internalType": "address",
              "name": "delegate",
              "type": "address"
            }
          ],
          "internalType": "struct VeridaDIDRegistry.RevokeDelegateParam[]",
          "name": "delegateParams",
          "type": "tuple[]"
        },
        {
          "components": [
            {
              "internalType": "bytes32",
              "name": "name",
              "type": "bytes32"
            },
            {
              "internalType": "bytes",
              "name": "value",
              "type": "bytes"
            }
          ],
          "internalType": "struct VeridaDIDRegistry.RevokeAttributeParam[]",
          "name": "attributeParams",
          "type": "tuple[]"
        },
        {
          "internalType": "bytes",
          "name": "signature",
          "type": "bytes"
        }
      ],
      "name": "bulkRevoke",
      "outputs": [],
      "stateMutability": "nonpayable",
      "type": "function"
    },
    {
      "inputs": [
        {
          "internalType": "address",
          "name": "identity",
          "type": "address"
        },
        {
          "internalType": "address",
          "name": "newOwner",
          "type": "address"
        },
        {
          "internalType": "bytes",
          "name": "signature",
          "type": "bytes"
        }
      ],
      "name": "changeOwner",
      "outputs": [],
      "stateMutability": "nonpayable",
      "type": "function"
    },
    {
      "inputs": [
        {
          "internalType": "address",
          "name": "",
          "type": "address"
        }
      ],
      "name": "changed",
      "outputs": [
        {
          "internalType": "uint256",
          "name": "",
          "type": "uint256"
        }
      ],
      "stateMutability": "view",
      "type": "function"
    },
    {
      "inputs": [
        {
          "internalType": "address",
          "name": "",
          "type": "address"
        },
        {
          "internalType": "bytes32",
          "name": "",
          "type": "bytes32"
        },
        {
          "internalType": "address",
          "name": "",
          "type": "address"
        }
      ],
      "name": "delegates",
      "outputs": [
        {
          "internalType": "uint256",
          "name": "",
          "type": "uint256"
        }
      ],
      "stateMutability": "view",
      "type": "function"
    },
    {
      "inputs": [
        {
          "internalType": "address",
          "name": "identity",
          "type": "address"
        }
      ],
      "name": "identityOwner",
      "outputs": [
        {
          "internalType": "address",
          "name": "",
          "type": "address"
        }
      ],
      "stateMutability": "view",
      "type": "function"
    },
    {
      "inputs": [
        {
          "internalType": "address",
          "name": "",
          "type": "address"
        }
      ],
      "name": "nonce",
      "outputs": [
        {
          "internalType": "uint256",
          "name": "",
          "type": "uint256"
        }
      ],
      "stateMutability": "view",
      "type": "function"
    },
    {
      "inputs": [
        {
          "internalType": "address",
          "name": "",
          "type": "address"
        }
      ],
      "name": "owners",
      "outputs": [
        {
          "internalType": "address",
          "name": "",
          "type": "address"
        }
      ],
      "stateMutability": "view",
      "type": "function"
    },
    {
      "inputs": [
        {
          "internalType": "address",
          "name": "identity",
          "type": "address"
        },
        {
          "internalType": "bytes32",
          "name": "name",
          "type": "bytes32"
        },
        {
          "internalType": "bytes",
          "name": "value",
          "type": "bytes"
        },
        {
          "internalType": "bytes",
          "name": "signature",
          "type": "bytes"
        }
      ],
      "name": "revokeAttribute",
      "outputs": [],
      "stateMutability": "nonpayable",
      "type": "function"
    },
    {
      "inputs": [
        {
          "internalType": "address",
          "name": "identity",
          "type": "address"
        },
        {
          "internalType": "bytes32",
          "name": "delegateType",
          "type": "bytes32"
        },
        {
          "internalType": "address",
          "name": "delegate",
          "type": "address"
        },
        {
          "internalType": "bytes",
          "name": "signature",
          "type": "bytes"
        }
      ],
      "name": "revokeDelegate",
      "outputs": [],
      "stateMutability": "nonpayable",
      "type": "function"
    },
    {
      "inputs": [
        {
          "internalType": "address",
          "name": "identity",
          "type": "address"
        },
        {
          "internalType": "bytes32",
          "name": "name",
          "type": "bytes32"
        },
        {
          "internalType": "bytes",
          "name": "value",
          "type": "bytes"
        },
        {
          "internalType": "uint256",
          "name": "validity",
          "type": "uint256"
        },
        {
          "internalType": "bytes",
          "name": "signature",
          "type": "bytes"
        }
      ],
      "name": "setAttribute",
      "outputs": [],
      "stateMutability": "nonpayable",
      "type": "function"
    },
    {
      "inputs": [
        {
          "internalType": "address",
          "name": "identity",
          "type": "address"
        },
        {
          "internalType": "bytes32",
          "name": "delegateType",
          "type": "bytes32"
        },
        {
          "internalType": "address",
          "name": "delegate",
          "type": "address"
        }
      ],
      "name": "validDelegate",
      "outputs": [
        {
          "internalType": "bool",
          "name": "",
          "type": "bool"
        }
      ],
      "stateMutability": "view",
      "type": "function"
    }
  ],
  "bytecode": "0x608060405234801561001057600080fd5b50611606806100206000396000f3fe608060405234801561001057600080fd5b50600436106100df5760003560e01c806370ae92d21161008c578063a5aac5ce11610066578063a5aac5ce1461025c578063ba5424b11461026f578063f925800014610282578063f96d0f9f1461029557600080fd5b806370ae92d2146102165780638733d4e81461023657806398c1601b1461024957600080fd5b8063554f2d2f116100bd578063554f2d2f1461017e578063622b2a3c14610191578063650ce2c81461020357600080fd5b8063022914a7146100e45780630d44625b1461012a57806317e70c6714610169575b600080fd5b61010d6100f2366004610f33565b6000602081905290815260409020546001600160a01b031681565b6040516001600160a01b0390911681526020015b60405180910390f35b61015b6101383660046111ba565b600160209081526000938452604080852082529284528284209052825290205481565b604051908152602001610121565b61017c6101773660046111f6565b6102b5565b005b61017c61018c366004611340565b61036b565b6101f361019f3660046111ba565b6001600160a01b039283166000908152600160209081526040808320815180840196909652815180870384018152958201825285519583019590952083529381528382209290941681529252902054421090565b6040519015158152602001610121565b61017c610211366004610f55565b61041e565b61015b610224366004610f33565b60036020526000908152604090205481565b61010d610244366004610f33565b6104cd565b61017c6102573660046112cc565b6104fd565b61017c61026a366004611092565b6105a3565b61017c61027d366004610fb6565b610649565b61017c610290366004611254565b6106fe565b61015b6102a3366004610f33565b60026020526000908152604090205481565b84828260006040518060800160405280604181526020016115906041913990506103188184848080601f01602080910402602001604051908101604052809392919081815260200183838082843760009201919091525092939250506107a59050565b6103555760405162461bcd60e51b81526020600482015260096024820152683130b22fb0b1ba37b960b91b60448201526064015b60405180910390fd5b610360898989610809565b505050505050505050565b85828260006040518060800160405280604181526020016115906041913990506103ce8184848080601f01602080910402602001604051908101604052809392919081815260200183838082843760009201919091525092939250506107a59050565b6104065760405162461bcd60e51b81526020600482015260096024820152683130b22fb0b1ba37b960b91b604482015260640161034c565b6104128a8a8a8a6108ce565b50505050505050505050565b83828260006040518060800160405280604181526020016115906041913990506104818184848080601f01602080910402602001604051908101604052809392919081815260200183838082843760009201919091525092939250506107a59050565b6104b95760405162461bcd60e51b81526020600482015260096024820152683130b22fb0b1ba37b960b91b604482015260640161034c565b6104c38888610956565b5050505050505050565b6001600160a01b0380821660009081526020819052604081205490911680156104f65792915050565b5090919050565b84828260006040518060800160405280604181526020016115906041913990506105608184848080601f01602080910402602001604051908101604052809392919081815260200183838082843760009201919091525092939250506107a59050565b6105985760405162461bcd60e51b81526020600482015260096024820152683130b22fb0b1ba37b960b91b604482015260640161034c565b6103608989896109f8565b84828260006040518060800160405280604181526020016115906041913990506106068184848080601f01602080910402602001604051908101604052809392919081815260200183838082843760009201919091525092939250506107a59050565b61063e5760405162461bcd60e51b81526020600482015260096024820152683130b22fb0b1ba37b960b91b604482015260640161034c565b610360898989610a45565b86828260006040518060800160405280604181526020016115906041913990506106ac8184848080601f01602080910402602001604051908101604052809392919081815260200183838082843760009201919091525092939250506107a59050565b6106e45760405162461bcd60e51b81526020600482015260096024820152683130b22fb0b1ba37b960b91b604482015260640161034c565b6106f18b8b8b8b8b610b12565b5050505050505050505050565b85828260006040518060800160405280604181526020016115906041913990506107618184848080601f01602080910402602001604051908101604052809392919081815260200183838082843760009201919091525092939250506107a59050565b6107995760405162461bcd60e51b81526020600482015260096024820152683130b22fb0b1ba37b960b91b604482015260640161034c565b6104128a8a8a8a610c7f565b8151815160009160019181148083146107c157600092506107ff565b600160208701838101602088015b6002848385100114156107fa5780518351146107ee5760009650600093505b602092830192016107cf565b505050505b5090949350505050565b6001600160a01b03838116600081815260016020908152604080832081518084018990528251808203850181528184018085528151918601919091208652918452828520968816808652968452828520429081905586865260029094529190932054928790526060810194909452608084015260a0830152907f5a5084339536bcab65f20799fcc58724588145ca054bd2be626174b27ba156f79060c0015b60405180910390a250506001600160a01b03166000908152600260205260409020439055565b6001600160a01b0384167f18ab6b2ae3d64306c00ce663125f2bd680e441a098de1635bd7ad8b0d44965e48484610905854261151a565b6001600160a01b0389166000908152600260205260409081902054905161092f9493929190611409565b60405180910390a25050506001600160a01b03166000908152600260205260409020439055565b6001600160a01b0382811660008181526020818152604080832080547fffffffffffffffffffffffff000000000000000000000000000000000000000016958716958617905560028252918290205482519485529084015290917f38a5a6e68f30ed1ab45860a4afb34bcb2fc00f22ca462d249b8a8d40cda6f7a3910160405180910390a2506001600160a01b03166000908152600260205260409020439055565b6001600160a01b0383166000818152600260205260408082205490517f18ab6b2ae3d64306c00ce663125f2bd680e441a098de1635bd7ad8b0d44965e4926108a892879287929190611409565b60005b8251811015610aa857610a9684848381518110610a6757610a67611563565b602002602001015160000151858481518110610a8557610a85611563565b602002602001015160200151610809565b80610aa081611532565b915050610a48565b5060005b8151811015610b0c57610afa84838381518110610acb57610acb611563565b602002602001015160000151848481518110610ae957610ae9611563565b6020026020010151602001516109f8565b80610b0481611532565b915050610aac565b50505050565b60005b83811015610b9a57610b8886868684818110610b3357610b33611563565b90506060020160000135878785818110610b4f57610b4f611563565b9050606002016020016020810190610b679190610f33565b888886818110610b7957610b79611563565b90506060020160400135610c7f565b80610b9281611532565b915050610b15565b5060005b81811015610c7757610c6586848484818110610bbc57610bbc611563565b9050602002810190610bce919061147c565b35858585818110610be157610be1611563565b9050602002810190610bf3919061147c565b610c01906020810190611435565b8080601f016020809104026020016040519081016040528093929190818152602001838380828437600092019190915250899250889150879050818110610c4a57610c4a611563565b9050602002810190610c5c919061147c565b604001356108ce565b80610c6f81611532565b915050610b9e565b505050505050565b610c89814261151a565b6001600160a01b03858116600081815260016020908152604080832081518084018b9052825180820385018152908301835280519084012084528252808320948816835293905291909120919091557f5a5084339536bcab65f20799fcc58724588145ca054bd2be626174b27ba156f78484610d05854261151a565b6001600160a01b038981166000908152600260209081526040918290205482519687529490921691850191909152830152606082015260800161092f565b80356001600160a01b0381168114610d5a57600080fd5b919050565b60008083601f840112610d7157600080fd5b50813567ffffffffffffffff811115610d8957600080fd5b6020830191508360208260051b8501011115610da457600080fd5b9250929050565b600082601f830112610dbc57600080fd5b81356020610dd1610dcc836114f6565b6114c5565b80838252828201915082860187848660051b8901011115610df157600080fd5b60005b85811015610e7457813567ffffffffffffffff80821115610e1457600080fd5b908901906040828c03601f1901811315610e2d57600080fd5b610e3561149c565b838901358152908301359082821115610e4d57600080fd5b610e5b8d8a84870101610ec3565b818a015287525050509284019290840190600101610df4565b5090979650505050505050565b60008083601f840112610e9357600080fd5b50813567ffffffffffffffff811115610eab57600080fd5b602083019150836020828501011115610da457600080fd5b600082601f830112610ed457600080fd5b813567ffffffffffffffff811115610eee57610eee611579565b610f01601f8201601f19166020016114c5565b818152846020838601011115610f1657600080fd5b816020850160208301376000918101602001919091529392505050565b600060208284031215610f4557600080fd5b610f4e82610d43565b9392505050565b60008060008060608587031215610f6b57600080fd5b610f7485610d43565b9350610f8260208601610d43565b9250604085013567ffffffffffffffff811115610f9e57600080fd5b610faa87828801610e81565b95989497509550505050565b60008060008060008060006080888a031215610fd157600080fd5b610fda88610d43565b9650602088013567ffffffffffffffff80821115610ff757600080fd5b818a0191508a601f83011261100b57600080fd5b81358181111561101a57600080fd5b8b602060608302850101111561102f57600080fd5b6020830198508097505060408a013591508082111561104d57600080fd5b6110598b838c01610d5f565b909650945060608a013591508082111561107257600080fd5b5061107f8a828b01610e81565b989b979a50959850939692959293505050565b6000806000806000608086880312156110aa57600080fd5b6110b386610d43565b945060208087013567ffffffffffffffff808211156110d157600080fd5b818901915089601f8301126110e557600080fd5b81356110f3610dcc826114f6565b8082825285820191508585018d878560061b880101111561111357600080fd5b600095505b83861015611160576040818f03121561113057600080fd5b61113861149c565b81358152611147888301610d43565b8189015283526001959095019491860191604001611118565b5098505050604089013592508083111561117957600080fd5b6111858a848b01610dab565b9550606089013592508083111561119b57600080fd5b50506111a988828901610e81565b969995985093965092949392505050565b6000806000606084860312156111cf57600080fd5b6111d884610d43565b9250602084013591506111ed60408501610d43565b90509250925092565b60008060008060006080868803121561120e57600080fd5b61121786610d43565b94506020860135935061122c60408701610d43565b9250606086013567ffffffffffffffff81111561124857600080fd5b6111a988828901610e81565b60008060008060008060a0878903121561126d57600080fd5b61127687610d43565b95506020870135945061128b60408801610d43565b935060608701359250608087013567ffffffffffffffff8111156112ae57600080fd5b6112ba89828a01610e81565b979a9699509497509295939492505050565b6000806000806000608086880312156112e457600080fd5b6112ed86610d43565b945060208601359350604086013567ffffffffffffffff8082111561131157600080fd5b61131d89838a01610ec3565b9450606088013591508082111561133357600080fd5b506111a988828901610e81565b60008060008060008060a0878903121561135957600080fd5b61136287610d43565b955060208701359450604087013567ffffffffffffffff8082111561138657600080fd5b6113928a838b01610ec3565b95506060890135945060808901359150808211156113af57600080fd5b506112ba89828a01610e81565b6000815180845260005b818110156113e2576020818501810151868301820152016113c6565b818111156113f4576000602083870101525b50601f01601f19169290920160200192915050565b84815260806020820152600061142260808301866113bc565b6040830194909452506060015292915050565b6000808335601e1984360301811261144c57600080fd5b83018035915067ffffffffffffffff82111561146757600080fd5b602001915036819003821315610da457600080fd5b60008235605e1983360301811261149257600080fd5b9190910192915050565b6040805190810167ffffffffffffffff811182821017156114bf576114bf611579565b60405290565b604051601f8201601f1916810167ffffffffffffffff811182821017156114ee576114ee611579565b604052919050565b600067ffffffffffffffff82111561151057611510611579565b5060051b60200190565b6000821982111561152d5761152d61154d565b500190565b60006000198214156115465761154661154d565b5060010190565b634e487b7160e01b600052601160045260246000fd5b634e487b7160e01b600052603260045260246000fd5b634e487b7160e01b600052604160045260246000fdfe67de2d20880a7d27b71cdcb38817ba95800ca82dff557cedd91b96aacb9062e80b9e0b8cb9614fd61ce364502349e9079c26abaa21890d7bc2f1f6c8ff77f6261ca2646970667358221220e9ace7250bc32e88568eece7432b87bf746527411f1e0979251d6d1a77757f1b64736f6c63430008070033",
  "linkReferences": {},
  "deployedLinkReferences": {}
}