{
  "_format": "hh-sol-artifact-1",
  "contractName": "VeridaDIDRegistry",
  "sourceName": "contracts/VeridaDIDRegistry.sol",
  "abi": [
    {
      "anonymous": false,
      "inputs": [
        {
          "indexed": true,
          "internalType": "address",
          "name": "identity",
          "type": "address"
        },
        {
          "indexed": false,
          "internalType": "bytes32",
          "name": "name",
          "type": "bytes32"
        },
        {
          "indexed": false,
          "internalType": "bytes",
          "name": "value",
          "type": "bytes"
        },
        {
          "indexed": false,
          "internalType": "uint256",
          "name": "validTo",
          "type": "uint256"
        },
        {
          "indexed": false,
          "internalType": "bytes",
          "name": "proof",
          "type": "bytes"
        },
        {
          "indexed": false,
          "internalType": "uint256",
          "name": "previousChange",
          "type": "uint256"
        }
      ],
      "name": "DIDAttributeChanged",
      "type": "event"
    },
    {
      "anonymous": false,
      "inputs": [
        {
          "indexed": true,
          "internalType": "address",
          "name": "identity",
          "type": "address"
        },
        {
          "indexed": false,
          "internalType": "bytes32",
          "name": "delegateType",
          "type": "bytes32"
        },
        {
          "indexed": false,
          "internalType": "address",
          "name": "delegate",
          "type": "address"
        },
        {
          "indexed": false,
          "internalType": "uint256",
          "name": "validTo",
          "type": "uint256"
        },
        {
          "indexed": false,
          "internalType": "uint256",
          "name": "previousChange",
          "type": "uint256"
        }
      ],
      "name": "DIDDelegateChanged",
      "type": "event"
    },
    {
      "anonymous": false,
      "inputs": [
        {
          "indexed": true,
          "internalType": "address",
          "name": "identity",
          "type": "address"
        },
        {
          "indexed": false,
          "internalType": "address",
          "name": "owner",
          "type": "address"
        },
        {
          "indexed": false,
          "internalType": "uint256",
          "name": "previousChange",
          "type": "uint256"
        }
      ],
      "name": "DIDOwnerChanged",
      "type": "event"
    },
    {
      "anonymous": false,
      "inputs": [
        {
          "indexed": false,
          "internalType": "uint8",
          "name": "version",
          "type": "uint8"
        }
      ],
      "name": "Initialized",
      "type": "event"
    },
    {
      "anonymous": false,
      "inputs": [
        {
          "indexed": true,
          "internalType": "address",
          "name": "previousOwner",
          "type": "address"
        },
        {
          "indexed": true,
          "internalType": "address",
          "name": "newOwner",
          "type": "address"
        }
      ],
      "name": "OwnershipTransferred",
      "type": "event"
    },
    {
      "inputs": [
        {
          "internalType": "address",
          "name": "identity",
          "type": "address"
        },
        {
          "internalType": "bytes32",
          "name": "delegateType",
          "type": "bytes32"
        },
        {
          "internalType": "address",
          "name": "delegate",
          "type": "address"
        },
        {
          "internalType": "uint256",
          "name": "validity",
          "type": "uint256"
        },
        {
          "internalType": "bytes",
          "name": "signature",
          "type": "bytes"
        }
      ],
      "name": "addDelegate",
      "outputs": [],
      "stateMutability": "nonpayable",
      "type": "function"
    },
    {
      "inputs": [
        {
          "internalType": "address",
          "name": "identity",
          "type": "address"
        },
        {
          "components": [
            {
              "internalType": "bytes32",
              "name": "delegateType",
              "type": "bytes32"
            },
            {
              "internalType": "address",
              "name": "delegate",
              "type": "address"
            },
            {
              "internalType": "uint256",
              "name": "validity",
              "type": "uint256"
            }
          ],
          "internalType": "struct VeridaDIDRegistry.DelegateParam[]",
          "name": "delegateParams",
          "type": "tuple[]"
        },
        {
          "components": [
            {
              "internalType": "bytes32",
              "name": "name",
              "type": "bytes32"
            },
            {
              "internalType": "bytes",
              "name": "value",
              "type": "bytes"
            },
            {
              "internalType": "uint256",
              "name": "validity",
              "type": "uint256"
            },
            {
              "internalType": "bytes",
              "name": "proof",
              "type": "bytes"
            }
          ],
          "internalType": "struct VeridaDIDRegistry.AttributeParam[]",
          "name": "attributeParams",
          "type": "tuple[]"
        },
        {
          "internalType": "bytes",
          "name": "signature",
          "type": "bytes"
        }
      ],
      "name": "bulkAdd",
      "outputs": [],
      "stateMutability": "nonpayable",
      "type": "function"
    },
    {
      "inputs": [
        {
          "internalType": "address",
          "name": "identity",
          "type": "address"
        },
        {
          "components": [
            {
              "internalType": "bytes32",
              "name": "delegateType",
              "type": "bytes32"
            },
            {
              "internalType": "address",
              "name": "delegate",
              "type": "address"
            }
          ],
          "internalType": "struct VeridaDIDRegistry.RevokeDelegateParam[]",
          "name": "delegateParams",
          "type": "tuple[]"
        },
        {
          "components": [
            {
              "internalType": "bytes32",
              "name": "name",
              "type": "bytes32"
            },
            {
              "internalType": "bytes",
              "name": "value",
              "type": "bytes"
            }
          ],
          "internalType": "struct VeridaDIDRegistry.RevokeAttributeParam[]",
          "name": "attributeParams",
          "type": "tuple[]"
        },
        {
          "internalType": "bytes",
          "name": "signature",
          "type": "bytes"
        }
      ],
      "name": "bulkRevoke",
      "outputs": [],
      "stateMutability": "nonpayable",
      "type": "function"
    },
    {
      "inputs": [
        {
          "internalType": "address",
          "name": "identity",
          "type": "address"
        },
        {
          "internalType": "address",
          "name": "newOwner",
          "type": "address"
        },
        {
          "internalType": "bytes",
          "name": "signature",
          "type": "bytes"
        }
      ],
      "name": "changeOwner",
      "outputs": [],
      "stateMutability": "nonpayable",
      "type": "function"
    },
    {
      "inputs": [
        {
          "internalType": "address",
          "name": "",
          "type": "address"
        }
      ],
      "name": "changed",
      "outputs": [
        {
          "internalType": "uint256",
          "name": "",
          "type": "uint256"
        }
      ],
      "stateMutability": "view",
      "type": "function"
    },
    {
      "inputs": [
        {
          "internalType": "address",
          "name": "did",
          "type": "address"
        }
      ],
      "name": "getNonce",
      "outputs": [
        {
          "internalType": "uint256",
          "name": "",
          "type": "uint256"
        }
      ],
      "stateMutability": "view",
      "type": "function"
    },
    {
      "inputs": [
        {
          "internalType": "address",
          "name": "identity",
          "type": "address"
        }
      ],
      "name": "identityOwner",
      "outputs": [
        {
          "internalType": "address",
          "name": "",
          "type": "address"
        }
      ],
      "stateMutability": "view",
      "type": "function"
    },
    {
      "inputs": [],
      "name": "initialize",
      "outputs": [],
      "stateMutability": "nonpayable",
      "type": "function"
    },
    {
      "inputs": [],
      "name": "owner",
      "outputs": [
        {
          "internalType": "address",
          "name": "",
          "type": "address"
        }
      ],
      "stateMutability": "view",
      "type": "function"
    },
    {
      "inputs": [
        {
          "internalType": "address",
          "name": "",
          "type": "address"
        }
      ],
      "name": "owners",
      "outputs": [
        {
          "internalType": "address",
          "name": "",
          "type": "address"
        }
      ],
      "stateMutability": "view",
      "type": "function"
    },
    {
      "inputs": [],
      "name": "renounceOwnership",
      "outputs": [],
      "stateMutability": "nonpayable",
      "type": "function"
    },
    {
      "inputs": [
        {
          "internalType": "address",
          "name": "identity",
          "type": "address"
        },
        {
          "internalType": "bytes32",
          "name": "name",
          "type": "bytes32"
        },
        {
          "internalType": "bytes",
          "name": "value",
          "type": "bytes"
        },
        {
          "internalType": "bytes",
          "name": "signature",
          "type": "bytes"
        }
      ],
      "name": "revokeAttribute",
      "outputs": [],
      "stateMutability": "nonpayable",
      "type": "function"
    },
    {
      "inputs": [
        {
          "internalType": "address",
          "name": "identity",
          "type": "address"
        },
        {
          "internalType": "bytes32",
          "name": "delegateType",
          "type": "bytes32"
        },
        {
          "internalType": "address",
          "name": "delegate",
          "type": "address"
        },
        {
          "internalType": "bytes",
          "name": "signature",
          "type": "bytes"
        }
      ],
      "name": "revokeDelegate",
      "outputs": [],
      "stateMutability": "nonpayable",
      "type": "function"
    },
    {
      "inputs": [
        {
          "internalType": "address",
          "name": "identity",
          "type": "address"
        },
        {
          "internalType": "bytes32",
          "name": "name",
          "type": "bytes32"
        },
        {
          "internalType": "bytes",
          "name": "value",
          "type": "bytes"
        },
        {
          "internalType": "uint256",
          "name": "validity",
          "type": "uint256"
        },
        {
          "internalType": "bytes",
          "name": "proof",
          "type": "bytes"
        },
        {
          "internalType": "bytes",
          "name": "signature",
          "type": "bytes"
        }
      ],
      "name": "setAttribute",
      "outputs": [],
      "stateMutability": "nonpayable",
      "type": "function"
    },
    {
      "inputs": [
        {
          "internalType": "address",
          "name": "newOwner",
          "type": "address"
        }
      ],
      "name": "transferOwnership",
      "outputs": [],
      "stateMutability": "nonpayable",
      "type": "function"
    },
    {
      "inputs": [
        {
          "internalType": "address",
          "name": "identity",
          "type": "address"
        },
        {
          "internalType": "bytes32",
          "name": "delegateType",
          "type": "bytes32"
        },
        {
          "internalType": "address",
          "name": "delegate",
          "type": "address"
        }
      ],
      "name": "validDelegate",
      "outputs": [
        {
          "internalType": "bool",
          "name": "",
          "type": "bool"
        }
      ],
      "stateMutability": "view",
      "type": "function"
    }
  ],
  "bytecode": "0x608060405234801561001057600080fd5b50612189806100206000396000f3fe608060405234801561001057600080fd5b50600436106101005760003560e01c80638733d4e811610097578063adcd31c211610066578063adcd31c214610289578063f2fde38b1461029c578063f9258000146102af578063f96d0f9f146102c257600080fd5b80638733d4e81461023f5780638da5cb5b1461025257806398c1601b14610263578063a5aac5ce1461027657600080fd5b8063622b2a3c116100d3578063622b2a3c146101aa578063650ce2c81461021c578063715018a61461022f5780638129fc1c1461023757600080fd5b8063022914a71461010557806304923e521461014b57806317e70c67146101605780632d0335ab14610173575b600080fd5b61012e61011336600461199d565b6065602052600090815260409020546001600160a01b031681565b6040516001600160a01b0390911681526020015b60405180910390f35b61015e610159366004611a20565b6102e2565b005b61015e61016e366004611bb1565b610586565b61019c61018136600461199d565b6001600160a01b031660009081526068602052604090205490565b604051908152602001610142565b61020c6101b8366004611b75565b6001600160a01b039283166000908152606660209081526040808320815180840196909652815180870384018152958201825285519583019590952083529381528382209290941681529252902054421090565b6040519015158152602001610142565b61015e61022a3660046119bf565b61067d565b61015e610763565b61015e610777565b61012e61024d36600461199d565b610897565b6033546001600160a01b031661012e565b61015e610271366004611c98565b6108c7565b61015e610284366004611afc565b6109a1565b61015e610297366004611d10565b610bb8565b61015e6102aa36600461199d565b610ca3565b61015e6102bd366004611c20565b610d30565b61019c6102d036600461199d565b60676020526000908152604090205481565b60408051606089901b6bffffffffffffffffffffffff1916602082015281516014818303018152603490910190915260005b868110156103b6578188888381811061032f5761032f61213d565b9050606002016000013589898481811061034b5761034b61213d565b9050606002016020016020810190610363919061199d565b8a8a858181106103755761037561213d565b905060600201604001356040516020016103929493929190611eb6565b604051602081830303815290604052915080806103ae906120f6565b915050610314565b5060005b848110156104ae57818686838181106103d5576103d561213d565b90506020028101906103e7919061207c565b358787848181106103fa576103fa61213d565b905060200281019061040c919061207c565b61041a906020810190612035565b89898681811061042c5761042c61213d565b905060200281019061043e919061207c565b604001358a8a878181106104545761045461213d565b9050602002810190610466919061207c565b610474906060810190612035565b60405160200161048a9796959493929190611f29565b604051602081830303815290604052915080806104a6906120f6565b9150506103ba565b506001600160a01b0388166000908152606860209081526040918290205491516104dc928492909101611f6e565b60405160208183030381529060405290506105018184846104fc8c610897565b610e2f565b6105465760405162461bcd60e51b8152602060048201526011602482015270496e76616c6964205369676e617475726560781b60448201526064015b60405180910390fd5b6001600160a01b038816600090815260686020526040812080549161056a836120f6565b91905055505061057d8787878787610e72565b50505050505050565b6001600160a01b038516600090815260686020818152604080842054815160608b811b6bffffffffffffffffffffffff1990811695830195909552603482018b905289901b9093166054840152828401528051808303909301835260889091019052906105f287610897565b905061060082858584610e2f565b6106405760405162461bcd60e51b8152602060048201526011602482015270496e76616c6964205369676e617475726560781b604482015260640161053d565b6001600160a01b0387166000908152606860205260408120805491610664836120f6565b91905055505050610676858585610fd2565b5050505050565b6001600160a01b03841660009081526068602081815260408084205490516bffffffffffffffffffffffff1960608a811b8216948301949094529288901b909216603483015260488201520160405160208183030381529060405290506106e98184846104fc89610897565b6107295760405162461bcd60e51b8152602060048201526011602482015270496e76616c6964205369676e617475726560781b604482015260640161053d565b6001600160a01b038516600090815260686020526040812080549161074d836120f6565b91905055505061075d848461109d565b50505050565b61076b611136565b6107756000611190565b565b600054610100900460ff16158080156107975750600054600160ff909116105b806107b15750303b1580156107b1575060005460ff166001145b6108235760405162461bcd60e51b815260206004820152602e60248201527f496e697469616c697a61626c653a20636f6e747261637420697320616c72656160448201527f647920696e697469616c697a6564000000000000000000000000000000000000606482015260840161053d565b6000805460ff191660011790558015610846576000805461ff0019166101001790555b61084e6111ef565b8015610894576000805461ff0019169055604051600181527f7f26b83ff96e1f2b6a682f133852f6798a09c465da95921460cefb38474024989060200160405180910390a15b50565b6001600160a01b0380821660009081526065602052604081205490911680156108c05792915050565b5090919050565b6001600160a01b03861660009081526068602090815260408083205490516108f8928a928a928a928a929101611df9565b6040516020818303038152906040529050600061091488610897565b905061092282858584610e2f565b6109625760405162461bcd60e51b8152602060048201526011602482015270496e76616c6964205369676e617475726560781b604482015260640161053d565b6001600160a01b0388166000908152606860205260408120805491610986836120f6565b9190505550505061099986868686611262565b505050505050565b60408051606089901b6bffffffffffffffffffffffff1916602082015281516014818303018152603490910190915260005b86811015610a5857818888838181106109ee576109ee61213d565b90506040020160000135898984818110610a0a57610a0a61213d565b9050604002016020016020810190610a22919061199d565b604051602001610a3493929190611e7d565b60405160208183030381529060405291508080610a50906120f6565b9150506109d3565b5060005b84811015610af35781868683818110610a7757610a7761213d565b9050602002810190610a89919061209c565b35878784818110610a9c57610a9c61213d565b9050602002810190610aae919061209c565b610abc906020810190612035565b604051602001610acf9493929190611ef7565b60405160208183030381529060405291508080610aeb906120f6565b915050610a5c565b506001600160a01b038816600090815260686020908152604091829020549151610b21928492909101611f6e565b6040516020818303038152906040529050610b418184846104fc8c610897565b610b815760405162461bcd60e51b8152602060048201526011602482015270496e76616c6964205369676e617475726560781b604482015260640161053d565b6001600160a01b0388166000908152606860205260408120805491610ba5836120f6565b91905055505061057d87878787876112e5565b6001600160a01b0389166000908152606860209081526040808320549051909291610bf3918d918d918d918d918d918d918d918b9101611e2d565b60405160208183030381529060405290506000610c0f8c610897565b9050610c1d82868684610e2f565b610c5d5760405162461bcd60e51b8152602060048201526011602482015270496e76616c6964205369676e617475726560781b604482015260640161053d565b6001600160a01b038c166000908152606860205260408120805491610c81836120f6565b9190505550505050610c98898989898989896113cf565b505050505050505050565b610cab611136565b6001600160a01b038116610d275760405162461bcd60e51b815260206004820152602660248201527f4f776e61626c653a206e6577206f776e657220697320746865207a65726f206160448201527f6464726573730000000000000000000000000000000000000000000000000000606482015260840161053d565b61089481611190565b6001600160a01b03861660009081526068602081815260408084205490516bffffffffffffffffffffffff1960608c811b821694830194909452603482018b90529289901b9092166054830152918101869052608881019190915260a80160405160208183030381529060405290506000610daa88610897565b9050610db882858584610e2f565b610df85760405162461bcd60e51b8152602060048201526011602482015270496e76616c6964205369676e617475726560781b604482015260640161053d565b6001600160a01b0388166000908152606860205260408120805491610e1c836120f6565b919050555050506109998686868661145a565b600080610e3d86868661151e565b9050826001600160a01b0316816001600160a01b0316148015610e6857506001600160a01b03811615155b9695505050505050565b60005b83811015610efa57610ee886868684818110610e9357610e9361213d565b90506060020160000135878785818110610eaf57610eaf61213d565b9050606002016020016020810190610ec7919061199d565b888886818110610ed957610ed961213d565b9050606002016040013561145a565b80610ef2816120f6565b915050610e75565b5060005b8181101561099957610fc086848484818110610f1c57610f1c61213d565b9050602002810190610f2e919061207c565b35858585818110610f4157610f4161213d565b9050602002810190610f53919061207c565b610f61906020810190612035565b878787818110610f7357610f7361213d565b9050602002810190610f85919061207c565b60400135888888818110610f9b57610f9b61213d565b9050602002810190610fad919061207c565b610fbb906060810190612035565b6113cf565b80610fca816120f6565b915050610efe565b6001600160a01b03838116600081815260666020908152604080832081518084018990528251808203850181528184018085528151918601919091208652918452828520968816808652968452828520429081905586865260679094529382902054908890526060840195909552608083019190915260a0820193909352915190917f5a5084339536bcab65f20799fcc58724588145ca054bd2be626174b27ba156f7919081900360c00190a250506001600160a01b03166000908152606760205260409020439055565b6001600160a01b038281166000818152606560209081526040808320805473ffffffffffffffffffffffffffffffffffffffff1916958716958617905560678252918290205482519485529084015290917f38a5a6e68f30ed1ab45860a4afb34bcb2fc00f22ca462d249b8a8d40cda6f7a3910160405180910390a2506001600160a01b03166000908152606760205260409020439055565b6033546001600160a01b031633146107755760405162461bcd60e51b815260206004820181905260248201527f4f776e61626c653a2063616c6c6572206973206e6f7420746865206f776e6572604482015260640161053d565b603380546001600160a01b0383811673ffffffffffffffffffffffffffffffffffffffff19831681179093556040519116919082907f8be0079c531659141344cd1fd0a4f28419497f9722a3daafe3b4186f6b6457e090600090a35050565b600054610100900460ff1661125a5760405162461bcd60e51b815260206004820152602b60248201527f496e697469616c697a61626c653a20636f6e7472616374206973206e6f74206960448201526a6e697469616c697a696e6760a81b606482015260840161053d565b610775611574565b60408051600080825260208083018085526001600160a01b03891680845260679092529382205490937fc0493088d34702f806f5d095609b43ae7363b986c4d3862a355860a80b2f6a9f936112be938993899389939190611f90565b60405180910390a25050506001600160a01b03166000908152606760205260409020439055565b60005b838110156113515761133f868686848181106113065761130661213d565b905060400201600001358787858181106113225761132261213d565b905060400201602001602081019061133a919061199d565b610fd2565b80611349816120f6565b9150506112e8565b5060005b81811015610999576113bd868484848181106113735761137361213d565b9050602002810190611385919061209c565b358585858181106113985761139861213d565b90506020028101906113aa919061209c565b6113b8906020810190612035565b611262565b806113c7816120f6565b915050611355565b6001600160a01b038716600081815260676020526040902054907fc0493088d34702f806f5d095609b43ae7363b986c4d3862a355860a80b2f6a9f88888861141789426120b2565b88888860405161142d9796959493929190611fed565b60405180910390a25050506001600160a01b03909416600090815260676020526040902043905550505050565b61146481426120b2565b6001600160a01b03858116600081815260666020908152604080832081518084018b9052825180820385018152908301835280519084012084528252808320948816835293905291909120919091557f5a5084339536bcab65f20799fcc58724588145ca054bd2be626174b27ba156f784846114e085426120b2565b6001600160a01b03898116600090815260676020908152604091829020548251968752949092169185019190915283015260608201526080016112be565b6000808480519060200120905061156b8185858080601f0160208091040260200160405190810160405280939291908181526020018383808284376000920191909152506115e892505050565b95945050505050565b600054610100900460ff166115df5760405162461bcd60e51b815260206004820152602b60248201527f496e697469616c697a61626c653a20636f6e7472616374206973206e6f74206960448201526a6e697469616c697a696e6760a81b606482015260840161053d565b61077533611190565b60008060006115f7858561160c565b9150915061160481611652565b509392505050565b6000808251604114156116435760208301516040840151606085015160001a6116378782858561180d565b9450945050505061164b565b506000905060025b9250929050565b600081600481111561166657611666612127565b141561166f5750565b600181600481111561168357611683612127565b14156116d15760405162461bcd60e51b815260206004820152601860248201527f45434453413a20696e76616c6964207369676e61747572650000000000000000604482015260640161053d565b60028160048111156116e5576116e5612127565b14156117335760405162461bcd60e51b815260206004820152601f60248201527f45434453413a20696e76616c6964207369676e6174757265206c656e67746800604482015260640161053d565b600381600481111561174757611747612127565b14156117a05760405162461bcd60e51b815260206004820152602260248201527f45434453413a20696e76616c6964207369676e6174757265202773272076616c604482015261756560f01b606482015260840161053d565b60048160048111156117b4576117b4612127565b14156108945760405162461bcd60e51b815260206004820152602260248201527f45434453413a20696e76616c6964207369676e6174757265202776272076616c604482015261756560f01b606482015260840161053d565b6000807f7fffffffffffffffffffffffffffffff5d576e7357a4501ddfe92f46681b20a083111561184457506000905060036118f1565b8460ff16601b1415801561185c57508460ff16601c14155b1561186d57506000905060046118f1565b6040805160008082526020820180845289905260ff881692820192909252606081018690526080810185905260019060a0016020604051602081039080840390855afa1580156118c1573d6000803e3d6000fd5b5050604051601f1901519150506001600160a01b0381166118ea576000600192509250506118f1565b9150600090505b94509492505050565b80356001600160a01b038116811461191157600080fd5b919050565b60008083601f84011261192857600080fd5b50813567ffffffffffffffff81111561194057600080fd5b6020830191508360208260051b850101111561164b57600080fd5b60008083601f84011261196d57600080fd5b50813567ffffffffffffffff81111561198557600080fd5b60208301915083602082850101111561164b57600080fd5b6000602082840312156119af57600080fd5b6119b8826118fa565b9392505050565b600080600080606085870312156119d557600080fd5b6119de856118fa565b93506119ec602086016118fa565b9250604085013567ffffffffffffffff811115611a0857600080fd5b611a148782880161195b565b95989497509550505050565b60008060008060008060006080888a031215611a3b57600080fd5b611a44886118fa565b9650602088013567ffffffffffffffff80821115611a6157600080fd5b818a0191508a601f830112611a7557600080fd5b813581811115611a8457600080fd5b8b6020606083028501011115611a9957600080fd5b6020830198508097505060408a0135915080821115611ab757600080fd5b611ac38b838c01611916565b909650945060608a0135915080821115611adc57600080fd5b50611ae98a828b0161195b565b989b979a50959850939692959293505050565b60008060008060008060006080888a031215611b1757600080fd5b611b20886118fa565b9650602088013567ffffffffffffffff80821115611b3d57600080fd5b818a0191508a601f830112611b5157600080fd5b813581811115611b6057600080fd5b8b60208260061b8501011115611a9957600080fd5b600080600060608486031215611b8a57600080fd5b611b93846118fa565b925060208401359150611ba8604085016118fa565b90509250925092565b600080600080600060808688031215611bc957600080fd5b611bd2866118fa565b945060208601359350611be7604087016118fa565b9250606086013567ffffffffffffffff811115611c0357600080fd5b611c0f8882890161195b565b969995985093965092949392505050565b60008060008060008060a08789031215611c3957600080fd5b611c42876118fa565b955060208701359450611c57604088016118fa565b935060608701359250608087013567ffffffffffffffff811115611c7a57600080fd5b611c8689828a0161195b565b979a9699509497509295939492505050565b60008060008060008060808789031215611cb157600080fd5b611cba876118fa565b955060208701359450604087013567ffffffffffffffff80821115611cde57600080fd5b611cea8a838b0161195b565b90965094506060890135915080821115611d0357600080fd5b50611c8689828a0161195b565b600080600080600080600080600060c08a8c031215611d2e57600080fd5b611d378a6118fa565b985060208a0135975060408a013567ffffffffffffffff80821115611d5b57600080fd5b611d678d838e0161195b565b909950975060608c0135965060808c0135915080821115611d8757600080fd5b611d938d838e0161195b565b909650945060a08c0135915080821115611dac57600080fd5b50611db98c828d0161195b565b915080935050809150509295985092959850929598565b81835281816020850137506000828201602090810191909152601f909101601f19169091010190565b6bffffffffffffffffffffffff198660601b1681528460148201528284603483013760349201918201526054019392505050565b6bffffffffffffffffffffffff198960601b168152876014820152858760348301378581016034810186905260009084866054830137605494019384019290925250506074019695505050505050565b60008451611e8f8184602089016120ca565b919091019283525060601b6bffffffffffffffffffffffff19166020820152603401919050565b60008551611ec8818460208a016120ca565b919091019384525060609190911b6bffffffffffffffffffffffff191660208301526034820152605401919050565b60008551611f09818460208a016120ca565b820185815283856020830137600093016020019283525090949350505050565b60008851611f3b818460208d016120ca565b82018881528688602083013786016020810186905283856040830137600093016040019283525090979650505050505050565b60008351611f808184602088016120ca565b9190910191825250602001919050565b86815260a060208201526000611faa60a083018789611dd0565b85604084015282810360608401528451808252611fce8160208401602089016120ca565b6080939093019390935250601f01601f19160160200195945050505050565b87815260a06020820152600061200760a08301888a611dd0565b8660408401528281036060840152612020818688611dd0565b91505082608083015298975050505050505050565b6000808335601e1984360301811261204c57600080fd5b83018035915067ffffffffffffffff82111561206757600080fd5b60200191503681900382131561164b57600080fd5b60008235607e1983360301811261209257600080fd5b9190910192915050565b60008235603e1983360301811261209257600080fd5b600082198211156120c5576120c5612111565b500190565b60005b838110156120e55781810151838201526020016120cd565b8381111561075d5750506000910152565b600060001982141561210a5761210a612111565b5060010190565b634e487b7160e01b600052601160045260246000fd5b634e487b7160e01b600052602160045260246000fd5b634e487b7160e01b600052603260045260246000fdfea2646970667358221220e88022543dcc8af1e0f649f2cb060ab5a1e9075b2149403e50e6bbaff523843064736f6c63430008070033",
  "linkReferences": {},
  "deployedLinkReferences": {}
}