{
  "_format": "hh-sol-artifact-1",
  "contractName": "VDARewardContract",
  "sourceName": "contracts/VDARewardContract.sol",
  "abi": [
    {
      "inputs": [],
      "name": "DuplicatedRequest",
      "type": "error"
    },
    {
      "inputs": [],
      "name": "InsufficientTokenAmount",
      "type": "error"
    },
    {
      "inputs": [],
      "name": "InvalidId",
      "type": "error"
    },
    {
      "inputs": [],
      "name": "InvalidRewardAmount",
      "type": "error"
    },
    {
      "inputs": [],
      "name": "InvalidSchema",
      "type": "error"
    },
    {
      "inputs": [],
      "name": "InvalidSignature",
      "type": "error"
    },
    {
      "inputs": [],
      "name": "NoSigners",
      "type": "error"
    },
    {
      "inputs": [],
      "name": "RegisteredSigner",
      "type": "error"
    },
    {
      "inputs": [],
      "name": "UnregisteredSigner",
      "type": "error"
    },
    {
      "anonymous": false,
      "inputs": [
        {
          "indexed": false,
          "internalType": "string",
          "name": "typeId",
          "type": "string"
        },
        {
          "indexed": false,
          "internalType": "uint256",
          "name": "rewardAmount",
          "type": "uint256"
        },
        {
          "indexed": false,
          "internalType": "string",
          "name": "schema",
          "type": "string"
        }
      ],
      "name": "AddClaimType",
      "type": "event"
    },
    {
      "anonymous": false,
      "inputs": [
        {
          "indexed": false,
          "internalType": "address",
          "name": "signerAddress",
          "type": "address"
        }
      ],
      "name": "AddTrustedSigner",
      "type": "event"
    },
    {
      "anonymous": false,
      "inputs": [
        {
          "indexed": false,
          "internalType": "string",
          "name": "typeId",
          "type": "string"
        },
        {
          "indexed": false,
          "internalType": "string",
          "name": "hash",
          "type": "string"
        },
        {
          "indexed": false,
          "internalType": "address",
          "name": "to",
          "type": "address"
        }
      ],
      "name": "Claim",
      "type": "event"
    },
    {
      "anonymous": false,
      "inputs": [
        {
          "indexed": false,
          "internalType": "uint8",
          "name": "version",
          "type": "uint8"
        }
      ],
      "name": "Initialized",
      "type": "event"
    },
    {
      "anonymous": false,
      "inputs": [
        {
          "indexed": true,
          "internalType": "address",
          "name": "previousOwner",
          "type": "address"
        },
        {
          "indexed": true,
          "internalType": "address",
          "name": "newOwner",
          "type": "address"
        }
      ],
      "name": "OwnershipTransferred",
      "type": "event"
    },
    {
      "anonymous": false,
      "inputs": [
        {
          "indexed": false,
          "internalType": "string",
          "name": "typeId",
          "type": "string"
        }
      ],
      "name": "RemoveClaimType",
      "type": "event"
    },
    {
      "anonymous": false,
      "inputs": [
        {
          "indexed": false,
          "internalType": "address",
          "name": "signerAddress",
          "type": "address"
        }
      ],
      "name": "RemoveTrustedSigner",
      "type": "event"
    },
    {
      "anonymous": false,
      "inputs": [
        {
          "indexed": false,
          "internalType": "string",
          "name": "typeId",
          "type": "string"
        },
        {
          "indexed": false,
          "internalType": "uint256",
          "name": "amount",
          "type": "uint256"
        }
      ],
      "name": "UpdateClaimTypeReward",
      "type": "event"
    },
    {
      "inputs": [
        {
          "internalType": "contract IERC20Upgradeable",
          "name": "token",
          "type": "address"
        }
      ],
      "name": "__VDARewardContract_init",
      "outputs": [],
      "stateMutability": "nonpayable",
      "type": "function"
    },
    {
      "inputs": [
        {
          "internalType": "string",
          "name": "typeId",
          "type": "string"
        },
        {
          "internalType": "uint256",
          "name": "rewardAmount",
          "type": "uint256"
        },
        {
          "internalType": "string",
          "name": "schema",
          "type": "string"
        }
      ],
      "name": "addClaimType",
      "outputs": [],
      "stateMutability": "payable",
      "type": "function"
    },
    {
      "inputs": [
        {
          "internalType": "address",
          "name": "didAddress",
          "type": "address"
        }
      ],
      "name": "addTrustedSigner",
      "outputs": [],
      "stateMutability": "payable",
      "type": "function"
    },
    {
      "inputs": [
        {
          "internalType": "string",
          "name": "typeId",
          "type": "string"
        },
        {
          "internalType": "string",
          "name": "hash",
          "type": "string"
        },
        {
          "internalType": "address",
          "name": "to",
          "type": "address"
        },
        {
          "internalType": "bytes",
          "name": "signature",
          "type": "bytes"
        },
        {
          "internalType": "bytes",
          "name": "proof",
          "type": "bytes"
        }
      ],
      "name": "claim",
      "outputs": [],
      "stateMutability": "nonpayable",
      "type": "function"
    },
    {
      "inputs": [
        {
          "internalType": "string",
          "name": "typeId",
          "type": "string"
        }
      ],
      "name": "getClaimType",
      "outputs": [
        {
          "internalType": "uint256",
          "name": "reward",
          "type": "uint256"
        },
        {
          "internalType": "string",
          "name": "schema",
          "type": "string"
        }
      ],
      "stateMutability": "view",
      "type": "function"
    },
    {
      "inputs": [
        {
          "internalType": "address",
          "name": "did",
          "type": "address"
        }
      ],
      "name": "nonce",
      "outputs": [
        {
          "internalType": "uint256",
          "name": "",
          "type": "uint256"
        }
      ],
      "stateMutability": "view",
      "type": "function"
    },
    {
      "inputs": [],
      "name": "owner",
      "outputs": [
        {
          "internalType": "address",
          "name": "",
          "type": "address"
        }
      ],
      "stateMutability": "view",
      "type": "function"
    },
    {
      "inputs": [
        {
          "internalType": "string",
          "name": "typeId",
          "type": "string"
        }
      ],
      "name": "removeClaimType",
      "outputs": [],
      "stateMutability": "payable",
      "type": "function"
    },
    {
      "inputs": [
        {
          "internalType": "address",
          "name": "didAddress",
          "type": "address"
        }
      ],
      "name": "removeTrustedSigner",
      "outputs": [],
      "stateMutability": "payable",
      "type": "function"
    },
    {
      "inputs": [],
      "name": "renounceOwnership",
      "outputs": [],
      "stateMutability": "nonpayable",
      "type": "function"
    },
    {
      "inputs": [
        {
          "internalType": "address",
          "name": "newOwner",
          "type": "address"
        }
      ],
      "name": "transferOwnership",
      "outputs": [],
      "stateMutability": "nonpayable",
      "type": "function"
    },
    {
      "inputs": [
        {
          "internalType": "string",
          "name": "typeId",
          "type": "string"
        },
        {
          "internalType": "uint256",
          "name": "amount",
          "type": "uint256"
        }
      ],
      "name": "updateClaimTypeReward",
      "outputs": [],
      "stateMutability": "payable",
      "type": "function"
    }
  ],
  "bytecode": "0x608060405234801561001057600080fd5b50611e41806100206000396000f3fe6080604052600436106100c75760003560e01c8063715018a611610074578063c17b8d0e1161004e578063c17b8d0e146101f2578063f2fde38b14610212578063f3170bc01461023257600080fd5b8063715018a6146101a25780637d66527b146101b75780638da5cb5b146101ca57600080fd5b806344b51e13116100a557806344b51e13146101075780636f11d39d1461012757806370ae92d21461015e57600080fd5b8063130d4f61146100cc5780632ea6207c146100e15780633fff987b146100f4575b600080fd5b6100df6100da366004611765565b610245565b005b6100df6100ef3660046117a7565b610324565b6100df610102366004611836565b610466565b34801561011357600080fd5b506100df610122366004611853565b6104fc565b34801561013357600080fd5b50610147610142366004611765565b61084b565b604051610155929190611952565b60405180910390f35b34801561016a57600080fd5b50610194610179366004611836565b6001600160a01b031660009081526065602052604090205490565b604051908152602001610155565b3480156101ae57600080fd5b506100df610976565b6100df6101c5366004611836565b61098a565b3480156101d657600080fd5b506033546040516001600160a01b039091168152602001610155565b3480156101fe57600080fd5b506100df61020d366004611836565b610a18565b34801561021e57600080fd5b506100df61022d366004611836565b610b66565b6100df61024036600461198c565b610bf6565b61024d610ceb565b81816000606983836040516102639291906119d8565b90815260405190819003602001902080549091501580610291575080600101805461028d906119e8565b1590505b156102af57604051631bf4348160e31b815260040160405180910390fd5b606985856040516102c19291906119d8565b90815260405190819003602001902060008082556102e260018301826116d5565b50507fbcca42dcb77e9cc619fbc879b2f09bc01112670ee1a46ac1fced60c94e3ca8218585604051610315929190611a4b565b60405180910390a15050505050565b61032c610ceb565b600084900361034e57604051631bf4348160e31b815260040160405180910390fd5b8260000361036f57604051633853986560e01b815260040160405180910390fd5b60008190036103aa576040517fbf37b20e00000000000000000000000000000000000000000000000000000000815260040160405180910390fd5b6000606986866040516103be9291906119d8565b90815260405190819003602001902080549091501515806103ee57508060010180546103e9906119e8565b151590505b1561040c57604051631bf4348160e31b815260040160405180910390fd5b8381556001810161041e838583611acc565b507f5197285dbe4c6df6263228c693c8c96c7fa89f099404e00c18a1a96e0ccdb9018686868686604051610456959493929190611b8d565b60405180910390a1505050505050565b61046e610ceb565b610479606682610d45565b156104b0576040517f9157934e00000000000000000000000000000000000000000000000000000000815260040160405180910390fd5b6104bb606682610d6c565b506040516001600160a01b03821681527f80190299b20df830d96214905f4fb155ea39546d3f78b119b347172ff38261d0906020015b60405180910390a150565b88886000606983836040516105129291906119d8565b90815260405190819003602001902080549091501580610540575080600101805461053c906119e8565b1590505b1561055e57604051631bf4348160e31b815260040160405180910390fd5b600060698d8d6040516105729291906119d8565b9081526020016040518091039020905060008b8b8360010160405160200161059c93929190611bc6565b6040516020818303038152906040529050606a816040516105bd9190611c72565b9081526040519081900360200190205460ff1615610607576040517f834d1c0f00000000000000000000000000000000000000000000000000000000815260040160405180910390fd5b61067b818a8a8080601f01602080910402602001604051908101604052809392919081815260200183838082843760009201919091525050604080516020601f8e018190048102820181019092528c815292508c91508b9081908401838280828437600092019190915250610d8192505050565b81546068546040517f70a082310000000000000000000000000000000000000000000000000000000081523060048201526001600160a01b03909116906370a0823190602401602060405180830381865afa1580156106de573d6000803e3d6000fd5b505050506040513d601f19601f820116820180604052508101906107029190611c8e565b101561073a576040517f2ec4804200000000000000000000000000000000000000000000000000000000815260040160405180910390fd5b6001606a8260405161074c9190611c72565b908152604051908190036020018120805492151560ff199093169290921790915560685483547fa9059cbb0000000000000000000000000000000000000000000000000000000083526001600160a01b038d811660048501526024840191909152169063a9059cbb906044016020604051808303816000875af11580156107d7573d6000803e3d6000fd5b505050506040513d601f19601f820116820180604052508101906107fb9190611ca7565b507fc3181bd561705a8d938180298d5400a91c9a028e46c475003137bbb517379a8a8e8e8e8e8e604051610833959493929190611cc9565b60405180910390a15050505050505050505050505050565b6000606083836000606983836040516108659291906119d8565b90815260405190819003602001902080549091501580610893575080600101805461088f906119e8565b1590505b156108b157604051631bf4348160e31b815260040160405180910390fd5b6000606988886040516108c59291906119d8565b90815260200160405180910390209050806000015495508060010180546108eb906119e8565b80601f0160208091040260200160405190810160405280929190818152602001828054610917906119e8565b80156109645780601f1061093957610100808354040283529160200191610964565b820191906000526020600020905b81548152906001019060200180831161094757829003601f168201915b50505050509450505050509250929050565b61097e610ceb565b6109886000610f04565b565b610992610ceb565b61099d606682610d45565b6109d3576040517faec5b96900000000000000000000000000000000000000000000000000000000815260040160405180910390fd5b6109de606682610f63565b506040516001600160a01b03821681527fb38312df208058ed8fa64da03e169855d33d1182710e488eecd49cc53254fc7f906020016104f1565b600054610100900460ff1615808015610a385750600054600160ff909116105b80610a525750303b158015610a52575060005460ff166001145b610ac95760405162461bcd60e51b815260206004820152602e60248201527f496e697469616c697a61626c653a20636f6e747261637420697320616c72656160448201527f647920696e697469616c697a656400000000000000000000000000000000000060648201526084015b60405180910390fd5b6000805460ff191660011790558015610aec576000805461ff0019166101001790555b610af4610f78565b6068805473ffffffffffffffffffffffffffffffffffffffff19166001600160a01b0384161790558015610b62576000805461ff0019169055604051600181527f7f26b83ff96e1f2b6a682f133852f6798a09c465da95921460cefb38474024989060200160405180910390a15b5050565b610b6e610ceb565b6001600160a01b038116610bea5760405162461bcd60e51b815260206004820152602660248201527f4f776e61626c653a206e6577206f776e657220697320746865207a65726f206160448201527f64647265737300000000000000000000000000000000000000000000000000006064820152608401610ac0565b610bf381610f04565b50565b610bfe610ceb565b8282600060698383604051610c149291906119d8565b90815260405190819003602001902080549091501580610c425750806001018054610c3e906119e8565b1590505b15610c6057604051631bf4348160e31b815260040160405180910390fd5b83600003610c8157604051633853986560e01b815260040160405180910390fd5b600060698787604051610c959291906119d8565b90815260405190819003602001812086815591507f49ffd8900b29c71d671f17886dfe4edd1cb16a1deabcb2983180372a57dfcd9d90610cda90899089908990611d0c565b60405180910390a150505050505050565b6033546001600160a01b031633146109885760405162461bcd60e51b815260206004820181905260248201527f4f776e61626c653a2063616c6c6572206973206e6f7420746865206f776e65726044820152606401610ac0565b6001600160a01b038116600090815260018301602052604081205415155b90505b92915050565b6000610d63836001600160a01b038416610feb565b610d8b606661103a565b600003610dc4576040517fc7af40f000000000000000000000000000000000000000000000000000000000815260040160405180910390fd5b82511580610dd157508151155b80610ddb57508051155b15610df957604051638baa579f60e01b815260040160405180910390fd5b825160208401206000610e0c8285611044565b90506000610e22826001600160a01b0316611068565b90506000805b610e32606661103a565b81108015610e3e575081155b15610edc576000610e5060668361107f565b90506000610e66826001600160a01b0316611068565b905060008186604051602001610e7d929190611d30565b60408051601f19818403018152919052805160208201209091506000610ea3828c611044565b9050846001600160a01b0316816001600160a01b031603610ecc57600196505050505050610edc565b8560010195505050505050610e28565b81610efa57604051638baa579f60e01b815260040160405180910390fd5b5050505050505050565b603380546001600160a01b0383811673ffffffffffffffffffffffffffffffffffffffff19831681179093556040519116919082907f8be0079c531659141344cd1fd0a4f28419497f9722a3daafe3b4186f6b6457e090600090a35050565b6000610d63836001600160a01b03841661108b565b600054610100900460ff16610fe35760405162461bcd60e51b815260206004820152602b60248201527f496e697469616c697a61626c653a20636f6e7472616374206973206e6f74206960448201526a6e697469616c697a696e6760a81b6064820152608401610ac0565b61098861117e565b600081815260018301602052604081205461103257508154600181810184556000848152602080822090930184905584548482528286019093526040902091909155610d66565b506000610d66565b6000610d66825490565b600080600061105385856111f2565b9150915061106081611237565b509392505050565b6060610d66826110778461139c565b600101611406565b6000610d6383836115e7565b600081815260018301602052604081205480156111745760006110af600183611d75565b85549091506000906110c390600190611d75565b90508181146111285760008660000182815481106110e3576110e3611d88565b906000526020600020015490508087600001848154811061110657611106611d88565b6000918252602080832090910192909255918252600188019052604090208390555b855486908061113957611139611d9e565b600190038181906000526020600020016000905590558560010160008681526020019081526020016000206000905560019350505050610d66565b6000915050610d66565b600054610100900460ff166111e95760405162461bcd60e51b815260206004820152602b60248201527f496e697469616c697a61626c653a20636f6e7472616374206973206e6f74206960448201526a6e697469616c697a696e6760a81b6064820152608401610ac0565b61098833610f04565b60008082516041036112285760208301516040840151606085015160001a61121c87828585611611565b94509450505050611230565b506000905060025b9250929050565b600081600481111561124b5761124b611db4565b036112535750565b600181600481111561126757611267611db4565b036112b45760405162461bcd60e51b815260206004820152601860248201527f45434453413a20696e76616c6964207369676e617475726500000000000000006044820152606401610ac0565b60028160048111156112c8576112c8611db4565b036113155760405162461bcd60e51b815260206004820152601f60248201527f45434453413a20696e76616c6964207369676e6174757265206c656e677468006044820152606401610ac0565b600381600481111561132957611329611db4565b03610bf35760405162461bcd60e51b815260206004820152602260248201527f45434453413a20696e76616c6964207369676e6174757265202773272076616c60448201527f75650000000000000000000000000000000000000000000000000000000000006064820152608401610ac0565b600080608083901c156113b45760809290921c916010015b604083901c156113c95760409290921c916008015b602083901c156113de5760209290921c916004015b601083901c156113f35760109290921c916002015b600883901c15610d665760010192915050565b60606000611415836002611dca565b611420906002611de1565b67ffffffffffffffff81111561143857611438611a67565b6040519080825280601f01601f191660200182016040528015611462576020820181803683370190505b5090507f30000000000000000000000000000000000000000000000000000000000000008160008151811061149957611499611d88565b60200101906001600160f81b031916908160001a9053507f7800000000000000000000000000000000000000000000000000000000000000816001815181106114e4576114e4611d88565b60200101906001600160f81b031916908160001a9053506000611508846002611dca565b611513906001611de1565b90505b6001811115611598577f303132333435363738396162636465660000000000000000000000000000000085600f166010811061155457611554611d88565b1a60f81b82828151811061156a5761156a611d88565b60200101906001600160f81b031916908160001a90535060049490941c9361159181611df4565b9050611516565b508315610d635760405162461bcd60e51b815260206004820181905260248201527f537472696e67733a20686578206c656e67746820696e73756666696369656e746044820152606401610ac0565b60008260000182815481106115fe576115fe611d88565b9060005260206000200154905092915050565b6000807f7fffffffffffffffffffffffffffffff5d576e7357a4501ddfe92f46681b20a083111561164857506000905060036116cc565b6040805160008082526020820180845289905260ff881692820192909252606081018690526080810185905260019060a0016020604051602081039080840390855afa15801561169c573d6000803e3d6000fd5b5050604051601f1901519150506001600160a01b0381166116c5576000600192509250506116cc565b9150600090505b94509492505050565b5080546116e1906119e8565b6000825580601f106116f1575050565b601f016020900490600052602060002090810190610bf391905b8082111561171f576000815560010161170b565b5090565b60008083601f84011261173557600080fd5b50813567ffffffffffffffff81111561174d57600080fd5b60208301915083602082850101111561123057600080fd5b6000806020838503121561177857600080fd5b823567ffffffffffffffff81111561178f57600080fd5b61179b85828601611723565b90969095509350505050565b6000806000806000606086880312156117bf57600080fd5b853567ffffffffffffffff808211156117d757600080fd5b6117e389838a01611723565b909750955060208801359450604088013591508082111561180357600080fd5b5061181088828901611723565b969995985093965092949392505050565b6001600160a01b0381168114610bf357600080fd5b60006020828403121561184857600080fd5b8135610d6381611821565b600080600080600080600080600060a08a8c03121561187157600080fd5b893567ffffffffffffffff8082111561188957600080fd5b6118958d838e01611723565b909b50995060208c01359150808211156118ae57600080fd5b6118ba8d838e01611723565b909950975060408c013591506118cf82611821565b90955060608b013590808211156118e557600080fd5b6118f18d838e01611723565b909650945060808c013591508082111561190a57600080fd5b506119178c828d01611723565b915080935050809150509295985092959850929598565b60005b83811015611949578181015183820152602001611931565b50506000910152565b828152604060208201526000825180604084015261197781606085016020870161192e565b601f01601f1916919091016060019392505050565b6000806000604084860312156119a157600080fd5b833567ffffffffffffffff8111156119b857600080fd5b6119c486828701611723565b909790965060209590950135949350505050565b8183823760009101908152919050565b600181811c908216806119fc57607f821691505b602082108103611a1c57634e487b7160e01b600052602260045260246000fd5b50919050565b81835281816020850137506000828201602090810191909152601f909101601f19169091010190565b602081526000611a5f602083018486611a22565b949350505050565b634e487b7160e01b600052604160045260246000fd5b601f821115611ac757600081815260208120601f850160051c81016020861015611aa45750805b601f850160051c820191505b81811015611ac357828155600101611ab0565b5050505b505050565b67ffffffffffffffff831115611ae457611ae4611a67565b611af883611af283546119e8565b83611a7d565b6000601f841160018114611b2c5760008515611b145750838201355b600019600387901b1c1916600186901b178355611b86565b600083815260209020601f19861690835b82811015611b5d5786850135825560209485019460019092019101611b3d565b5086821015611b7a5760001960f88860031b161c19848701351681555b505060018560011b0183555b5050505050565b606081526000611ba1606083018789611a22565b8560208401528281036040840152611bba818587611a22565b98975050505050505050565b8284823760008382017f7c000000000000000000000000000000000000000000000000000000000000008152600160008554611c01816119e8565b8184168015611c175760018114611c3057611c63565b60ff198316868601528115158202860185019350611c63565b8860005260208060002060005b84811015611c58578154898201890152908701908201611c3d565b505050848287010193505b50919998505050505050505050565b60008251611c8481846020870161192e565b9190910192915050565b600060208284031215611ca057600080fd5b5051919050565b600060208284031215611cb957600080fd5b81518015158114610d6357600080fd5b606081526000611cdd606083018789611a22565b8281036020840152611cf0818688611a22565b9150506001600160a01b03831660408301529695505050505050565b604081526000611d20604083018587611a22565b9050826020830152949350505050565b60008351611d4281846020880161192e565b835190830190611d5681836020880161192e565b01949350505050565b634e487b7160e01b600052601160045260246000fd5b81810381811115610d6657610d66611d5f565b634e487b7160e01b600052603260045260246000fd5b634e487b7160e01b600052603160045260246000fd5b634e487b7160e01b600052602160045260246000fd5b8082028115828204841417610d6657610d66611d5f565b80820180821115610d6657610d66611d5f565b600081611e0357611e03611d5f565b50600019019056fea264697066735822122000f5f5ea60a728021eeef7d47f796cf31eaed593d8d760dceef182a3ac2d6e6864736f6c63430008120033",
  "linkReferences": {},
  "deployedLinkReferences": {}
}