{
  "_format": "hh-sol-artifact-1",
  "contractName": "SoulboundNFT",
  "sourceName": "contracts/SoulboundNFT.sol",
  "abi": [
    {
      "inputs": [],
      "stateMutability": "nonpayable",
      "type": "constructor"
    },
    {
      "inputs": [
        {
          "internalType": "bool",
          "name": "invalidSBTType",
          "type": "bool"
        },
        {
          "internalType": "bool",
          "name": "emptyUniqueId",
          "type": "bool"
        },
        {
          "internalType": "bool",
          "name": "emptyURI",
          "type": "bool"
        }
      ],
      "name": "InvalidSBTInfo",
      "type": "error"
    },
    {
      "inputs": [],
      "name": "InvalidSignature",
      "type": "error"
    },
    {
      "inputs": [],
      "name": "NoPermission",
      "type": "error"
    },
    {
      "inputs": [],
      "name": "NoSigners",
      "type": "error"
    },
    {
      "inputs": [],
      "name": "RegisteredSigner",
      "type": "error"
    },
    {
      "inputs": [],
      "name": "TransferBlocked",
      "type": "error"
    },
    {
      "inputs": [],
      "name": "UnregisteredSigner",
      "type": "error"
    },
    {
      "anonymous": false,
      "inputs": [
        {
          "indexed": false,
          "internalType": "address",
          "name": "signerAddress",
          "type": "address"
        }
      ],
      "name": "AddTrustedSigner",
      "type": "event"
    },
    {
      "anonymous": false,
      "inputs": [
        {
          "indexed": true,
          "internalType": "address",
          "name": "owner",
          "type": "address"
        },
        {
          "indexed": true,
          "internalType": "address",
          "name": "approved",
          "type": "address"
        },
        {
          "indexed": true,
          "internalType": "uint256",
          "name": "tokenId",
          "type": "uint256"
        }
      ],
      "name": "Approval",
      "type": "event"
    },
    {
      "anonymous": false,
      "inputs": [
        {
          "indexed": true,
          "internalType": "address",
          "name": "owner",
          "type": "address"
        },
        {
          "indexed": true,
          "internalType": "address",
          "name": "operator",
          "type": "address"
        },
        {
          "indexed": false,
          "internalType": "bool",
          "name": "approved",
          "type": "bool"
        }
      ],
      "name": "ApprovalForAll",
      "type": "event"
    },
    {
      "anonymous": false,
      "inputs": [
        {
          "indexed": false,
          "internalType": "uint8",
          "name": "version",
          "type": "uint8"
        }
      ],
      "name": "Initialized",
      "type": "event"
    },
    {
      "anonymous": false,
      "inputs": [
        {
          "indexed": false,
          "internalType": "uint256",
          "name": "tokenId",
          "type": "uint256"
        }
      ],
      "name": "Locked",
      "type": "event"
    },
    {
      "anonymous": false,
      "inputs": [
        {
          "indexed": true,
          "internalType": "address",
          "name": "previousOwner",
          "type": "address"
        },
        {
          "indexed": true,
          "internalType": "address",
          "name": "newOwner",
          "type": "address"
        }
      ],
      "name": "OwnershipTransferred",
      "type": "event"
    },
    {
      "anonymous": false,
      "inputs": [
        {
          "indexed": false,
          "internalType": "string",
          "name": "_value",
          "type": "string"
        },
        {
          "indexed": true,
          "internalType": "uint256",
          "name": "_id",
          "type": "uint256"
        }
      ],
      "name": "PermanentURI",
      "type": "event"
    },
    {
      "anonymous": false,
      "inputs": [
        {
          "indexed": false,
          "internalType": "address",
          "name": "signerAddress",
          "type": "address"
        }
      ],
      "name": "RemoveTrustedSigner",
      "type": "event"
    },
    {
      "anonymous": false,
      "inputs": [
        {
          "indexed": true,
          "internalType": "address",
          "name": "who",
          "type": "address"
        },
        {
          "indexed": false,
          "internalType": "uint256",
          "name": "tokenId",
          "type": "uint256"
        }
      ],
      "name": "SBTBurnt",
      "type": "event"
    },
    {
      "anonymous": false,
      "inputs": [
        {
          "indexed": true,
          "internalType": "address",
          "name": "to",
          "type": "address"
        },
        {
          "indexed": false,
          "internalType": "uint256",
          "name": "tokenId",
          "type": "uint256"
        },
        {
          "indexed": false,
          "internalType": "string",
          "name": "sbtType",
          "type": "string"
        }
      ],
      "name": "SBTClaimed",
      "type": "event"
    },
    {
      "anonymous": false,
      "inputs": [
        {
          "indexed": true,
          "internalType": "address",
          "name": "from",
          "type": "address"
        },
        {
          "indexed": true,
          "internalType": "address",
          "name": "to",
          "type": "address"
        },
        {
          "indexed": true,
          "internalType": "uint256",
          "name": "tokenId",
          "type": "uint256"
        }
      ],
      "name": "Transfer",
      "type": "event"
    },
    {
      "anonymous": false,
      "inputs": [
        {
          "indexed": false,
          "internalType": "uint256",
          "name": "tokenId",
          "type": "uint256"
        }
      ],
      "name": "Unlocked",
      "type": "event"
    },
    {
      "inputs": [
        {
          "internalType": "address",
          "name": "didAddress",
          "type": "address"
        }
      ],
      "name": "addTrustedSigner",
      "outputs": [],
      "stateMutability": "payable",
      "type": "function"
    },
    {
      "inputs": [
        {
          "internalType": "address",
          "name": "to",
          "type": "address"
        },
        {
          "internalType": "uint256",
          "name": "tokenId",
          "type": "uint256"
        }
      ],
      "name": "approve",
      "outputs": [],
      "stateMutability": "nonpayable",
      "type": "function"
    },
    {
      "inputs": [
        {
          "internalType": "address",
          "name": "owner",
          "type": "address"
        }
      ],
      "name": "balanceOf",
      "outputs": [
        {
          "internalType": "uint256",
          "name": "",
          "type": "uint256"
        }
      ],
      "stateMutability": "view",
      "type": "function"
    },
    {
      "inputs": [
        {
          "internalType": "uint256",
          "name": "tokenId",
          "type": "uint256"
        }
      ],
      "name": "burnSBT",
      "outputs": [],
      "stateMutability": "nonpayable",
      "type": "function"
    },
    {
      "inputs": [
        {
          "internalType": "address",
          "name": "did",
          "type": "address"
        },
        {
          "components": [
            {
              "internalType": "string",
              "name": "sbtType",
              "type": "string"
            },
            {
              "internalType": "string",
              "name": "uniqueId",
              "type": "string"
            },
            {
              "internalType": "string",
              "name": "sbtURI",
              "type": "string"
            },
            {
              "internalType": "address",
              "name": "recipient",
              "type": "address"
            },
            {
              "internalType": "bytes",
              "name": "signedData",
              "type": "bytes"
            },
            {
              "internalType": "bytes",
              "name": "signedProof",
              "type": "bytes"
            }
          ],
          "internalType": "struct ISoulboundNFT.SBTInfo",
          "name": "sbtInfo",
          "type": "tuple"
        },
        {
          "internalType": "bytes",
          "name": "requestSignature",
          "type": "bytes"
        },
        {
          "internalType": "bytes",
          "name": "requestProof",
          "type": "bytes"
        }
      ],
      "name": "claimSBT",
      "outputs": [
        {
          "internalType": "uint256",
          "name": "",
          "type": "uint256"
        }
      ],
      "stateMutability": "nonpayable",
      "type": "function"
    },
    {
      "inputs": [
        {
          "internalType": "uint256",
          "name": "tokenId",
          "type": "uint256"
        }
      ],
      "name": "getApproved",
      "outputs": [
        {
          "internalType": "address",
          "name": "",
          "type": "address"
        }
      ],
      "stateMutability": "view",
      "type": "function"
    },
    {
      "inputs": [
        {
          "internalType": "address",
          "name": "didAddress",
          "type": "address"
        }
      ],
      "name": "getClaimedSBTList",
      "outputs": [
        {
          "internalType": "uint256[]",
          "name": "",
          "type": "uint256[]"
        }
      ],
      "stateMutability": "view",
      "type": "function"
    },
    {
      "inputs": [],
      "name": "getTrustedSignerAddresses",
      "outputs": [
        {
          "internalType": "address[]",
          "name": "",
          "type": "address[]"
        }
      ],
      "stateMutability": "view",
      "type": "function"
    },
    {
      "inputs": [],
      "name": "initialize",
      "outputs": [],
      "stateMutability": "nonpayable",
      "type": "function"
    },
    {
      "inputs": [
        {
          "internalType": "address",
          "name": "owner",
          "type": "address"
        },
        {
          "internalType": "address",
          "name": "operator",
          "type": "address"
        }
      ],
      "name": "isApprovedForAll",
      "outputs": [
        {
          "internalType": "bool",
          "name": "",
          "type": "bool"
        }
      ],
      "stateMutability": "view",
      "type": "function"
    },
    {
      "inputs": [
        {
          "internalType": "address",
          "name": "claimer",
          "type": "address"
        },
        {
          "internalType": "string",
          "name": "sbtType",
          "type": "string"
        },
        {
          "internalType": "string",
          "name": "uniqueId",
          "type": "string"
        }
      ],
      "name": "isSBTClaimed",
      "outputs": [
        {
          "internalType": "bool",
          "name": "",
          "type": "bool"
        }
      ],
      "stateMutability": "view",
      "type": "function"
    },
    {
      "inputs": [
        {
          "internalType": "uint256",
          "name": "tokenId",
          "type": "uint256"
        }
      ],
      "name": "locked",
      "outputs": [
        {
          "internalType": "bool",
          "name": "result",
          "type": "bool"
        }
      ],
      "stateMutability": "view",
      "type": "function"
    },
    {
      "inputs": [],
      "name": "name",
      "outputs": [
        {
          "internalType": "string",
          "name": "",
          "type": "string"
        }
      ],
      "stateMutability": "view",
      "type": "function"
    },
    {
      "inputs": [
        {
          "internalType": "address",
          "name": "did",
          "type": "address"
        }
      ],
      "name": "nonce",
      "outputs": [
        {
          "internalType": "uint256",
          "name": "",
          "type": "uint256"
        }
      ],
      "stateMutability": "view",
      "type": "function"
    },
    {
      "inputs": [],
      "name": "owner",
      "outputs": [
        {
          "internalType": "address",
          "name": "",
          "type": "address"
        }
      ],
      "stateMutability": "view",
      "type": "function"
    },
    {
      "inputs": [
        {
          "internalType": "uint256",
          "name": "tokenId",
          "type": "uint256"
        }
      ],
      "name": "ownerOf",
      "outputs": [
        {
          "internalType": "address",
          "name": "",
          "type": "address"
        }
      ],
      "stateMutability": "view",
      "type": "function"
    },
    {
      "inputs": [
        {
          "internalType": "address",
          "name": "didAddress",
          "type": "address"
        }
      ],
      "name": "removeTrustedSigner",
      "outputs": [],
      "stateMutability": "payable",
      "type": "function"
    },
    {
      "inputs": [],
      "name": "renounceOwnership",
      "outputs": [],
      "stateMutability": "nonpayable",
      "type": "function"
    },
    {
      "inputs": [
        {
          "internalType": "address",
          "name": "from",
          "type": "address"
        },
        {
          "internalType": "address",
          "name": "to",
          "type": "address"
        },
        {
          "internalType": "uint256",
          "name": "tokenId",
          "type": "uint256"
        }
      ],
      "name": "safeTransferFrom",
      "outputs": [],
      "stateMutability": "nonpayable",
      "type": "function"
    },
    {
      "inputs": [
        {
          "internalType": "address",
          "name": "from",
          "type": "address"
        },
        {
          "internalType": "address",
          "name": "to",
          "type": "address"
        },
        {
          "internalType": "uint256",
          "name": "tokenId",
          "type": "uint256"
        },
        {
          "internalType": "bytes",
          "name": "data",
          "type": "bytes"
        }
      ],
      "name": "safeTransferFrom",
      "outputs": [],
      "stateMutability": "nonpayable",
      "type": "function"
    },
    {
      "inputs": [
        {
          "internalType": "address",
          "name": "operator",
          "type": "address"
        },
        {
          "internalType": "bool",
          "name": "approved",
          "type": "bool"
        }
      ],
      "name": "setApprovalForAll",
      "outputs": [],
      "stateMutability": "nonpayable",
      "type": "function"
    },
    {
      "inputs": [
        {
          "internalType": "bytes4",
          "name": "interfaceId",
          "type": "bytes4"
        }
      ],
      "name": "supportsInterface",
      "outputs": [
        {
          "internalType": "bool",
          "name": "",
          "type": "bool"
        }
      ],
      "stateMutability": "view",
      "type": "function"
    },
    {
      "inputs": [],
      "name": "symbol",
      "outputs": [
        {
          "internalType": "string",
          "name": "",
          "type": "string"
        }
      ],
      "stateMutability": "view",
      "type": "function"
    },
    {
      "inputs": [
        {
          "internalType": "uint256",
          "name": "tokenId",
          "type": "uint256"
        }
      ],
      "name": "tokenInfo",
      "outputs": [
        {
          "internalType": "string",
          "name": "",
          "type": "string"
        },
        {
          "internalType": "string",
          "name": "",
          "type": "string"
        }
      ],
      "stateMutability": "view",
      "type": "function"
    },
    {
      "inputs": [
        {
          "internalType": "uint256",
          "name": "tokenId",
          "type": "uint256"
        }
      ],
      "name": "tokenURI",
      "outputs": [
        {
          "internalType": "string",
          "name": "",
          "type": "string"
        }
      ],
      "stateMutability": "view",
      "type": "function"
    },
    {
      "inputs": [],
      "name": "totalSupply",
      "outputs": [
        {
          "internalType": "uint256",
          "name": "",
          "type": "uint256"
        }
      ],
      "stateMutability": "view",
      "type": "function"
    },
    {
      "inputs": [
        {
          "internalType": "address",
          "name": "from",
          "type": "address"
        },
        {
          "internalType": "address",
          "name": "to",
          "type": "address"
        },
        {
          "internalType": "uint256",
          "name": "tokenId",
          "type": "uint256"
        }
      ],
      "name": "transferFrom",
      "outputs": [],
      "stateMutability": "nonpayable",
      "type": "function"
    },
    {
      "inputs": [
        {
          "internalType": "address",
          "name": "newOwner",
          "type": "address"
        }
      ],
      "name": "transferOwnership",
      "outputs": [],
      "stateMutability": "nonpayable",
      "type": "function"
    }
  ],
  "bytecode": "0x60806040523480156200001157600080fd5b506200001c62000022565b620000e4565b600054610100900460ff16156200008f5760405162461bcd60e51b815260206004820152602760248201527f496e697469616c697a61626c653a20636f6e747261637420697320696e697469604482015266616c697a696e6760c81b606482015260840160405180910390fd5b60005460ff9081161015620000e2576000805460ff191660ff9081179091556040519081527f7f26b83ff96e1f2b6a682f133852f6798a09c465da95921460cefb38474024989060200160405180910390a15b565b6140eb80620000f46000396000f3fe6080604052600436106101b75760003560e01c80638129fc1c116100ec578063c87b56dd1161008a578063e985e9c511610064578063e985e9c5146104e4578063ee575d291461052d578063f2fde38b1461054f578063f76c5f821461056f57600080fd5b8063c87b56dd14610476578063cc33c87514610496578063d0590a6c146104c457600080fd5b8063a22cb465116100c6578063a22cb465146103e9578063ae48925714610409578063b45a3c0e14610436578063b88d4fde1461045657600080fd5b80638129fc1c146103a15780638da5cb5b146103b657806395d89b41146103d457600080fd5b806342842e0e1161015957806370ae92d21161013357806370ae92d214610323578063715018a6146103595780637584a7e51461036e5780637d66527b1461038e57600080fd5b806342842e0e146102c35780636352211e146102e357806370a082311461030357600080fd5b8063095ea7b311610195578063095ea7b31461024b57806318160ddd1461026d57806323b872dd146102905780633fff987b146102b057600080fd5b806301ffc9a7146101bc57806306fdde03146101f1578063081812fc14610213575b600080fd5b3480156101c857600080fd5b506101dc6101d736600461366d565b61058f565b60405190151581526020015b60405180910390f35b3480156101fd57600080fd5b5061020661062c565b6040516101e891906136da565b34801561021f57600080fd5b5061023361022e3660046136ed565b6106be565b6040516001600160a01b0390911681526020016101e8565b34801561025757600080fd5b5061026b610266366004613722565b6106e5565b005b34801561027957600080fd5b50610282610839565b6040519081526020016101e8565b34801561029c57600080fd5b5061026b6102ab36600461374c565b610849565b61026b6102be366004613788565b6108c0565b3480156102cf57600080fd5b5061026b6102de36600461374c565b610956565b3480156102ef57600080fd5b506102336102fe3660046136ed565b610971565b34801561030f57600080fd5b5061028261031e366004613788565b6109d6565b34801561032f57600080fd5b5061028261033e366004613788565b6001600160a01b031660009081526065602052604090205490565b34801561036557600080fd5b5061026b610a70565b34801561037a57600080fd5b506102826103893660046137e5565b610a84565b61026b61039c366004613788565b61103a565b3480156103ad57600080fd5b5061026b6110c8565b3480156103c257600080fd5b506033546001600160a01b0316610233565b3480156103e057600080fd5b50610206611258565b3480156103f557600080fd5b5061026b610404366004613892565b611267565b34801561041557600080fd5b50610429610424366004613788565b611276565b6040516101e891906138ce565b34801561044257600080fd5b506101dc6104513660046136ed565b611327565b34801561046257600080fd5b5061026b610471366004613928565b611349565b34801561048257600080fd5b506102066104913660046136ed565b6113c7565b3480156104a257600080fd5b506104b66104b13660046136ed565b6113d2565b6040516101e8929190613a04565b3480156104d057600080fd5b506101dc6104df366004613a32565b611514565b3480156104f057600080fd5b506101dc6104ff366004613ab3565b6001600160a01b039182166000908152609f6020908152604080832093909416825291909152205460ff1690565b34801561053957600080fd5b50610542611579565b6040516101e89190613ae6565b34801561055b57600080fd5b5061026b61056a366004613788565b61161f565b34801561057b57600080fd5b5061026b61058a3660046136ed565b6116ac565b60006001600160e01b031982167f80ac58cd0000000000000000000000000000000000000000000000000000000014806105f257506001600160e01b031982167f5b5e139f00000000000000000000000000000000000000000000000000000000145b8061062657507f01ffc9a7000000000000000000000000000000000000000000000000000000006001600160e01b03198316145b92915050565b6060609a805461063b90613b27565b80601f016020809104026020016040519081016040528092919081815260200182805461066790613b27565b80156106b45780601f10610689576101008083540402835291602001916106b4565b820191906000526020600020905b81548152906001019060200180831161069757829003601f168201915b5050505050905090565b60006106c98261180d565b506000908152609e60205260409020546001600160a01b031690565b60006106f082610971565b9050806001600160a01b0316836001600160a01b03160361077e5760405162461bcd60e51b815260206004820152602160248201527f4552433732313a20617070726f76616c20746f2063757272656e74206f776e6560448201527f720000000000000000000000000000000000000000000000000000000000000060648201526084015b60405180910390fd5b336001600160a01b03821614806107b857506001600160a01b0381166000908152609f6020908152604080832033845290915290205460ff165b61082a5760405162461bcd60e51b815260206004820152603d60248201527f4552433732313a20617070726f76652063616c6c6572206973206e6f7420746f60448201527f6b656e206f776e6572206f7220617070726f76656420666f7220616c6c0000006064820152608401610775565b6108348383611871565b505050565b600061084460fe5490565b905090565b61085333826118df565b6108b55760405162461bcd60e51b815260206004820152602d60248201527f4552433732313a2063616c6c6572206973206e6f7420746f6b656e206f776e6560448201526c1c881bdc88185c1c1c9bdd9959609a1b6064820152608401610775565b61083483838361195e565b6108c8611b6c565b6108d3606682611bc6565b1561090a576040517f9157934e00000000000000000000000000000000000000000000000000000000815260040160405180910390fd5b610915606682611beb565b506040516001600160a01b03821681527f80190299b20df830d96214905f4fb155ea39546d3f78b119b347172ff38261d0906020015b60405180910390a150565b61083483838360405180602001604052806000815250611349565b6000818152609c60205260408120546001600160a01b0316806106265760405162461bcd60e51b815260206004820152601860248201527f4552433732313a20696e76616c696420746f6b656e20494400000000000000006044820152606401610775565b60006001600160a01b038216610a545760405162461bcd60e51b815260206004820152602960248201527f4552433732313a2061646472657373207a65726f206973206e6f74206120766160448201527f6c6964206f776e657200000000000000000000000000000000000000000000006064820152608401610775565b506001600160a01b03166000908152609d602052604090205490565b610a78611b6c565b610a826000611c00565b565b6000610a98610a938780613b5b565b611c52565b610ac65760405163c64f4ccb60e01b8152600160048201526000602482018190526044820152606401610775565b610ad36020870187613b5b565b9050600003610b065760405163c64f4ccb60e01b8152600060048201819052600160248301526044820152606401610775565b610b136040870187613b5b565b9050600003610b465760405163c64f4ccb60e01b8152600060048201819052602482015260016044820152606401610775565b600087610b538880613b5b565b610b6060208b018b613b5b565b610b6d60408d018d613b5b565b8d6060016020810190610b809190613788565b604051602001610b97989796959493929190613ba2565b60408051601f19818403018152919052905080610bb76080890189613b5b565b610bc460a08b018b613b5b565b604051602001610bd8959493929190613c05565b60408051601f198184030181526020601f89018190048102840181019092528783529250610c59918a918491908a908a908190840183828082843760009201919091525050604080516020601f8c018190048102820181019092528a815292508a9150899081908401838280828437600092019190915250611dfc92505050565b6000610c6d896001600160a01b0316611ecb565b9050610c798880613b5b565b610c8660208b018b613b5b565b84604051602001610c9b959493929190613c3b565b60408051601f198184030181529190529150610d3a82610cbe60808b018b613b5b565b8080601f016020809104026020016040519081016040528093929190818152602001838380828437600092019190915250610d009250505060a08c018c613b5b565b8080601f016020809104026020016040519081016040528093929190818152602001838380828437600092019190915250611ee292505050565b5061010190506000610d526080890160608a01613788565b6001600160a01b031681526020810191909152604001600020610d758780613b5b565b604051610d83929190613c7e565b9081526020016040518091039020868060200190610da19190613b5b565b604051610daf929190613c7e565b908152602001604051809103902054600014610def5760405163c64f4ccb60e01b8152600160048201526000602482018190526044820152606401610775565b610dfd60fe80546001019055565b6000610e0860fe5490565b9050806101016000610e2060808b0160608c01613788565b6001600160a01b031681526020810191909152604001600020610e438980613b5b565b604051610e51929190613c7e565b9081526020016040518091039020888060200190610e6f9190613b5b565b604051610e7d929190613c7e565b90815260405190819003602001902055610e978780613b5b565b60008381526101026020526040902091610eb2919083613cdc565b50610ec06020880188613b5b565b60008381526101026020526040902060010191610ede919083613cdc565b50610f17816101036000610ef860808c0160608d01613788565b6001600160a01b0316815260208101919091526040016000209061204c565b50610f2a610f258880613b5b565b612058565b610f43610f3d6080890160608a01613788565b826120e2565b610f8e81610f5460408a018a613b5b565b8080601f0160208091040260200160405190810160405280939291908181526020018383808284376000920191909152506120fc92505050565b610f9e6080880160608901613788565b6001600160a01b03167fb383543c70ed44f2b690ec837b9f2cbb2b0e346d0eb00c5f470c424777013ed982610fd38a80613b5b565b604051610fe293929190613dc6565b60405180910390a2807fa109ba539900bf1b633f956d63c96fc89b814c7287f7aa50a9216d0b5565720761101960408a018a613b5b565b604051611027929190613de0565b60405180910390a2979650505050505050565b611042611b6c565b61104d606682611bc6565b611083576040517faec5b96900000000000000000000000000000000000000000000000000000000815260040160405180910390fd5b61108e60668261219e565b506040516001600160a01b03821681527fb38312df208058ed8fa64da03e169855d33d1182710e488eecd49cc53254fc7f9060200161094b565b600054610100900460ff16158080156110e85750600054600160ff909116105b806111025750303b158015611102575060005460ff166001145b6111745760405162461bcd60e51b815260206004820152602e60248201527f496e697469616c697a61626c653a20636f6e747261637420697320616c72656160448201527f647920696e697469616c697a65640000000000000000000000000000000000006064820152608401610775565b6000805460ff191660011790558015611197576000805461ff0019166101001790555b61120b6040518060400160405280600a81526020017f56657269646120534254000000000000000000000000000000000000000000008152506040518060400160405280600481526020017f56534254000000000000000000000000000000000000000000000000000000008152506121b3565b611213612228565b8015611255576000805461ff0019169055604051600181527f7f26b83ff96e1f2b6a682f133852f6798a09c465da95921460cefb38474024989060200161094b565b50565b6060609b805461063b90613b27565b6112723383836122a3565b5050565b60606000611283836109d6565b905060008167ffffffffffffffff8111156112a0576112a0613912565b6040519080825280602002602001820160405280156112c9578160200160208202803683370190505b50905060005b8281101561131f576001600160a01b0385166000908152610103602052604090206112fa9082612371565b82828151811061130c5761130c613df4565b60209081029190910101526001016112cf565b509392505050565b60008061133383610971565b9050600191508061134357600091505b50919050565b61135333836118df565b6113b55760405162461bcd60e51b815260206004820152602d60248201527f4552433732313a2063616c6c6572206973206e6f7420746f6b656e206f776e6560448201526c1c881bdc88185c1c1c9bdd9959609a1b6064820152608401610775565b6113c18484848461237d565b50505050565b6060610626826123fb565b6060806113de8361180d565b6000838152610102602052604090208054600182019082906113ff90613b27565b80601f016020809104026020016040519081016040528092919081815260200182805461142b90613b27565b80156114785780601f1061144d57610100808354040283529160200191611478565b820191906000526020600020905b81548152906001019060200180831161145b57829003601f168201915b5050505050915080805461148b90613b27565b80601f01602080910402602001604051908101604052809291908181526020018280546114b790613b27565b80156115045780601f106114d957610100808354040283529160200191611504565b820191906000526020600020905b8154815290600101906020018083116114e757829003601f168201915b5050505050905091509150915091565b6001600160a01b0385166000908152610101602052604080822090518291906115409088908890613c7e565b9081526020016040518091039020848460405161155e929190613c7e565b90815260200160405180910390205411905095945050505050565b606060006115876066612503565b905060008167ffffffffffffffff8111156115a4576115a4613912565b6040519080825280602002602001820160405280156115cd578160200160208202803683370190505b50905060005b82811015611618576115e6606682612371565b8282815181106115f8576115f8613df4565b6001600160a01b03909216602092830291909101909101526001016115d3565b5092915050565b611627611b6c565b6001600160a01b0381166116a35760405162461bcd60e51b815260206004820152602660248201527f4f776e61626c653a206e6577206f776e657220697320746865207a65726f206160448201527f64647265737300000000000000000000000000000000000000000000000000006064820152608401610775565b61125581611c00565b60006116b782610971565b9050336001600160a01b038216148015906116dd57506033546001600160a01b03163314155b15611714576040517f9d7b369d00000000000000000000000000000000000000000000000000000000815260040160405180910390fd5b6000828152610102602090815260408083206001600160a01b0385168452610103909252909120611745908461250d565b506001600160a01b0382166000908152610101602052604090819020905161176e908390613e0a565b90815260200160405180910390208160010160405161178d9190613e0a565b90815260408051602092819003830190206000908190558581526101029092528120906117ba8282613609565b6117c8600183016000613609565b50506117d383612519565b60405183815233907fc643619513d946ade440841d379d0a1e84cfdd3610c6e1b1bad092959cb2d4519060200160405180910390a2505050565b6000818152609c60205260409020546001600160a01b03166112555760405162461bcd60e51b815260206004820152601860248201527f4552433732313a20696e76616c696420746f6b656e20494400000000000000006044820152606401610775565b6000818152609e6020526040902080546001600160a01b0319166001600160a01b03841690811790915581906118a682610971565b6001600160a01b03167f8c5be1e5ebec7d5bd14f71427d1e84f3dd0314c0f7b2291e5b200ac8c7c3b92560405160405180910390a45050565b6000806118eb83610971565b9050806001600160a01b0316846001600160a01b0316148061193257506001600160a01b038082166000908152609f602090815260408083209388168352929052205460ff165b806119565750836001600160a01b031661194b846106be565b6001600160a01b0316145b949350505050565b826001600160a01b031661197182610971565b6001600160a01b0316146119d55760405162461bcd60e51b815260206004820152602560248201527f4552433732313a207472616e736665722066726f6d20696e636f72726563742060448201526437bbb732b960d91b6064820152608401610775565b6001600160a01b038216611a505760405162461bcd60e51b8152602060048201526024808201527f4552433732313a207472616e7366657220746f20746865207a65726f2061646460448201527f72657373000000000000000000000000000000000000000000000000000000006064820152608401610775565b611a5d8383836001612559565b826001600160a01b0316611a7082610971565b6001600160a01b031614611ad45760405162461bcd60e51b815260206004820152602560248201527f4552433732313a207472616e736665722066726f6d20696e636f72726563742060448201526437bbb732b960d91b6064820152608401610775565b6000818152609e6020908152604080832080546001600160a01b03199081169091556001600160a01b03878116808652609d8552838620805460001901905590871680865283862080546001019055868652609c90945282852080549092168417909155905184937fddf252ad1be2c89b69c2b068fc378daa952ba7f163c4a11628f55a4df523b3ef91a46108348383836001612595565b6033546001600160a01b03163314610a825760405162461bcd60e51b815260206004820181905260248201527f4f776e61626c653a2063616c6c6572206973206e6f7420746865206f776e65726044820152606401610775565b6001600160a01b038116600090815260018301602052604081205415155b9392505050565b6000611be4836001600160a01b0384166125f2565b603380546001600160a01b038381166001600160a01b0319831681179093556040519116919082907f8be0079c531659141344cd1fd0a4f28419497f9722a3daafe3b4186f6b6457e090600090a35050565b604080516020601f840181900481028201810190925282815260009183151591611c9a91869086908190840183828082843760009201919091525060ff939250506126419050565b158015611ca45750805b15611be457600084848080601f01602080910402602001604051908101604052809392919081815260200183838082843760009201829052509394505050505b815181108015611cf15750825b15611df357606160f81b828281518110611d0d57611d0d613df4565b01602001516001600160f81b03191610801590611d4e5750607a60f81b828281518110611d3c57611d3c613df4565b01602001516001600160f81b03191611155b158015611db05750603060f81b828281518110611d6d57611d6d613df4565b01602001516001600160f81b03191610801590611dae5750603960f81b828281518110611d9c57611d9c613df4565b01602001516001600160f81b03191611155b155b8015611de15750818181518110611dc957611dc9613df4565b6020910101516001600160f81b031916602d60f81b14155b15611deb57600092505b600101611ce4565b50509392505050565b6001600160a01b0384166000908152606560209081526040808320549051909291611e2b918791859101613e80565b60408051601f198184030181526001808452838301909252925060009190602080830190803683370190505090508681600081518110611e6d57611e6d613df4565b60200260200101906001600160a01b031690816001600160a01b031681525050611e998286868461266e565b6001600160a01b0387166000908152606560205260408120805491611ebd83613eb8565b919050555050505050505050565b606061062682611eda846127d8565b600101612842565b611eec6066612503565b600003611f0c57604051630c7af40f60e41b815260040160405180910390fd5b82511580611f1957508151155b80611f2357508051155b15611f4157604051638baa579f60e01b815260040160405180910390fd5b825160208401206000611f548285612a23565b90506000611f6a826001600160a01b0316611ecb565b90506000805b611f7a6066612503565b81108015611f86575081155b15612024576000611f98606683612371565b90506000611fae826001600160a01b0316611ecb565b905060008186604051602001611fc5929190613ed1565b60408051601f19818403018152919052805160208201209091506000611feb828c612a23565b9050846001600160a01b0316816001600160a01b03160361201457600196505050505050612024565b8560010195505050505050611f70565b8161204257604051638baa579f60e01b815260040160405180910390fd5b5050505050505050565b6000611be483836125f2565b61209b82828080601f01602080910402602001604051908101604052809392919081815260200183838082843760009201919091525060ff939250506126419050565b6112725761083482828080601f01602080910402602001604051908101604052809392919081815260200183838082843760009201919091525060ff93925050612a3f9050565b611272828260405180602001604052806000815250612a99565b6000828152609c60205260409020546001600160a01b03166121865760405162461bcd60e51b815260206004820152602e60248201527f45524337323155524953746f726167653a2055524920736574206f66206e6f6e60448201527f6578697374656e7420746f6b656e0000000000000000000000000000000000006064820152608401610775565b600082815260cc602052604090206108348282613f00565b6000611be4836001600160a01b038416612b17565b600054610100900460ff1661221e5760405162461bcd60e51b815260206004820152602b60248201527f496e697469616c697a61626c653a20636f6e7472616374206973206e6f74206960448201526a6e697469616c697a696e6760a81b6064820152608401610775565b6112728282612c0a565b600054610100900460ff166122935760405162461bcd60e51b815260206004820152602b60248201527f496e697469616c697a61626c653a20636f6e7472616374206973206e6f74206960448201526a6e697469616c697a696e6760a81b6064820152608401610775565b61229b612c8e565b610a82612d01565b816001600160a01b0316836001600160a01b0316036123045760405162461bcd60e51b815260206004820152601960248201527f4552433732313a20617070726f766520746f2063616c6c6572000000000000006044820152606401610775565b6001600160a01b038381166000818152609f6020908152604080832094871680845294825291829020805460ff191686151590811790915591519182527f17307eab39ab6107e8899845ad3d59bd9653f200f220920489ca2b5937696c31910160405180910390a3505050565b6000611be48383612d6c565b61238884848461195e565b61239484848484612d96565b6113c15760405162461bcd60e51b815260206004820152603260248201527f4552433732313a207472616e7366657220746f206e6f6e20455243373231526560448201527131b2b4bb32b91034b6b83632b6b2b73a32b960711b6064820152608401610775565b60606124068261180d565b600082815260cc60205260408120805461241f90613b27565b80601f016020809104026020016040519081016040528092919081815260200182805461244b90613b27565b80156124985780601f1061246d57610100808354040283529160200191612498565b820191906000526020600020905b81548152906001019060200180831161247b57829003601f168201915b5050505050905060006124b660408051602081019091526000815290565b905080516000036124c8575092915050565b8151156124fa5780826040516020016124e2929190613ed1565b60405160208183030381529060405292505050919050565b61195684612ee2565b6000610626825490565b6000611be48383612b17565b61252281612f55565b600081815260cc60205260409020805461253b90613b27565b15905061125557600081815260cc6020526040812061125591613609565b8315612590578215612590576040517ff90e674a000000000000000000000000000000000000000000000000000000008152600481fd5b6113c1565b7f032bc66be43dbccb7487781d168eb7bda224628a3b2c3388bdf69b532a3a16117ff27b6ce5b2f5e68ddb2fd95a8a909d4ecf1daaac270935fff052feacb24f184281856125e05750805b846080528060206080a15050506113c1565b600081815260018301602052604081205461263957508154600181810184556000848152602080822090930184905584548482528286019093526040902091909155610626565b506000610626565b600082600101826040516126559190613fc0565b9081526040519081900360200190205415159392505050565b805160000361269057604051630c7af40f60e41b815260040160405180910390fd5b8351158061269d57508251155b806126a757508151155b156126c557604051638baa579f60e01b815260040160405180910390fd5b8351602085012060006126d88286612a23565b905060006126ee826001600160a01b0316611ecb565b90506000805b855181108015612702575081155b156127af57600086828151811061271b5761271b613df4565b602002602001015190506000612739826001600160a01b0316611ecb565b905060008186604051602001612750929190613ed1565b60408051601f19818403018152919052805160208201209091506000612776828d612a23565b9050846001600160a01b0316816001600160a01b03160361279f576001965050505050506127af565b85600101955050505050506126f4565b816127cd57604051638baa579f60e01b815260040160405180910390fd5b505050505050505050565b600080608083901c156127f05760809290921c916010015b604083901c156128055760409290921c916008015b602083901c1561281a5760209290921c916004015b601083901c1561282f5760109290921c916002015b600883901c156106265760010192915050565b60606000612851836002613fdc565b61285c906002613ff3565b67ffffffffffffffff81111561287457612874613912565b6040519080825280601f01601f19166020018201604052801561289e576020820181803683370190505b5090507f3000000000000000000000000000000000000000000000000000000000000000816000815181106128d5576128d5613df4565b60200101906001600160f81b031916908160001a9053507f78000000000000000000000000000000000000000000000000000000000000008160018151811061292057612920613df4565b60200101906001600160f81b031916908160001a9053506000612944846002613fdc565b61294f906001613ff3565b90505b60018111156129d4577f303132333435363738396162636465660000000000000000000000000000000085600f166010811061299057612990613df4565b1a60f81b8282815181106129a6576129a6613df4565b60200101906001600160f81b031916908160001a90535060049490941c936129cd81614006565b9050612952565b508315611be45760405162461bcd60e51b815260206004820181905260248201527f537472696e67733a20686578206c656e67746820696e73756666696369656e746044820152606401610775565b6000806000612a328585613002565b9150915061131f81613047565b6000612a4b8383612641565b61263957825460018101845560008481526020902001612a6b8382613f00565b5082546040516001850190612a81908590613fc0565b90815260405190819003602001902055506001610626565b612aa383836131ac565b612ab06000848484612d96565b6108345760405162461bcd60e51b815260206004820152603260248201527f4552433732313a207472616e7366657220746f206e6f6e20455243373231526560448201527131b2b4bb32b91034b6b83632b6b2b73a32b960711b6064820152608401610775565b60008181526001830160205260408120548015612c00576000612b3b60018361401d565b8554909150600090612b4f9060019061401d565b9050818114612bb4576000866000018281548110612b6f57612b6f613df4565b9060005260206000200154905080876000018481548110612b9257612b92613df4565b6000918252602080832090910192909255918252600188019052604090208390555b8554869080612bc557612bc5614030565b600190038181906000526020600020016000905590558560010160008681526020019081526020016000206000905560019350505050610626565b6000915050610626565b600054610100900460ff16612c755760405162461bcd60e51b815260206004820152602b60248201527f496e697469616c697a61626c653a20636f6e7472616374206973206e6f74206960448201526a6e697469616c697a696e6760a81b6064820152608401610775565b609a612c818382613f00565b50609b6108348282613f00565b600054610100900460ff16612cf95760405162461bcd60e51b815260206004820152602b60248201527f496e697469616c697a61626c653a20636f6e7472616374206973206e6f74206960448201526a6e697469616c697a696e6760a81b6064820152608401610775565b610a8261334f565b600054610100900460ff16610a825760405162461bcd60e51b815260206004820152602b60248201527f496e697469616c697a61626c653a20636f6e7472616374206973206e6f74206960448201526a6e697469616c697a696e6760a81b6064820152608401610775565b6000826000018281548110612d8357612d83613df4565b9060005260206000200154905092915050565b60006001600160a01b0384163b15612ed757604051630a85bd0160e11b81526001600160a01b0385169063150b7a0290612dda903390899088908890600401614046565b6020604051808303816000875af1925050508015612e15575060408051601f3d908101601f19168201909252612e1291810190614082565b60015b612ebd573d808015612e43576040519150601f19603f3d011682016040523d82523d6000602084013e612e48565b606091505b508051600003612eb55760405162461bcd60e51b815260206004820152603260248201527f4552433732313a207472616e7366657220746f206e6f6e20455243373231526560448201527131b2b4bb32b91034b6b83632b6b2b73a32b960711b6064820152608401610775565b805181602001fd5b6001600160e01b031916630a85bd0160e11b149050611956565b506001949350505050565b6060612eed8261180d565b6000612f0460408051602081019091526000815290565b90506000815111612f245760405180602001604052806000815250611be4565b80612f2e846133c3565b604051602001612f3f929190613ed1565b6040516020818303038152906040529392505050565b6000612f6082610971565b9050612f70816000846001612559565b612f7982610971565b6000838152609e6020908152604080832080546001600160a01b03199081169091556001600160a01b038516808552609d84528285208054600019019055878552609c909352818420805490911690555192935084927fddf252ad1be2c89b69c2b068fc378daa952ba7f163c4a11628f55a4df523b3ef908390a4611272816000846001612595565b60008082516041036130385760208301516040840151606085015160001a61302c87828585613463565b94509450505050613040565b506000905060025b9250929050565b600081600481111561305b5761305b61409f565b036130635750565b60018160048111156130775761307761409f565b036130c45760405162461bcd60e51b815260206004820152601860248201527f45434453413a20696e76616c6964207369676e617475726500000000000000006044820152606401610775565b60028160048111156130d8576130d861409f565b036131255760405162461bcd60e51b815260206004820152601f60248201527f45434453413a20696e76616c6964207369676e6174757265206c656e677468006044820152606401610775565b60038160048111156131395761313961409f565b036112555760405162461bcd60e51b815260206004820152602260248201527f45434453413a20696e76616c6964207369676e6174757265202773272076616c60448201527f75650000000000000000000000000000000000000000000000000000000000006064820152608401610775565b6001600160a01b0382166132025760405162461bcd60e51b815260206004820181905260248201527f4552433732313a206d696e7420746f20746865207a65726f20616464726573736044820152606401610775565b6000818152609c60205260409020546001600160a01b0316156132675760405162461bcd60e51b815260206004820152601c60248201527f4552433732313a20746f6b656e20616c7265616479206d696e746564000000006044820152606401610775565b613275600083836001612559565b6000818152609c60205260409020546001600160a01b0316156132da5760405162461bcd60e51b815260206004820152601c60248201527f4552433732313a20746f6b656e20616c7265616479206d696e746564000000006044820152606401610775565b6001600160a01b0382166000818152609d6020908152604080832080546001019055848352609c90915280822080546001600160a01b0319168417905551839291907fddf252ad1be2c89b69c2b068fc378daa952ba7f163c4a11628f55a4df523b3ef908290a4611272600083836001612595565b600054610100900460ff166133ba5760405162461bcd60e51b815260206004820152602b60248201527f496e697469616c697a61626c653a20636f6e7472616374206973206e6f74206960448201526a6e697469616c697a696e6760a81b6064820152608401610775565b610a8233611c00565b606060006133d083613527565b600101905060008167ffffffffffffffff8111156133f0576133f0613912565b6040519080825280601f01601f19166020018201604052801561341a576020820181803683370190505b5090508181016020015b600019017f3031323334353637383961626364656600000000000000000000000000000000600a86061a8153600a850494508461342457509392505050565b6000807f7fffffffffffffffffffffffffffffff5d576e7357a4501ddfe92f46681b20a083111561349a575060009050600361351e565b6040805160008082526020820180845289905260ff881692820192909252606081018690526080810185905260019060a0016020604051602081039080840390855afa1580156134ee573d6000803e3d6000fd5b5050604051601f1901519150506001600160a01b0381166135175760006001925092505061351e565b9150600090505b94509492505050565b6000807a184f03e93ff9f4daa797ed6e38ed64bf6a1f0100000000000000008310613570577a184f03e93ff9f4daa797ed6e38ed64bf6a1f010000000000000000830492506040015b6d04ee2d6d415b85acef8100000000831061359c576d04ee2d6d415b85acef8100000000830492506020015b662386f26fc1000083106135ba57662386f26fc10000830492506010015b6305f5e10083106135d2576305f5e100830492506008015b61271083106135e657612710830492506004015b606483106135f8576064830492506002015b600a83106106265760010192915050565b50805461361590613b27565b6000825580601f10613625575050565b601f01602090049060005260206000209081019061125591905b80821115613653576000815560010161363f565b5090565b6001600160e01b03198116811461125557600080fd5b60006020828403121561367f57600080fd5b8135611be481613657565b60005b838110156136a557818101518382015260200161368d565b50506000910152565b600081518084526136c681602086016020860161368a565b601f01601f19169290920160200192915050565b602081526000611be460208301846136ae565b6000602082840312156136ff57600080fd5b5035919050565b80356001600160a01b038116811461371d57600080fd5b919050565b6000806040838503121561373557600080fd5b61373e83613706565b946020939093013593505050565b60008060006060848603121561376157600080fd5b61376a84613706565b925061377860208501613706565b9150604084013590509250925092565b60006020828403121561379a57600080fd5b611be482613706565b60008083601f8401126137b557600080fd5b50813567ffffffffffffffff8111156137cd57600080fd5b60208301915083602082850101111561304057600080fd5b600080600080600080608087890312156137fe57600080fd5b61380787613706565b9550602087013567ffffffffffffffff8082111561382457600080fd5b9088019060c0828b03121561383857600080fd5b9095506040880135908082111561384e57600080fd5b61385a8a838b016137a3565b9096509450606089013591508082111561387357600080fd5b5061388089828a016137a3565b979a9699509497509295939492505050565b600080604083850312156138a557600080fd5b6138ae83613706565b9150602083013580151581146138c357600080fd5b809150509250929050565b6020808252825182820181905260009190848201906040850190845b81811015613906578351835292840192918401916001016138ea565b50909695505050505050565b634e487b7160e01b600052604160045260246000fd5b6000806000806080858703121561393e57600080fd5b61394785613706565b935061395560208601613706565b925060408501359150606085013567ffffffffffffffff8082111561397957600080fd5b818701915087601f83011261398d57600080fd5b81358181111561399f5761399f613912565b604051601f8201601f19908116603f011681019083821181831017156139c7576139c7613912565b816040528281528a60208487010111156139e057600080fd5b82602086016020830137600060208483010152809550505050505092959194509250565b604081526000613a1760408301856136ae565b8281036020840152613a2981856136ae565b95945050505050565b600080600080600060608688031215613a4a57600080fd5b613a5386613706565b9450602086013567ffffffffffffffff80821115613a7057600080fd5b613a7c89838a016137a3565b90965094506040880135915080821115613a9557600080fd5b50613aa2888289016137a3565b969995985093965092949392505050565b60008060408385031215613ac657600080fd5b613acf83613706565b9150613add60208401613706565b90509250929050565b6020808252825182820181905260009190848201906040850190845b818110156139065783516001600160a01b031683529284019291840191600101613b02565b600181811c90821680613b3b57607f821691505b60208210810361134357634e487b7160e01b600052602260045260246000fd5b6000808335601e19843603018112613b7257600080fd5b83018035915067ffffffffffffffff821115613b8d57600080fd5b60200191503681900382131561304057600080fd5b60006bffffffffffffffffffffffff19808b60601b168352888a60148501378883016014810160008152888a82375087810190506014810160008152868882375060609490941b1692909301601481019290925250602801979650505050505050565b60008651613c17818460208b0161368a565b82018587823760009086019081528385823760009301928352509095945050505050565b848682376000858201602d60f81b808252858760018401376001918601918201528351613c6f81600284016020880161368a565b01600201979650505050505050565b8183823760009101908152919050565b601f82111561083457600081815260208120601f850160051c81016020861015613cb55750805b601f850160051c820191505b81811015613cd457828155600101613cc1565b505050505050565b67ffffffffffffffff831115613cf457613cf4613912565b613d0883613d028354613b27565b83613c8e565b6000601f841160018114613d3c5760008515613d245750838201355b600019600387901b1c1916600186901b178355613d96565b600083815260209020601f19861690835b82811015613d6d5786850135825560209485019460019092019101613d4d565b5086821015613d8a5760001960f88860031b161c19848701351681555b505060018560011b0183555b5050505050565b81835281816020850137506000828201602090810191909152601f909101601f19169091010190565b838152604060208201526000613a29604083018486613d9d565b602081526000611956602083018486613d9d565b634e487b7160e01b600052603260045260246000fd5b6000808354613e1881613b27565b60018281168015613e305760018114613e4557613e74565b60ff1984168752821515830287019450613e74565b8760005260208060002060005b85811015613e6b5781548a820152908401908201613e52565b50505082870194505b50929695505050505050565b60008351613e9281846020880161368a565b9190910191825250602001919050565b634e487b7160e01b600052601160045260246000fd5b600060018201613eca57613eca613ea2565b5060010190565b60008351613ee381846020880161368a565b835190830190613ef781836020880161368a565b01949350505050565b815167ffffffffffffffff811115613f1a57613f1a613912565b613f2e81613f288454613b27565b84613c8e565b602080601f831160018114613f635760008415613f4b5750858301515b600019600386901b1c1916600185901b178555613cd4565b600085815260208120601f198616915b82811015613f9257888601518255948401946001909101908401613f73565b5085821015613fb05787850151600019600388901b60f8161c191681555b5050505050600190811b01905550565b60008251613fd281846020870161368a565b9190910192915050565b808202811582820484141761062657610626613ea2565b8082018082111561062657610626613ea2565b60008161401557614015613ea2565b506000190190565b8181038181111561062657610626613ea2565b634e487b7160e01b600052603160045260246000fd5b60006001600160a01b0380871683528086166020840152508360408301526080606083015261407860808301846136ae565b9695505050505050565b60006020828403121561409457600080fd5b8151611be481613657565b634e487b7160e01b600052602160045260246000fdfea2646970667358221220f40bb488f199f8b78bb26b4c71a536b1c18b60076565d5ae1a9710af1eff7c6364736f6c63430008120033",
  "linkReferences": {},
  "deployedLinkReferences": {}
}